{
  "contractName": "DestructibleMiniMeTokenFactory",
  "abi": [
    {
      "constant": false,
      "inputs": [
        {
          "name": "_parentToken",
          "type": "address"
        },
        {
          "name": "_snapshotBlock",
          "type": "uint256"
        },
        {
          "name": "_tokenName",
          "type": "string"
        },
        {
          "name": "_decimalUnits",
          "type": "uint8"
        },
        {
          "name": "_tokenSymbol",
          "type": "string"
        },
        {
          "name": "_transfersEnabled",
          "type": "bool"
        }
      ],
      "name": "createDestructibleCloneToken",
      "outputs": [
        {
          "name": "",
          "type": "address"
        }
      ],
      "payable": false,
      "stateMutability": "nonpayable",
      "type": "function"
    }
  ],
  "bytecode": "0x608060405234801561001057600080fd5b50611f08806100206000396000f3006080604052600436106100405763ffffffff7c0100000000000000000000000000000000000000000000000000000000600035041663408e097c8114610045575b600080fd5b34801561005157600080fd5b50604080516020600460443581810135601f810184900484028501840190955284845261010694823573ffffffffffffffffffffffffffffffffffffffff1694602480359536959460649492019190819084018382808284375050604080516020601f818a01358b0180359182018390048302840183018552818452989b60ff8b35169b909a90999401975091955091820193509150819084018382808284375094975050505091351515925061012f915050565b6040805173ffffffffffffffffffffffffffffffffffffffff9092168252519081900360200190f35b6000803088888888888833610142610317565b73ffffffffffffffffffffffffffffffffffffffff808a1682528881166020808401919091526040830189905260ff8716608084015284151560c084015290831660e0830152610100606083018181528851918401919091528751909160a08401916101208501918a019080838360005b838110156101cb5781810151838201526020016101b3565b50505050905090810190601f1680156101f85780820380516001836020036101000a031916815260200191505b50838103825286518152865160209182019188019080838360005b8381101561022b578181015183820152602001610213565b50505050905090810190601f1680156102585780820380516001836020036101000a031916815260200191505b509a5050505050505050505050604051809103906000f080158015610281573d6000803e3d6000fd5b50604080517f3cebb823000000000000000000000000000000000000000000000000000000008152336004820152905191925073ffffffffffffffffffffffffffffffffffffffff831691633cebb8239160248082019260009290919082900301818387803b1580156102f357600080fd5b505af1158015610307573d6000803e3d6000fd5b50929a9950505050505050505050565b604051611bb58061032883390190560060c0604052600760808190527f4d4d545f302e320000000000000000000000000000000000000000000000000060a090815262000040916004919062000178565b503480156200004e57600080fd5b5060405162001bb538038062001bb58339810160409081528151602080840151928401516060850151608086015160a087015160c088015160e089015160008054600160a060020a03191633179055600b8054600160a060020a038a166101000261010060a860020a0319909116179055938901805197999597909693959290920193909290918991899189918991899189918991620000f49160019187019062000178565b506002805460ff191660ff851617905581516200011990600390602085019062000178565b5060058054600160a060020a0319908116600160a060020a0398891617909155600695909555600b805460ff191691151591909117905550504360075550600c80549091169390911692909217909155506200021d9650505050505050565b828054600181600116156101000203166002900490600052602060002090601f016020900481019282601f10620001bb57805160ff1916838001178555620001eb565b82800160010185558215620001eb579182015b82811115620001eb578251825591602001919060010190620001ce565b50620001f9929150620001fd565b5090565b6200021a91905b80821115620001f9576000815560010162000204565b90565b611988806200022d6000396000f3006080604052600436106101455763ffffffff60e060020a60003504166306fdde038114610205578063095ea7b31461028f5780630f23cbaa146102c757806317634514146102dc57806318160ddd1461030357806323b872dd14610318578063313ce567146103425780633cebb8231461036d5780634ee2cd7e1461038e57806354fd4d50146103b25780636638c087146103c757806370a082311461048a57806380a54001146104ab578063827f32c0146104c057806395d89b41146104e4578063981b24d0146104f9578063a9059cbb14610511578063a9898b9b14610535578063bef97c871461054a578063c5bcc4f11461055f578063cae9ca5114610574578063d3ce77fe146105dd578063dd62ed3e14610601578063df8de3e714610628578063e77772fe14610649578063f41e60c51461065e578063f77c479114610678575b60005461015a90600160a060020a031661068d565b151561016557600080fd5b600054604080517ff48c30540000000000000000000000000000000000000000000000000000000081523360048201529051600160a060020a039092169163f48c3054913491602480830192602092919082900301818588803b1580156101cb57600080fd5b505af11580156101df573d6000803e3d6000fd5b50505050506040513d60208110156101f657600080fd5b5051151561020357600080fd5b005b34801561021157600080fd5b5061021a6106ba565b6040805160208082528351818301528351919283929083019185019080838360005b8381101561025457818101518382015260200161023c565b50505050905090810190601f1680156102815780820380516001836020036101000a031916815260200191505b509250505060405180910390f35b34801561029b57600080fd5b506102b3600160a060020a0360043516602435610747565b604080519115158252519081900360200190f35b3480156102d357600080fd5b506102036108c5565b3480156102e857600080fd5b506102f16108ea565b60408051918252519081900360200190f35b34801561030f57600080fd5b506102f16108f0565b34801561032457600080fd5b506102b3600160a060020a0360043581169060243516604435610901565b34801561034e57600080fd5b50610357610995565b6040805160ff9092168252519081900360200190f35b34801561037957600080fd5b50610203600160a060020a036004351661099e565b34801561039a57600080fd5b506102f1600160a060020a03600435166024356109e4565b3480156103be57600080fd5b5061021a610b31565b3480156103d357600080fd5b506040805160206004803580820135601f810184900484028501840190955284845261046e94369492936024939284019190819084018382808284375050604080516020601f818a01358b0180359182018390048302840183018552818452989b60ff8b35169b909a909994019750919550918201935091508190840183828082843750949750508435955050505050602001351515610b8c565b60408051600160a060020a039092168252519081900360200190f35b34801561049657600080fd5b506102f1600160a060020a0360043516610de6565b3480156104b757600080fd5b5061046e610dfa565b3480156104cc57600080fd5b506102b3600160a060020a0360043516602435610e09565b3480156104f057600080fd5b5061021a610ec3565b34801561050557600080fd5b506102f1600435610f1e565b34801561051d57600080fd5b506102b3600160a060020a0360043516602435611012565b34801561054157600080fd5b5061046e61103a565b34801561055657600080fd5b506102b3611049565b34801561056b57600080fd5b506102f1611052565b34801561058057600080fd5b50604080516020600460443581810135601f81018490048402850184019095528484526102b3948235600160a060020a03169460248035953695946064949201919081908401838280828437509497506110589650505050505050565b3480156105e957600080fd5b506102b3600160a060020a0360043516602435611173565b34801561060d57600080fd5b506102f1600160a060020a0360043581169060243516611229565b34801561063457600080fd5b50610203600160a060020a0360043516611254565b34801561065557600080fd5b5061046e61143b565b34801561066a57600080fd5b50610203600435151561144f565b34801561068457600080fd5b5061046e611479565b600080600160a060020a03831615156106a957600091506106b4565b823b90506000811191505b50919050565b60018054604080516020600284861615610100026000190190941693909304601f8101849004840282018401909252818152929183018282801561073f5780601f106107145761010080835404028352916020019161073f565b820191906000526020600020905b81548152906001019060200180831161072257829003601f168201915b505050505081565b600b5460009060ff16151561075b57600080fd5b8115806107895750336000908152600960209081526040808320600160a060020a0387168452909152902054155b151561079457600080fd5b6000546107a990600160a060020a031661068d565b1561085d5760008054604080517fda682aeb000000000000000000000000000000000000000000000000000000008152336004820152600160a060020a038781166024830152604482018790529151919092169263da682aeb92606480820193602093909283900390910190829087803b15801561082657600080fd5b505af115801561083a573d6000803e3d6000fd5b505050506040513d602081101561085057600080fd5b5051151561085d57600080fd5b336000818152600960209081526040808320600160a060020a03881680855290835292819020869055805186815290519293927f8c5be1e5ebec7d5bd14f71427d1e84f3dd0314c0f7b2291e5b200ac8c7c3b925929181900390910190a35060015b92915050565b600c54600160a060020a031633146108dc57600080fd5b600c54600160a060020a0316ff5b60075481565b60006108fb43610f1e565b90505b90565b60008054600160a060020a0316331461098057600b5460ff16151561092557600080fd5b600160a060020a038416600090815260096020908152604080832033845290915290205482111561095557600080fd5b600160a060020a03841660009081526009602090815260408083203384529091529020805483900390555b61098b848484611488565b5060019392505050565b60025460ff1681565b600054600160a060020a031633146109b557600080fd5b6000805473ffffffffffffffffffffffffffffffffffffffff1916600160a060020a0392909216919091179055565b600160a060020a0382166000908152600860205260408120541580610a405750600160a060020a038316600090815260086020526040812080548492908110610a2957fe5b6000918252602090912001546001608060020a0316115b15610b0857600554600160a060020a031615610b0057600554600654600160a060020a0390911690634ee2cd7e908590610a7b908690611692565b6040518363ffffffff1660e060020a0281526004018083600160a060020a0316600160a060020a0316815260200182815260200192505050602060405180830381600087803b158015610acd57600080fd5b505af1158015610ae1573d6000803e3d6000fd5b505050506040513d6020811015610af757600080fd5b505190506108bf565b5060006108bf565b600160a060020a0383166000908152600860205260409020610b2a90836116aa565b90506108bf565b6004805460408051602060026001851615610100026000190190941693909304601f8101849004840282018401909252818152929183018282801561073f5780601f106107145761010080835404028352916020019161073f565b600080831515610b9a574393505b600b546040517f5b7b72c100000000000000000000000000000000000000000000000000000000815230600482018181526024830188905260ff8a16606484015286151560a484015260c0604484019081528b5160c48501528b51610100909504600160a060020a031694635b7b72c1948a938e938e938e938d939291608482019160e40190602089019080838360005b83811015610c43578181015183820152602001610c2b565b50505050905090810190601f168015610c705780820380516001836020036101000a031916815260200191505b50838103825285518152855160209182019187019080838360005b83811015610ca3578181015183820152602001610c8b565b50505050905090810190601f168015610cd05780820380516001836020036101000a031916815260200191505b5098505050505050505050602060405180830381600087803b158015610cf557600080fd5b505af1158015610d09573d6000803e3d6000fd5b505050506040513d6020811015610d1f57600080fd5b5051604080517f3cebb8230000000000000000000000000000000000000000000000000000000081523360048201529051919250600160a060020a03831691633cebb8239160248082019260009290919082900301818387803b158015610d8557600080fd5b505af1158015610d99573d6000803e3d6000fd5b5050604080518781529051600160a060020a03851693507f086c875b377f900b07ce03575813022f05dd10ed7640b5282cf6d3c3fc352ade92509081900360200190a29695505050505050565b6000610df282436109e4565b90505b919050565b600554600160a060020a031681565b6000805481908190600160a060020a03163314610e2557600080fd5b610e2d6108f0565b9150838201821115610e3e57600080fd5b610e4785610de6565b9050838101811115610e5857600080fd5b610e65600a858401611809565b600160a060020a0385166000908152600860205260409020610e8990828601611809565b604080518581529051600160a060020a0387169160009160008051602061193d8339815191529181900360200190a3506001949350505050565b6003805460408051602060026001851615610100026000190190941693909304601f8101849004840282018401909252818152929183018282801561073f5780601f106107145761010080835404028352916020019161073f565b600a546000901580610f53575081600a6000815481101515610f3c57fe5b6000918252602090912001546001608060020a0316115b1561100057600554600160a060020a031615610ff857600554600654600160a060020a039091169063981b24d090610f8c908590611692565b6040518263ffffffff1660e060020a02815260040180828152602001915050602060405180830381600087803b158015610fc557600080fd5b505af1158015610fd9573d6000803e3d6000fd5b505050506040513d6020811015610fef57600080fd5b50519050610df5565b506000610df5565b61100b600a836116aa565b9050610df5565b600b5460009060ff16151561102657600080fd5b611031338484611488565b50600192915050565b600c54600160a060020a031681565b600b5460ff1681565b60065481565b60006110648484610747565b151561106f57600080fd5b6040517f8f4ffcb10000000000000000000000000000000000000000000000000000000081523360048201818152602483018690523060448401819052608060648501908152865160848601528651600160a060020a038a1695638f4ffcb195948a94938a939192909160a490910190602085019080838360005b838110156111025781810151838201526020016110ea565b50505050905090810190601f16801561112f5780820380516001836020036101000a031916815260200191505b5095505050505050600060405180830381600087803b15801561115157600080fd5b505af1158015611165573d6000803e3d6000fd5b506001979650505050505050565b6000805481908190600160a060020a0316331461118f57600080fd5b6111976108f0565b9150838210156111a657600080fd5b6111af85610de6565b9050838110156111be57600080fd5b6111cb600a858403611809565b600160a060020a03851660009081526008602052604090206111ef90858303611809565b604080518581529051600091600160a060020a0388169160008051602061193d8339815191529181900360200190a3506001949350505050565b600160a060020a03918216600090815260096020908152604080832093909416825291909152205490565b600080548190600160a060020a0316331461126e57600080fd5b600160a060020a03831615156112bf5760008054604051600160a060020a0390911691303180156108fc02929091818181858888f193505050501580156112b9573d6000803e3d6000fd5b50611436565b604080517f70a082310000000000000000000000000000000000000000000000000000000081523060048201529051849350600160a060020a038416916370a082319160248083019260209291908290030181600087803b15801561132357600080fd5b505af1158015611337573d6000803e3d6000fd5b505050506040513d602081101561134d57600080fd5b505160008054604080517fa9059cbb000000000000000000000000000000000000000000000000000000008152600160a060020a0392831660048201526024810185905290519394509085169263a9059cbb92604480840193602093929083900390910190829087803b1580156113c357600080fd5b505af11580156113d7573d6000803e3d6000fd5b505050506040513d60208110156113ed57600080fd5b5050600054604080518381529051600160a060020a03928316928616917ff931edb47c50b4b4104c187b5814a9aef5f709e17e2ecf9617e860cacade929c919081900360200190a35b505050565b600b546101009004600160a060020a031681565b600054600160a060020a0316331461146657600080fd5b600b805460ff1916911515919091179055565b600054600160a060020a031681565b6000808215156114d05783600160a060020a031685600160a060020a031660008051602061193d833981519152856040518082815260200191505060405180910390a361168b565b60065443116114de57600080fd5b600160a060020a038416158015906114ff5750600160a060020a0384163014155b151561150a57600080fd5b61151485436109e4565b91508282101561152357600080fd5b60005461153890600160a060020a031661068d565b156115ee5760008054604080517f4a393149000000000000000000000000000000000000000000000000000000008152600160a060020a03898116600483015288811660248301526044820188905291519190921692634a39314992606480820193602093909283900390910190829087803b1580156115b757600080fd5b505af11580156115cb573d6000803e3d6000fd5b505050506040513d60208110156115e157600080fd5b505115156115ee57600080fd5b600160a060020a038516600090815260086020526040902061161290848403611809565b61161c84436109e4565b905082810181111561162d57600080fd5b600160a060020a038416600090815260086020526040902061165190828501611809565b83600160a060020a031685600160a060020a031660008051602061193d833981519152856040518082815260200191505060405180910390a35b5050505050565b60008183106116a157816116a3565b825b9392505050565b6000806000808580549050600014156116c65760009350611800565b8554869060001981019081106116d857fe5b6000918252602090912001546001608060020a031685106117355785548690600019810190811061170557fe5b60009182526020909120015470010000000000000000000000000000000090046001608060020a03169350611800565b85600081548110151561174457fe5b6000918252602090912001546001608060020a03168510156117695760009350611800565b8554600093506000190191505b828211156117c657600260018385010104905084868281548110151561179857fe5b6000918252602090912001546001608060020a0316116117ba578092506117c1565b6001810391505b611776565b85838154811015156117d457fe5b60009182526020909120015470010000000000000000000000000000000090046001608060020a031693505b50505092915050565b8154600090819015806118425750835443908590600019810190811061182b57fe5b6000918252602090912001546001608060020a0316105b156118b4578354849061185882600183016118ff565b8154811061186257fe5b600091825260209091200180546001608060020a03858116700100000000000000000000000000000000024382166fffffffffffffffffffffffffffffffff19909316929092171617815591506118f9565b8354849060001981019081106118c657fe5b600091825260209091200180546001608060020a0380861670010000000000000000000000000000000002911617815590505b50505050565b815481835581811115611436576000838152602090206114369181019083016108fe91905b808211156119385760008155600101611924565b50905600ddf252ad1be2c89b69c2b068fc378daa952ba7f163c4a11628f55a4df523b3efa165627a7a7230582042252a5cf45189d5b18c64481f357255dd35e0b19d76773d43fbf1789906c9810029a165627a7a7230582008afe24ea0e1b515dd6859feafd347474b3b98cf18cb3a14b8a0518a2cb1aa860029",
  "source": "pragma solidity ^0.4.24;\n\nimport \"./DestructibleMiniMeToken.sol\";\n\n\ncontract DestructibleMiniMeTokenFactory {\n\n    /// @notice Update the DApp by creating a new token with new functionalities\n    ///  the msg.sender becomes the controller of this clone token\n    /// @param _parentToken Address of the token being cloned\n    /// @param _snapshotBlock Block of the parent token that will\n    ///  determine the initial distribution of the clone token\n    /// @param _tokenName Name of the new token\n    /// @param _decimalUnits Number of decimals of the new token\n    /// @param _tokenSymbol Token Symbol for the new token\n    /// @param _transfersEnabled If true, tokens will be able to be transferred\n    /// @return The address of the new token contract\n    function createDestructibleCloneToken(\n        address _parentToken,\n        uint _snapshotBlock,\n        string _tokenName,\n        uint8 _decimalUnits,\n        string _tokenSymbol,\n        bool _transfersEnabled\n    ) public returns (DestructibleMiniMeToken) {\n        DestructibleMiniMeToken newToken = new DestructibleMiniMeToken(\n            this,\n            _parentToken,\n            _snapshotBlock,\n            _tokenName,\n            _decimalUnits,\n            _tokenSymbol,\n            _transfersEnabled,\n            msg.sender\n        );\n\n        newToken.changeController(msg.sender);\n        return newToken;\n    }\n}\n",
  "sourcePath": "/Users/nikolaklipa/Decenter/community-gateway/solidity/contracts/DestructibleMiniMeTokenFactory.sol",
  "compiler": {
    "name": "solc",
    "version": "0.4.24+commit.e67f0147.Emscripten.clang"
  },
  "schemaVersion": "2.0.1",
  "updatedAt": "2018-08-24T10:54:20.035Z"
}