{
  "contractName": "DestructibleMiniMeToken",
  "abi": [
    {
      "constant": true,
      "inputs": [],
      "name": "name",
      "outputs": [
        {
          "name": "",
          "type": "string"
        }
      ],
      "payable": false,
      "stateMutability": "view",
      "type": "function"
    },
    {
      "constant": false,
      "inputs": [
        {
          "name": "_spender",
          "type": "address"
        },
        {
          "name": "_amount",
          "type": "uint256"
        }
      ],
      "name": "approve",
      "outputs": [
        {
          "name": "success",
          "type": "bool"
        }
      ],
      "payable": false,
      "stateMutability": "nonpayable",
      "type": "function"
    },
    {
      "constant": true,
      "inputs": [],
      "name": "creationBlock",
      "outputs": [
        {
          "name": "",
          "type": "uint256"
        }
      ],
      "payable": false,
      "stateMutability": "view",
      "type": "function"
    },
    {
      "constant": true,
      "inputs": [],
      "name": "totalSupply",
      "outputs": [
        {
          "name": "",
          "type": "uint256"
        }
      ],
      "payable": false,
      "stateMutability": "view",
      "type": "function"
    },
    {
      "constant": false,
      "inputs": [
        {
          "name": "_from",
          "type": "address"
        },
        {
          "name": "_to",
          "type": "address"
        },
        {
          "name": "_amount",
          "type": "uint256"
        }
      ],
      "name": "transferFrom",
      "outputs": [
        {
          "name": "success",
          "type": "bool"
        }
      ],
      "payable": false,
      "stateMutability": "nonpayable",
      "type": "function"
    },
    {
      "constant": true,
      "inputs": [],
      "name": "totalPledgedFees",
      "outputs": [
        {
          "name": "",
          "type": "uint256"
        }
      ],
      "payable": false,
      "stateMutability": "view",
      "type": "function"
    },
    {
      "constant": true,
      "inputs": [],
      "name": "decimals",
      "outputs": [
        {
          "name": "",
          "type": "uint8"
        }
      ],
      "payable": false,
      "stateMutability": "view",
      "type": "function"
    },
    {
      "constant": false,
      "inputs": [
        {
          "name": "_newController",
          "type": "address"
        }
      ],
      "name": "changeController",
      "outputs": [],
      "payable": false,
      "stateMutability": "nonpayable",
      "type": "function"
    },
    {
      "constant": false,
      "inputs": [
        {
          "name": "_value",
          "type": "uint256"
        }
      ],
      "name": "reducePledgedFees",
      "outputs": [
        {
          "name": "",
          "type": "bool"
        }
      ],
      "payable": false,
      "stateMutability": "nonpayable",
      "type": "function"
    },
    {
      "constant": true,
      "inputs": [
        {
          "name": "_owner",
          "type": "address"
        },
        {
          "name": "_blockNumber",
          "type": "uint256"
        }
      ],
      "name": "balanceOfAt",
      "outputs": [
        {
          "name": "",
          "type": "uint256"
        }
      ],
      "payable": false,
      "stateMutability": "view",
      "type": "function"
    },
    {
      "constant": false,
      "inputs": [
        {
          "name": "_value",
          "type": "uint256"
        }
      ],
      "name": "pledgeFees",
      "outputs": [
        {
          "name": "",
          "type": "bool"
        }
      ],
      "payable": false,
      "stateMutability": "nonpayable",
      "type": "function"
    },
    {
      "constant": true,
      "inputs": [],
      "name": "version",
      "outputs": [
        {
          "name": "",
          "type": "string"
        }
      ],
      "payable": false,
      "stateMutability": "view",
      "type": "function"
    },
    {
      "constant": false,
      "inputs": [
        {
          "name": "_cloneTokenName",
          "type": "string"
        },
        {
          "name": "_cloneDecimalUnits",
          "type": "uint8"
        },
        {
          "name": "_cloneTokenSymbol",
          "type": "string"
        },
        {
          "name": "_snapshotBlock",
          "type": "uint256"
        },
        {
          "name": "_transfersEnabled",
          "type": "bool"
        }
      ],
      "name": "createCloneToken",
      "outputs": [
        {
          "name": "",
          "type": "address"
        }
      ],
      "payable": false,
      "stateMutability": "nonpayable",
      "type": "function"
    },
    {
      "constant": true,
      "inputs": [
        {
          "name": "_owner",
          "type": "address"
        }
      ],
      "name": "balanceOf",
      "outputs": [
        {
          "name": "balance",
          "type": "uint256"
        }
      ],
      "payable": false,
      "stateMutability": "view",
      "type": "function"
    },
    {
      "constant": true,
      "inputs": [],
      "name": "parentToken",
      "outputs": [
        {
          "name": "",
          "type": "address"
        }
      ],
      "payable": false,
      "stateMutability": "view",
      "type": "function"
    },
    {
      "constant": false,
      "inputs": [
        {
          "name": "_owner",
          "type": "address"
        },
        {
          "name": "_amount",
          "type": "uint256"
        }
      ],
      "name": "generateTokens",
      "outputs": [
        {
          "name": "",
          "type": "bool"
        }
      ],
      "payable": false,
      "stateMutability": "nonpayable",
      "type": "function"
    },
    {
      "constant": true,
      "inputs": [],
      "name": "symbol",
      "outputs": [
        {
          "name": "",
          "type": "string"
        }
      ],
      "payable": false,
      "stateMutability": "view",
      "type": "function"
    },
    {
      "constant": true,
      "inputs": [
        {
          "name": "_blockNumber",
          "type": "uint256"
        }
      ],
      "name": "totalSupplyAt",
      "outputs": [
        {
          "name": "",
          "type": "uint256"
        }
      ],
      "payable": false,
      "stateMutability": "view",
      "type": "function"
    },
    {
      "constant": false,
      "inputs": [
        {
          "name": "_to",
          "type": "address"
        },
        {
          "name": "_amount",
          "type": "uint256"
        }
      ],
      "name": "transfer",
      "outputs": [
        {
          "name": "success",
          "type": "bool"
        }
      ],
      "payable": false,
      "stateMutability": "nonpayable",
      "type": "function"
    },
    {
      "constant": true,
      "inputs": [],
      "name": "terminator",
      "outputs": [
        {
          "name": "",
          "type": "address"
        }
      ],
      "payable": false,
      "stateMutability": "view",
      "type": "function"
    },
    {
      "constant": true,
      "inputs": [],
      "name": "transfersEnabled",
      "outputs": [
        {
          "name": "",
          "type": "bool"
        }
      ],
      "payable": false,
      "stateMutability": "view",
      "type": "function"
    },
    {
      "constant": true,
      "inputs": [],
      "name": "parentSnapShotBlock",
      "outputs": [
        {
          "name": "",
          "type": "uint256"
        }
      ],
      "payable": false,
      "stateMutability": "view",
      "type": "function"
    },
    {
      "constant": true,
      "inputs": [
        {
          "name": "_blockNumber",
          "type": "uint256"
        }
      ],
      "name": "totalPledgedFeesAt",
      "outputs": [
        {
          "name": "",
          "type": "uint256"
        }
      ],
      "payable": false,
      "stateMutability": "view",
      "type": "function"
    },
    {
      "constant": false,
      "inputs": [
        {
          "name": "_spender",
          "type": "address"
        },
        {
          "name": "_amount",
          "type": "uint256"
        },
        {
          "name": "_extraData",
          "type": "bytes"
        }
      ],
      "name": "approveAndCall",
      "outputs": [
        {
          "name": "success",
          "type": "bool"
        }
      ],
      "payable": false,
      "stateMutability": "nonpayable",
      "type": "function"
    },
    {
      "constant": false,
      "inputs": [
        {
          "name": "_owner",
          "type": "address"
        },
        {
          "name": "_amount",
          "type": "uint256"
        }
      ],
      "name": "destroyTokens",
      "outputs": [
        {
          "name": "",
          "type": "bool"
        }
      ],
      "payable": false,
      "stateMutability": "nonpayable",
      "type": "function"
    },
    {
      "constant": true,
      "inputs": [
        {
          "name": "_owner",
          "type": "address"
        },
        {
          "name": "_spender",
          "type": "address"
        }
      ],
      "name": "allowance",
      "outputs": [
        {
          "name": "remaining",
          "type": "uint256"
        }
      ],
      "payable": false,
      "stateMutability": "view",
      "type": "function"
    },
    {
      "constant": true,
      "inputs": [],
      "name": "tokenFactory",
      "outputs": [
        {
          "name": "",
          "type": "address"
        }
      ],
      "payable": false,
      "stateMutability": "view",
      "type": "function"
    },
    {
      "constant": false,
      "inputs": [
        {
          "name": "_transfersEnabled",
          "type": "bool"
        }
      ],
      "name": "enableTransfers",
      "outputs": [],
      "payable": false,
      "stateMutability": "nonpayable",
      "type": "function"
    },
    {
      "constant": true,
      "inputs": [],
      "name": "controller",
      "outputs": [
        {
          "name": "",
          "type": "address"
        }
      ],
      "payable": false,
      "stateMutability": "view",
      "type": "function"
    },
    {
      "inputs": [
        {
          "name": "_tokenFactory",
          "type": "address"
        },
        {
          "name": "_parentToken",
          "type": "address"
        },
        {
          "name": "_parentSnapShotBlock",
          "type": "uint256"
        },
        {
          "name": "_tokenName",
          "type": "string"
        },
        {
          "name": "_decimalUnits",
          "type": "uint8"
        },
        {
          "name": "_tokenSymbol",
          "type": "string"
        },
        {
          "name": "_transfersEnabled",
          "type": "bool"
        },
        {
          "name": "_terminator",
          "type": "address"
        }
      ],
      "payable": false,
      "stateMutability": "nonpayable",
      "type": "constructor"
    },
    {
      "payable": true,
      "stateMutability": "payable",
      "type": "fallback"
    },
    {
      "anonymous": false,
      "inputs": [
        {
          "indexed": true,
          "name": "_token",
          "type": "address"
        },
        {
          "indexed": true,
          "name": "_controller",
          "type": "address"
        },
        {
          "indexed": false,
          "name": "_amount",
          "type": "uint256"
        }
      ],
      "name": "ClaimedTokens",
      "type": "event"
    },
    {
      "anonymous": false,
      "inputs": [
        {
          "indexed": true,
          "name": "_from",
          "type": "address"
        },
        {
          "indexed": true,
          "name": "_to",
          "type": "address"
        },
        {
          "indexed": false,
          "name": "_amount",
          "type": "uint256"
        }
      ],
      "name": "Transfer",
      "type": "event"
    },
    {
      "anonymous": false,
      "inputs": [
        {
          "indexed": true,
          "name": "_cloneToken",
          "type": "address"
        },
        {
          "indexed": false,
          "name": "_snapshotBlock",
          "type": "uint256"
        }
      ],
      "name": "NewCloneToken",
      "type": "event"
    },
    {
      "anonymous": false,
      "inputs": [
        {
          "indexed": true,
          "name": "_owner",
          "type": "address"
        },
        {
          "indexed": true,
          "name": "_spender",
          "type": "address"
        },
        {
          "indexed": false,
          "name": "_amount",
          "type": "uint256"
        }
      ],
      "name": "Approval",
      "type": "event"
    },
    {
      "constant": false,
      "inputs": [],
      "name": "recycle",
      "outputs": [],
      "payable": false,
      "stateMutability": "nonpayable",
      "type": "function"
    }
  ],
  "bytecode": "0x60c0604052600760808190527f4546585f302e310000000000000000000000000000000000000000000000000060a09081526200004091600491906200020c565b503480156200004e57600080fd5b5060405162001dea38038062001dea83398101806040526101008110156200007557600080fd5b8151602083015160408401516060850180519395929491939183019291640100000000811115620000a557600080fd5b82016020810184811115620000b957600080fd5b8151640100000000811182820187101715620000d457600080fd5b50506020820151604090920180519194929391640100000000811115620000fa57600080fd5b820160208101848111156200010e57600080fd5b81516401000000008111828201871017156200012957600080fd5b50506020828101516040909301516000805433600160a060020a031991821617909155600d8054909116600160a060020a038d16179055875192955092935089918991899189918991899189916200018891600191908701906200020c565b506002805460ff191660ff85161790558151620001ad9060039060208501906200020c565b5060058054600160a060020a0319908116600160a060020a0398891617909155600695909555600b805460ff191691151591909117905550504360075550600e8054909116939091169290921790915550620002b19650505050505050565b828054600181600116156101000203166002900490600052602060002090601f016020900481019282601f106200024f57805160ff19168380011785556200027f565b828001600101855582156200027f579182015b828111156200027f57825182559160200191906001019062000262565b506200028d92915062000291565b5090565b620002ae91905b808211156200028d576000815560010162000298565b90565b611b2980620002c16000396000f3fe6080604052600436106101665763ffffffff60e060020a60003504166306fdde038114610226578063095ea7b3146102b05780630f23cbaa146102fd578063176345141461031257806318160ddd1461033957806323b872dd1461034e578063311325bd14610391578063313ce567146103a65780633cebb823146103d1578063486575a5146104045780634ee2cd7e1461042e5780634fa7e3531461046757806354fd4d50146104915780636638c087146104a657806370a082311461060e57806380a5400114610641578063827f32c01461065657806395d89b411461068f578063981b24d0146106a4578063a9059cbb146106ce578063a9898b9b14610707578063bef97c871461071c578063c5bcc4f114610731578063c6d1d23d14610746578063cae9ca5114610770578063d3ce77fe14610838578063dd62ed3e14610871578063e77772fe146108ac578063f41e60c5146108c1578063f77c4791146108ed575b60005461017b90600160a060020a0316610902565b151561018657600080fd5b600054604080517ff48c30540000000000000000000000000000000000000000000000000000000081523360048201529051600160a060020a039092169163f48c3054913491602480830192602092919082900301818588803b1580156101ec57600080fd5b505af1158015610200573d6000803e3d6000fd5b50505050506040513d602081101561021757600080fd5b5051151561022457600080fd5b005b34801561023257600080fd5b5061023b61092c565b6040805160208082528351818301528351919283929083019185019080838360005b8381101561027557818101518382015260200161025d565b50505050905090810190601f1680156102a25780820380516001836020036101000a031916815260200191505b509250505060405180910390f35b3480156102bc57600080fd5b506102e9600480360360408110156102d357600080fd5b50600160a060020a0381351690602001356109b9565b604080519115158252519081900360200190f35b34801561030957600080fd5b50610224610b37565b34801561031e57600080fd5b50610327610b5c565b60408051918252519081900360200190f35b34801561034557600080fd5b50610327610b62565b34801561035a57600080fd5b506102e96004803603606081101561037157600080fd5b50600160a060020a03813581169160208101359091169060400135610b73565b34801561039d57600080fd5b50610327610c34565b3480156103b257600080fd5b506103bb610c3f565b6040805160ff9092168252519081900360200190f35b3480156103dd57600080fd5b50610224600480360360208110156103f457600080fd5b5035600160a060020a0316610c48565b34801561041057600080fd5b506102e96004803603602081101561042757600080fd5b5035610c8e565b34801561043a57600080fd5b506103276004803603604081101561045157600080fd5b50600160a060020a038135169060200135610cd5565b34801561047357600080fd5b506102e96004803603602081101561048a57600080fd5b5035610e20565b34801561049d57600080fd5b5061023b610e60565b3480156104b257600080fd5b506105f2600480360360a08110156104c957600080fd5b8101906020810181356401000000008111156104e457600080fd5b8201836020820111156104f657600080fd5b8035906020019184600183028401116401000000008311171561051857600080fd5b91908080601f016020809104026020016040519081016040528093929190818152602001838380828437600092019190915250929560ff85351695909490935060408101925060200135905064010000000081111561057657600080fd5b82018360208201111561058857600080fd5b803590602001918460018302840111640100000000831117156105aa57600080fd5b91908080601f01602080910402602001604051908101604052809392919081815260200183838082843760009201919091525092955050823593505050602001351515610ebb565b60408051600160a060020a039092168252519081900360200190f35b34801561061a57600080fd5b506103276004803603602081101561063157600080fd5b5035600160a060020a031661111e565b34801561064d57600080fd5b506105f261112a565b34801561066257600080fd5b506102e96004803603604081101561067957600080fd5b50600160a060020a038135169060200135611139565b34801561069b57600080fd5b5061023b6111f3565b3480156106b057600080fd5b50610327600480360360208110156106c757600080fd5b503561124e565b3480156106da57600080fd5b506102e9600480360360408110156106f157600080fd5b50600160a060020a038135169060200135611340565b34801561071357600080fd5b506105f261135f565b34801561072857600080fd5b506102e961136e565b34801561073d57600080fd5b50610327611377565b34801561075257600080fd5b506103276004803603602081101561076957600080fd5b503561137d565b34801561077c57600080fd5b506102e96004803603606081101561079357600080fd5b600160a060020a03823516916020810135918101906060810160408201356401000000008111156107c357600080fd5b8201836020820111156107d557600080fd5b803590602001918460018302840111640100000000831117156107f757600080fd5b91908080601f0160208091040260200160405190810160405280939291908181526020018383808284376000920191909152509295506113f6945050505050565b34801561084457600080fd5b506102e96004803603604081101561085b57600080fd5b50600160a060020a038135169060200135611511565b34801561087d57600080fd5b506103276004803603604081101561089457600080fd5b50600160a060020a03813581169160200135166115c7565b3480156108b857600080fd5b506105f26115f2565b3480156108cd57600080fd5b50610224600480360360208110156108e457600080fd5b50351515611601565b3480156108f957600080fd5b506105f261162b565b600080600160a060020a038316151561091f576000915050610927565b50506000813b115b919050565b60018054604080516020600284861615610100026000190190941693909304601f810184900484028201840190925281815292918301828280156109b15780601f10610986576101008083540402835291602001916109b1565b820191906000526020600020905b81548152906001019060200180831161099457829003601f168201915b505050505081565b600b5460009060ff1615156109cd57600080fd5b8115806109fb5750336000908152600960209081526040808320600160a060020a0387168452909152902054155b1515610a0657600080fd5b600054610a1b90600160a060020a0316610902565b15610acf5760008054604080517fda682aeb000000000000000000000000000000000000000000000000000000008152336004820152600160a060020a038781166024830152604482018790529151919092169263da682aeb92606480820193602093909283900390910190829087803b158015610a9857600080fd5b505af1158015610aac573d6000803e3d6000fd5b505050506040513d6020811015610ac257600080fd5b50511515610acf57600080fd5b336000818152600960209081526040808320600160a060020a03881680855290835292819020869055805186815290519293927f8c5be1e5ebec7d5bd14f71427d1e84f3dd0314c0f7b2291e5b200ac8c7c3b925929181900390910190a35060015b92915050565b600e54600160a060020a03163314610b4e57600080fd5b600e54600160a060020a0316ff5b60075481565b6000610b6d4361124e565b90505b90565b60008054600160a060020a03163314610c1f57600b5460ff161515610b9757600080fd5b600160a060020a03841660009081526009602090815260408083203384529091529020546000191115610c1f57600160a060020a0384166000908152600960209081526040808320338452909152902054821115610bf457600080fd5b600160a060020a03841660009081526009602090815260408083203384529091529020805483900390555b610c2a84848461163a565b5060019392505050565b6000610b6d4361137d565b60025460ff1681565b600054600160a060020a03163314610c5f57600080fd5b6000805473ffffffffffffffffffffffffffffffffffffffff1916600160a060020a0392909216919091179055565b60008054600160a060020a03163314610ca657600080fd5b6000610cb0610c34565b905082811015610cbf57600080fd5b610ccc600c848303611845565b50600192915050565b600160a060020a0382166000908152600860205260408120541580610d315750600160a060020a038316600090815260086020526040812080548492908110610d1a57fe5b6000918252602090912001546001608060020a0316115b15610df757600554600160a060020a031615610def57600554600654600160a060020a0390911690634ee2cd7e908590610d6c908690611938565b6040518363ffffffff1660e060020a0281526004018083600160a060020a0316600160a060020a031681526020018281526020019250505060206040518083038186803b158015610dbc57600080fd5b505afa158015610dd0573d6000803e3d6000fd5b505050506040513d6020811015610de657600080fd5b50519050610b31565b506000610b31565b600160a060020a0383166000908152600860205260409020610e199083611950565b9050610b31565b60008054600160a060020a03163314610e3857600080fd5b6000610e42610c34565b9050828101811115610e5357600080fd5b610ccc600c848301611845565b6004805460408051602060026001851615610100026000190190941693909304601f810184900484028201840190925281815292918301828280156109b15780601f10610986576101008083540402835291602001916109b1565b6000821515610ec8574392505b6000600d60009054906101000a9004600160a060020a0316600160a060020a0316635b7b72c130868a8a8a896040518763ffffffff1660e060020a0281526004018087600160a060020a0316600160a060020a03168152602001868152602001806020018560ff1660ff1681526020018060200184151515158152602001838103835287818151815260200191508051906020019080838360005b83811015610f7b578181015183820152602001610f63565b50505050905090810190601f168015610fa85780820380516001836020036101000a031916815260200191505b50838103825285518152855160209182019187019080838360005b83811015610fdb578181015183820152602001610fc3565b50505050905090810190601f1680156110085780820380516001836020036101000a031916815260200191505b5098505050505050505050602060405180830381600087803b15801561102d57600080fd5b505af1158015611041573d6000803e3d6000fd5b505050506040513d602081101561105757600080fd5b5051604080517f3cebb8230000000000000000000000000000000000000000000000000000000081523360048201529051919250600160a060020a03831691633cebb8239160248082019260009290919082900301818387803b1580156110bd57600080fd5b505af11580156110d1573d6000803e3d6000fd5b5050604080518781529051600160a060020a03851693507f086c875b377f900b07ce03575813022f05dd10ed7640b5282cf6d3c3fc352ade92509081900360200190a29695505050505050565b6000610b318243610cd5565b600554600160a060020a031681565b60008054600160a060020a0316331461115157600080fd5b600061115b610b62565b905082810181111561116c57600080fd5b60006111778561111e565b905083810181111561118857600080fd5b611195600a858401611845565b600160a060020a03851660009081526008602052604090206111b990828601611845565b604080518581529051600160a060020a03871691600091600080516020611ade8339815191529181900360200190a3506001949350505050565b6003805460408051602060026001851615610100026000190190941693909304601f810184900484028201840190925281815292918301828280156109b15780601f10610986576101008083540402835291602001916109b1565b600a546000901580611283575081600a600081548110151561126c57fe5b6000918252602090912001546001608060020a0316115b1561132e57600554600160a060020a03161561132657600554600654600160a060020a039091169063981b24d0906112bc908590611938565b6040518263ffffffff1660e060020a0281526004018082815260200191505060206040518083038186803b1580156112f357600080fd5b505afa158015611307573d6000803e3d6000fd5b505050506040513d602081101561131d57600080fd5b50519050610927565b506000610927565b611339600a83611950565b9050610927565b600b5460009060ff16151561135457600080fd5b610ccc33848461163a565b600e54600160a060020a031681565b600b5460ff1681565b60065481565b600c5460009015806113b2575081600c600081548110151561139b57fe5b6000918252602090912001546001608060020a0316115b156113eb57600554600160a060020a03161561132657600554600654600160a060020a039091169063c6d1d23d906112bc908590611938565b611339600c83611950565b600061140284846109b9565b151561140d57600080fd5b6040517f8f4ffcb10000000000000000000000000000000000000000000000000000000081523360048201818152602483018690523060448401819052608060648501908152865160848601528651600160a060020a038a1695638f4ffcb195948a94938a939192909160a490910190602085019080838360005b838110156114a0578181015183820152602001611488565b50505050905090810190601f1680156114cd5780820380516001836020036101000a031916815260200191505b5095505050505050600060405180830381600087803b1580156114ef57600080fd5b505af1158015611503573d6000803e3d6000fd5b506001979650505050505050565b60008054600160a060020a0316331461152957600080fd5b6000611533610b62565b90508281101561154257600080fd5b600061154d8561111e565b90508381101561155c57600080fd5b611569600a858403611845565b600160a060020a038516600090815260086020526040902061158d90858303611845565b604080518581529051600091600160a060020a03881691600080516020611ade8339815191529181900360200190a3506001949350505050565b600160a060020a03918216600090815260096020908152604080832093909416825291909152205490565b600d54600160a060020a031681565b600054600160a060020a0316331461161857600080fd5b600b805460ff1916911515919091179055565b600054600160a060020a031681565b80151561167f5781600160a060020a031683600160a060020a0316600080516020611ade833981519152836040518082815260200191505060405180910390a3611840565b600654431161168d57600080fd5b600160a060020a038216158015906116ae5750600160a060020a0382163014155b15156116b957600080fd5b60006116c58443610cd5565b9050818110156116d457600080fd5b6000546116e990600160a060020a0316610902565b1561179f5760008054604080517f4a393149000000000000000000000000000000000000000000000000000000008152600160a060020a03888116600483015287811660248301526044820187905291519190921692634a39314992606480820193602093909283900390910190829087803b15801561176857600080fd5b505af115801561177c573d6000803e3d6000fd5b505050506040513d602081101561179257600080fd5b5051151561179f57600080fd5b600160a060020a03841660009081526008602052604090206117c390838303611845565b60006117cf8443610cd5565b90508281018111156117e057600080fd5b600160a060020a038416600090815260086020526040902061180490828501611845565b83600160a060020a031685600160a060020a0316600080516020611ade833981519152856040518082815260200191505060405180910390a350505b505050565b815415806118795750815443908390600019810190811061186257fe5b6000918252602090912001546001608060020a0316105b156118ed57815460009083906118928260018301611aa0565b8154811061189c57fe5b600091825260209091200180546001608060020a03848116700100000000000000000000000000000000024382166fffffffffffffffffffffffffffffffff19909316929092171617905550611934565b81546000908390600019810190811061190257fe5b600091825260209091200180546001608060020a03808516700100000000000000000000000000000000029116179055505b5050565b60008183106119475781611949565b825b9392505050565b8154600090151561196357506000610b31565b82548390600019810190811061197557fe5b6000918252602090912001546001608060020a031682106119d2578254839060001981019081106119a257fe5b60009182526020909120015470010000000000000000000000000000000090046001608060020a03169050610b31565b8260008154811015156119e157fe5b6000918252602090912001546001608060020a0316821015611a0557506000610b31565b8254600090600019015b81811115611a60578454600283830160010104908590879083908110611a3157fe5b6000918252602090912001546001608060020a031611611a5357809250611a5a565b6001810391505b50611a0f565b8482815481101515611a6e57fe5b60009182526020909120015470010000000000000000000000000000000090046001608060020a031695945050505050565b81548183558181111561184057600083815260209020611840918101908301610b7091905b80821115611ad95760008155600101611ac5565b509056feddf252ad1be2c89b69c2b068fc378daa952ba7f163c4a11628f55a4df523b3efa165627a7a72305820112e2730d4703764a7929131f26fbe9d0f66aa01520cb1e704f41b315ecc99150029",
  "source": "pragma solidity ^0.5.0;\n\nimport \"./MiniMeToken.sol\";\n\n/*\n    Copyright 2017, Will Harborne (Ethfinex)\n*/\n\ncontract DestructibleMiniMeToken is MiniMeToken {\n\n    address payable public terminator;\n\n    constructor(\n        address _tokenFactory,\n        address payable _parentToken,\n        uint _parentSnapShotBlock,\n        string memory _tokenName,\n        uint8 _decimalUnits,\n        string memory _tokenSymbol,\n        bool _transfersEnabled,\n        address payable _terminator\n    ) public MiniMeToken(\n        _tokenFactory,\n        _parentToken,\n        _parentSnapShotBlock,\n        _tokenName,\n        _decimalUnits,\n        _tokenSymbol,\n        _transfersEnabled\n    ) {\n        terminator = _terminator;\n    }\n\n    function recycle() public {\n        require(msg.sender == terminator);\n        selfdestruct(terminator);\n    }\n}\n",
  "sourcePath": "/Users/willharborne/Desktop/repos/community-gateway/solidity/contracts/DestructibleMiniMeToken.sol",
  "compiler": {
    "name": "solc",
    "version": "0.5.0+commit.1d4f565a.Emscripten.clang"
  },
  "schemaVersion": "3.0.1",
  "updatedAt": "2019-02-18T00:19:03.042Z",
  "devdoc": {
    "methods": {
      "allowance(address,address)": {
        "details": "This function makes it easy to read the `allowed[]` map",
        "params": {
          "_owner": "The address of the account that owns the token",
          "_spender": "The address of the account able to transfer the tokens"
        },
        "return": "Amount of remaining tokens of _owner that _spender is allowed  to spend"
      },
      "approve(address,uint256)": {
        "params": {
          "_amount": "The amount of tokens to be approved for transfer",
          "_spender": "The address of the account able to transfer the tokens"
        },
        "return": "True if the approval was successful"
      },
      "approveAndCall(address,uint256,bytes)": {
        "params": {
          "_amount": "The amount of tokens to be approved for transfer",
          "_spender": "The address of the contract able to transfer the tokens"
        },
        "return": "True if the function call was successful"
      },
      "balanceOf(address)": {
        "params": {
          "_owner": "The address that's balance is being requested"
        },
        "return": "The balance of `_owner` at the current block"
      },
      "balanceOfAt(address,uint256)": {
        "details": "Queries the balance of `_owner` at a specific `_blockNumber`",
        "params": {
          "_blockNumber": "The block number when the balance is queried",
          "_owner": "The address from which the balance will be retrieved"
        },
        "return": "The balance at `_blockNumber`"
      },
      "changeController(address)": {
        "params": {
          "_newController": "The new controller of the contract"
        }
      },
      "createCloneToken(string,uint8,string,uint256,bool)": {
        "params": {
          "_cloneDecimalUnits": "Number of decimals of the smallest unit",
          "_cloneTokenName": "Name of the clone token",
          "_cloneTokenSymbol": "Symbol of the clone token",
          "_snapshotBlock": "Block when the distribution of the parent token is  copied to set the initial distribution of the new clone token;  if the block is zero than the actual block, the current block is used",
          "_transfersEnabled": "True if transfers are allowed in the clone"
        },
        "return": "The address of the new MiniMeToken Contract"
      },
      "destroyTokens(address,uint256)": {
        "params": {
          "_amount": "The quantity of tokens to burn",
          "_owner": "The address that will lose the tokens"
        },
        "return": "True if the tokens are burned correctly"
      },
      "enableTransfers(bool)": {
        "params": {
          "_transfersEnabled": "True if transfers are allowed in the clone"
        }
      },
      "generateTokens(address,uint256)": {
        "params": {
          "_amount": "The quantity of tokens generated",
          "_owner": "The address that will be assigned the new tokens"
        },
        "return": "True if the tokens are generated correctly"
      },
      "pledgeFees(uint256)": {
        "params": {
          "_value": "The amount sent to the vault by controller, reserved for token holders"
        }
      },
      "reducePledgedFees(uint256)": {
        "params": {
          "_value": "The amount of pledged fees which are being distributed to token holders, reducing liability"
        }
      },
      "totalPledgedFees()": {
        "details": "This function makes it easy to get the total pledged fees",
        "return": "The total number of fees belonging to token holders"
      },
      "totalPledgedFeesAt(uint256)": {
        "params": {
          "_blockNumber": "The block number when the totalPledgedFees is queried"
        },
        "return": "The total amount of pledged fees at `_blockNumber`"
      },
      "totalSupply()": {
        "details": "This function makes it easy to get the total number of tokens",
        "return": "The total number of tokens"
      },
      "totalSupplyAt(uint256)": {
        "params": {
          "_blockNumber": "The block number when the totalSupply is queried"
        },
        "return": "The total amount of tokens at `_blockNumber`"
      },
      "transfer(address,uint256)": {
        "params": {
          "_amount": "The amount of tokens to be transferred",
          "_to": "The address of the recipient"
        },
        "return": "Whether the transfer was successful or not"
      },
      "transferFrom(address,address,uint256)": {
        "params": {
          "_amount": "The amount of tokens to be transferred",
          "_from": "The address holding the tokens being transferred",
          "_to": "The address of the recipient"
        },
        "return": "True if the transfer was successful"
      }
    }
  },
  "userdoc": {
    "methods": {
      "approve(address,uint256)": {
        "notice": "`msg.sender` approves `_spender` to spend `_amount` tokens on  its behalf. This is a modified version of the ERC20 approve function  to be a little bit safer"
      },
      "approveAndCall(address,uint256,bytes)": {
        "notice": "`msg.sender` approves `_spender` to send `_amount` tokens on  its behalf, and then a function is triggered in the contract that is  being approved, `_spender`. This allows users to use their tokens to  interact with contracts in one function call instead of two"
      },
      "balanceOfAt(address,uint256)": {
        "notice": "/////////////"
      },
      "changeController(address)": {
        "notice": "Changes the controller of the contract"
      },
      "createCloneToken(string,uint8,string,uint256,bool)": {
        "notice": "/////////////Creates a new clone token with the initial distribution being  this token at `_snapshotBlock`"
      },
      "destroyTokens(address,uint256)": {
        "notice": "Burns `_amount` tokens from `_owner`"
      },
      "enableTransfers(bool)": {
        "notice": "/////////////Enables token holders to transfer their tokens freely if true"
      },
      "generateTokens(address,uint256)": {
        "notice": "/////////////Generates `_amount` tokens that are assigned to `_owner`"
      },
      "pledgeFees(uint256)": {
        "notice": "/////////////Pledges fees to the token holders, later to be claimed by burning"
      },
      "reducePledgedFees(uint256)": {
        "notice": "Reduces pledged fees to the token holders, i.e. during upgrade or token burning"
      },
      "totalPledgedFees()": {
        "notice": "/////////////"
      },
      "totalPledgedFeesAt(uint256)": {
        "notice": "Total amount of fees at a specific `_blockNumber`."
      },
      "totalSupplyAt(uint256)": {
        "notice": "Total amount of tokens at a specific `_blockNumber`."
      },
      "transfer(address,uint256)": {
        "notice": "Send `_amount` tokens to `_to` from `msg.sender`"
      },
      "transferFrom(address,address,uint256)": {
        "notice": "Send `_amount` tokens to `_to` from `_from` on the condition it  is approved by `_from`"
      }
    }
  }
}