{
  "contractName": "DestructibleMiniMeTokenFactory",
  "abi": [
    {
      "constant": false,
      "inputs": [
        {
          "name": "_parentToken",
          "type": "address"
        },
        {
          "name": "_snapshotBlock",
          "type": "uint256"
        },
        {
          "name": "_tokenName",
          "type": "string"
        },
        {
          "name": "_decimalUnits",
          "type": "uint8"
        },
        {
          "name": "_tokenSymbol",
          "type": "string"
        },
        {
          "name": "_transfersEnabled",
          "type": "bool"
        }
      ],
      "name": "createDestructibleCloneToken",
      "outputs": [
        {
          "name": "",
          "type": "address"
        }
      ],
      "payable": false,
      "stateMutability": "nonpayable",
      "type": "function"
    }
  ],
  "bytecode": "0x608060405234801561001057600080fd5b506120ac806100206000396000f3006080604052600436106100405763ffffffff7c0100000000000000000000000000000000000000000000000000000000600035041663408e097c8114610045575b600080fd5b34801561005157600080fd5b50604080516020600460443581810135601f810184900484028501840190955284845261010694823573ffffffffffffffffffffffffffffffffffffffff1694602480359536959460649492019190819084018382808284375050604080516020601f818a01358b0180359182018390048302840183018552818452989b60ff8b35169b909a90999401975091955091820193509150819084018382808284375094975050505091351515925061012f915050565b6040805173ffffffffffffffffffffffffffffffffffffffff9092168252519081900360200190f35b6000803088888888888833610142610317565b73ffffffffffffffffffffffffffffffffffffffff808a1682528881166020808401919091526040830189905260ff8716608084015284151560c084015290831660e0830152610100606083018181528851918401919091528751909160a08401916101208501918a019080838360005b838110156101cb5781810151838201526020016101b3565b50505050905090810190601f1680156101f85780820380516001836020036101000a031916815260200191505b50838103825286518152865160209182019188019080838360005b8381101561022b578181015183820152602001610213565b50505050905090810190601f1680156102585780820380516001836020036101000a031916815260200191505b509a5050505050505050505050604051809103906000f080158015610281573d6000803e3d6000fd5b50604080517f3cebb823000000000000000000000000000000000000000000000000000000008152336004820152905191925073ffffffffffffffffffffffffffffffffffffffff831691633cebb8239160248082019260009290919082900301818387803b1580156102f357600080fd5b505af1158015610307573d6000803e3d6000fd5b50929a9950505050505050505050565b604051611d598061032883390190560060c0604052600760808190527f4546585f302e310000000000000000000000000000000000000000000000000060a09081526200004091600491906200016d565b503480156200004e57600080fd5b5060405162001d5938038062001d598339810160409081528151602080840151928401516060850151608086015160a087015160c088015160e08901516000805433600160a060020a031991821617909155600d8054909116600160a060020a038a16179055938901805197999597909693959290920193909290918991899189918991899189918991620000e9916001918701906200016d565b506002805460ff191660ff851617905581516200010e9060039060208501906200016d565b5060058054600160a060020a0319908116600160a060020a0398891617909155600695909555600b805460ff191691151591909117905550504360075550600e8054909116939091169290921790915550620002129650505050505050565b828054600181600116156101000203166002900490600052602060002090601f016020900481019282601f10620001b057805160ff1916838001178555620001e0565b82800160010185558215620001e0579182015b82811115620001e0578251825591602001919060010190620001c3565b50620001ee929150620001f2565b5090565b6200020f91905b80821115620001ee5760008155600101620001f9565b90565b611b3780620002226000396000f3006080604052600436106101715763ffffffff60e060020a60003504166306fdde038114610231578063095ea7b3146102bb5780630f23cbaa146102f3578063176345141461030857806318160ddd1461032f57806323b872dd14610344578063311325bd1461036e578063313ce567146103835780633cebb823146103ae578063486575a5146103cf5780634ee2cd7e146103e75780634fa7e3531461040b57806354fd4d50146104235780636638c0871461043857806370a08231146104fb57806380a540011461051c578063827f32c01461053157806395d89b4114610555578063981b24d01461056a578063a9059cbb14610582578063a9898b9b146105a6578063bef97c87146105bb578063c5bcc4f1146105d0578063c6d1d23d146105e5578063cae9ca51146105fd578063d3ce77fe14610666578063dd62ed3e1461068a578063df8de3e7146106b1578063e77772fe146106d2578063f41e60c5146106e7578063f77c479114610701575b60005461018690600160a060020a0316610716565b151561019157600080fd5b600054604080517ff48c30540000000000000000000000000000000000000000000000000000000081523360048201529051600160a060020a039092169163f48c3054913491602480830192602092919082900301818588803b1580156101f757600080fd5b505af115801561020b573d6000803e3d6000fd5b50505050506040513d602081101561022257600080fd5b5051151561022f57600080fd5b005b34801561023d57600080fd5b50610246610743565b6040805160208082528351818301528351919283929083019185019080838360005b83811015610280578181015183820152602001610268565b50505050905090810190601f1680156102ad5780820380516001836020036101000a031916815260200191505b509250505060405180910390f35b3480156102c757600080fd5b506102df600160a060020a03600435166024356107d0565b604080519115158252519081900360200190f35b3480156102ff57600080fd5b5061022f61094e565b34801561031457600080fd5b5061031d610973565b60408051918252519081900360200190f35b34801561033b57600080fd5b5061031d610979565b34801561035057600080fd5b506102df600160a060020a036004358116906024351660443561098a565b34801561037a57600080fd5b5061031d610a4b565b34801561038f57600080fd5b50610398610a56565b6040805160ff9092168252519081900360200190f35b3480156103ba57600080fd5b5061022f600160a060020a0360043516610a5f565b3480156103db57600080fd5b506102df600435610aa5565b3480156103f357600080fd5b5061031d600160a060020a0360043516602435610aec565b34801561041757600080fd5b506102df600435610c39565b34801561042f57600080fd5b50610246610c79565b34801561044457600080fd5b506040805160206004803580820135601f81018490048402850184019095528484526104df94369492936024939284019190819084018382808284375050604080516020601f818a01358b0180359182018390048302840183018552818452989b60ff8b35169b909a909994019750919550918201935091508190840183828082843750949750508435955050505050602001351515610cd4565b60408051600160a060020a039092168252519081900360200190f35b34801561050757600080fd5b5061031d600160a060020a0360043516610f2a565b34801561052857600080fd5b506104df610f3e565b34801561053d57600080fd5b506102df600160a060020a0360043516602435610f4d565b34801561056157600080fd5b50610246611007565b34801561057657600080fd5b5061031d600435611062565b34801561058e57600080fd5b506102df600160a060020a0360043516602435611156565b3480156105b257600080fd5b506104df611175565b3480156105c757600080fd5b506102df611184565b3480156105dc57600080fd5b5061031d61118d565b3480156105f157600080fd5b5061031d600435611193565b34801561060957600080fd5b50604080516020600460443581810135601f81018490048402850184019095528484526102df948235600160a060020a031694602480359536959460649492019190819084018382808284375094975061120c9650505050505050565b34801561067257600080fd5b506102df600160a060020a0360043516602435611327565b34801561069657600080fd5b5061031d600160a060020a03600435811690602435166113dd565b3480156106bd57600080fd5b5061022f600160a060020a0360043516611408565b3480156106de57600080fd5b506104df6115ef565b3480156106f357600080fd5b5061022f60043515156115fe565b34801561070d57600080fd5b506104df611628565b600080600160a060020a0383161515610732576000915061073d565b823b90506000811191505b50919050565b60018054604080516020600284861615610100026000190190941693909304601f810184900484028201840190925281815292918301828280156107c85780601f1061079d576101008083540402835291602001916107c8565b820191906000526020600020905b8154815290600101906020018083116107ab57829003601f168201915b505050505081565b600b5460009060ff1615156107e457600080fd5b8115806108125750336000908152600960209081526040808320600160a060020a0387168452909152902054155b151561081d57600080fd5b60005461083290600160a060020a0316610716565b156108e65760008054604080517fda682aeb000000000000000000000000000000000000000000000000000000008152336004820152600160a060020a038781166024830152604482018790529151919092169263da682aeb92606480820193602093909283900390910190829087803b1580156108af57600080fd5b505af11580156108c3573d6000803e3d6000fd5b505050506040513d60208110156108d957600080fd5b505115156108e657600080fd5b336000818152600960209081526040808320600160a060020a03881680855290835292819020869055805186815290519293927f8c5be1e5ebec7d5bd14f71427d1e84f3dd0314c0f7b2291e5b200ac8c7c3b925929181900390910190a35060015b92915050565b600e54600160a060020a0316331461096557600080fd5b600e54600160a060020a0316ff5b60075481565b600061098443611062565b90505b90565b60008054600160a060020a03163314610a3657600b5460ff1615156109ae57600080fd5b600160a060020a03841660009081526009602090815260408083203384529091529020546000191115610a3657600160a060020a0384166000908152600960209081526040808320338452909152902054821115610a0b57600080fd5b600160a060020a03841660009081526009602090815260408083203384529091529020805483900390555b610a41848484611637565b5060019392505050565b600061098443611193565b60025460ff1681565b600054600160a060020a03163314610a7657600080fd5b6000805473ffffffffffffffffffffffffffffffffffffffff1916600160a060020a0392909216919091179055565b600080548190600160a060020a03163314610abf57600080fd5b610ac7610a4b565b905082811015610ad657600080fd5b610ae3600c848303611841565b50600192915050565b600160a060020a0382166000908152600860205260408120541580610b485750600160a060020a038316600090815260086020526040812080548492908110610b3157fe5b6000918252602090912001546001608060020a0316115b15610c1057600554600160a060020a031615610c0857600554600654600160a060020a0390911690634ee2cd7e908590610b83908690611937565b6040518363ffffffff1660e060020a0281526004018083600160a060020a0316600160a060020a0316815260200182815260200192505050602060405180830381600087803b158015610bd557600080fd5b505af1158015610be9573d6000803e3d6000fd5b505050506040513d6020811015610bff57600080fd5b50519050610948565b506000610948565b600160a060020a0383166000908152600860205260409020610c32908361194f565b9050610948565b600080548190600160a060020a03163314610c5357600080fd5b610c5b610a4b565b9050828101811115610c6c57600080fd5b610ae3600c848301611841565b6004805460408051602060026001851615610100026000190190941693909304601f810184900484028201840190925281815292918301828280156107c85780601f1061079d576101008083540402835291602001916107c8565b600080831515610ce2574393505b600d546040517f5b7b72c100000000000000000000000000000000000000000000000000000000815230600482018181526024830188905260ff8a16606484015286151560a484015260c0604484019081528b5160c48501528b51600160a060020a0390951694635b7b72c1948a938e938e938e938d939291608482019160e40190602089019080838360005b83811015610d87578181015183820152602001610d6f565b50505050905090810190601f168015610db45780820380516001836020036101000a031916815260200191505b50838103825285518152855160209182019187019080838360005b83811015610de7578181015183820152602001610dcf565b50505050905090810190601f168015610e145780820380516001836020036101000a031916815260200191505b5098505050505050505050602060405180830381600087803b158015610e3957600080fd5b505af1158015610e4d573d6000803e3d6000fd5b505050506040513d6020811015610e6357600080fd5b5051604080517f3cebb8230000000000000000000000000000000000000000000000000000000081523360048201529051919250600160a060020a03831691633cebb8239160248082019260009290919082900301818387803b158015610ec957600080fd5b505af1158015610edd573d6000803e3d6000fd5b5050604080518781529051600160a060020a03851693507f086c875b377f900b07ce03575813022f05dd10ed7640b5282cf6d3c3fc352ade92509081900360200190a29695505050505050565b6000610f368243610aec565b90505b919050565b600554600160a060020a031681565b6000805481908190600160a060020a03163314610f6957600080fd5b610f71610979565b9150838201821115610f8257600080fd5b610f8b85610f2a565b9050838101811115610f9c57600080fd5b610fa9600a858401611841565b600160a060020a0385166000908152600860205260409020610fcd90828601611841565b604080518581529051600160a060020a03871691600091600080516020611aec8339815191529181900360200190a3506001949350505050565b6003805460408051602060026001851615610100026000190190941693909304601f810184900484028201840190925281815292918301828280156107c85780601f1061079d576101008083540402835291602001916107c8565b600a546000901580611097575081600a600081548110151561108057fe5b6000918252602090912001546001608060020a0316115b1561114457600554600160a060020a03161561113c57600554600654600160a060020a039091169063981b24d0906110d0908590611937565b6040518263ffffffff1660e060020a02815260040180828152602001915050602060405180830381600087803b15801561110957600080fd5b505af115801561111d573d6000803e3d6000fd5b505050506040513d602081101561113357600080fd5b50519050610f39565b506000610f39565b61114f600a8361194f565b9050610f39565b600b5460009060ff16151561116a57600080fd5b610ae3338484611637565b600e54600160a060020a031681565b600b5460ff1681565b60065481565b600c5460009015806111c8575081600c60008154811015156111b157fe5b6000918252602090912001546001608060020a0316115b1561120157600554600160a060020a03161561113c57600554600654600160a060020a039091169063c6d1d23d906110d0908590611937565b61114f600c8361194f565b600061121884846107d0565b151561122357600080fd5b6040517f8f4ffcb10000000000000000000000000000000000000000000000000000000081523360048201818152602483018690523060448401819052608060648501908152865160848601528651600160a060020a038a1695638f4ffcb195948a94938a939192909160a490910190602085019080838360005b838110156112b657818101518382015260200161129e565b50505050905090810190601f1680156112e35780820380516001836020036101000a031916815260200191505b5095505050505050600060405180830381600087803b15801561130557600080fd5b505af1158015611319573d6000803e3d6000fd5b506001979650505050505050565b6000805481908190600160a060020a0316331461134357600080fd5b61134b610979565b91508382101561135a57600080fd5b61136385610f2a565b90508381101561137257600080fd5b61137f600a858403611841565b600160a060020a03851660009081526008602052604090206113a390858303611841565b604080518581529051600091600160a060020a03881691600080516020611aec8339815191529181900360200190a3506001949350505050565b600160a060020a03918216600090815260096020908152604080832093909416825291909152205490565b600080548190600160a060020a0316331461142257600080fd5b600160a060020a03831615156114735760008054604051600160a060020a0390911691303180156108fc02929091818181858888f1935050505015801561146d573d6000803e3d6000fd5b506115ea565b604080517f70a082310000000000000000000000000000000000000000000000000000000081523060048201529051849350600160a060020a038416916370a082319160248083019260209291908290030181600087803b1580156114d757600080fd5b505af11580156114eb573d6000803e3d6000fd5b505050506040513d602081101561150157600080fd5b505160008054604080517fa9059cbb000000000000000000000000000000000000000000000000000000008152600160a060020a0392831660048201526024810185905290519394509085169263a9059cbb92604480840193602093929083900390910190829087803b15801561157757600080fd5b505af115801561158b573d6000803e3d6000fd5b505050506040513d60208110156115a157600080fd5b5050600054604080518381529051600160a060020a03928316928616917ff931edb47c50b4b4104c187b5814a9aef5f709e17e2ecf9617e860cacade929c919081900360200190a35b505050565b600d54600160a060020a031681565b600054600160a060020a0316331461161557600080fd5b600b805460ff1916911515919091179055565b600054600160a060020a031681565b60008082151561167f5783600160a060020a031685600160a060020a0316600080516020611aec833981519152856040518082815260200191505060405180910390a361183a565b600654431161168d57600080fd5b600160a060020a038416158015906116ae5750600160a060020a0384163014155b15156116b957600080fd5b6116c38543610aec565b9150828210156116d257600080fd5b6000546116e790600160a060020a0316610716565b1561179d5760008054604080517f4a393149000000000000000000000000000000000000000000000000000000008152600160a060020a03898116600483015288811660248301526044820188905291519190921692634a39314992606480820193602093909283900390910190829087803b15801561176657600080fd5b505af115801561177a573d6000803e3d6000fd5b505050506040513d602081101561179057600080fd5b5051151561179d57600080fd5b600160a060020a03851660009081526008602052604090206117c190848403611841565b6117cb8443610aec565b90508281018111156117dc57600080fd5b600160a060020a038416600090815260086020526040902061180090828501611841565b83600160a060020a031685600160a060020a0316600080516020611aec833981519152856040518082815260200191505060405180910390a35b5050505050565b81546000908190158061187a5750835443908590600019810190811061186357fe5b6000918252602090912001546001608060020a0316105b156118ec57835484906118908260018301611aae565b8154811061189a57fe5b600091825260209091200180546001608060020a03858116700100000000000000000000000000000000024382166fffffffffffffffffffffffffffffffff1990931692909217161781559150611931565b8354849060001981019081106118fe57fe5b600091825260209091200180546001608060020a0380861670010000000000000000000000000000000002911617815590505b50505050565b60008183106119465781611948565b825b9392505050565b60008060008085805490506000141561196b5760009350611aa5565b85548690600019810190811061197d57fe5b6000918252602090912001546001608060020a031685106119da578554869060001981019081106119aa57fe5b60009182526020909120015470010000000000000000000000000000000090046001608060020a03169350611aa5565b8560008154811015156119e957fe5b6000918252602090912001546001608060020a0316851015611a0e5760009350611aa5565b8554600093506000190191505b82821115611a6b576002600183850101049050848682815481101515611a3d57fe5b6000918252602090912001546001608060020a031611611a5f57809250611a66565b6001810391505b611a1b565b8583815481101515611a7957fe5b60009182526020909120015470010000000000000000000000000000000090046001608060020a031693505b50505092915050565b8154818355818111156115ea576000838152602090206115ea91810190830161098791905b80821115611ae75760008155600101611ad3565b50905600ddf252ad1be2c89b69c2b068fc378daa952ba7f163c4a11628f55a4df523b3efa165627a7a72305820d270d7690b4182cf88802cf5e9e992ea87eb7e6eca25542c3d4b592e5db818510029a165627a7a72305820a64c4930ba89d60aa8e9de2dfbecd145c76fee183472b5e400fd36c0ccd439020029",
  "source": "pragma solidity ^0.4.24;\n\nimport \"./DestructibleMiniMeToken.sol\";\n\n\ncontract DestructibleMiniMeTokenFactory {\n\n    /// @notice Update the DApp by creating a new token with new functionalities\n    ///  the msg.sender becomes the controller of this clone token\n    /// @param _parentToken Address of the token being cloned\n    /// @param _snapshotBlock Block of the parent token that will\n    ///  determine the initial distribution of the clone token\n    /// @param _tokenName Name of the new token\n    /// @param _decimalUnits Number of decimals of the new token\n    /// @param _tokenSymbol Token Symbol for the new token\n    /// @param _transfersEnabled If true, tokens will be able to be transferred\n    /// @return The address of the new token contract\n    function createDestructibleCloneToken(\n        address _parentToken,\n        uint _snapshotBlock,\n        string _tokenName,\n        uint8 _decimalUnits,\n        string _tokenSymbol,\n        bool _transfersEnabled\n    ) public returns (DestructibleMiniMeToken) {\n        DestructibleMiniMeToken newToken = new DestructibleMiniMeToken(\n            this,\n            _parentToken,\n            _snapshotBlock,\n            _tokenName,\n            _decimalUnits,\n            _tokenSymbol,\n            _transfersEnabled,\n            msg.sender\n        );\n\n        newToken.changeController(msg.sender);\n        return newToken;\n    }\n}\n",
  "sourcePath": "/Users/nikolaklipa/Decenter/community-gateway/solidity/contracts/DestructibleMiniMeTokenFactory.sol",
  "compiler": {
    "name": "solc",
    "version": "0.4.24+commit.e67f0147.Emscripten.clang"
  },
  "schemaVersion": "2.0.1",
  "updatedAt": "2018-08-31T15:17:48.641Z"
}