{
  "contractName": "ListingRewardManager",
  "abi": [
    {
      "constant": true,
      "inputs": [
        {
          "name": "",
          "type": "address"
        }
      ],
      "name": "admins",
      "outputs": [
        {
          "name": "",
          "type": "bool"
        }
      ],
      "payable": false,
      "stateMutability": "view",
      "type": "function"
    },
    {
      "constant": true,
      "inputs": [],
      "name": "owner",
      "outputs": [
        {
          "name": "",
          "type": "address"
        }
      ],
      "payable": false,
      "stateMutability": "view",
      "type": "function"
    },
    {
      "constant": true,
      "inputs": [
        {
          "name": "",
          "type": "address"
        }
      ],
      "name": "totalClaimedRewards",
      "outputs": [
        {
          "name": "",
          "type": "uint256"
        }
      ],
      "payable": false,
      "stateMutability": "view",
      "type": "function"
    },
    {
      "constant": true,
      "inputs": [
        {
          "name": "",
          "type": "address"
        },
        {
          "name": "",
          "type": "address"
        }
      ],
      "name": "claimedRewards",
      "outputs": [
        {
          "name": "",
          "type": "uint256"
        }
      ],
      "payable": false,
      "stateMutability": "view",
      "type": "function"
    },
    {
      "constant": true,
      "inputs": [
        {
          "name": "",
          "type": "address"
        },
        {
          "name": "",
          "type": "address"
        }
      ],
      "name": "lastClaimBlockForTokens",
      "outputs": [
        {
          "name": "",
          "type": "uint256"
        }
      ],
      "payable": false,
      "stateMutability": "view",
      "type": "function"
    },
    {
      "constant": false,
      "inputs": [
        {
          "name": "newOwner",
          "type": "address"
        }
      ],
      "name": "transferOwnership",
      "outputs": [],
      "payable": false,
      "stateMutability": "nonpayable",
      "type": "function"
    },
    {
      "constant": true,
      "inputs": [
        {
          "name": "",
          "type": "address"
        },
        {
          "name": "",
          "type": "address"
        }
      ],
      "name": "userVotesForTokens",
      "outputs": [
        {
          "name": "",
          "type": "uint256"
        }
      ],
      "payable": false,
      "stateMutability": "view",
      "type": "function"
    },
    {
      "inputs": [
        {
          "name": "_rewardExpiryBlocks",
          "type": "uint128"
        },
        {
          "name": "_voteManager",
          "type": "address"
        }
      ],
      "payable": false,
      "stateMutability": "nonpayable",
      "type": "constructor"
    },
    {
      "anonymous": false,
      "inputs": [
        {
          "indexed": false,
          "name": "_tokenAddress",
          "type": "address"
        },
        {
          "indexed": false,
          "name": "_depositAmount",
          "type": "uint256"
        }
      ],
      "name": "NewRewardsDeposited",
      "type": "event"
    },
    {
      "anonymous": false,
      "inputs": [
        {
          "indexed": false,
          "name": "_tokenAddress",
          "type": "address"
        },
        {
          "indexed": false,
          "name": "_withdrawnAmount",
          "type": "uint256"
        },
        {
          "indexed": false,
          "name": "_to",
          "type": "address"
        }
      ],
      "name": "ExpiredRewardsWithdrawn",
      "type": "event"
    },
    {
      "anonymous": false,
      "inputs": [
        {
          "indexed": false,
          "name": "_claimant",
          "type": "address"
        },
        {
          "indexed": false,
          "name": "_claimedAmount",
          "type": "uint256"
        }
      ],
      "name": "RewardsClaimed",
      "type": "event"
    },
    {
      "anonymous": false,
      "inputs": [
        {
          "indexed": true,
          "name": "previousOwner",
          "type": "address"
        },
        {
          "indexed": true,
          "name": "newOwner",
          "type": "address"
        }
      ],
      "name": "OwnershipTransferred",
      "type": "event"
    },
    {
      "constant": false,
      "inputs": [
        {
          "name": "_tradedToken",
          "type": "address"
        },
        {
          "name": "_depositAmount",
          "type": "uint256"
        }
      ],
      "name": "depositRewards",
      "outputs": [],
      "payable": false,
      "stateMutability": "nonpayable",
      "type": "function"
    },
    {
      "constant": false,
      "inputs": [
        {
          "name": "_tradedToken",
          "type": "address"
        }
      ],
      "name": "withdrawUnclaimedRewards",
      "outputs": [],
      "payable": false,
      "stateMutability": "nonpayable",
      "type": "function"
    },
    {
      "constant": false,
      "inputs": [],
      "name": "claimAllPendingRewards",
      "outputs": [],
      "payable": false,
      "stateMutability": "nonpayable",
      "type": "function"
    },
    {
      "constant": false,
      "inputs": [
        {
          "name": "_tradedToken",
          "type": "address"
        }
      ],
      "name": "claimPendingReward",
      "outputs": [
        {
          "name": "",
          "type": "bool"
        }
      ],
      "payable": false,
      "stateMutability": "nonpayable",
      "type": "function"
    },
    {
      "constant": true,
      "inputs": [
        {
          "name": "_tokens",
          "type": "address[]"
        }
      ],
      "name": "countPendingRewards",
      "outputs": [
        {
          "name": "_tradingRewards",
          "type": "uint256[]"
        }
      ],
      "payable": false,
      "stateMutability": "view",
      "type": "function"
    },
    {
      "constant": true,
      "inputs": [
        {
          "name": "_token",
          "type": "address"
        },
        {
          "name": "_who",
          "type": "address"
        }
      ],
      "name": "countVotesForToken",
      "outputs": [
        {
          "name": "",
          "type": "uint256"
        }
      ],
      "payable": false,
      "stateMutability": "view",
      "type": "function"
    },
    {
      "constant": true,
      "inputs": [
        {
          "name": "_token",
          "type": "address"
        }
      ],
      "name": "countTotalVotesForToken",
      "outputs": [
        {
          "name": "",
          "type": "uint256"
        }
      ],
      "payable": false,
      "stateMutability": "view",
      "type": "function"
    },
    {
      "constant": true,
      "inputs": [
        {
          "name": "_token",
          "type": "address"
        }
      ],
      "name": "isWinner",
      "outputs": [
        {
          "name": "",
          "type": "bool"
        }
      ],
      "payable": false,
      "stateMutability": "view",
      "type": "function"
    },
    {
      "constant": true,
      "inputs": [
        {
          "name": "_winningToken",
          "type": "address"
        }
      ],
      "name": "getDepositedRewards",
      "outputs": [
        {
          "name": "balance",
          "type": "uint256"
        }
      ],
      "payable": false,
      "stateMutability": "view",
      "type": "function"
    },
    {
      "constant": true,
      "inputs": [
        {
          "name": "_winningToken",
          "type": "address"
        },
        {
          "name": "_blockNumber",
          "type": "uint256"
        }
      ],
      "name": "getDepositedRewardsAt",
      "outputs": [
        {
          "name": "",
          "type": "uint256"
        }
      ],
      "payable": false,
      "stateMutability": "view",
      "type": "function"
    },
    {
      "constant": true,
      "inputs": [
        {
          "name": "_claimant",
          "type": "address"
        },
        {
          "name": "_winningToken",
          "type": "address"
        }
      ],
      "name": "getClaimedRewards",
      "outputs": [
        {
          "name": "balance",
          "type": "uint256"
        }
      ],
      "payable": false,
      "stateMutability": "view",
      "type": "function"
    },
    {
      "constant": true,
      "inputs": [
        {
          "name": "_winningToken",
          "type": "address"
        }
      ],
      "name": "getTotalClaimedRewards",
      "outputs": [
        {
          "name": "balance",
          "type": "uint256"
        }
      ],
      "payable": false,
      "stateMutability": "view",
      "type": "function"
    },
    {
      "constant": true,
      "inputs": [
        {
          "name": "_admin",
          "type": "address"
        }
      ],
      "name": "isAdmin",
      "outputs": [
        {
          "name": "",
          "type": "bool"
        }
      ],
      "payable": false,
      "stateMutability": "view",
      "type": "function"
    },
    {
      "constant": false,
      "inputs": [
        {
          "name": "_newAdmin",
          "type": "address"
        }
      ],
      "name": "addAdmin",
      "outputs": [],
      "payable": false,
      "stateMutability": "nonpayable",
      "type": "function"
    },
    {
      "constant": false,
      "inputs": [
        {
          "name": "_admin",
          "type": "address"
        }
      ],
      "name": "removeAdmin",
      "outputs": [],
      "payable": false,
      "stateMutability": "nonpayable",
      "type": "function"
    }
  ],
  "bytecode": "0x608060405234801561001057600080fd5b506040516040806114f38339810180604052604081101561003057600080fd5b5080516020918201516000805433600160a060020a0319918216811783558252600790945260408120805460ff19166001179055600580546001608060020a0319166001608060020a039094169390931790925560088054909316600160a060020a03909116179091556114499081906100aa90396000f3fe6080604052600436106101275763ffffffff7c01000000000000000000000000000000000000000000000000000000006000350416631785f53c811461012c5780631e2f85c31461016157806324d7806c146101ae5780632d35d401146101f55780632dade8dc146102285780633504ea2214610328578063429b62e51461035b57806361f266871461038e578063683d2f78146103c157806370480275146103fa5780638a4597521461042d5780638da5cb5b1461046857806397ad1cce146104995780639cfc8b8c146104d25780639d9ca28d14610505578063a110b93f14610538578063d1ab58f41461056b578063dc6514a6146105a6578063dd7e1771146105d9578063f2fde38b14610614578063f62d478514610647578063f825b6c914610682575b600080fd5b34801561013857600080fd5b5061015f6004803603602081101561014f57600080fd5b5035600160a060020a0316610697565b005b34801561016d57600080fd5b5061019c6004803603604081101561018457600080fd5b50600160a060020a03813581169160200135166106cf565b60408051918252519081900360200190f35b3480156101ba57600080fd5b506101e1600480360360208110156101d157600080fd5b5035600160a060020a03166106fc565b604080519115158252519081900360200190f35b34801561020157600080fd5b506101e16004803603602081101561021857600080fd5b5035600160a060020a031661071e565b34801561023457600080fd5b506102d86004803603602081101561024b57600080fd5b81019060208101813564010000000081111561026657600080fd5b82018360208201111561027857600080fd5b8035906020019184602083028401116401000000008311171561029a57600080fd5b919080806020026020016040519081016040528093929190818152602001838360200280828437600092019190915250929550610879945050505050565b60408051602080825283518183015283519192839290830191858101910280838360005b838110156103145781810151838201526020016102fc565b505050509050019250505060405180910390f35b34801561033457600080fd5b5061019c6004803603602081101561034b57600080fd5b5035600160a060020a0316610951565b34801561036757600080fd5b506101e16004803603602081101561037e57600080fd5b5035600160a060020a031661095d565b34801561039a57600080fd5b5061019c600480360360208110156103b157600080fd5b5035600160a060020a0316610972565b3480156103cd57600080fd5b5061019c600480360360408110156103e457600080fd5b50600160a060020a038135169060200135610a0e565b34801561040657600080fd5b5061015f6004803603602081101561041d57600080fd5b5035600160a060020a0316610aa0565b34801561043957600080fd5b5061019c6004803603604081101561045057600080fd5b50600160a060020a0381358116916020013516610ad8565b34801561047457600080fd5b5061047d610b7d565b60408051600160a060020a039092168252519081900360200190f35b3480156104a557600080fd5b5061015f600480360360408110156104bc57600080fd5b50600160a060020a038135169060200135610b8c565b3480156104de57600080fd5b5061019c600480360360208110156104f557600080fd5b5035600160a060020a0316610cc5565b34801561051157600080fd5b506101e16004803603602081101561052857600080fd5b5035600160a060020a0316610ce0565b34801561054457600080fd5b5061019c6004803603602081101561055b57600080fd5b5035600160a060020a0316610d4a565b34801561057757600080fd5b5061019c6004803603604081101561058e57600080fd5b50600160a060020a0381358116916020013516610d5c565b3480156105b257600080fd5b5061015f600480360360208110156105c957600080fd5b5035600160a060020a0316610d79565b3480156105e557600080fd5b5061019c600480360360408110156105fc57600080fd5b50600160a060020a0381358116916020013516610f58565b34801561062057600080fd5b5061015f6004803603602081101561063757600080fd5b5035600160a060020a0316610f75565b34801561065357600080fd5b5061019c6004803603604081101561066a57600080fd5b50600160a060020a0381358116916020013516611009565b34801561068e57600080fd5b5061015f611026565b600054600160a060020a031633146106ae57600080fd5b600160a060020a03166000908152600760205260409020805460ff19169055565b600160a060020a038083166000908152600360209081526040808320938516835292905220545b92915050565b600160a060020a03811660009081526007602052604090205460ff165b919050565b600061072982610ce0565b151561073457600080fd5b60006107408333610ad8565b9050600061074d84610972565b905081151561076157600092505050610719565b336000908152600260209081526040808320600160a060020a038816845290915290205443811061079157600080fd5b600061079d8683610a0e565b6107a687610951565b03905060006107b533886106cf565b905060006107c288610cc5565b905060006107e6866107da868a63ffffffff61114b16565b9063ffffffff61117a16565b336000818152600260209081526040808320600160a060020a038f168085529083528184204390556004835281842088870190558484526003835281842090845282529182902087850190558151928352820183905280519293507ffc30cddea38e2bf4d6ea7d3f9ed3b6ad7f176419f4963bd81318067a4aee73fe92918290030190a150600198975050505050505050565b606060005b825181101561094b576108a7838281518110151561089857fe5b90602001906020020151610ce0565b15156108cc57600082828151811015156108bd57fe5b60209081029091010152610943565b6004600084838151811015156108de57fe5b90602001906020020151600160a060020a0316600160a060020a0316815260200190815260200160002054610929848381518110151561091a57fe5b90602001906020020151610951565b03828281518110151561093857fe5b602090810290910101525b60010161087e565b50919050565b60006106f68243610a0e565b60076020526000908152604090205460ff1681565b600854604080517f9b5739ef000000000000000000000000000000000000000000000000000000008152600160a060020a03848116600483015291516000939290921691639b5739ef91602480820192602092909190829003018186803b1580156109dc57600080fd5b505afa1580156109f0573d6000803e3d6000fd5b505050506040513d6020811015610a0657600080fd5b505192915050565b600160a060020a0382166000908152600660205260408120541580610a6a5750600160a060020a038316600090815260066020526040812080548492908110610a5357fe5b6000918252602090912001546001608060020a0316115b15610a77575060006106f6565b600160a060020a0383166000908152600660205260409020610a999083611191565b90506106f6565b610aa9336106fc565b1515610ab457600080fd5b600160a060020a03166000908152600760205260409020805460ff19166001179055565b600854604080517f684752dc000000000000000000000000000000000000000000000000000000008152600160a060020a03858116600483015284811660248301529151600093929092169163684752dc91604480820192602092909190829003018186803b158015610b4a57600080fd5b505afa158015610b5e573d6000803e3d6000fd5b505050506040513d6020811015610b7457600080fd5b50519392505050565b600054600160a060020a031681565b610b9582610ce0565b1515610ba057600080fd5b604080517f23b872dd000000000000000000000000000000000000000000000000000000008152336004820152306024820152604481018390529051600160a060020a038416916323b872dd9160648083019260209291908290030181600087803b158015610c0e57600080fd5b505af1158015610c22573d6000803e3d6000fd5b505050506040513d6020811015610c3857600080fd5b5060009050610c478343610a0e565b9050818101811115610c5857600080fd5b600160a060020a0383166000908152600660205260409020610c7c908284016112e1565b60408051600160a060020a03851681526020810184905281517fd5d776e19a4fa39a9d11696305f9dee96a3e36b6a5ff64ce9fe5a836a62537b2929181900390910190a1505050565b600160a060020a031660009081526004602052604090205490565b600854604080517f9d9ca28d000000000000000000000000000000000000000000000000000000008152600160a060020a03848116600483015291516000939290921691639d9ca28d91602480820192602092909190829003018186803b1580156109dc57600080fd5b60046020526000908152604090205481565b600360209081526000928352604080842090915290825290205481565b610d82336106fc565b1515610d8d57600080fd5b600554600160a060020a0382166000908152600660205260408120805443936001608060020a031692908110610dbf57fe5b6000918252602090912001546001608060020a03908116919091011610610de557600080fd5b604080517f70a082310000000000000000000000000000000000000000000000000000000081523060048201529051600091600160a060020a038416916370a0823191602480820192602092909190829003018186803b158015610e4857600080fd5b505afa158015610e5c573d6000803e3d6000fd5b505050506040513d6020811015610e7257600080fd5b5051604080517fa9059cbb000000000000000000000000000000000000000000000000000000008152336004820152602481018390529051919250600160a060020a0384169163a9059cbb916044808201926020929091908290030181600087803b158015610ee057600080fd5b505af1158015610ef4573d6000803e3d6000fd5b505050506040513d6020811015610f0a57600080fd5b505060408051600160a060020a038416815260208101839052338183015290517f78081a2d545bb7c58fa7370cef0aa0ca51fa5645f2b65bfd8ee3514ee50f0a029181900360600190a15050565b600260209081526000928352604080842090915290825290205481565b600054600160a060020a03163314610f8c57600080fd5b600160a060020a0381161515610fa157600080fd5b60008054604051600160a060020a03808516939216917f8be0079c531659141344cd1fd0a4f28419497f9722a3daafe3b4186f6b6457e091a36000805473ffffffffffffffffffffffffffffffffffffffff1916600160a060020a0392909216919091179055565b600160209081526000928352604080842090915290825290205481565b600854604080517fdf15c37e0000000000000000000000000000000000000000000000000000000081529051606092600160a060020a03169163df15c37e916004808301926000929190829003018186803b15801561108457600080fd5b505afa158015611098573d6000803e3d6000fd5b505050506040513d6000823e601f3d908101601f1916820160405260208110156110c157600080fd5b8101908080516401000000008111156110d957600080fd5b820160208101848111156110ec57600080fd5b815185602082028301116401000000008211171561110957600080fd5b50909450600093505050505b81518110156111475761113e828281518110151561112f57fe5b9060200190602002015161071e565b50600101611115565b5050565b600082151561115c575060006106f6565b82820282848281151561116b57fe5b041461117357fe5b9392505050565b600080828481151561118857fe5b04949350505050565b815460009015156111a4575060006106f6565b8254839060001981019081106111b657fe5b6000918252602090912001546001608060020a03168210611213578254839060001981019081106111e357fe5b60009182526020909120015470010000000000000000000000000000000090046001608060020a031690506106f6565b82600081548110151561122257fe5b6000918252602090912001546001608060020a0316821015611246575060006106f6565b8254600090600019015b818111156112a157845460028383016001010490859087908390811061127257fe5b6000918252602090912001546001608060020a0316116112945780925061129b565b6001810391505b50611250565b84828154811015156112af57fe5b60009182526020909120015470010000000000000000000000000000000090046001608060020a031695945050505050565b81541580611315575081544390839060001981019081106112fe57fe5b6000918252602090912001546001608060020a0316105b15611389578154600090839061132e82600183016113d3565b8154811061133857fe5b600091825260209091200180546001608060020a03848116700100000000000000000000000000000000024382166fffffffffffffffffffffffffffffffff19909316929092171617905550611147565b81546000908390600019810190811061139e57fe5b600091825260209091200180546001608060020a03808516700100000000000000000000000000000000029116179055505050565b8154818355818111156113f7576000838152602090206113f79181019083016113fc565b505050565b61141a91905b808211156114165760008155600101611402565b5090565b9056fea165627a7a723058200b4a05293b89f0e098a4335d865096995e2879c53ddb5d14a8af79e537795a930029",
  "source": "pragma solidity ^0.5.0;\n\n// TODO: write tests\n\nimport \"./Ownable.sol\";\n\ncontract TokenListingManager {\n    mapping(address => mapping(address => uint256)) public votesForToken;\n    mapping(address => bool) public isWinner;\n    mapping(address => uint256) public winningVotes;\n\n    function getWinners() external view returns(address[] memory winners);\n}\n\nlibrary SafeMath {\n  function mul(uint256 a, uint256 b) internal pure returns (uint256) {\n    if (a == 0) {\n      return 0;\n    }\n    uint256 c = a * b;\n    assert(c / a == b);\n    return c;\n  }\n\n  function div(uint256 a, uint256 b) internal pure returns (uint256) {\n    // assert(b > 0); // Solidity automatically throws when dividing by 0\n    uint256 c = a / b;\n    // assert(a == b * c + a % b); // There is no case in which this doesn't hold\n    return c;\n  }\n\n  function sub(uint256 a, uint256 b) internal pure returns (uint256) {\n    assert(b <= a);\n    return a - b;\n  }\n\n  function add(uint256 a, uint256 b) internal pure returns (uint256) {\n    uint256 c = a + b;\n    assert(c >= a);\n    return c;\n  }\n}\n\ninterface Token {\n\n    /// @notice send `_value` token to `_to` from `msg.sender`\n    /// @param _to The address of the recipient\n    /// @param _value The amount of token to be transferred\n    /// @return Whether the transfer was successful or not\n    function transfer(address _to, uint _value) external returns (bool);\n\n    /// @notice send `_value` token to `_to` from `_from` on the condition it is approved by `_from`\n    /// @param _from The address of the sender\n    /// @param _to The address of the recipient\n    /// @param _value The amount of token to be transferred\n    /// @return Whether the transfer was successful or not\n    function transferFrom(address _from, address _to, uint _value) external returns (bool);\n\n    /// @notice `msg.sender` approves `_addr` to spend `_value` tokens\n    /// @param _spender The address of the account able to transfer the tokens\n    /// @param _value The amount of wei to be approved for transfer\n    /// @return Whether the approval was successful or not\n    function approve(address _spender, uint _value) external returns (bool);\n\n    /// @param _owner The address from which the balance will be retrieved\n    /// @return The balance\n    function balanceOf(address _owner) external view returns (uint);\n\n    /// @param _owner The address of the account owning tokens\n    /// @param _spender The address of the account able to transfer the tokens\n    /// @return Amount of remaining tokens allowed to spent\n    function allowance(address _owner, address _spender) external view returns (uint);\n\n    event Transfer(address indexed _from, address indexed _to, uint _value); // solhint-disable-line\n    event Approval(address indexed _owner, address indexed _spender, uint _value);\n}\n\ncontract ListingRewardManager is Ownable {\n    using SafeMath for uint256;\n\n    // Assume we have available a mapping with each user's votes for winning tokens\n    mapping (address => mapping(address => uint256)) public userVotesForTokens;\n\n    mapping (address => mapping(address => uint256)) public lastClaimBlockForTokens;\n    mapping (address => mapping(address => uint256)) public claimedRewards;\n    mapping (address => uint256) public totalClaimedRewards;\n    uint128 expiryBlocks;\n\n    struct  Checkpoint {\n\n        // `fromBlock` is the block number that the value was generated from\n        uint128 fromBlock;\n\n        // `value` is the amount of tokens at a specific block number\n        uint128 value;\n    }\n\n    mapping (address => Checkpoint[]) depositedRewards;\n\n    mapping(address => bool) public admins;\n\n    TokenListingManager voteManager;\n\n    constructor(uint128 _rewardExpiryBlocks, address _voteManager) public {\n        admins[msg.sender] = true;\n        expiryBlocks = _rewardExpiryBlocks;\n        voteManager = TokenListingManager(_voteManager);\n    }\n\n    // Have a list of all tokens and whether or not they won (already available from TLMA)\n    // When depositingRewards specify which token they are\n\n    function depositRewards(address _tradedToken, uint256 _depositAmount) public {\n      require(isWinner(_tradedToken));\n      Token(_tradedToken).transferFrom(msg.sender, address(this), _depositAmount);\n\n      uint256 previousDepositsFor = getDepositedRewardsAt(_tradedToken, block.number);\n      require(previousDepositsFor + _depositAmount >= previousDepositsFor);\n      updateValueAtNow(depositedRewards[_tradedToken], previousDepositsFor + _depositAmount);\n      emit NewRewardsDeposited(_tradedToken, _depositAmount);\n    }\n\n    function withdrawUnclaimedRewards(address _tradedToken) public onlyAdmins {\n\n      // If number of expiry blocks (i.e. 1 million) have passed since first deposit, the rewards can be retracted\n      require(depositedRewards[_tradedToken][0].fromBlock + expiryBlocks < block.number);\n\n      uint256 leftoverRewards = Token(_tradedToken).balanceOf(address(this));\n      Token(_tradedToken).transfer(msg.sender, leftoverRewards);\n      emit ExpiredRewardsWithdrawn(_tradedToken, leftoverRewards, msg.sender);\n\n    }\n\n    function claimAllPendingRewards() public {\n      address[] memory winningTokens = voteManager.getWinners();\n      for (uint i = 0; i < winningTokens.length; i++) {\n        claimPendingReward(winningTokens[i]);\n      }\n\n    }\n\n    function claimPendingReward(address _tradedToken) public returns (bool) {\n      require(isWinner(_tradedToken));\n      uint256 userVotes = countVotesForToken(_tradedToken, msg.sender);\n      uint256 totalVotes = countTotalVotesForToken(_tradedToken);\n      if (userVotes == 0) {\n        return false;\n      }\n      uint256 previous = lastClaimBlockForTokens[msg.sender][_tradedToken];\n      require(previous < block.number);\n\n      uint256 totalPendingRewards = getDepositedRewards(_tradedToken) - getDepositedRewardsAt(_tradedToken, previous);\n      uint256 previousClaim = getClaimedRewards(msg.sender, _tradedToken);\n      uint256 previousTotalClaimed = getTotalClaimedRewards(_tradedToken);\n      uint256 userRewards = totalPendingRewards.mul(userVotes).div(totalVotes);\n\n      lastClaimBlockForTokens[msg.sender][_tradedToken] = block.number;\n      totalClaimedRewards[_tradedToken] = previousTotalClaimed + userRewards;\n      claimedRewards[msg.sender][_tradedToken] = previousClaim + userRewards;\n      emit RewardsClaimed(msg.sender, userRewards);\n      return true;\n    }\n\n    // This depends whether fees are in the currency itself, or just depsited raw (and mainly usdt and eth)\n    // Likely need to first convert since can't distribute USDT. Best to distribute in token itself\n    function countPendingRewards(address[] memory _tokens) public view returns (\n      uint256[] memory _tradingRewards\n    ) {\n      for (uint i=0; i < _tokens.length; i++) {\n          if (!isWinner(_tokens[i])) {\n              _tradingRewards[i] = 0;\n          } else {\n              _tradingRewards[i] = getDepositedRewards(_tokens[i]) - totalClaimedRewards[_tokens[i]];\n          }\n      }\n\n    }\n\n    // However how to count votes for a particular token - this only includes votes made during the round when it won.\n    // More difficult to include previous rounds, discounted by 50%\n    function countVotesForToken(address _token, address _who) public view returns (uint) {\n      return voteManager.votesForToken(_token,_who);\n    }\n\n    function countTotalVotesForToken(address _token) public view returns (uint) {\n      return voteManager.winningVotes(_token);\n    }\n\n    function isWinner(address _token) public view returns (bool) {\n      return voteManager.isWinner(_token);\n    }\n\n    ////////////////\n    // Internal helper functions to query and set a value in a snapshot array\n    ////////////////\n\n        /// @dev `getValueAt` retrieves the number of tokens at a given block number\n        /// @param checkpoints The history of values being queried\n        /// @param _block The block number to retrieve the value at\n        /// @return The number of tokens being queried\n        function getValueAt(Checkpoint[] storage checkpoints, uint _block\n        ) view internal returns (uint) {\n            if (checkpoints.length == 0) return 0;\n\n            // Shortcut for the actual value\n            if (_block >= checkpoints[checkpoints.length-1].fromBlock)\n                return checkpoints[checkpoints.length-1].value;\n            if (_block < checkpoints[0].fromBlock) return 0;\n\n            // Binary search of the value in the array\n            uint min = 0;\n            uint max = checkpoints.length-1;\n            while (max > min) {\n                uint mid = (max + min + 1)/ 2;\n                if (checkpoints[mid].fromBlock<=_block) {\n                    min = mid;\n                } else {\n                    max = mid-1;\n                }\n            }\n            return checkpoints[min].value;\n        }\n\n        /// @dev `updateValueAtNow` used to update the `balances` map and the\n        ///  `totalSupplyHistory`\n        /// @param checkpoints The history of data being updated\n        /// @param _value The new number of tokens\n        function updateValueAtNow(Checkpoint[] storage checkpoints, uint _value\n        ) internal  {\n            if ((checkpoints.length == 0)\n            || (checkpoints[checkpoints.length -1].fromBlock < block.number)) {\n                   Checkpoint storage newCheckPoint = checkpoints[ checkpoints.length++ ];\n                   newCheckPoint.fromBlock =  uint128(block.number);\n                   newCheckPoint.value = uint128(_value);\n               } else {\n                   Checkpoint storage oldCheckPoint = checkpoints[checkpoints.length-1];\n                   oldCheckPoint.value = uint128(_value);\n               }\n        }\n\n        /// @dev Internal function to determine if an address is a contract\n        /// @param _addr The address being queried\n        /// @return True if `_addr` is a contract\n        function isContract(address _addr) view internal returns(bool) {\n            uint size;\n            if (_addr == address(0)) return false;\n            assembly {\n                size := extcodesize(_addr)\n            }\n            return size>0;\n        }\n\n        /// @dev Helper function to return a min betwen the two uints\n        function min(uint a, uint b) pure internal returns (uint) {\n            return a < b ? a : b;\n        }\n\n        ////////////////\n        // Query deposit History\n        ////////////////\n\n            function getDepositedRewards(address _winningToken) public view returns (uint256 balance) {\n                return getDepositedRewardsAt(_winningToken, block.number);\n            }\n\n            /// @dev Queries the deposits for `_winningToken` at a specific `_blockNumber`\n            /// @param _winningToken The address for which the deposits will be retrieved\n            /// @param _blockNumber The block number when the balance is queried\n            /// @return The balance at `_blockNumber`\n            function getDepositedRewardsAt(address _winningToken, uint _blockNumber) public view\n                returns (uint) {\n\n                // These next few lines are used when the balance of the token is\n                //  requested before a check point was ever created for this token, it\n                //  requires that the `parentToken.balanceOfAt` be queried at the\n                //  genesis block for that token as this contains initial balance of\n                //  this token\n                if ((depositedRewards[_winningToken].length == 0)\n                    || (depositedRewards[_winningToken][0].fromBlock > _blockNumber)) {\n                        return 0;\n                } else {\n                    return getValueAt(depositedRewards[_winningToken], _blockNumber);\n                }\n            }\n\n            function getClaimedRewards(address _claimant, address _winningToken) public view returns (uint256 balance) {\n              return claimedRewards[_claimant][_winningToken];\n            }\n\n            function getTotalClaimedRewards(address _winningToken) public view returns (uint256 balance) {\n              return totalClaimedRewards[_winningToken];\n            }\n\n            modifier onlyAdmins() {\n                require(isAdmin(msg.sender));\n                _;\n            }\n\n            function isAdmin(address _admin) public view returns(bool) {\n                return admins[_admin];\n            }\n\n            /// @notice Any admin is able to add new admin\n            /// @param _newAdmin Address of new admin\n            function addAdmin(address _newAdmin) public onlyAdmins {\n                admins[_newAdmin] = true;\n            }\n\n            /// @notice Only owner is able to remove admin\n            /// @param _admin Address of current admin\n            function removeAdmin(address _admin) public onlyOwner {\n                admins[_admin] = false;\n            }\n\n      event NewRewardsDeposited(address _tokenAddress, uint256 _depositAmount);\n      event ExpiredRewardsWithdrawn(address _tokenAddress, uint256 _withdrawnAmount, address _to);\n      event RewardsClaimed(address _claimant, uint256 _claimedAmount);\n}\n",
  "sourcePath": "/Users/willharborne/Desktop/repos/community-gateway/solidity/contracts/ListingRewardManager.sol",
  "compiler": {
    "name": "solc",
    "version": "0.5.0+commit.1d4f565a.Emscripten.clang"
  },
  "schemaVersion": "3.0.1",
  "updatedAt": "2019-02-18T00:19:03.153Z",
  "devdoc": {
    "methods": {
      "addAdmin(address)": {
        "params": {
          "_newAdmin": "Address of new admin"
        }
      },
      "getDepositedRewardsAt(address,uint256)": {
        "details": "Queries the deposits for `_winningToken` at a specific `_blockNumber`",
        "params": {
          "_blockNumber": "The block number when the balance is queried",
          "_winningToken": "The address for which the deposits will be retrieved"
        },
        "return": "The balance at `_blockNumber`"
      },
      "removeAdmin(address)": {
        "params": {
          "_admin": "Address of current admin"
        }
      }
    }
  },
  "userdoc": {
    "methods": {
      "addAdmin(address)": {
        "notice": "Any admin is able to add new admin"
      },
      "getDepositedRewards(address)": {
        "notice": "/////////////"
      },
      "removeAdmin(address)": {
        "notice": "Only owner is able to remove admin"
      }
    }
  }
}