{
  "contractName": "MiniMeToken",
  "abi": [
    {
      "constant": true,
      "inputs": [],
      "name": "name",
      "outputs": [
        {
          "name": "",
          "type": "string"
        }
      ],
      "payable": false,
      "stateMutability": "view",
      "type": "function"
    },
    {
      "constant": true,
      "inputs": [],
      "name": "creationBlock",
      "outputs": [
        {
          "name": "",
          "type": "uint256"
        }
      ],
      "payable": false,
      "stateMutability": "view",
      "type": "function"
    },
    {
      "constant": true,
      "inputs": [],
      "name": "decimals",
      "outputs": [
        {
          "name": "",
          "type": "uint8"
        }
      ],
      "payable": false,
      "stateMutability": "view",
      "type": "function"
    },
    {
      "constant": false,
      "inputs": [
        {
          "name": "_newController",
          "type": "address"
        }
      ],
      "name": "changeController",
      "outputs": [],
      "payable": false,
      "stateMutability": "nonpayable",
      "type": "function"
    },
    {
      "constant": true,
      "inputs": [],
      "name": "version",
      "outputs": [
        {
          "name": "",
          "type": "string"
        }
      ],
      "payable": false,
      "stateMutability": "view",
      "type": "function"
    },
    {
      "constant": true,
      "inputs": [],
      "name": "parentToken",
      "outputs": [
        {
          "name": "",
          "type": "address"
        }
      ],
      "payable": false,
      "stateMutability": "view",
      "type": "function"
    },
    {
      "constant": true,
      "inputs": [],
      "name": "symbol",
      "outputs": [
        {
          "name": "",
          "type": "string"
        }
      ],
      "payable": false,
      "stateMutability": "view",
      "type": "function"
    },
    {
      "constant": true,
      "inputs": [],
      "name": "transfersEnabled",
      "outputs": [
        {
          "name": "",
          "type": "bool"
        }
      ],
      "payable": false,
      "stateMutability": "view",
      "type": "function"
    },
    {
      "constant": true,
      "inputs": [],
      "name": "parentSnapShotBlock",
      "outputs": [
        {
          "name": "",
          "type": "uint256"
        }
      ],
      "payable": false,
      "stateMutability": "view",
      "type": "function"
    },
    {
      "constant": true,
      "inputs": [],
      "name": "tokenFactory",
      "outputs": [
        {
          "name": "",
          "type": "address"
        }
      ],
      "payable": false,
      "stateMutability": "view",
      "type": "function"
    },
    {
      "constant": true,
      "inputs": [],
      "name": "controller",
      "outputs": [
        {
          "name": "",
          "type": "address"
        }
      ],
      "payable": false,
      "stateMutability": "view",
      "type": "function"
    },
    {
      "inputs": [
        {
          "name": "_tokenFactory",
          "type": "address"
        },
        {
          "name": "_parentToken",
          "type": "address"
        },
        {
          "name": "_parentSnapShotBlock",
          "type": "uint256"
        },
        {
          "name": "_tokenName",
          "type": "string"
        },
        {
          "name": "_decimalUnits",
          "type": "uint8"
        },
        {
          "name": "_tokenSymbol",
          "type": "string"
        },
        {
          "name": "_transfersEnabled",
          "type": "bool"
        }
      ],
      "payable": false,
      "stateMutability": "nonpayable",
      "type": "constructor"
    },
    {
      "payable": true,
      "stateMutability": "payable",
      "type": "fallback"
    },
    {
      "anonymous": false,
      "inputs": [
        {
          "indexed": true,
          "name": "_token",
          "type": "address"
        },
        {
          "indexed": true,
          "name": "_controller",
          "type": "address"
        },
        {
          "indexed": false,
          "name": "_amount",
          "type": "uint256"
        }
      ],
      "name": "ClaimedTokens",
      "type": "event"
    },
    {
      "anonymous": false,
      "inputs": [
        {
          "indexed": true,
          "name": "_from",
          "type": "address"
        },
        {
          "indexed": true,
          "name": "_to",
          "type": "address"
        },
        {
          "indexed": false,
          "name": "_amount",
          "type": "uint256"
        }
      ],
      "name": "Transfer",
      "type": "event"
    },
    {
      "anonymous": false,
      "inputs": [
        {
          "indexed": true,
          "name": "_cloneToken",
          "type": "address"
        },
        {
          "indexed": false,
          "name": "_snapshotBlock",
          "type": "uint256"
        }
      ],
      "name": "NewCloneToken",
      "type": "event"
    },
    {
      "anonymous": false,
      "inputs": [
        {
          "indexed": true,
          "name": "_owner",
          "type": "address"
        },
        {
          "indexed": true,
          "name": "_spender",
          "type": "address"
        },
        {
          "indexed": false,
          "name": "_amount",
          "type": "uint256"
        }
      ],
      "name": "Approval",
      "type": "event"
    },
    {
      "constant": false,
      "inputs": [
        {
          "name": "_to",
          "type": "address"
        },
        {
          "name": "_amount",
          "type": "uint256"
        }
      ],
      "name": "transfer",
      "outputs": [
        {
          "name": "success",
          "type": "bool"
        }
      ],
      "payable": false,
      "stateMutability": "nonpayable",
      "type": "function"
    },
    {
      "constant": false,
      "inputs": [
        {
          "name": "_from",
          "type": "address"
        },
        {
          "name": "_to",
          "type": "address"
        },
        {
          "name": "_amount",
          "type": "uint256"
        }
      ],
      "name": "transferFrom",
      "outputs": [
        {
          "name": "success",
          "type": "bool"
        }
      ],
      "payable": false,
      "stateMutability": "nonpayable",
      "type": "function"
    },
    {
      "constant": true,
      "inputs": [
        {
          "name": "_owner",
          "type": "address"
        }
      ],
      "name": "balanceOf",
      "outputs": [
        {
          "name": "balance",
          "type": "uint256"
        }
      ],
      "payable": false,
      "stateMutability": "view",
      "type": "function"
    },
    {
      "constant": false,
      "inputs": [
        {
          "name": "_spender",
          "type": "address"
        },
        {
          "name": "_amount",
          "type": "uint256"
        }
      ],
      "name": "approve",
      "outputs": [
        {
          "name": "success",
          "type": "bool"
        }
      ],
      "payable": false,
      "stateMutability": "nonpayable",
      "type": "function"
    },
    {
      "constant": true,
      "inputs": [
        {
          "name": "_owner",
          "type": "address"
        },
        {
          "name": "_spender",
          "type": "address"
        }
      ],
      "name": "allowance",
      "outputs": [
        {
          "name": "remaining",
          "type": "uint256"
        }
      ],
      "payable": false,
      "stateMutability": "view",
      "type": "function"
    },
    {
      "constant": false,
      "inputs": [
        {
          "name": "_spender",
          "type": "address"
        },
        {
          "name": "_amount",
          "type": "uint256"
        },
        {
          "name": "_extraData",
          "type": "bytes"
        }
      ],
      "name": "approveAndCall",
      "outputs": [
        {
          "name": "success",
          "type": "bool"
        }
      ],
      "payable": false,
      "stateMutability": "nonpayable",
      "type": "function"
    },
    {
      "constant": true,
      "inputs": [],
      "name": "totalSupply",
      "outputs": [
        {
          "name": "",
          "type": "uint256"
        }
      ],
      "payable": false,
      "stateMutability": "view",
      "type": "function"
    },
    {
      "constant": true,
      "inputs": [
        {
          "name": "_owner",
          "type": "address"
        },
        {
          "name": "_blockNumber",
          "type": "uint256"
        }
      ],
      "name": "balanceOfAt",
      "outputs": [
        {
          "name": "",
          "type": "uint256"
        }
      ],
      "payable": false,
      "stateMutability": "view",
      "type": "function"
    },
    {
      "constant": true,
      "inputs": [
        {
          "name": "_blockNumber",
          "type": "uint256"
        }
      ],
      "name": "totalSupplyAt",
      "outputs": [
        {
          "name": "",
          "type": "uint256"
        }
      ],
      "payable": false,
      "stateMutability": "view",
      "type": "function"
    },
    {
      "constant": true,
      "inputs": [],
      "name": "totalPledgedFees",
      "outputs": [
        {
          "name": "",
          "type": "uint256"
        }
      ],
      "payable": false,
      "stateMutability": "view",
      "type": "function"
    },
    {
      "constant": true,
      "inputs": [
        {
          "name": "_blockNumber",
          "type": "uint256"
        }
      ],
      "name": "totalPledgedFeesAt",
      "outputs": [
        {
          "name": "",
          "type": "uint256"
        }
      ],
      "payable": false,
      "stateMutability": "view",
      "type": "function"
    },
    {
      "constant": false,
      "inputs": [
        {
          "name": "_value",
          "type": "uint256"
        }
      ],
      "name": "pledgeFees",
      "outputs": [
        {
          "name": "",
          "type": "bool"
        }
      ],
      "payable": false,
      "stateMutability": "nonpayable",
      "type": "function"
    },
    {
      "constant": false,
      "inputs": [
        {
          "name": "_value",
          "type": "uint256"
        }
      ],
      "name": "reducePledgedFees",
      "outputs": [
        {
          "name": "",
          "type": "bool"
        }
      ],
      "payable": false,
      "stateMutability": "nonpayable",
      "type": "function"
    },
    {
      "constant": false,
      "inputs": [
        {
          "name": "_cloneTokenName",
          "type": "string"
        },
        {
          "name": "_cloneDecimalUnits",
          "type": "uint8"
        },
        {
          "name": "_cloneTokenSymbol",
          "type": "string"
        },
        {
          "name": "_snapshotBlock",
          "type": "uint256"
        },
        {
          "name": "_transfersEnabled",
          "type": "bool"
        }
      ],
      "name": "createCloneToken",
      "outputs": [
        {
          "name": "",
          "type": "address"
        }
      ],
      "payable": false,
      "stateMutability": "nonpayable",
      "type": "function"
    },
    {
      "constant": false,
      "inputs": [
        {
          "name": "_owner",
          "type": "address"
        },
        {
          "name": "_amount",
          "type": "uint256"
        }
      ],
      "name": "generateTokens",
      "outputs": [
        {
          "name": "",
          "type": "bool"
        }
      ],
      "payable": false,
      "stateMutability": "nonpayable",
      "type": "function"
    },
    {
      "constant": false,
      "inputs": [
        {
          "name": "_owner",
          "type": "address"
        },
        {
          "name": "_amount",
          "type": "uint256"
        }
      ],
      "name": "destroyTokens",
      "outputs": [
        {
          "name": "",
          "type": "bool"
        }
      ],
      "payable": false,
      "stateMutability": "nonpayable",
      "type": "function"
    },
    {
      "constant": false,
      "inputs": [
        {
          "name": "_transfersEnabled",
          "type": "bool"
        }
      ],
      "name": "enableTransfers",
      "outputs": [],
      "payable": false,
      "stateMutability": "nonpayable",
      "type": "function"
    },
    {
      "constant": false,
      "inputs": [
        {
          "name": "_token",
          "type": "address"
        }
      ],
      "name": "claimTokens",
      "outputs": [],
      "payable": false,
      "stateMutability": "nonpayable",
      "type": "function"
    }
  ],
  "bytecode": "0x60c0604052600760808190527f4546585f302e310000000000000000000000000000000000000000000000000060a09081526200004091600491906200013c565b503480156200004e57600080fd5b5060405162001cb438038062001cb48339810160409081528151602080840151928401516060850151608086015160a087015160c08801516000805433600160a060020a031991821617909155600d8054909116600160a060020a03891617905592880180519698949690959294919091019291620000d3916001918701906200013c565b506002805460ff191660ff85161790558151620000f89060039060208501906200013c565b5060058054600160a060020a031916600160a060020a039790971696909617909555505050600655600b805460ff19169115159190911790555043600755620001e1565b828054600181600116156101000203166002900490600052602060002090601f016020900481019282601f106200017f57805160ff1916838001178555620001af565b82800160010185558215620001af579182015b82811115620001af57825182559160200191906001019062000192565b50620001bd929150620001c1565b5090565b620001de91905b80821115620001bd5760008155600101620001c8565b90565b611ac380620001f16000396000f30060806040526004361061015b5763ffffffff60e060020a60003504166306fdde03811461021b578063095ea7b3146102a557806317634514146102dd57806318160ddd1461030457806323b872dd14610319578063311325bd14610343578063313ce567146103585780633cebb82314610383578063486575a5146103a45780634ee2cd7e146103bc5780634fa7e353146103e057806354fd4d50146103f85780636638c0871461040d57806370a08231146104d057806380a54001146104f1578063827f32c01461050657806395d89b411461052a578063981b24d01461053f578063a9059cbb14610557578063bef97c871461057b578063c5bcc4f114610590578063c6d1d23d146105a5578063cae9ca51146105bd578063d3ce77fe14610626578063dd62ed3e1461064a578063df8de3e714610671578063e77772fe14610692578063f41e60c5146106a7578063f77c4791146106c1575b60005461017090600160a060020a03166106d6565b151561017b57600080fd5b600054604080517ff48c30540000000000000000000000000000000000000000000000000000000081523360048201529051600160a060020a039092169163f48c3054913491602480830192602092919082900301818588803b1580156101e157600080fd5b505af11580156101f5573d6000803e3d6000fd5b50505050506040513d602081101561020c57600080fd5b5051151561021957600080fd5b005b34801561022757600080fd5b50610230610703565b6040805160208082528351818301528351919283929083019185019080838360005b8381101561026a578181015183820152602001610252565b50505050905090810190601f1680156102975780820380516001836020036101000a031916815260200191505b509250505060405180910390f35b3480156102b157600080fd5b506102c9600160a060020a0360043516602435610790565b604080519115158252519081900360200190f35b3480156102e957600080fd5b506102f261090e565b60408051918252519081900360200190f35b34801561031057600080fd5b506102f2610914565b34801561032557600080fd5b506102c9600160a060020a0360043581169060243516604435610925565b34801561034f57600080fd5b506102f26109e6565b34801561036457600080fd5b5061036d6109f1565b6040805160ff9092168252519081900360200190f35b34801561038f57600080fd5b50610219600160a060020a03600435166109fa565b3480156103b057600080fd5b506102c9600435610a40565b3480156103c857600080fd5b506102f2600160a060020a0360043516602435610a87565b3480156103ec57600080fd5b506102c9600435610bd4565b34801561040457600080fd5b50610230610c14565b34801561041957600080fd5b506040805160206004803580820135601f81018490048402850184019095528484526104b494369492936024939284019190819084018382808284375050604080516020601f818a01358b0180359182018390048302840183018552818452989b60ff8b35169b909a909994019750919550918201935091508190840183828082843750949750508435955050505050602001351515610c6f565b60408051600160a060020a039092168252519081900360200190f35b3480156104dc57600080fd5b506102f2600160a060020a0360043516610ec5565b3480156104fd57600080fd5b506104b4610ed9565b34801561051257600080fd5b506102c9600160a060020a0360043516602435610ee8565b34801561053657600080fd5b50610230610fa2565b34801561054b57600080fd5b506102f2600435610ffd565b34801561056357600080fd5b506102c9600160a060020a03600435166024356110f1565b34801561058757600080fd5b506102c9611110565b34801561059c57600080fd5b506102f2611119565b3480156105b157600080fd5b506102f260043561111f565b3480156105c957600080fd5b50604080516020600460443581810135601f81018490048402850184019095528484526102c9948235600160a060020a03169460248035953695946064949201919081908401838280828437509497506111989650505050505050565b34801561063257600080fd5b506102c9600160a060020a03600435166024356112b3565b34801561065657600080fd5b506102f2600160a060020a0360043581169060243516611369565b34801561067d57600080fd5b50610219600160a060020a0360043516611394565b34801561069e57600080fd5b506104b461157b565b3480156106b357600080fd5b50610219600435151561158a565b3480156106cd57600080fd5b506104b46115b4565b600080600160a060020a03831615156106f257600091506106fd565b823b90506000811191505b50919050565b60018054604080516020600284861615610100026000190190941693909304601f810184900484028201840190925281815292918301828280156107885780601f1061075d57610100808354040283529160200191610788565b820191906000526020600020905b81548152906001019060200180831161076b57829003601f168201915b505050505081565b600b5460009060ff1615156107a457600080fd5b8115806107d25750336000908152600960209081526040808320600160a060020a0387168452909152902054155b15156107dd57600080fd5b6000546107f290600160a060020a03166106d6565b156108a65760008054604080517fda682aeb000000000000000000000000000000000000000000000000000000008152336004820152600160a060020a038781166024830152604482018790529151919092169263da682aeb92606480820193602093909283900390910190829087803b15801561086f57600080fd5b505af1158015610883573d6000803e3d6000fd5b505050506040513d602081101561089957600080fd5b505115156108a657600080fd5b336000818152600960209081526040808320600160a060020a03881680855290835292819020869055805186815290519293927f8c5be1e5ebec7d5bd14f71427d1e84f3dd0314c0f7b2291e5b200ac8c7c3b925929181900390910190a35060015b92915050565b60075481565b600061091f43610ffd565b90505b90565b60008054600160a060020a031633146109d157600b5460ff16151561094957600080fd5b600160a060020a038416600090815260096020908152604080832033845290915290205460001911156109d157600160a060020a03841660009081526009602090815260408083203384529091529020548211156109a657600080fd5b600160a060020a03841660009081526009602090815260408083203384529091529020805483900390555b6109dc8484846115c3565b5060019392505050565b600061091f4361111f565b60025460ff1681565b600054600160a060020a03163314610a1157600080fd5b6000805473ffffffffffffffffffffffffffffffffffffffff1916600160a060020a0392909216919091179055565b600080548190600160a060020a03163314610a5a57600080fd5b610a626109e6565b905082811015610a7157600080fd5b610a7e600c8483036117cd565b50600192915050565b600160a060020a0382166000908152600860205260408120541580610ae35750600160a060020a038316600090815260086020526040812080548492908110610acc57fe5b6000918252602090912001546001608060020a0316115b15610bab57600554600160a060020a031615610ba357600554600654600160a060020a0390911690634ee2cd7e908590610b1e9086906118c3565b6040518363ffffffff1660e060020a0281526004018083600160a060020a0316600160a060020a0316815260200182815260200192505050602060405180830381600087803b158015610b7057600080fd5b505af1158015610b84573d6000803e3d6000fd5b505050506040513d6020811015610b9a57600080fd5b50519050610908565b506000610908565b600160a060020a0383166000908152600860205260409020610bcd90836118db565b9050610908565b600080548190600160a060020a03163314610bee57600080fd5b610bf66109e6565b9050828101811115610c0757600080fd5b610a7e600c8483016117cd565b6004805460408051602060026001851615610100026000190190941693909304601f810184900484028201840190925281815292918301828280156107885780601f1061075d57610100808354040283529160200191610788565b600080831515610c7d574393505b600d546040517f5b7b72c100000000000000000000000000000000000000000000000000000000815230600482018181526024830188905260ff8a16606484015286151560a484015260c0604484019081528b5160c48501528b51600160a060020a0390951694635b7b72c1948a938e938e938e938d939291608482019160e40190602089019080838360005b83811015610d22578181015183820152602001610d0a565b50505050905090810190601f168015610d4f5780820380516001836020036101000a031916815260200191505b50838103825285518152855160209182019187019080838360005b83811015610d82578181015183820152602001610d6a565b50505050905090810190601f168015610daf5780820380516001836020036101000a031916815260200191505b5098505050505050505050602060405180830381600087803b158015610dd457600080fd5b505af1158015610de8573d6000803e3d6000fd5b505050506040513d6020811015610dfe57600080fd5b5051604080517f3cebb8230000000000000000000000000000000000000000000000000000000081523360048201529051919250600160a060020a03831691633cebb8239160248082019260009290919082900301818387803b158015610e6457600080fd5b505af1158015610e78573d6000803e3d6000fd5b5050604080518781529051600160a060020a03851693507f086c875b377f900b07ce03575813022f05dd10ed7640b5282cf6d3c3fc352ade92509081900360200190a29695505050505050565b6000610ed18243610a87565b90505b919050565b600554600160a060020a031681565b6000805481908190600160a060020a03163314610f0457600080fd5b610f0c610914565b9150838201821115610f1d57600080fd5b610f2685610ec5565b9050838101811115610f3757600080fd5b610f44600a8584016117cd565b600160a060020a0385166000908152600860205260409020610f68908286016117cd565b604080518581529051600160a060020a03871691600091600080516020611a788339815191529181900360200190a3506001949350505050565b6003805460408051602060026001851615610100026000190190941693909304601f810184900484028201840190925281815292918301828280156107885780601f1061075d57610100808354040283529160200191610788565b600a546000901580611032575081600a600081548110151561101b57fe5b6000918252602090912001546001608060020a0316115b156110df57600554600160a060020a0316156110d757600554600654600160a060020a039091169063981b24d09061106b9085906118c3565b6040518263ffffffff1660e060020a02815260040180828152602001915050602060405180830381600087803b1580156110a457600080fd5b505af11580156110b8573d6000803e3d6000fd5b505050506040513d60208110156110ce57600080fd5b50519050610ed4565b506000610ed4565b6110ea600a836118db565b9050610ed4565b600b5460009060ff16151561110557600080fd5b610a7e3384846115c3565b600b5460ff1681565b60065481565b600c546000901580611154575081600c600081548110151561113d57fe5b6000918252602090912001546001608060020a0316115b1561118d57600554600160a060020a0316156110d757600554600654600160a060020a039091169063c6d1d23d9061106b9085906118c3565b6110ea600c836118db565b60006111a48484610790565b15156111af57600080fd5b6040517f8f4ffcb10000000000000000000000000000000000000000000000000000000081523360048201818152602483018690523060448401819052608060648501908152865160848601528651600160a060020a038a1695638f4ffcb195948a94938a939192909160a490910190602085019080838360005b8381101561124257818101518382015260200161122a565b50505050905090810190601f16801561126f5780820380516001836020036101000a031916815260200191505b5095505050505050600060405180830381600087803b15801561129157600080fd5b505af11580156112a5573d6000803e3d6000fd5b506001979650505050505050565b6000805481908190600160a060020a031633146112cf57600080fd5b6112d7610914565b9150838210156112e657600080fd5b6112ef85610ec5565b9050838110156112fe57600080fd5b61130b600a8584036117cd565b600160a060020a038516600090815260086020526040902061132f908583036117cd565b604080518581529051600091600160a060020a03881691600080516020611a788339815191529181900360200190a3506001949350505050565b600160a060020a03918216600090815260096020908152604080832093909416825291909152205490565b600080548190600160a060020a031633146113ae57600080fd5b600160a060020a03831615156113ff5760008054604051600160a060020a0390911691303180156108fc02929091818181858888f193505050501580156113f9573d6000803e3d6000fd5b50611576565b604080517f70a082310000000000000000000000000000000000000000000000000000000081523060048201529051849350600160a060020a038416916370a082319160248083019260209291908290030181600087803b15801561146357600080fd5b505af1158015611477573d6000803e3d6000fd5b505050506040513d602081101561148d57600080fd5b505160008054604080517fa9059cbb000000000000000000000000000000000000000000000000000000008152600160a060020a0392831660048201526024810185905290519394509085169263a9059cbb92604480840193602093929083900390910190829087803b15801561150357600080fd5b505af1158015611517573d6000803e3d6000fd5b505050506040513d602081101561152d57600080fd5b5050600054604080518381529051600160a060020a03928316928616917ff931edb47c50b4b4104c187b5814a9aef5f709e17e2ecf9617e860cacade929c919081900360200190a35b505050565b600d54600160a060020a031681565b600054600160a060020a031633146115a157600080fd5b600b805460ff1916911515919091179055565b600054600160a060020a031681565b60008082151561160b5783600160a060020a031685600160a060020a0316600080516020611a78833981519152856040518082815260200191505060405180910390a36117c6565b600654431161161957600080fd5b600160a060020a0384161580159061163a5750600160a060020a0384163014155b151561164557600080fd5b61164f8543610a87565b91508282101561165e57600080fd5b60005461167390600160a060020a03166106d6565b156117295760008054604080517f4a393149000000000000000000000000000000000000000000000000000000008152600160a060020a03898116600483015288811660248301526044820188905291519190921692634a39314992606480820193602093909283900390910190829087803b1580156116f257600080fd5b505af1158015611706573d6000803e3d6000fd5b505050506040513d602081101561171c57600080fd5b5051151561172957600080fd5b600160a060020a038516600090815260086020526040902061174d908484036117cd565b6117578443610a87565b905082810181111561176857600080fd5b600160a060020a038416600090815260086020526040902061178c908285016117cd565b83600160a060020a031685600160a060020a0316600080516020611a78833981519152856040518082815260200191505060405180910390a35b5050505050565b815460009081901580611806575083544390859060001981019081106117ef57fe5b6000918252602090912001546001608060020a0316105b15611878578354849061181c8260018301611a3a565b8154811061182657fe5b600091825260209091200180546001608060020a03858116700100000000000000000000000000000000024382166fffffffffffffffffffffffffffffffff19909316929092171617815591506118bd565b83548490600019810190811061188a57fe5b600091825260209091200180546001608060020a0380861670010000000000000000000000000000000002911617815590505b50505050565b60008183106118d257816118d4565b825b9392505050565b6000806000808580549050600014156118f75760009350611a31565b85548690600019810190811061190957fe5b6000918252602090912001546001608060020a031685106119665785548690600019810190811061193657fe5b60009182526020909120015470010000000000000000000000000000000090046001608060020a03169350611a31565b85600081548110151561197557fe5b6000918252602090912001546001608060020a031685101561199a5760009350611a31565b8554600093506000190191505b828211156119f75760026001838501010490508486828154811015156119c957fe5b6000918252602090912001546001608060020a0316116119eb578092506119f2565b6001810391505b6119a7565b8583815481101515611a0557fe5b60009182526020909120015470010000000000000000000000000000000090046001608060020a031693505b50505092915050565b8154818355818111156115765760008381526020902061157691810190830161092291905b80821115611a735760008155600101611a5f565b50905600ddf252ad1be2c89b69c2b068fc378daa952ba7f163c4a11628f55a4df523b3efa165627a7a7230582062269f98553d9df10846c853a863088db519a2802d95944def6dea9cfb069dbb0029",
  "source": "pragma solidity ^0.4.18;\n\n/*\n    Copyright 2016, Jordi Baylina\n\n    This program is free software: you can redistribute it and/or modify\n    it under the terms of the GNU General Public License as published by\n    the Free Software Foundation, either version 3 of the License, or\n    (at your option) any later version.\n\n    This program is distributed in the hope that it will be useful,\n    but WITHOUT ANY WARRANTY; without even the implied warranty of\n    MERCHANTABILITY or FITNESS FOR A PARTICULAR PURPOSE.  See the\n    GNU General Public License for more details.\n\n    You should have received a copy of the GNU General Public License\n    along with this program.  If not, see <http://www.gnu.org/licenses/>.\n */\n\n/// @title MiniMeToken Contract\n/// @author Jordi Baylina\n/// @dev This token contract's goal is to make it easy for anyone to clone this\n///  token using the token distribution at a given block, this will allow DAO's\n///  and DApps to upgrade their features in a decentralized manner without\n///  affecting the original token\n/// @dev It is ERC20 compliant, but still needs to under go further testing.\n\nimport \"./Controlled.sol\";\nimport \"./TokenController.sol\";\n\ncontract ApproveAndCallFallBack {\n    function receiveApproval(address from, uint256 _amount, address _token, bytes _data) public;\n}\n\n/// @dev The actual token contract, the default controller is the msg.sender\n///  that deploys the contract, so usually this token will be deployed by a\n///  token controller contract, which Giveth will call a \"Campaign\"\n/// @dev The actual token contract, the default controller is the msg.sender\n///  that deploys the contract, so usually this token will be deployed by a\n///  token controller contract, which Giveth will call a \"Campaign\"\ncontract MiniMeToken is Controlled {\n\n    string public name;                //The Token's name: e.g. DigixDAO Tokens\n    uint8 public decimals;             //Number of decimals of the smallest unit\n    string public symbol;              //An identifier: e.g. REP\n    string public version = 'EFX_0.1'; //An arbitrary versioning scheme\n\n\n    /// @dev `Checkpoint` is the structure that attaches a block number to a\n    ///  given value, the block number attached is the one that last changed the\n    ///  value\n    struct  Checkpoint {\n\n        // `fromBlock` is the block number that the value was generated from\n        uint128 fromBlock;\n\n        // `value` is the amount of tokens at a specific block number\n        uint128 value;\n    }\n\n    // `parentToken` is the Token address that was cloned to produce this token;\n    //  it will be 0x0 for a token that was not cloned\n    MiniMeToken public parentToken;\n\n    // `parentSnapShotBlock` is the block number from the Parent Token that was\n    //  used to determine the initial distribution of the Clone Token\n    uint public parentSnapShotBlock;\n\n    // `creationBlock` is the block number that the Clone Token was created\n    uint public creationBlock;\n\n    // `balances` is the map that tracks the balance of each address, in this\n    //  contract when the balance changes the block number that the change\n    //  occurred is also included in the map\n    mapping (address => Checkpoint[]) balances;\n\n    // `allowed` tracks any extra transfer rights as in all ERC20 tokens\n    mapping (address => mapping (address => uint256)) allowed;\n\n    // Tracks the history of the `totalSupply` of the token\n    Checkpoint[] totalSupplyHistory;\n\n    // Flag that determines if the token is transferable or not.\n    bool public transfersEnabled;\n\n    // Tracks the history of the `pledgedFees` belonging to token holders\n    Checkpoint[] totalPledgedFeesHistory; // in wei\n\n    // The factory used to create new clone tokens\n    MiniMeTokenFactory public tokenFactory;\n\n////////////////\n// Constructor\n////////////////\n\n    /// @notice Constructor to create a MiniMeToken\n    /// @param _tokenFactory The address of the MiniMeTokenFactory contract that\n    ///  will create the Clone token contracts, the token factory needs to be\n    ///  deployed first\n    /// @param _parentToken Address of the parent token, set to 0x0 if it is a\n    ///  new token\n    /// @param _parentSnapShotBlock Block of the parent token that will\n    ///  determine the initial distribution of the clone token, set to 0 if it\n    ///  is a new token\n    /// @param _tokenName Name of the new token\n    /// @param _decimalUnits Number of decimals of the new token\n    /// @param _tokenSymbol Token Symbol for the new token\n    /// @param _transfersEnabled If true, tokens will be able to be transferred\n    function MiniMeToken(\n        address _tokenFactory,\n        address _parentToken,\n        uint _parentSnapShotBlock,\n        string _tokenName,\n        uint8 _decimalUnits,\n        string _tokenSymbol,\n        bool _transfersEnabled\n    ) public {\n        tokenFactory = MiniMeTokenFactory(_tokenFactory);\n        name = _tokenName;                                 // Set the name\n        decimals = _decimalUnits;                          // Set the decimals\n        symbol = _tokenSymbol;                             // Set the symbol\n        parentToken = MiniMeToken(_parentToken);\n        parentSnapShotBlock = _parentSnapShotBlock;\n        transfersEnabled = _transfersEnabled;\n        creationBlock = block.number;\n    }\n\n\n///////////////////\n// ERC20 Methods\n///////////////////\n\n    uint constant MAX_UINT = 2**256 - 1;\n\n    /// @notice Send `_amount` tokens to `_to` from `msg.sender`\n    /// @param _to The address of the recipient\n    /// @param _amount The amount of tokens to be transferred\n    /// @return Whether the transfer was successful or not\n    function transfer(address _to, uint256 _amount) public returns (bool success) {\n        require(transfersEnabled);\n        doTransfer(msg.sender, _to, _amount);\n        return true;\n    }\n\n    /// @notice Send `_amount` tokens to `_to` from `_from` on the condition it\n    ///  is approved by `_from`\n    /// @param _from The address holding the tokens being transferred\n    /// @param _to The address of the recipient\n    /// @param _amount The amount of tokens to be transferred\n    /// @return True if the transfer was successful\n    function transferFrom(address _from, address _to, uint256 _amount\n    ) public returns (bool success) {\n\n        // The controller of this contract can move tokens around at will,\n        //  this is important to recognize! Confirm that you trust the\n        //  controller of this contract, which in most situations should be\n        //  another open source smart contract or 0x0\n        if (msg.sender != controller) {\n            require(transfersEnabled);\n\n            // The standard ERC 20 transferFrom functionality\n            if (allowed[_from][msg.sender] < MAX_UINT) {\n                require(allowed[_from][msg.sender] >= _amount);\n                allowed[_from][msg.sender] -= _amount;\n            }\n        }\n        doTransfer(_from, _to, _amount);\n        return true;\n    }\n\n    /// @dev This is the actual transfer function in the token contract, it can\n    ///  only be called by other functions in this contract.\n    /// @param _from The address holding the tokens being transferred\n    /// @param _to The address of the recipient\n    /// @param _amount The amount of tokens to be transferred\n    /// @return True if the transfer was successful\n    function doTransfer(address _from, address _to, uint _amount\n    ) internal {\n\n           if (_amount == 0) {\n               Transfer(_from, _to, _amount);    // Follow the spec to louch the event when transfer 0\n               return;\n           }\n\n           require(parentSnapShotBlock < block.number);\n\n           // Do not allow transfer to 0x0 or the token contract itself\n           require((_to != 0) && (_to != address(this)));\n\n           // If the amount being transfered is more than the balance of the\n           //  account the transfer throws\n           var previousBalanceFrom = balanceOfAt(_from, block.number);\n\n           require(previousBalanceFrom >= _amount);\n\n           // Alerts the token controller of the transfer\n           if (isContract(controller)) {\n               require(TokenController(controller).onTransfer(_from, _to, _amount));\n           }\n\n           // First update the balance array with the new value for the address\n           //  sending the tokens\n           updateValueAtNow(balances[_from], previousBalanceFrom - _amount);\n\n           // Then update the balance array with the new value for the address\n           //  receiving the tokens\n           var previousBalanceTo = balanceOfAt(_to, block.number);\n           require(previousBalanceTo + _amount >= previousBalanceTo); // Check for overflow\n           updateValueAtNow(balances[_to], previousBalanceTo + _amount);\n\n           // An event to make the transfer easy to find on the blockchain\n           Transfer(_from, _to, _amount);\n\n    }\n\n    /// @param _owner The address that's balance is being requested\n    /// @return The balance of `_owner` at the current block\n    function balanceOf(address _owner) public constant returns (uint256 balance) {\n        return balanceOfAt(_owner, block.number);\n    }\n\n    /// @notice `msg.sender` approves `_spender` to spend `_amount` tokens on\n    ///  its behalf. This is a modified version of the ERC20 approve function\n    ///  to be a little bit safer\n    /// @param _spender The address of the account able to transfer the tokens\n    /// @param _amount The amount of tokens to be approved for transfer\n    /// @return True if the approval was successful\n    function approve(address _spender, uint256 _amount) public returns (bool success) {\n        require(transfersEnabled);\n\n        // To change the approve amount you first have to reduce the addresses`\n        //  allowance to zero by calling `approve(_spender,0)` if it is not\n        //  already 0 to mitigate the race condition described here:\n        //  https://github.com/ethereum/EIPs/issues/20#issuecomment-263524729\n        require((_amount == 0) || (allowed[msg.sender][_spender] == 0));\n\n        // Alerts the token controller of the approve function call\n        if (isContract(controller)) {\n            require(TokenController(controller).onApprove(msg.sender, _spender, _amount));\n        }\n\n        allowed[msg.sender][_spender] = _amount;\n        Approval(msg.sender, _spender, _amount);\n        return true;\n    }\n\n    /// @dev This function makes it easy to read the `allowed[]` map\n    /// @param _owner The address of the account that owns the token\n    /// @param _spender The address of the account able to transfer the tokens\n    /// @return Amount of remaining tokens of _owner that _spender is allowed\n    ///  to spend\n    function allowance(address _owner, address _spender\n    ) public constant returns (uint256 remaining) {\n        return allowed[_owner][_spender];\n    }\n\n    /// @notice `msg.sender` approves `_spender` to send `_amount` tokens on\n    ///  its behalf, and then a function is triggered in the contract that is\n    ///  being approved, `_spender`. This allows users to use their tokens to\n    ///  interact with contracts in one function call instead of two\n    /// @param _spender The address of the contract able to transfer the tokens\n    /// @param _amount The amount of tokens to be approved for transfer\n    /// @return True if the function call was successful\n    function approveAndCall(address _spender, uint256 _amount, bytes _extraData\n    ) public returns (bool success) {\n        require(approve(_spender, _amount));\n\n        ApproveAndCallFallBack(_spender).receiveApproval(\n            msg.sender,\n            _amount,\n            this,\n            _extraData\n        );\n\n        return true;\n    }\n\n    /// @dev This function makes it easy to get the total number of tokens\n    /// @return The total number of tokens\n    function totalSupply() public constant returns (uint) {\n        return totalSupplyAt(block.number);\n    }\n\n\n////////////////\n// Query balance and totalSupply in History\n////////////////\n\n    /// @dev Queries the balance of `_owner` at a specific `_blockNumber`\n    /// @param _owner The address from which the balance will be retrieved\n    /// @param _blockNumber The block number when the balance is queried\n    /// @return The balance at `_blockNumber`\n    function balanceOfAt(address _owner, uint _blockNumber) public constant\n        returns (uint) {\n\n        // These next few lines are used when the balance of the token is\n        //  requested before a check point was ever created for this token, it\n        //  requires that the `parentToken.balanceOfAt` be queried at the\n        //  genesis block for that token as this contains initial balance of\n        //  this token\n        if ((balances[_owner].length == 0)\n            || (balances[_owner][0].fromBlock > _blockNumber)) {\n            if (address(parentToken) != 0) {\n                return parentToken.balanceOfAt(_owner, min(_blockNumber, parentSnapShotBlock));\n            } else {\n                // Has no parent\n                return 0;\n            }\n\n        // This will return the expected balance during normal situations\n        } else {\n            return getValueAt(balances[_owner], _blockNumber);\n        }\n    }\n\n    /// @notice Total amount of tokens at a specific `_blockNumber`.\n    /// @param _blockNumber The block number when the totalSupply is queried\n    /// @return The total amount of tokens at `_blockNumber`\n    function totalSupplyAt(uint _blockNumber) public constant returns(uint) {\n\n        // These next few lines are used when the totalSupply of the token is\n        //  requested before a check point was ever created for this token, it\n        //  requires that the `parentToken.totalSupplyAt` be queried at the\n        //  genesis block for this token as that contains totalSupply of this\n        //  token at this block number.\n        if ((totalSupplyHistory.length == 0)\n            || (totalSupplyHistory[0].fromBlock > _blockNumber)) {\n            if (address(parentToken) != 0) {\n                return parentToken.totalSupplyAt(min(_blockNumber, parentSnapShotBlock));\n            } else {\n                return 0;\n            }\n\n        // This will return the expected totalSupply during normal situations\n        } else {\n            return getValueAt(totalSupplyHistory, _blockNumber);\n        }\n    }\n\n////////////////\n// Query pledgedFees // in wei\n////////////////\n\n   /// @dev This function makes it easy to get the total pledged fees\n   /// @return The total number of fees belonging to token holders\n   function totalPledgedFees() public constant returns (uint) {\n       return totalPledgedFeesAt(block.number);\n   }\n\n   /// @notice Total amount of fees at a specific `_blockNumber`.\n   /// @param _blockNumber The block number when the totalPledgedFees is queried\n   /// @return The total amount of pledged fees at `_blockNumber`\n   function totalPledgedFeesAt(uint _blockNumber) public constant returns(uint) {\n\n       // These next few lines are used when the totalPledgedFees of the token is\n       //  requested before a check point was ever created for this token, it\n       //  requires that the `parentToken.totalPledgedFeesAt` be queried at the\n       //  genesis block for this token as that contains totalPledgedFees of this\n       //  token at this block number.\n       if ((totalPledgedFeesHistory.length == 0)\n           || (totalPledgedFeesHistory[0].fromBlock > _blockNumber)) {\n           if (address(parentToken) != 0) {\n               return parentToken.totalPledgedFeesAt(min(_blockNumber, parentSnapShotBlock));\n           } else {\n               return 0;\n           }\n\n       // This will return the expected totalPledgedFees during normal situations\n       } else {\n           return getValueAt(totalPledgedFeesHistory, _blockNumber);\n       }\n   }\n\n////////////////\n// Pledge Fees To Token Holders or Reduce Pledged Fees // in wei\n////////////////\n\n   /// @notice Pledges fees to the token holders, later to be claimed by burning\n   /// @param _value The amount sent to the vault by controller, reserved for token holders\n   function pledgeFees(uint _value) public onlyController returns (bool) {\n       uint curTotalFees = totalPledgedFees();\n       require(curTotalFees + _value >= curTotalFees); // Check for overflow\n       updateValueAtNow(totalPledgedFeesHistory, curTotalFees + _value);\n       return true;\n   }\n\n   /// @notice Reduces pledged fees to the token holders, i.e. during upgrade or token burning\n   /// @param _value The amount of pledged fees which are being distributed to token holders, reducing liability\n   function reducePledgedFees(uint _value) public onlyController returns (bool) {\n       uint curTotalFees = totalPledgedFees();\n       require(curTotalFees >= _value);\n       updateValueAtNow(totalPledgedFeesHistory, curTotalFees - _value);\n       return true;\n   }\n\n////////////////\n// Clone Token Method\n////////////////\n\n    /// @notice Creates a new clone token with the initial distribution being\n    ///  this token at `_snapshotBlock`\n    /// @param _cloneTokenName Name of the clone token\n    /// @param _cloneDecimalUnits Number of decimals of the smallest unit\n    /// @param _cloneTokenSymbol Symbol of the clone token\n    /// @param _snapshotBlock Block when the distribution of the parent token is\n    ///  copied to set the initial distribution of the new clone token;\n    ///  if the block is zero than the actual block, the current block is used\n    /// @param _transfersEnabled True if transfers are allowed in the clone\n    /// @return The address of the new MiniMeToken Contract\n    function createCloneToken(\n        string _cloneTokenName,\n        uint8 _cloneDecimalUnits,\n        string _cloneTokenSymbol,\n        uint _snapshotBlock,\n        bool _transfersEnabled\n        ) public returns(address) {\n        if (_snapshotBlock == 0) _snapshotBlock = block.number;\n        MiniMeToken cloneToken = tokenFactory.createCloneToken(\n            this,\n            _snapshotBlock,\n            _cloneTokenName,\n            _cloneDecimalUnits,\n            _cloneTokenSymbol,\n            _transfersEnabled\n            );\n\n        cloneToken.changeController(msg.sender);\n\n        // An event to make the token easy to find on the blockchain\n        NewCloneToken(address(cloneToken), _snapshotBlock);\n        return address(cloneToken);\n    }\n\n////////////////\n// Generate and destroy tokens\n////////////////\n\n    /// @notice Generates `_amount` tokens that are assigned to `_owner`\n    /// @param _owner The address that will be assigned the new tokens\n    /// @param _amount The quantity of tokens generated\n    /// @return True if the tokens are generated correctly\n    function generateTokens(address _owner, uint _amount\n    ) public onlyController returns (bool) {\n        uint curTotalSupply = totalSupply();\n        require(curTotalSupply + _amount >= curTotalSupply); // Check for overflow\n        uint previousBalanceTo = balanceOf(_owner);\n        require(previousBalanceTo + _amount >= previousBalanceTo); // Check for overflow\n        updateValueAtNow(totalSupplyHistory, curTotalSupply + _amount);\n        updateValueAtNow(balances[_owner], previousBalanceTo + _amount);\n        Transfer(0, _owner, _amount);\n        return true;\n    }\n\n\n    /// @notice Burns `_amount` tokens from `_owner`\n    /// @param _owner The address that will lose the tokens\n    /// @param _amount The quantity of tokens to burn\n    /// @return True if the tokens are burned correctly\n    function destroyTokens(address _owner, uint _amount\n    ) onlyController public returns (bool) {\n        uint curTotalSupply = totalSupply();\n        require(curTotalSupply >= _amount);\n        uint previousBalanceFrom = balanceOf(_owner);\n        require(previousBalanceFrom >= _amount);\n        updateValueAtNow(totalSupplyHistory, curTotalSupply - _amount);\n        updateValueAtNow(balances[_owner], previousBalanceFrom - _amount);\n        Transfer(_owner, 0, _amount);\n        return true;\n    }\n\n////////////////\n// Enable tokens transfers\n////////////////\n\n\n    /// @notice Enables token holders to transfer their tokens freely if true\n    /// @param _transfersEnabled True if transfers are allowed in the clone\n    function enableTransfers(bool _transfersEnabled) public onlyController {\n        transfersEnabled = _transfersEnabled;\n    }\n\n////////////////\n// Internal helper functions to query and set a value in a snapshot array\n////////////////\n\n    /// @dev `getValueAt` retrieves the number of tokens at a given block number\n    /// @param checkpoints The history of values being queried\n    /// @param _block The block number to retrieve the value at\n    /// @return The number of tokens being queried\n    function getValueAt(Checkpoint[] storage checkpoints, uint _block\n    ) constant internal returns (uint) {\n        if (checkpoints.length == 0) return 0;\n\n        // Shortcut for the actual value\n        if (_block >= checkpoints[checkpoints.length-1].fromBlock)\n            return checkpoints[checkpoints.length-1].value;\n        if (_block < checkpoints[0].fromBlock) return 0;\n\n        // Binary search of the value in the array\n        uint min = 0;\n        uint max = checkpoints.length-1;\n        while (max > min) {\n            uint mid = (max + min + 1)/ 2;\n            if (checkpoints[mid].fromBlock<=_block) {\n                min = mid;\n            } else {\n                max = mid-1;\n            }\n        }\n        return checkpoints[min].value;\n    }\n\n    /// @dev `updateValueAtNow` used to update the `balances` map and the\n    ///  `totalSupplyHistory`\n    /// @param checkpoints The history of data being updated\n    /// @param _value The new number of tokens\n    function updateValueAtNow(Checkpoint[] storage checkpoints, uint _value\n    ) internal  {\n        if ((checkpoints.length == 0)\n        || (checkpoints[checkpoints.length -1].fromBlock < block.number)) {\n               Checkpoint storage newCheckPoint = checkpoints[ checkpoints.length++ ];\n               newCheckPoint.fromBlock =  uint128(block.number);\n               newCheckPoint.value = uint128(_value);\n           } else {\n               Checkpoint storage oldCheckPoint = checkpoints[checkpoints.length-1];\n               oldCheckPoint.value = uint128(_value);\n           }\n    }\n\n    /// @dev Internal function to determine if an address is a contract\n    /// @param _addr The address being queried\n    /// @return True if `_addr` is a contract\n    function isContract(address _addr) constant internal returns(bool) {\n        uint size;\n        if (_addr == 0) return false;\n        assembly {\n            size := extcodesize(_addr)\n        }\n        return size>0;\n    }\n\n    /// @dev Helper function to return a min betwen the two uints\n    function min(uint a, uint b) pure internal returns (uint) {\n        return a < b ? a : b;\n    }\n\n    /// @notice The fallback function: If the contract's controller has not been\n    ///  set to 0, then the `proxyPayment` method is called which relays the\n    ///  ether and creates tokens as described in the token controller contract\n    function () public payable {\n        require(isContract(controller));\n        require(TokenController(controller).proxyPayment.value(msg.value)(msg.sender));\n    }\n\n//////////\n// Safety Methods\n//////////\n\n    /// @notice This method can be used by the controller to extract mistakenly\n    ///  sent tokens to this contract.\n    /// @param _token The address of the token contract that you want to recover\n    ///  set to 0 in case you want to extract ether.\n    function claimTokens(address _token) public onlyController {\n        if (_token == 0x0) {\n            controller.transfer(this.balance);\n            return;\n        }\n\n        MiniMeToken token = MiniMeToken(_token);\n        uint balance = token.balanceOf(this);\n        token.transfer(controller, balance);\n        ClaimedTokens(_token, controller, balance);\n    }\n\n////////////////\n// Events\n////////////////\n    event ClaimedTokens(address indexed _token, address indexed _controller, uint _amount);\n    event Transfer(address indexed _from, address indexed _to, uint256 _amount);\n    event NewCloneToken(address indexed _cloneToken, uint _snapshotBlock);\n    event Approval(\n        address indexed _owner,\n        address indexed _spender,\n        uint256 _amount\n        );\n\n}\n\n\n////////////////\n// MiniMeTokenFactory\n////////////////\n\n/// @dev This contract is used to generate clone contracts from a contract.\n///  In solidity this is the way to create a contract from a contract of the\n///  same class\ncontract MiniMeTokenFactory {\n\n    /// @notice Update the DApp by creating a new token with new functionalities\n    ///  the msg.sender becomes the controller of this clone token\n    /// @param _parentToken Address of the token being cloned\n    /// @param _snapshotBlock Block of the parent token that will\n    ///  determine the initial distribution of the clone token\n    /// @param _tokenName Name of the new token\n    /// @param _decimalUnits Number of decimals of the new token\n    /// @param _tokenSymbol Token Symbol for the new token\n    /// @param _transfersEnabled If true, tokens will be able to be transferred\n    /// @return The address of the new token contract\n    function createCloneToken(\n        address _parentToken,\n        uint _snapshotBlock,\n        string _tokenName,\n        uint8 _decimalUnits,\n        string _tokenSymbol,\n        bool _transfersEnabled\n    ) public returns (MiniMeToken) {\n        MiniMeToken newToken = new MiniMeToken(\n            this,\n            _parentToken,\n            _snapshotBlock,\n            _tokenName,\n            _decimalUnits,\n            _tokenSymbol,\n            _transfersEnabled\n            );\n\n        newToken.changeController(msg.sender);\n        return newToken;\n    }\n}",
  "sourcePath": "/Users/nikolaklipa/Decenter/community-gateway/solidity/contracts/MiniMeToken.sol",
  "compiler": {
    "name": "solc",
    "version": "0.4.24+commit.e67f0147.Emscripten.clang"
  },
  "schemaVersion": "2.0.1",
  "updatedAt": "2018-09-15T01:01:56.673Z"
}