{
  "contractName": "NEC",
  "abi": [
    {
      "constant": true,
      "inputs": [],
      "name": "name",
      "outputs": [
        {
          "name": "",
          "type": "string"
        }
      ],
      "payable": false,
      "stateMutability": "view",
      "type": "function"
    },
    {
      "constant": false,
      "inputs": [
        {
          "name": "_spender",
          "type": "address"
        },
        {
          "name": "_amount",
          "type": "uint256"
        }
      ],
      "name": "approve",
      "outputs": [
        {
          "name": "success",
          "type": "bool"
        }
      ],
      "payable": false,
      "stateMutability": "nonpayable",
      "type": "function"
    },
    {
      "constant": true,
      "inputs": [],
      "name": "creationBlock",
      "outputs": [
        {
          "name": "",
          "type": "uint256"
        }
      ],
      "payable": false,
      "stateMutability": "view",
      "type": "function"
    },
    {
      "constant": true,
      "inputs": [],
      "name": "totalSupply",
      "outputs": [
        {
          "name": "",
          "type": "uint256"
        }
      ],
      "payable": false,
      "stateMutability": "view",
      "type": "function"
    },
    {
      "constant": false,
      "inputs": [
        {
          "name": "_from",
          "type": "address"
        },
        {
          "name": "_to",
          "type": "address"
        },
        {
          "name": "_amount",
          "type": "uint256"
        }
      ],
      "name": "transferFrom",
      "outputs": [
        {
          "name": "success",
          "type": "bool"
        }
      ],
      "payable": false,
      "stateMutability": "nonpayable",
      "type": "function"
    },
    {
      "constant": true,
      "inputs": [],
      "name": "totalPledgedFees",
      "outputs": [
        {
          "name": "",
          "type": "uint256"
        }
      ],
      "payable": false,
      "stateMutability": "view",
      "type": "function"
    },
    {
      "constant": true,
      "inputs": [],
      "name": "decimals",
      "outputs": [
        {
          "name": "",
          "type": "uint8"
        }
      ],
      "payable": false,
      "stateMutability": "view",
      "type": "function"
    },
    {
      "constant": false,
      "inputs": [
        {
          "name": "_newController",
          "type": "address"
        }
      ],
      "name": "changeController",
      "outputs": [],
      "payable": false,
      "stateMutability": "nonpayable",
      "type": "function"
    },
    {
      "constant": false,
      "inputs": [
        {
          "name": "_value",
          "type": "uint256"
        }
      ],
      "name": "reducePledgedFees",
      "outputs": [
        {
          "name": "",
          "type": "bool"
        }
      ],
      "payable": false,
      "stateMutability": "nonpayable",
      "type": "function"
    },
    {
      "constant": true,
      "inputs": [],
      "name": "burningEnabled",
      "outputs": [
        {
          "name": "",
          "type": "bool"
        }
      ],
      "payable": false,
      "stateMutability": "view",
      "type": "function"
    },
    {
      "constant": true,
      "inputs": [
        {
          "name": "_owner",
          "type": "address"
        },
        {
          "name": "_blockNumber",
          "type": "uint256"
        }
      ],
      "name": "balanceOfAt",
      "outputs": [
        {
          "name": "",
          "type": "uint256"
        }
      ],
      "payable": false,
      "stateMutability": "view",
      "type": "function"
    },
    {
      "constant": false,
      "inputs": [
        {
          "name": "_value",
          "type": "uint256"
        }
      ],
      "name": "pledgeFees",
      "outputs": [
        {
          "name": "",
          "type": "bool"
        }
      ],
      "payable": false,
      "stateMutability": "nonpayable",
      "type": "function"
    },
    {
      "constant": true,
      "inputs": [],
      "name": "version",
      "outputs": [
        {
          "name": "",
          "type": "string"
        }
      ],
      "payable": false,
      "stateMutability": "view",
      "type": "function"
    },
    {
      "constant": false,
      "inputs": [
        {
          "name": "_cloneTokenName",
          "type": "string"
        },
        {
          "name": "_cloneDecimalUnits",
          "type": "uint8"
        },
        {
          "name": "_cloneTokenSymbol",
          "type": "string"
        },
        {
          "name": "_snapshotBlock",
          "type": "uint256"
        },
        {
          "name": "_transfersEnabled",
          "type": "bool"
        }
      ],
      "name": "createCloneToken",
      "outputs": [
        {
          "name": "",
          "type": "address"
        }
      ],
      "payable": false,
      "stateMutability": "nonpayable",
      "type": "function"
    },
    {
      "constant": true,
      "inputs": [
        {
          "name": "_owner",
          "type": "address"
        }
      ],
      "name": "balanceOf",
      "outputs": [
        {
          "name": "balance",
          "type": "uint256"
        }
      ],
      "payable": false,
      "stateMutability": "view",
      "type": "function"
    },
    {
      "constant": true,
      "inputs": [],
      "name": "parentToken",
      "outputs": [
        {
          "name": "",
          "type": "address"
        }
      ],
      "payable": false,
      "stateMutability": "view",
      "type": "function"
    },
    {
      "constant": false,
      "inputs": [
        {
          "name": "_owner",
          "type": "address"
        },
        {
          "name": "_amount",
          "type": "uint256"
        }
      ],
      "name": "generateTokens",
      "outputs": [
        {
          "name": "",
          "type": "bool"
        }
      ],
      "payable": false,
      "stateMutability": "nonpayable",
      "type": "function"
    },
    {
      "constant": true,
      "inputs": [],
      "name": "symbol",
      "outputs": [
        {
          "name": "",
          "type": "string"
        }
      ],
      "payable": false,
      "stateMutability": "view",
      "type": "function"
    },
    {
      "constant": true,
      "inputs": [
        {
          "name": "_blockNumber",
          "type": "uint256"
        }
      ],
      "name": "totalSupplyAt",
      "outputs": [
        {
          "name": "",
          "type": "uint256"
        }
      ],
      "payable": false,
      "stateMutability": "view",
      "type": "function"
    },
    {
      "constant": false,
      "inputs": [
        {
          "name": "_to",
          "type": "address"
        },
        {
          "name": "_amount",
          "type": "uint256"
        }
      ],
      "name": "transfer",
      "outputs": [
        {
          "name": "success",
          "type": "bool"
        }
      ],
      "payable": false,
      "stateMutability": "nonpayable",
      "type": "function"
    },
    {
      "constant": true,
      "inputs": [],
      "name": "transfersEnabled",
      "outputs": [
        {
          "name": "",
          "type": "bool"
        }
      ],
      "payable": false,
      "stateMutability": "view",
      "type": "function"
    },
    {
      "constant": true,
      "inputs": [],
      "name": "parentSnapShotBlock",
      "outputs": [
        {
          "name": "",
          "type": "uint256"
        }
      ],
      "payable": false,
      "stateMutability": "view",
      "type": "function"
    },
    {
      "constant": true,
      "inputs": [
        {
          "name": "_blockNumber",
          "type": "uint256"
        }
      ],
      "name": "totalPledgedFeesAt",
      "outputs": [
        {
          "name": "",
          "type": "uint256"
        }
      ],
      "payable": false,
      "stateMutability": "view",
      "type": "function"
    },
    {
      "constant": false,
      "inputs": [
        {
          "name": "_spender",
          "type": "address"
        },
        {
          "name": "_amount",
          "type": "uint256"
        },
        {
          "name": "_extraData",
          "type": "bytes"
        }
      ],
      "name": "approveAndCall",
      "outputs": [
        {
          "name": "success",
          "type": "bool"
        }
      ],
      "payable": false,
      "stateMutability": "nonpayable",
      "type": "function"
    },
    {
      "constant": false,
      "inputs": [
        {
          "name": "_owner",
          "type": "address"
        },
        {
          "name": "_amount",
          "type": "uint256"
        }
      ],
      "name": "destroyTokens",
      "outputs": [
        {
          "name": "",
          "type": "bool"
        }
      ],
      "payable": false,
      "stateMutability": "nonpayable",
      "type": "function"
    },
    {
      "constant": true,
      "inputs": [
        {
          "name": "_owner",
          "type": "address"
        },
        {
          "name": "_spender",
          "type": "address"
        }
      ],
      "name": "allowance",
      "outputs": [
        {
          "name": "remaining",
          "type": "uint256"
        }
      ],
      "payable": false,
      "stateMutability": "view",
      "type": "function"
    },
    {
      "constant": false,
      "inputs": [
        {
          "name": "_token",
          "type": "address"
        }
      ],
      "name": "claimTokens",
      "outputs": [],
      "payable": false,
      "stateMutability": "nonpayable",
      "type": "function"
    },
    {
      "constant": true,
      "inputs": [],
      "name": "tokenFactory",
      "outputs": [
        {
          "name": "",
          "type": "address"
        }
      ],
      "payable": false,
      "stateMutability": "view",
      "type": "function"
    },
    {
      "constant": false,
      "inputs": [
        {
          "name": "_transfersEnabled",
          "type": "bool"
        }
      ],
      "name": "enableTransfers",
      "outputs": [],
      "payable": false,
      "stateMutability": "nonpayable",
      "type": "function"
    },
    {
      "constant": true,
      "inputs": [],
      "name": "controller",
      "outputs": [
        {
          "name": "",
          "type": "address"
        }
      ],
      "payable": false,
      "stateMutability": "view",
      "type": "function"
    },
    {
      "inputs": [
        {
          "name": "_tokenFactory",
          "type": "address"
        },
        {
          "name": "efxVaultWallet",
          "type": "address"
        }
      ],
      "payable": false,
      "stateMutability": "nonpayable",
      "type": "constructor"
    },
    {
      "payable": true,
      "stateMutability": "payable",
      "type": "fallback"
    },
    {
      "anonymous": false,
      "inputs": [
        {
          "indexed": true,
          "name": "who",
          "type": "address"
        },
        {
          "indexed": false,
          "name": "_amount",
          "type": "uint256"
        }
      ],
      "name": "Burned",
      "type": "event"
    },
    {
      "anonymous": false,
      "inputs": [
        {
          "indexed": true,
          "name": "_token",
          "type": "address"
        },
        {
          "indexed": true,
          "name": "_controller",
          "type": "address"
        },
        {
          "indexed": false,
          "name": "_amount",
          "type": "uint256"
        }
      ],
      "name": "ClaimedTokens",
      "type": "event"
    },
    {
      "anonymous": false,
      "inputs": [
        {
          "indexed": true,
          "name": "_from",
          "type": "address"
        },
        {
          "indexed": true,
          "name": "_to",
          "type": "address"
        },
        {
          "indexed": false,
          "name": "_amount",
          "type": "uint256"
        }
      ],
      "name": "Transfer",
      "type": "event"
    },
    {
      "anonymous": false,
      "inputs": [
        {
          "indexed": true,
          "name": "_cloneToken",
          "type": "address"
        },
        {
          "indexed": false,
          "name": "_snapshotBlock",
          "type": "uint256"
        }
      ],
      "name": "NewCloneToken",
      "type": "event"
    },
    {
      "anonymous": false,
      "inputs": [
        {
          "indexed": true,
          "name": "_owner",
          "type": "address"
        },
        {
          "indexed": true,
          "name": "_spender",
          "type": "address"
        },
        {
          "indexed": false,
          "name": "_amount",
          "type": "uint256"
        }
      ],
      "name": "Approval",
      "type": "event"
    },
    {
      "constant": false,
      "inputs": [
        {
          "name": "_burningEnabled",
          "type": "bool"
        }
      ],
      "name": "enableBurning",
      "outputs": [],
      "payable": false,
      "stateMutability": "nonpayable",
      "type": "function"
    },
    {
      "constant": false,
      "inputs": [
        {
          "name": "_tokensToBurn",
          "type": "uint256"
        }
      ],
      "name": "burnAndRetrieve",
      "outputs": [
        {
          "name": "success",
          "type": "bool"
        }
      ],
      "payable": false,
      "stateMutability": "nonpayable",
      "type": "function"
    }
  ],
  "bytecode": "0x60c0604052600760808190527f4546585f302e310000000000000000000000000000000000000000000000000060a09081526200004091600491906200086b565b503480156200004e57600080fd5b506040516040806200263583398101604081815282516020938401518284018352601584527f45746866696e6578204e656374617220546f6b656e00000000000000000000008585019081528351808501909452600384527f4e45430000000000000000000000000000000000000000000000000000000000958401959095526000805433600160a060020a0319918216178255600d8054909116600160a060020a038516179055845192959194869491938493919260129290916001916200011a918391906200086b565b506002805460ff191660ff851617905581516200013f9060039060208501906200086b565b5060058054600160a060020a031916600160a060020a039790971696909617909555505050600655600b805460ff191691151591909117905550436007556200019e816b033b2e3c9fd0803ce8000000640100000000620001bc810204565b50620001b46000640100000000620002b7810204565b505062000939565b6000805481908190600160a060020a03163314620001d957600080fd5b620001ec64010000000062000301810204565b9150838201821115620001fe57600080fd5b62000212856401000000006200031d810204565b90508381018111156200022457600080fd5b6200023c600a8386016401000000006200033c810204565b600160a060020a03851660009081526008602052604090206200026b908286016401000000006200033c810204565b604080518581529051600160a060020a038716916000917fddf252ad1be2c89b69c2b068fc378daa952ba7f163c4a11628f55a4df523b3ef9181900360200190a3506001949350505050565b600054600160a060020a03163314620002cf57600080fd5b600d8054911515740100000000000000000000000000000000000000000260a060020a60ff0219909216919091179055565b6000620003174364010000000062000431810204565b90505b90565b60006200033482436401000000006200055e810204565b90505b919050565b81546000908190158062000377575083544390859060001981019081106200036057fe5b6000918252602090912001546001608060020a0316105b15620003e55783548490620003908260018301620008f0565b815481106200039b57fe5b600091825260209091200180546001608060020a03858116700100000000000000000000000000000000024382166001608060020a0319909316929092171617815591506200042b565b835484906000198101908110620003f857fe5b600091825260209091200180546001608060020a0380861670010000000000000000000000000000000002911617815590505b50505050565b600a54600090158062000468575081600a60008154811015156200045157fe5b6000918252602090912001546001608060020a0316115b156200054057600554600160a060020a0316156200053757600554600654600160a060020a039091169063981b24d090620004ae908590640100000000620006e5810204565b6040518263ffffffff167c010000000000000000000000000000000000000000000000000000000002815260040180828152602001915050602060405180830381600087803b1580156200050157600080fd5b505af115801562000516573d6000803e3d6000fd5b505050506040513d60208110156200052d57600080fd5b5051905062000337565b50600062000337565b62000556600a83640100000000620006fd810204565b905062000337565b600160a060020a0382166000908152600860205260408120541580620005bc5750600160a060020a038316600090815260086020526040812080548492908110620005a557fe5b6000918252602090912001546001608060020a0316115b15620006af57600554600160a060020a031615620006a657600554600654600160a060020a0390911690634ee2cd7e90859062000604908690640100000000620006e5810204565b6040518363ffffffff167c01000000000000000000000000000000000000000000000000000000000281526004018083600160a060020a0316600160a060020a0316815260200182815260200192505050602060405180830381600087803b1580156200067057600080fd5b505af115801562000685573d6000803e3d6000fd5b505050506040513d60208110156200069c57600080fd5b50519050620006df565b506000620006df565b600160a060020a0383166000908152600860205260409020620006dc9083640100000000620006fd810204565b90505b92915050565b6000818310620006f65781620006dc565b5090919050565b6000806000808580549050600014156200071b576000935062000862565b8554869060001981019081106200072e57fe5b6000918252602090912001546001608060020a031685106200078e578554869060001981019081106200075d57fe5b60009182526020909120015470010000000000000000000000000000000090046001608060020a0316935062000862565b8560008154811015156200079e57fe5b6000918252602090912001546001608060020a0316851015620007c5576000935062000862565b8554600093506000190191505b8282111562000827576002600183850101049050848682815481101515620007f657fe5b6000918252602090912001546001608060020a0316116200081a5780925062000821565b6001810391505b620007d2565b85838154811015156200083657fe5b60009182526020909120015470010000000000000000000000000000000090046001608060020a031693505b50505092915050565b828054600181600116156101000203166002900490600052602060002090601f016020900481019282601f10620008ae57805160ff1916838001178555620008de565b82800160010185558215620008de579182015b82811115620008de578251825591602001919060010190620008c1565b50620008ec9291506200091c565b5090565b8154818355818111156200091757600083815260209020620009179181019083016200091c565b505050565b6200031a91905b80821115620008ec576000815560010162000923565b611cec80620009496000396000f30060806040526004361061017c5763ffffffff60e060020a60003504166306fdde03811461023c578063095ea7b3146102c657806317634514146102fe57806318160ddd1461032557806323b872dd1461033a578063311325bd14610364578063313ce567146103795780633cebb823146103a4578063486575a5146103c55780634d754715146103dd5780634ee2cd7e146103f25780634f37edfd146104165780634fa7e3531461042e57806354fd4d50146104465780636638c0871461045b57806370a082311461051e57806380a540011461053f578063827f32c01461055457806395d89b4114610578578063981b24d01461058d578063a9059cbb146105a5578063b45dd873146105c9578063bef97c87146105e3578063c5bcc4f1146105f8578063c6d1d23d1461060d578063cae9ca5114610625578063d3ce77fe1461068e578063dd62ed3e146106b2578063df8de3e7146106d9578063e77772fe146106fa578063f41e60c51461070f578063f77c479114610729575b60005461019190600160a060020a031661073e565b151561019c57600080fd5b600054604080517ff48c30540000000000000000000000000000000000000000000000000000000081523360048201529051600160a060020a039092169163f48c3054913491602480830192602092919082900301818588803b15801561020257600080fd5b505af1158015610216573d6000803e3d6000fd5b50505050506040513d602081101561022d57600080fd5b5051151561023a57600080fd5b005b34801561024857600080fd5b5061025161076b565b6040805160208082528351818301528351919283929083019185019080838360005b8381101561028b578181015183820152602001610273565b50505050905090810190601f1680156102b85780820380516001836020036101000a031916815260200191505b509250505060405180910390f35b3480156102d257600080fd5b506102ea600160a060020a03600435166024356107f8565b604080519115158252519081900360200190f35b34801561030a57600080fd5b50610313610976565b60408051918252519081900360200190f35b34801561033157600080fd5b5061031361097c565b34801561034657600080fd5b506102ea600160a060020a036004358116906024351660443561098d565b34801561037057600080fd5b50610313610a4e565b34801561038557600080fd5b5061038e610a59565b6040805160ff9092168252519081900360200190f35b3480156103b057600080fd5b5061023a600160a060020a0360043516610a62565b3480156103d157600080fd5b506102ea600435610aa8565b3480156103e957600080fd5b506102ea610aef565b3480156103fe57600080fd5b50610313600160a060020a0360043516602435610b10565b34801561042257600080fd5b506102ea600435610c5d565b34801561043a57600080fd5b506102ea600435610da6565b34801561045257600080fd5b50610251610de6565b34801561046757600080fd5b506040805160206004803580820135601f810184900484028501840190955284845261050294369492936024939284019190819084018382808284375050604080516020601f818a01358b0180359182018390048302840183018552818452989b60ff8b35169b909a909994019750919550918201935091508190840183828082843750949750508435955050505050602001351515610e41565b60408051600160a060020a039092168252519081900360200190f35b34801561052a57600080fd5b50610313600160a060020a0360043516611097565b34801561054b57600080fd5b506105026110ab565b34801561056057600080fd5b506102ea600160a060020a03600435166024356110ba565b34801561058457600080fd5b50610251611174565b34801561059957600080fd5b506103136004356111cf565b3480156105b157600080fd5b506102ea600160a060020a03600435166024356112c3565b3480156105d557600080fd5b5061023a60043515156112e2565b3480156105ef57600080fd5b506102ea611339565b34801561060457600080fd5b50610313611342565b34801561061957600080fd5b50610313600435611348565b34801561063157600080fd5b50604080516020600460443581810135601f81018490048402850184019095528484526102ea948235600160a060020a03169460248035953695946064949201919081908401838280828437509497506113c19650505050505050565b34801561069a57600080fd5b506102ea600160a060020a03600435166024356114dc565b3480156106be57600080fd5b50610313600160a060020a0360043581169060243516611592565b3480156106e557600080fd5b5061023a600160a060020a03600435166115bd565b34801561070657600080fd5b506105026117a4565b34801561071b57600080fd5b5061023a60043515156117b3565b34801561073557600080fd5b506105026117dd565b600080600160a060020a038316151561075a5760009150610765565b823b90506000811191505b50919050565b60018054604080516020600284861615610100026000190190941693909304601f810184900484028201840190925281815292918301828280156107f05780601f106107c5576101008083540402835291602001916107f0565b820191906000526020600020905b8154815290600101906020018083116107d357829003601f168201915b505050505081565b600b5460009060ff16151561080c57600080fd5b81158061083a5750336000908152600960209081526040808320600160a060020a0387168452909152902054155b151561084557600080fd5b60005461085a90600160a060020a031661073e565b1561090e5760008054604080517fda682aeb000000000000000000000000000000000000000000000000000000008152336004820152600160a060020a038781166024830152604482018790529151919092169263da682aeb92606480820193602093909283900390910190829087803b1580156108d757600080fd5b505af11580156108eb573d6000803e3d6000fd5b505050506040513d602081101561090157600080fd5b5051151561090e57600080fd5b336000818152600960209081526040808320600160a060020a03881680855290835292819020869055805186815290519293927f8c5be1e5ebec7d5bd14f71427d1e84f3dd0314c0f7b2291e5b200ac8c7c3b925929181900390910190a35060015b92915050565b60075481565b6000610987436111cf565b90505b90565b60008054600160a060020a03163314610a3957600b5460ff1615156109b157600080fd5b600160a060020a03841660009081526009602090815260408083203384529091529020546000191115610a3957600160a060020a0384166000908152600960209081526040808320338452909152902054821115610a0e57600080fd5b600160a060020a03841660009081526009602090815260408083203384529091529020805483900390555b610a448484846117ec565b5060019392505050565b600061098743611348565b60025460ff1681565b600054600160a060020a03163314610a7957600080fd5b6000805473ffffffffffffffffffffffffffffffffffffffff1916600160a060020a0392909216919091179055565b600080548190600160a060020a03163314610ac257600080fd5b610aca610a4e565b905082811015610ad957600080fd5b610ae6600c8483036119f6565b50600192915050565b600d5474010000000000000000000000000000000000000000900460ff1681565b600160a060020a0382166000908152600860205260408120541580610b6c5750600160a060020a038316600090815260086020526040812080548492908110610b5557fe5b6000918252602090912001546001608060020a0316115b15610c3457600554600160a060020a031615610c2c57600554600654600160a060020a0390911690634ee2cd7e908590610ba7908690611aec565b6040518363ffffffff1660e060020a0281526004018083600160a060020a0316600160a060020a0316815260200182815260200192505050602060405180830381600087803b158015610bf957600080fd5b505af1158015610c0d573d6000803e3d6000fd5b505050506040513d6020811015610c2357600080fd5b50519050610970565b506000610970565b600160a060020a0383166000908152600860205260409020610c569083611b04565b9050610970565b600d54600090819074010000000000000000000000000000000000000000900460ff161515610c8b57600080fd5b610c953343610b10565b905082811015610ca85760009150610765565b600054610cbd90600160a060020a031661073e565b15610d675760008054604080517f45a1b92c000000000000000000000000000000000000000000000000000000008152336004820152602481018790529051600160a060020a03909216926345a1b92c926044808401936020939083900390910190829087803b158015610d3057600080fd5b505af1158015610d44573d6000803e3d6000fd5b505050506040513d6020811015610d5a57600080fd5b50511515610d6757600080fd5b60408051848152905133917f696de425f79f4a40bc6d2122ca50507f0efbeabbff86a84871b7196ab8ea8df7919081900360200190a250600192915050565b600080548190600160a060020a03163314610dc057600080fd5b610dc8610a4e565b9050828101811115610dd957600080fd5b610ae6600c8483016119f6565b6004805460408051602060026001851615610100026000190190941693909304601f810184900484028201840190925281815292918301828280156107f05780601f106107c5576101008083540402835291602001916107f0565b600080831515610e4f574393505b600d546040517f5b7b72c100000000000000000000000000000000000000000000000000000000815230600482018181526024830188905260ff8a16606484015286151560a484015260c0604484019081528b5160c48501528b51600160a060020a0390951694635b7b72c1948a938e938e938e938d939291608482019160e40190602089019080838360005b83811015610ef4578181015183820152602001610edc565b50505050905090810190601f168015610f215780820380516001836020036101000a031916815260200191505b50838103825285518152855160209182019187019080838360005b83811015610f54578181015183820152602001610f3c565b50505050905090810190601f168015610f815780820380516001836020036101000a031916815260200191505b5098505050505050505050602060405180830381600087803b158015610fa657600080fd5b505af1158015610fba573d6000803e3d6000fd5b505050506040513d6020811015610fd057600080fd5b5051604080517f3cebb8230000000000000000000000000000000000000000000000000000000081523360048201529051919250600160a060020a03831691633cebb8239160248082019260009290919082900301818387803b15801561103657600080fd5b505af115801561104a573d6000803e3d6000fd5b5050604080518781529051600160a060020a03851693507f086c875b377f900b07ce03575813022f05dd10ed7640b5282cf6d3c3fc352ade92509081900360200190a29695505050505050565b60006110a38243610b10565b90505b919050565b600554600160a060020a031681565b6000805481908190600160a060020a031633146110d657600080fd5b6110de61097c565b91508382018211156110ef57600080fd5b6110f885611097565b905083810181111561110957600080fd5b611116600a8584016119f6565b600160a060020a038516600090815260086020526040902061113a908286016119f6565b604080518581529051600160a060020a03871691600091600080516020611ca18339815191529181900360200190a3506001949350505050565b6003805460408051602060026001851615610100026000190190941693909304601f810184900484028201840190925281815292918301828280156107f05780601f106107c5576101008083540402835291602001916107f0565b600a546000901580611204575081600a60008154811015156111ed57fe5b6000918252602090912001546001608060020a0316115b156112b157600554600160a060020a0316156112a957600554600654600160a060020a039091169063981b24d09061123d908590611aec565b6040518263ffffffff1660e060020a02815260040180828152602001915050602060405180830381600087803b15801561127657600080fd5b505af115801561128a573d6000803e3d6000fd5b505050506040513d60208110156112a057600080fd5b505190506110a6565b5060006110a6565b6112bc600a83611b04565b90506110a6565b600b5460009060ff1615156112d757600080fd5b610ae63384846117ec565b600054600160a060020a031633146112f957600080fd5b600d8054911515740100000000000000000000000000000000000000000274ff000000000000000000000000000000000000000019909216919091179055565b600b5460ff1681565b60065481565b600c54600090158061137d575081600c600081548110151561136657fe5b6000918252602090912001546001608060020a0316115b156113b657600554600160a060020a0316156112a957600554600654600160a060020a039091169063c6d1d23d9061123d908590611aec565b6112bc600c83611b04565b60006113cd84846107f8565b15156113d857600080fd5b6040517f8f4ffcb10000000000000000000000000000000000000000000000000000000081523360048201818152602483018690523060448401819052608060648501908152865160848601528651600160a060020a038a1695638f4ffcb195948a94938a939192909160a490910190602085019080838360005b8381101561146b578181015183820152602001611453565b50505050905090810190601f1680156114985780820380516001836020036101000a031916815260200191505b5095505050505050600060405180830381600087803b1580156114ba57600080fd5b505af11580156114ce573d6000803e3d6000fd5b506001979650505050505050565b6000805481908190600160a060020a031633146114f857600080fd5b61150061097c565b91508382101561150f57600080fd5b61151885611097565b90508381101561152757600080fd5b611534600a8584036119f6565b600160a060020a0385166000908152600860205260409020611558908583036119f6565b604080518581529051600091600160a060020a03881691600080516020611ca18339815191529181900360200190a3506001949350505050565b600160a060020a03918216600090815260096020908152604080832093909416825291909152205490565b600080548190600160a060020a031633146115d757600080fd5b600160a060020a03831615156116285760008054604051600160a060020a0390911691303180156108fc02929091818181858888f19350505050158015611622573d6000803e3d6000fd5b5061179f565b604080517f70a082310000000000000000000000000000000000000000000000000000000081523060048201529051849350600160a060020a038416916370a082319160248083019260209291908290030181600087803b15801561168c57600080fd5b505af11580156116a0573d6000803e3d6000fd5b505050506040513d60208110156116b657600080fd5b505160008054604080517fa9059cbb000000000000000000000000000000000000000000000000000000008152600160a060020a0392831660048201526024810185905290519394509085169263a9059cbb92604480840193602093929083900390910190829087803b15801561172c57600080fd5b505af1158015611740573d6000803e3d6000fd5b505050506040513d602081101561175657600080fd5b5050600054604080518381529051600160a060020a03928316928616917ff931edb47c50b4b4104c187b5814a9aef5f709e17e2ecf9617e860cacade929c919081900360200190a35b505050565b600d54600160a060020a031681565b600054600160a060020a031633146117ca57600080fd5b600b805460ff1916911515919091179055565b600054600160a060020a031681565b6000808215156118345783600160a060020a031685600160a060020a0316600080516020611ca1833981519152856040518082815260200191505060405180910390a36119ef565b600654431161184257600080fd5b600160a060020a038416158015906118635750600160a060020a0384163014155b151561186e57600080fd5b6118788543610b10565b91508282101561188757600080fd5b60005461189c90600160a060020a031661073e565b156119525760008054604080517f4a393149000000000000000000000000000000000000000000000000000000008152600160a060020a03898116600483015288811660248301526044820188905291519190921692634a39314992606480820193602093909283900390910190829087803b15801561191b57600080fd5b505af115801561192f573d6000803e3d6000fd5b505050506040513d602081101561194557600080fd5b5051151561195257600080fd5b600160a060020a0385166000908152600860205260409020611976908484036119f6565b6119808443610b10565b905082810181111561199157600080fd5b600160a060020a03841660009081526008602052604090206119b5908285016119f6565b83600160a060020a031685600160a060020a0316600080516020611ca1833981519152856040518082815260200191505060405180910390a35b5050505050565b815460009081901580611a2f57508354439085906000198101908110611a1857fe5b6000918252602090912001546001608060020a0316105b15611aa15783548490611a458260018301611c63565b81548110611a4f57fe5b600091825260209091200180546001608060020a03858116700100000000000000000000000000000000024382166fffffffffffffffffffffffffffffffff1990931692909217161781559150611ae6565b835484906000198101908110611ab357fe5b600091825260209091200180546001608060020a0380861670010000000000000000000000000000000002911617815590505b50505050565b6000818310611afb5781611afd565b825b9392505050565b600080600080858054905060001415611b205760009350611c5a565b855486906000198101908110611b3257fe5b6000918252602090912001546001608060020a03168510611b8f57855486906000198101908110611b5f57fe5b60009182526020909120015470010000000000000000000000000000000090046001608060020a03169350611c5a565b856000815481101515611b9e57fe5b6000918252602090912001546001608060020a0316851015611bc35760009350611c5a565b8554600093506000190191505b82821115611c20576002600183850101049050848682815481101515611bf257fe5b6000918252602090912001546001608060020a031611611c1457809250611c1b565b6001810391505b611bd0565b8583815481101515611c2e57fe5b60009182526020909120015470010000000000000000000000000000000090046001608060020a031693505b50505092915050565b81548183558181111561179f5760008381526020902061179f91810190830161098a91905b80821115611c9c5760008155600101611c88565b50905600ddf252ad1be2c89b69c2b068fc378daa952ba7f163c4a11628f55a4df523b3efa165627a7a723058208f975848dae156cc64afff6cea7a8815b0be1994166a114682a3fbe10d52a2490029",
  "source": "import \"./MiniMeToken.sol\";\n\n\ncontract NEC is MiniMeToken {\n\n  function NEC(\n    address _tokenFactory,\n    address efxVaultWallet\n  ) public MiniMeToken(\n    _tokenFactory,\n    0x0,                    // no parent token\n    0,                      // no snapshot block number from parent\n    \"Ethfinex Nectar Token\", // Token name\n    18,                     // Decimals\n    \"NEC\",                  // Symbol\n    true                    // Enable transfers\n    ) {\n        generateTokens(efxVaultWallet, 1000000000000000000000000000);\n        enableBurning(false);\n    }\n\n    // Flag that determines if the token can be burned for rewards or not\n    bool public burningEnabled;\n\n\n////////////////\n// Enable token burning by users\n////////////////\n\n    function enableBurning(bool _burningEnabled) public onlyController {\n        burningEnabled = _burningEnabled;\n    }\n\n    function burnAndRetrieve(uint256 _tokensToBurn) public returns (bool success) {\n        require(burningEnabled);\n\n        var previousBalanceFrom = balanceOfAt(msg.sender, block.number);\n        if (previousBalanceFrom < _tokensToBurn) {\n            return false;\n        }\n\n        // Alerts the token controller of the burn function call\n        // If enabled, controller will distribute fees and destroy tokens\n        // Or any other logic chosen by controller\n        if (isContract(controller)) {\n            require(TokenController(controller).onBurn(msg.sender, _tokensToBurn));\n        }\n\n        Burned(msg.sender, _tokensToBurn);\n        return true;\n    }\n\n    event Burned(address indexed who, uint256 _amount);\n\n}",
  "sourcePath": "/Users/nikolaklipa/Decenter/community-gateway/solidity/contracts/NEC.sol",
  "compiler": {
    "name": "solc",
    "version": "0.4.24+commit.e67f0147.Emscripten.clang"
  },
  "schemaVersion": "2.0.1",
  "updatedAt": "2018-09-15T01:01:58.694Z"
}