{
  "contractName": "NectarController",
  "abi": [
    {
      "constant": true,
      "inputs": [
        {
          "name": "_maker",
          "type": "address"
        }
      ],
      "name": "getAuthorisationStatus",
      "outputs": [
        {
          "name": "",
          "type": "bool"
        }
      ],
      "payable": false,
      "stateMutability": "view",
      "type": "function"
    },
    {
      "constant": false,
      "inputs": [
        {
          "name": "_admin",
          "type": "address"
        }
      ],
      "name": "removeAdmin",
      "outputs": [],
      "payable": false,
      "stateMutability": "nonpayable",
      "type": "function"
    },
    {
      "constant": true,
      "inputs": [
        {
          "name": "_admin",
          "type": "address"
        }
      ],
      "name": "isAdmin",
      "outputs": [
        {
          "name": "",
          "type": "bool"
        }
      ],
      "payable": false,
      "stateMutability": "view",
      "type": "function"
    },
    {
      "constant": false,
      "inputs": [
        {
          "name": "bannedUsers",
          "type": "address[]"
        }
      ],
      "name": "deregister",
      "outputs": [],
      "payable": false,
      "stateMutability": "nonpayable",
      "type": "function"
    },
    {
      "constant": false,
      "inputs": [
        {
          "name": "maker",
          "type": "address"
        }
      ],
      "name": "authoriseMaker",
      "outputs": [],
      "payable": false,
      "stateMutability": "nonpayable",
      "type": "function"
    },
    {
      "constant": true,
      "inputs": [
        {
          "name": "",
          "type": "address"
        }
      ],
      "name": "isAuthorisedMaker",
      "outputs": [
        {
          "name": "",
          "type": "bool"
        }
      ],
      "payable": false,
      "stateMutability": "view",
      "type": "function"
    },
    {
      "constant": true,
      "inputs": [
        {
          "name": "",
          "type": "address"
        }
      ],
      "name": "admins",
      "outputs": [
        {
          "name": "",
          "type": "bool"
        }
      ],
      "payable": false,
      "stateMutability": "view",
      "type": "function"
    },
    {
      "constant": true,
      "inputs": [],
      "name": "vaultAddress",
      "outputs": [
        {
          "name": "",
          "type": "address"
        }
      ],
      "payable": false,
      "stateMutability": "view",
      "type": "function"
    },
    {
      "constant": false,
      "inputs": [
        {
          "name": "newUsers",
          "type": "address[]"
        }
      ],
      "name": "register",
      "outputs": [],
      "payable": false,
      "stateMutability": "nonpayable",
      "type": "function"
    },
    {
      "constant": false,
      "inputs": [
        {
          "name": "newSetting",
          "type": "bool"
        }
      ],
      "name": "activateWhitelist",
      "outputs": [],
      "payable": false,
      "stateMutability": "nonpayable",
      "type": "function"
    },
    {
      "constant": true,
      "inputs": [],
      "name": "tokenContract",
      "outputs": [
        {
          "name": "",
          "type": "address"
        }
      ],
      "payable": false,
      "stateMutability": "view",
      "type": "function"
    },
    {
      "constant": false,
      "inputs": [
        {
          "name": "_newAdmin",
          "type": "address"
        }
      ],
      "name": "addAdmin",
      "outputs": [],
      "payable": false,
      "stateMutability": "nonpayable",
      "type": "function"
    },
    {
      "constant": true,
      "inputs": [
        {
          "name": "",
          "type": "address"
        }
      ],
      "name": "isOnList",
      "outputs": [
        {
          "name": "",
          "type": "bool"
        }
      ],
      "payable": false,
      "stateMutability": "view",
      "type": "function"
    },
    {
      "constant": true,
      "inputs": [],
      "name": "startTime",
      "outputs": [
        {
          "name": "",
          "type": "uint256"
        }
      ],
      "payable": false,
      "stateMutability": "view",
      "type": "function"
    },
    {
      "constant": true,
      "inputs": [],
      "name": "getOwner",
      "outputs": [
        {
          "name": "",
          "type": "address"
        }
      ],
      "payable": false,
      "stateMutability": "view",
      "type": "function"
    },
    {
      "constant": true,
      "inputs": [],
      "name": "owner",
      "outputs": [
        {
          "name": "",
          "type": "address"
        }
      ],
      "payable": false,
      "stateMutability": "view",
      "type": "function"
    },
    {
      "constant": false,
      "inputs": [
        {
          "name": "_newOwner",
          "type": "address"
        }
      ],
      "name": "changeOwner",
      "outputs": [],
      "payable": false,
      "stateMutability": "nonpayable",
      "type": "function"
    },
    {
      "constant": true,
      "inputs": [
        {
          "name": "_user",
          "type": "address"
        }
      ],
      "name": "getRegistrationStatus",
      "outputs": [
        {
          "name": "",
          "type": "bool"
        }
      ],
      "payable": false,
      "stateMutability": "view",
      "type": "function"
    },
    {
      "constant": true,
      "inputs": [
        {
          "name": "_user",
          "type": "address"
        }
      ],
      "name": "isRegistered",
      "outputs": [
        {
          "name": "",
          "type": "bool"
        }
      ],
      "payable": false,
      "stateMutability": "view",
      "type": "function"
    },
    {
      "constant": true,
      "inputs": [
        {
          "name": "",
          "type": "uint256"
        }
      ],
      "name": "windowFinalBlock",
      "outputs": [
        {
          "name": "",
          "type": "uint256"
        }
      ],
      "payable": false,
      "stateMutability": "view",
      "type": "function"
    },
    {
      "constant": true,
      "inputs": [],
      "name": "periodLength",
      "outputs": [
        {
          "name": "",
          "type": "uint256"
        }
      ],
      "payable": false,
      "stateMutability": "view",
      "type": "function"
    },
    {
      "constant": true,
      "inputs": [],
      "name": "listActive",
      "outputs": [
        {
          "name": "",
          "type": "bool"
        }
      ],
      "payable": false,
      "stateMutability": "view",
      "type": "function"
    },
    {
      "constant": false,
      "inputs": [
        {
          "name": "maker",
          "type": "address"
        }
      ],
      "name": "deauthoriseMaker",
      "outputs": [],
      "payable": false,
      "stateMutability": "nonpayable",
      "type": "function"
    },
    {
      "inputs": [
        {
          "name": "_vaultAddress",
          "type": "address"
        },
        {
          "name": "_tokenAddress",
          "type": "address"
        }
      ],
      "payable": false,
      "stateMutability": "nonpayable",
      "type": "constructor"
    },
    {
      "payable": true,
      "stateMutability": "payable",
      "type": "fallback"
    },
    {
      "anonymous": false,
      "inputs": [
        {
          "indexed": true,
          "name": "_token",
          "type": "address"
        },
        {
          "indexed": true,
          "name": "_controller",
          "type": "address"
        },
        {
          "indexed": false,
          "name": "_amount",
          "type": "uint256"
        }
      ],
      "name": "ClaimedTokens",
      "type": "event"
    },
    {
      "anonymous": false,
      "inputs": [
        {
          "indexed": false,
          "name": "_amount",
          "type": "uint256"
        }
      ],
      "name": "LogFeeTopUp",
      "type": "event"
    },
    {
      "anonymous": false,
      "inputs": [
        {
          "indexed": false,
          "name": "_amount",
          "type": "uint256"
        }
      ],
      "name": "LogFeeEvacuation",
      "type": "event"
    },
    {
      "anonymous": false,
      "inputs": [
        {
          "indexed": false,
          "name": "_user",
          "type": "address"
        },
        {
          "indexed": false,
          "name": "_amount",
          "type": "uint256"
        },
        {
          "indexed": false,
          "name": "_maker",
          "type": "bool"
        }
      ],
      "name": "LogContributions",
      "type": "event"
    },
    {
      "anonymous": false,
      "inputs": [
        {
          "indexed": false,
          "name": "_user",
          "type": "address"
        },
        {
          "indexed": false,
          "name": "_amount",
          "type": "uint256"
        }
      ],
      "name": "LogClaim",
      "type": "event"
    },
    {
      "anonymous": false,
      "inputs": [
        {
          "indexed": false,
          "name": "newAddress",
          "type": "address"
        }
      ],
      "name": "UpgradedController",
      "type": "event"
    },
    {
      "constant": false,
      "inputs": [
        {
          "name": "_owner",
          "type": "address"
        }
      ],
      "name": "contributeForMakers",
      "outputs": [],
      "payable": true,
      "stateMutability": "payable",
      "type": "function"
    },
    {
      "constant": false,
      "inputs": [
        {
          "name": "_owner",
          "type": "address"
        }
      ],
      "name": "proxyPayment",
      "outputs": [
        {
          "name": "",
          "type": "bool"
        }
      ],
      "payable": true,
      "stateMutability": "payable",
      "type": "function"
    },
    {
      "constant": false,
      "inputs": [
        {
          "name": "_owner",
          "type": "address"
        },
        {
          "name": "_pledgedAmount",
          "type": "uint256"
        },
        {
          "name": "_tokensToCreate",
          "type": "uint256"
        }
      ],
      "name": "proxyAccountingCreation",
      "outputs": [
        {
          "name": "",
          "type": "bool"
        }
      ],
      "payable": false,
      "stateMutability": "nonpayable",
      "type": "function"
    },
    {
      "constant": false,
      "inputs": [
        {
          "name": "_from",
          "type": "address"
        },
        {
          "name": "_to",
          "type": "address"
        },
        {
          "name": "_amount",
          "type": "uint256"
        }
      ],
      "name": "onTransfer",
      "outputs": [
        {
          "name": "",
          "type": "bool"
        }
      ],
      "payable": false,
      "stateMutability": "nonpayable",
      "type": "function"
    },
    {
      "constant": false,
      "inputs": [
        {
          "name": "_owner",
          "type": "address"
        },
        {
          "name": "_spender",
          "type": "address"
        },
        {
          "name": "_amount",
          "type": "uint256"
        }
      ],
      "name": "onApprove",
      "outputs": [
        {
          "name": "",
          "type": "bool"
        }
      ],
      "payable": false,
      "stateMutability": "nonpayable",
      "type": "function"
    },
    {
      "constant": false,
      "inputs": [
        {
          "name": "_owner",
          "type": "address"
        },
        {
          "name": "_tokensToBurn",
          "type": "uint256"
        }
      ],
      "name": "onBurn",
      "outputs": [
        {
          "name": "",
          "type": "bool"
        }
      ],
      "payable": false,
      "stateMutability": "nonpayable",
      "type": "function"
    },
    {
      "constant": false,
      "inputs": [
        {
          "name": "_newVaultAddress",
          "type": "address"
        }
      ],
      "name": "setVault",
      "outputs": [],
      "payable": false,
      "stateMutability": "nonpayable",
      "type": "function"
    },
    {
      "constant": false,
      "inputs": [
        {
          "name": "_newControllerAddress",
          "type": "address"
        }
      ],
      "name": "upgradeController",
      "outputs": [],
      "payable": false,
      "stateMutability": "nonpayable",
      "type": "function"
    },
    {
      "constant": true,
      "inputs": [
        {
          "name": "_contributed",
          "type": "uint256"
        }
      ],
      "name": "getFeeToTokenConversion",
      "outputs": [
        {
          "name": "",
          "type": "uint256"
        }
      ],
      "payable": false,
      "stateMutability": "view",
      "type": "function"
    },
    {
      "constant": true,
      "inputs": [],
      "name": "currentWindow",
      "outputs": [
        {
          "name": "",
          "type": "uint256"
        }
      ],
      "payable": false,
      "stateMutability": "view",
      "type": "function"
    },
    {
      "constant": true,
      "inputs": [
        {
          "name": "timestamp",
          "type": "uint256"
        }
      ],
      "name": "windowAt",
      "outputs": [
        {
          "name": "",
          "type": "uint256"
        }
      ],
      "payable": false,
      "stateMutability": "view",
      "type": "function"
    },
    {
      "constant": false,
      "inputs": [],
      "name": "topUpBalance",
      "outputs": [],
      "payable": true,
      "stateMutability": "payable",
      "type": "function"
    },
    {
      "constant": false,
      "inputs": [],
      "name": "evacuateToVault",
      "outputs": [],
      "payable": false,
      "stateMutability": "nonpayable",
      "type": "function"
    },
    {
      "constant": false,
      "inputs": [
        {
          "name": "_burningEnabled",
          "type": "bool"
        }
      ],
      "name": "enableBurning",
      "outputs": [],
      "payable": false,
      "stateMutability": "nonpayable",
      "type": "function"
    },
    {
      "constant": false,
      "inputs": [
        {
          "name": "_token",
          "type": "address"
        }
      ],
      "name": "claimTokens",
      "outputs": [],
      "payable": false,
      "stateMutability": "nonpayable",
      "type": "function"
    }
  ],
  "bytecode": "0x60806040526000805460a060020a60ff02191674010000000000000000000000000000000000000000179055601e600655635a82d5d960075534801561004457600080fd5b50604051604080611fb48339810180604052604081101561006457600080fd5b50805160209182015160008054600160a060020a031916339081178255815260019384905260409020805460ff191690931790925590600160a060020a03821615156100af57600080fd5b60048054600160a060020a03928316600160a060020a031991821617909155600580549390921692169190911790556008602052624d8e6d7f5eff886ea0ce6ca488a3d6e336d6c0f75f46d19b42c06ce5ee98e42c96d256c7556001600052625044267fad67d757c34507f157cacfa2e3153e9f260a2244f30428821be7be64587ac55f55611e71806101436000396000f3fe6080604052600436106101be5763ffffffff60e060020a6000350416630a5dc24d81146101c85780631785f53c1461020f578063198695551461024257806324d7806c146102575780632b8b66671461028a5780632dff7a2b1461033a57806337aa7f911461036d578063429b62e5146103a0578063430bf08a146103d357806343dc3ab21461040457806345a1b92c146104b45780634714c0aa146104ed5780634a3931491461052c5780634cedfc0c1461056f57806355a373d61461059b5780636817031b146105b057806370480275146105e35780637330daac1461061657806378e97925146106495780637efff88714610670578063893d20e8146106785780638da5cb5b1461068d578063a6f9dae1146106a2578063a8af4ff5146106d5578063aba3d01714610708578063b45dd87314610732578063b9c2ee821461075e578063ba0bafb414610791578063c3c5a547146107a6578063cb22d392146107d9578063cdc62c0314610803578063d2ca21151461082d578063da682aeb14610842578063db25b40714610885578063df8de3e71461089a578063dfca8fd2146108cd578063e24a1d1e146108f3578063f48c305414610926575b6101c661094c565b005b3480156101d457600080fd5b506101fb600480360360208110156101eb57600080fd5b5035600160a060020a0316610aff565b604080519115158252519081900360200190f35b34801561021b57600080fd5b506101c66004803603602081101561023257600080fd5b5035600160a060020a0316610b21565b34801561024e57600080fd5b506101c6610b59565b34801561026357600080fd5b506101fb6004803603602081101561027a57600080fd5b5035600160a060020a0316610be1565b34801561029657600080fd5b506101c6600480360360208110156102ad57600080fd5b8101906020810181356401000000008111156102c857600080fd5b8201836020820111156102da57600080fd5b803590602001918460208302840111640100000000831117156102fc57600080fd5b919080806020026020016040519081016040528093929190818152602001838360200280828437600092019190915250929550610bff945050505050565b34801561034657600080fd5b506101c66004803603602081101561035d57600080fd5b5035600160a060020a0316610c71565b34801561037957600080fd5b506101fb6004803603602081101561039057600080fd5b5035600160a060020a0316610d01565b3480156103ac57600080fd5b506101fb600480360360208110156103c357600080fd5b5035600160a060020a0316610d16565b3480156103df57600080fd5b506103e8610d2b565b60408051600160a060020a039092168252519081900360200190f35b34801561041057600080fd5b506101c66004803603602081101561042757600080fd5b81019060208101813564010000000081111561044257600080fd5b82018360208201111561045457600080fd5b8035906020019184602083028401116401000000008311171561047657600080fd5b919080806020026020016040519081016040528093929190818152602001838360200280828437600092019190915250929550610d3a945050505050565b3480156104c057600080fd5b506101fb600480360360408110156104d757600080fd5b50600160a060020a038135169060200135610da8565b3480156104f957600080fd5b506101fb6004803603606081101561051057600080fd5b50600160a060020a03813516906020810135906040013561102d565b34801561053857600080fd5b506101fb6004803603606081101561054f57600080fd5b50600160a060020a0381358116916020810135909116906040013561105b565b34801561057b57600080fd5b506101c66004803603602081101561059257600080fd5b5035151561108b565b3480156105a757600080fd5b506103e86110e2565b3480156105bc57600080fd5b506101c6600480360360208110156105d357600080fd5b5035600160a060020a03166110f1565b3480156105ef57600080fd5b506101c66004803603602081101561060657600080fd5b5035600160a060020a0316611137565b34801561062257600080fd5b506101fb6004803603602081101561063957600080fd5b5035600160a060020a0316611175565b34801561065557600080fd5b5061065e61118a565b60408051918252519081900360200190f35b6101c6611190565b34801561068457600080fd5b506103e86111c5565b34801561069957600080fd5b506103e86111d4565b3480156106ae57600080fd5b506101c6600480360360208110156106c557600080fd5b5035600160a060020a03166111e3565b3480156106e157600080fd5b506101fb600480360360208110156106f857600080fd5b5035600160a060020a0316611229565b34801561071457600080fd5b5061065e6004803603602081101561072b57600080fd5b5035611247565b34801561073e57600080fd5b506101c66004803603602081101561075557600080fd5b50351515611282565b34801561076a57600080fd5b506101c66004803603602081101561078157600080fd5b5035600160a060020a031661131c565b34801561079d57600080fd5b5061065e6113f6565b3480156107b257600080fd5b506101fb600480360360208110156107c957600080fd5b5035600160a060020a0316611406565b3480156107e557600080fd5b5061065e600480360360208110156107fc57600080fd5b5035611455565b34801561080f57600080fd5b5061065e6004803603602081101561082657600080fd5b5035611467565b34801561083957600080fd5b5061065e611665565b34801561084e57600080fd5b506101fb6004803603606081101561086557600080fd5b50600160a060020a0381358116916020810135909116906040013561166b565b34801561089157600080fd5b506101fb611676565b3480156108a657600080fd5b506101c6600480360360208110156108bd57600080fd5b5035600160a060020a0316611697565b6101c6600480360360208110156108e357600080fd5b5035600160a060020a0316611829565b3480156108ff57600080fd5b506101c66004803603602081101561091657600080fd5b5035600160a060020a0316611853565b6101fb6004803603602081101561093c57600080fd5b5035600160a060020a031661188b565b60048054604080517ff77c47910000000000000000000000000000000000000000000000000000000081529051600093600160a060020a039093169263f77c479192808201926020929091829003018186803b1580156109ab57600080fd5b505afa1580156109bf573d6000803e3d6000fd5b505050506040513d60208110156109d557600080fd5b5051600160a060020a0316148015906109ed57503415155b15156109f857600080fd5b60048054604080517f4fa7e353000000000000000000000000000000000000000000000000000000008152349381019390935251600160a060020a0390911691634fa7e3539160248083019260209291908290030181600087803b158015610a5f57600080fd5b505af1158015610a73573d6000803e3d6000fd5b505050506040513d6020811015610a8957600080fd5b5050600554604051600160a060020a03909116903480156108fc02916000818181858888f193505050501515610abe57600080fd5b6040805133815234602082015260008183015290517f07c7bae800cac64b1ccb6998a41bfc58b5da0447a2bcea4f8430983a566cd13c9181900360600190a1565b600160a060020a03811660009081526003602052604090205460ff165b919050565b600054600160a060020a03163314610b3857600080fd5b600160a060020a03166000908152600160205260409020805460ff19169055565b600054600160a060020a03163314610b7057600080fd5b600554604051600160a060020a0390911690303180156108fc02916000818181858888f19350505050158015610baa573d6000803e3d6000fd5b50604080513031815290517f8cf1c5c446b156b14402e4a2526dab237cb6defe71043cbb787f51ce6724b0db9181900360200190a1565b600160a060020a031660009081526001602052604090205460ff1690565b610c0833610be1565b1515610c1357600080fd5b60005b8151811015610c6d576000600260008484815181101515610c3357fe5b602090810291909101810151600160a060020a03168252810191909152604001600020805460ff1916911515919091179055600101610c16565b5050565b600054600160a060020a03163314610c8857600080fd5b600160a060020a03811660009081526003602052604090819020805460ff1916600190811790915581518181528083019092526060919081602001602082028038833901905050905081816000815181101515610ce157fe5b600160a060020a03909216602092830290910190910152610c6d81610d3a565b60036020526000908152604090205460ff1681565b60016020526000908152604090205460ff1681565b600554600160a060020a031681565b610d4333610be1565b1515610d4e57600080fd5b60005b8151811015610c6d576001600260008484815181101515610d6e57fe5b602090810291909101810151600160a060020a03168252810191909152604001600020805460ff1916911515919091179055600101610d51565b600454600090600160a060020a03163314610dc257600080fd5b6000600460009054906101000a9004600160a060020a0316600160a060020a031663311325bd6040518163ffffffff1660e060020a02815260040160206040518083038186803b158015610e1557600080fd5b505afa158015610e29573d6000803e3d6000fd5b505050506040513d6020811015610e3f57600080fd5b505160048054604080517f18160ddd0000000000000000000000000000000000000000000000000000000081529051939450600093600160a060020a03909216926318160ddd928282019260209290829003018186803b158015610ea257600080fd5b505afa158015610eb6573d6000803e3d6000fd5b505050506040513d6020811015610ecc57600080fd5b505190506000610ef282610ee6858863ffffffff61189d16565b9063ffffffff6118c516565b60048054604080517fd3ce77fe000000000000000000000000000000000000000000000000000000008152600160a060020a038b811694820194909452602481018a9052905193945091169163d3ce77fe916044808201926020929091908290030181600087803b158015610f6657600080fd5b505af1158015610f7a573d6000803e3d6000fd5b505050506040513d6020811015610f9057600080fd5b50511515610f9d57600080fd5b3031811115610fab57600080fd5b604051600160a060020a0387169082156108fc029083906000818181858888f193505050501515610fdb57600080fd5b60408051600160a060020a03881681526020810183905281517ffce6d5860f911bc27ece1365300332d2ddbe20c1adc46ee2eddd8f72c48053b2929181900390910190a1600193505050505b92915050565b60008054600160a060020a0316331461104557600080fd5b6110508484846118dc565b5060015b9392505050565b600061106683611406565b8015611076575061107684611406565b1561108357506001611054565b506000611054565b600054600160a060020a031633146110a257600080fd5b60008054911515740100000000000000000000000000000000000000000274ff000000000000000000000000000000000000000019909216919091179055565b600454600160a060020a031681565b600054600160a060020a0316331461110857600080fd5b6005805473ffffffffffffffffffffffffffffffffffffffff1916600160a060020a0392909216919091179055565b600054600160a060020a0316331461114e57600080fd5b600160a060020a03166000908152600160208190526040909120805460ff19169091179055565b60026020526000908152604090205460ff1681565b60075481565b6040805134815290517f386c5a74f4b48b1c24abbf0aedacece36a9699f01ed737f0486ebfd9d549b14a9181900360200190a1565b600054600160a060020a031690565b600054600160a060020a031681565b600054600160a060020a031633146111fa57600080fd5b6000805473ffffffffffffffffffffffffffffffffffffffff1916600160a060020a0392909216919091179055565b600160a060020a031660009081526002602052604090205460ff1690565b6000600754821061127a576112726006546201518002610ee660075485611b5d90919063ffffffff16565b600101611027565b600092915050565b600054600160a060020a0316331461129957600080fd5b60048054604080517fb45dd8730000000000000000000000000000000000000000000000000000000081528415159381019390935251600160a060020a039091169163b45dd87391602480830192600092919082900301818387803b15801561130157600080fd5b505af1158015611315573d6000803e3d6000fd5b5050505050565b600054600160a060020a0316331461133357600080fd5b60048054604080517f3cebb823000000000000000000000000000000000000000000000000000000008152600160a060020a038581169482019490945290519290911691633cebb8239160248082019260009290919082900301818387803b15801561139e57600080fd5b505af11580156113b2573d6000803e3d6000fd5b505060408051600160a060020a038516815290517fbef2873659f3bf8b3c7c64380b7543be225c22ebb0f56a811c1a7209b00f82229350908190036020019150a150565b600061140142611247565b905090565b6000805474010000000000000000000000000000000000000000900460ff16151561143357506001610b1c565b50600160a060020a03811660009081526002602052604090205460ff16610b1c565b60086020526000908152604090205481565b6000806008600060016114786113f6565b0381526020019081526020016000205490506000600460009054906101000a9004600160a060020a0316600160a060020a031663981b24d0836040518263ffffffff1660e060020a0281526004018082815260200191505060206040518083038186803b1580156114e857600080fd5b505afa1580156114fc573d6000803e3d6000fd5b505050506040513d602081101561151257600080fd5b5051600480546000808052600860209081527f5eff886ea0ce6ca488a3d6e336d6c0f75f46d19b42c06ce5ee98e42c96d256c754604080517f981b24d000000000000000000000000000000000000000000000000000000000815295860191909152519495509093600160a060020a039092169263981b24d09260248083019392829003018186803b1580156115a757600080fd5b505afa1580156115bb573d6000803e3d6000fd5b505050506040513d60208110156115d157600080fd5b505190506002810282106115eb5760009350505050610b1c565b600061165b6116136115fd6001611b6f565b6116076001611b6f565b9063ffffffff61189d16565b610ee661162385610ee688611b6f565b61162d6002611b6f565b0361160761163e87610ee68a611b6f565b6116486002611b6f565b036116078c6103e863ffffffff61189d16565b9695505050505050565b60065481565b600061107684611406565b60005474010000000000000000000000000000000000000000900460ff1681565b600054600160a060020a031633146116ae57600080fd5b604080517f70a0823100000000000000000000000000000000000000000000000000000000815230600482015290518291600091600160a060020a038416916370a08231916024808301926020929190829003018186803b15801561171257600080fd5b505afa158015611726573d6000803e3d6000fd5b505050506040513d602081101561173c57600080fd5b505160008054604080517fa9059cbb000000000000000000000000000000000000000000000000000000008152600160a060020a0392831660048201526024810185905290519394509085169263a9059cbb92604480840193602093929083900390910190829087803b1580156117b257600080fd5b505af11580156117c6573d6000803e3d6000fd5b505050506040513d60208110156117dc57600080fd5b5050600054604080518381529051600160a060020a03928316928616917ff931edb47c50b4b4104c187b5814a9aef5f709e17e2ecf9617e860cacade929c919081900360200190a3505050565b3360009081526003602052604090205460ff16151561184757600080fd5b61185081611b86565b50565b600054600160a060020a0316331461186a57600080fd5b600160a060020a03166000908152600360205260409020805460ff19169055565b600061189561094c565b506001919050565b60008215156118ae57506000611027565b8282028284828115156118bd57fe5b041461105457fe5b60008082848115156118d357fe5b04949350505050565b60048054604080517ff77c47910000000000000000000000000000000000000000000000000000000081529051600093600160a060020a039093169263f77c479192808201926020929091829003018186803b15801561193b57600080fd5b505afa15801561194f573d6000803e3d6000fd5b505050506040513d602081101561196557600080fd5b5051600160a060020a0316141561197b57600080fd5b6008600060016119896113f6565b03815260200190815260200160002054600014156119c657600143036008600060016119b36113f6565b0381526020810191909152604001600020555b60048054604080517f4fa7e35300000000000000000000000000000000000000000000000000000000815292830185905251600160a060020a0390911691634fa7e3539160248083019260209291908290030181600087803b158015611a2b57600080fd5b505af1158015611a3f573d6000803e3d6000fd5b505050506040513d6020811015611a5557600080fd5b50506000811115611b18576000611a6b83611467565b60048054604080517f827f32c0000000000000000000000000000000000000000000000000000000008152600160a060020a038981169482019490945260248101879052905193945091169163827f32c0916044808201926020929091908290030181600087803b158015611adf57600080fd5b505af1158015611af3573d6000803e3d6000fd5b505050506040513d6020811015611b0957600080fd5b50511515611b1657600080fd5b505b604080513381526020810184905260018183015290517f07c7bae800cac64b1ccb6998a41bfc58b5da0447a2bcea4f8430983a566cd13c9181900360600190a1505050565b600082821115611b6957fe5b50900390565b6000611027826402540be40063ffffffff61189d16565b60048054604080517ff77c47910000000000000000000000000000000000000000000000000000000081529051600093600160a060020a039093169263f77c479192808201926020929091829003018186803b158015611be557600080fd5b505afa158015611bf9573d6000803e3d6000fd5b505050506040513d6020811015611c0f57600080fd5b5051600160a060020a031614801590611c2757503415155b1515611c3257600080fd5b60048054604080517f4fa7e353000000000000000000000000000000000000000000000000000000008152349381019390935251600160a060020a0390911691634fa7e3539160248083019260209291908290030181600087803b158015611c9957600080fd5b505af1158015611cad573d6000803e3d6000fd5b505050506040513d6020811015611cc357600080fd5b5050600554604051600160a060020a03909116903480156108fc02916000818181858888f193505050501515611cf857600080fd5b600860006001611d066113f6565b0381526020019081526020016000205460001415611d435760014303600860006001611d306113f6565b0381526020810191909152604001600020555b6000611d4e34611467565b60048054604080517f827f32c0000000000000000000000000000000000000000000000000000000008152600160a060020a038781169482019490945260248101859052905193945091169163827f32c0916044808201926020929091908290030181600087803b158015611dc257600080fd5b505af1158015611dd6573d6000803e3d6000fd5b505050506040513d6020811015611dec57600080fd5b50511515611df957600080fd5b60408051600160a060020a038416815234602082015260018183015290517f07c7bae800cac64b1ccb6998a41bfc58b5da0447a2bcea4f8430983a566cd13c9181900360600190a1505056fea165627a7a7230582038880534de0ddd0e1f3a672a7c56b7d65bdc8801202092014ce9e406b51970c90029",
  "source": "pragma solidity ^0.5.0;\n\nimport \"./TokenController.sol\";\nimport \"./Whitelist.sol\";\nimport \"./NEC.sol\";\n\nlibrary SafeMath {\n  function mul(uint256 a, uint256 b) internal pure returns (uint256) {\n    if (a == 0) {\n      return 0;\n    }\n    uint256 c = a * b;\n    assert(c / a == b);\n    return c;\n  }\n\n  function div(uint256 a, uint256 b) internal pure returns (uint256) {\n    // assert(b > 0); // Solidity automatically throws when dividing by 0\n    uint256 c = a / b;\n    // assert(a == b * c + a % b); // There is no case in which this doesn't hold\n    return c;\n  }\n\n  function sub(uint256 a, uint256 b) internal pure returns (uint256) {\n    assert(b <= a);\n    return a - b;\n  }\n\n  function add(uint256 a, uint256 b) internal pure returns (uint256) {\n    uint256 c = a + b;\n    assert(c >= a);\n    return c;\n  }\n}\n\n\ncontract NectarController is TokenController, Whitelist {\n    using SafeMath for uint256;\n\n    NEC public tokenContract;   // The new token for this Campaign\n    address payable public vaultAddress;        // The address to hold the funds donated\n\n    uint public periodLength = 30;       // Contribution windows length in days\n    uint public startTime = 1518523865;  // Time of window 1 opening\n\n    mapping (uint => uint) public windowFinalBlock;  // Final block before initialisation of new window\n\n\n    /// @dev There are several checks to make sure the parameters are acceptable\n    /// @param _vaultAddress The address that will store the donated funds\n    /// @param _tokenAddress Address of the token contract this contract controls\n\n    constructor(\n        address payable _vaultAddress,\n        address payable _tokenAddress\n    ) public {\n        require(_vaultAddress != address(0));                // To prevent burning ETH\n        tokenContract = NEC(_tokenAddress); // The Deployed Token Contract\n        vaultAddress = _vaultAddress;\n        windowFinalBlock[0] = 5082733;\n        windowFinalBlock[1] = 5260326;\n    }\n\n    /// @dev The fallback function is called when ether is sent to the contract, it\n    /// simply calls `doTakerPayment()` . No tokens are created when takers contribute.\n    /// `_owner`. Payable is a required solidity modifier for functions to receive\n    /// ether, without this modifier functions will throw if ether is sent to them\n\n    function () external payable {\n        doTakerPayment();\n    }\n\n    function contributeForMakers(address _owner) public payable authorised {\n        doMakerPayment(_owner);\n    }\n\n/////////////////\n// TokenController interface\n/////////////////\n\n    /// @notice `proxyPayment()` allows the caller to send ether to the Campaign\n    /// but does not create tokens. This functions the same as the fallback function.\n    /// @param _owner Does not do anything, but preserved because of MiniMe standard function.\n    function proxyPayment(address _owner) public payable returns(bool) {\n        doTakerPayment();\n        return true;\n    }\n\n    /// @notice `proxyAccountingCreation()` allows owner to create tokens without sending ether via the contract\n    /// Creates tokens, pledging an amount of eth to token holders but not sending it through the contract to the vault\n    /// @param _owner The person who will have the created tokens\n    function proxyAccountingCreation(address _owner, uint _pledgedAmount, uint _tokensToCreate) public onlyOwner returns(bool) {\n        // Ethfinex is a hybrid decentralised exchange\n        // This function is only for use to create tokens on behalf of users of the centralised side of Ethfinex\n        // Because there are several different fee tiers (depending on trading volume) token creation rates may not always be proportional to fees contributed.\n        // For example if a user is trading with a 0.025% fee as opposed to the standard 0.1% the tokensToCreate the pledged fees will be lower than through using the standard contributeForMakers function\n        // Tokens to create must be calculated off-chain using the issuance equation and current parameters of this contract, multiplied depending on user's fee tier\n        doProxyAccounting(_owner, _pledgedAmount, _tokensToCreate);\n        return true;\n    }\n\n\n    /// @notice Notifies the controller about a transfer.\n    /// Transfers can only happen to whitelisted addresses\n    /// @param _from The origin of the transfer\n    /// @param _to The destination of the transfer\n    /// @param _amount The amount of the transfer\n    /// @return False if the controller does not authorize the transfer\n    function onTransfer(address _from, address _to, uint _amount) public returns(bool) {\n        if (isRegistered(_to) && isRegistered(_from)) {\n          return true;\n        } else {\n          return false;\n        }\n    }\n\n    /// @notice Notifies the controller about an approval, for this Campaign all\n    ///  approvals are allowed by default and no extra notifications are needed\n    /// @param _owner The address that calls `approve()`\n    /// @param _spender The spender in the `approve()` call\n    /// @param _amount The amount in the `approve()` call\n    /// @return False if the controller does not authorize the approval\n    function onApprove(address _owner, address _spender, uint _amount) public\n        returns(bool)\n    {\n        if (isRegistered(_owner)) {\n          return true;\n        } else {\n          return false;\n        }\n    }\n\n    /// @notice Notifies the controller about a burn attempt. Initially all burns are disabled.\n    /// Upgraded Controllers in the future will allow token holders to claim the pledged ETH\n    /// @param _owner The address that calls `burn()`\n    /// @param _tokensToBurn The amount in the `burn()` call\n    /// @return False if the controller does not authorize the approval\n    function onBurn(address payable _owner, uint _tokensToBurn) public\n        returns(bool)\n    {\n        // This plugin can only be called by the token contract\n        require(msg.sender == address(tokenContract));\n\n        uint256 feeTotal = tokenContract.totalPledgedFees();\n        uint256 totalTokens = tokenContract.totalSupply();\n        uint256 feeValueOfTokens = (feeTotal.mul(_tokensToBurn)).div(totalTokens);\n\n        // Destroy the owners tokens prior to sending them the associated fees\n        require (tokenContract.destroyTokens(_owner, _tokensToBurn));\n        require (address(this).balance >= feeValueOfTokens);\n        require (_owner.send(feeValueOfTokens));\n\n        emit LogClaim(_owner, feeValueOfTokens);\n        return true;\n    }\n\n/////////////////\n// Maker and taker fee payments handling\n/////////////////\n\n\n    /// @dev `doMakerPayment()` is an internal function that sends the ether that this\n    ///  contract receives to the `vault` and creates tokens in the address of the\n    ///  `_owner`who the fee contribution was sent by\n    /// @param _owner The address that will hold the newly created tokens\n    function doMakerPayment(address _owner) internal {\n\n        require ((tokenContract.controller() != address(0)) && (msg.value != 0) );\n        tokenContract.pledgeFees(msg.value);\n        require (vaultAddress.send(msg.value));\n\n        // Set the block number which will be used to calculate issuance rate during\n        // this window if it has not already been set\n        if(windowFinalBlock[currentWindow()-1] == 0) {\n            windowFinalBlock[currentWindow()-1] = block.number -1;\n        }\n\n        uint256 newIssuance = getFeeToTokenConversion(msg.value);\n        require (tokenContract.generateTokens(_owner, newIssuance));\n\n        emit LogContributions (_owner, msg.value, true);\n        return;\n    }\n\n    /// @dev `doTakerPayment()` is an internal function that sends the ether that this\n    ///  contract receives to the `vault`, creating no tokens\n    function doTakerPayment() internal {\n\n        require ((tokenContract.controller() != address(0)) && (msg.value != 0) );\n        tokenContract.pledgeFees(msg.value);\n        require (vaultAddress.send(msg.value));\n\n        emit LogContributions (msg.sender, msg.value, false);\n        return;\n    }\n\n    /// @dev `doProxyAccounting()` is an internal function that creates tokens\n    /// for fees pledged by the owner\n    function doProxyAccounting(address _owner, uint _pledgedAmount, uint _tokensToCreate) internal {\n\n        require ((tokenContract.controller() != address(0)));\n        if(windowFinalBlock[currentWindow()-1] == 0) {\n            windowFinalBlock[currentWindow()-1] = block.number -1;\n        }\n        tokenContract.pledgeFees(_pledgedAmount);\n\n        if(_tokensToCreate > 0) {\n            uint256 newIssuance = getFeeToTokenConversion(_pledgedAmount);\n            require (tokenContract.generateTokens(_owner, _tokensToCreate));\n        }\n\n        emit LogContributions (msg.sender, _pledgedAmount, true);\n        return;\n    }\n\n    /// @notice `onlyOwner` changes the location that ether is sent\n    /// @param _newVaultAddress The address that will store the fees collected\n    function setVault(address payable _newVaultAddress) public onlyOwner {\n        vaultAddress = _newVaultAddress;\n    }\n\n    /// @notice `onlyOwner` can upgrade the controller contract\n    /// @param _newControllerAddress The address that will have the token control logic\n    function upgradeController(address _newControllerAddress) public onlyOwner {\n        tokenContract.changeController(_newControllerAddress);\n        emit UpgradedController(_newControllerAddress);\n    }\n\n/////////////////\n// Issuance reward related functions - upgraded by changing controller\n/////////////////\n\n    /// @dev getFeeToTokenConversion (v2) - Controller could be changed in the future to update this function\n    /// @param _contributed - The value of fees contributed during the window\n    function getFeeToTokenConversion(uint256 _contributed) public view returns (uint256) {\n\n        uint calculationBlock = windowFinalBlock[currentWindow()-1];\n        uint256 previousSupply = tokenContract.totalSupplyAt(calculationBlock);\n        uint256 initialSupply = tokenContract.totalSupplyAt(windowFinalBlock[0]);\n        // Rate = 1000 * (2-totalSupply/InitialSupply)^2\n        // This imposes a max possible supply of 2 billion\n        if (previousSupply >= 2 * initialSupply) {\n            return 0;\n        }\n        uint256 newTokens = _contributed.mul(1000).mul(bigInt(2)-(bigInt(previousSupply).div(initialSupply))).mul(bigInt(2)-(bigInt(previousSupply).div(initialSupply))).div(bigInt(1).mul(bigInt(1)));\n        return newTokens;\n    }\n\n    function bigInt(uint256 input) internal pure returns (uint256) {\n      return input.mul(10 ** 10);\n    }\n\n    function currentWindow() public view returns (uint) {\n       return windowAt(block.timestamp);\n    }\n\n    function windowAt(uint timestamp) public view returns (uint) {\n      return timestamp < startTime\n          ? 0\n          : timestamp.sub(startTime).div(periodLength * 1 days) + 1;\n    }\n\n    /// @dev topUpBalance - This is only used to increase this.balance in the case this controller is used to allow burning\n    function topUpBalance() public payable {\n        // Pledged fees could be sent here and used to payout users who burn their tokens\n        emit LogFeeTopUp(msg.value);\n    }\n\n    /// @dev evacuateToVault - This is only used to evacuate remaining to ether from this contract to the vault address\n    function evacuateToVault() public onlyOwner{\n        vaultAddress.transfer(address(this).balance);\n        emit LogFeeEvacuation(address(this).balance);\n    }\n\n    /// @dev enableBurning - Allows the owner to activate burning on the underlying token contract\n    function enableBurning(bool _burningEnabled) public onlyOwner{\n        tokenContract.enableBurning(_burningEnabled);\n    }\n\n\n//////////\n// Safety Methods\n//////////\n\n    /// @notice This method can be used by the owner to extract mistakenly\n    ///  sent tokens to this contract.\n    /// @param _token The address of the token contract that you want to recover\n    function claimTokens(address payable _token) public onlyOwner {\n\n        NEC token = NEC(_token);\n        uint balance = token.balanceOf(address(this));\n        token.transfer(owner, balance);\n        emit ClaimedTokens(_token, owner, balance);\n    }\n\n////////////////\n// Events\n////////////////\n    event ClaimedTokens(address indexed _token, address indexed _controller, uint _amount);\n\n    event LogFeeTopUp(uint _amount);\n    event LogFeeEvacuation(uint _amount);\n    event LogContributions (address _user, uint _amount, bool _maker);\n    event LogClaim (address _user, uint _amount);\n\n    event UpgradedController (address newAddress);\n\n}\n",
  "sourcePath": "/Users/willharborne/Desktop/repos/community-gateway/solidity/contracts/NectarController.sol",
  "compiler": {
    "name": "solc",
    "version": "0.5.0+commit.1d4f565a.Emscripten.clang"
  },
  "schemaVersion": "3.0.1",
  "updatedAt": "2019-02-18T00:19:03.105Z",
  "devdoc": {
    "methods": {
      "addAdmin(address)": {
        "params": {
          "_newAdmin": "Address of new admin"
        }
      },
      "authoriseMaker(address)": {
        "details": "authoriseMaker",
        "params": {
          "maker": "- Source to add to authorised contributors"
        }
      },
      "changeOwner(address)": {
        "params": {
          "_newOwner": "The address of the new owner. 0x0 can be used to create  an unowned neutral vault, however that cannot be undone"
        }
      },
      "claimTokens(address)": {
        "params": {
          "_token": "The address of the token contract that you want to recover"
        }
      },
      "constructor": {
        "details": "There are several checks to make sure the parameters are acceptable",
        "params": {
          "_tokenAddress": "Address of the token contract this contract controls",
          "_vaultAddress": "The address that will store the donated funds"
        }
      },
      "deauthoriseMaker(address)": {
        "details": "deauthoriseMaker",
        "params": {
          "maker": "- Source to remove from authorised contributors"
        }
      },
      "deregister(address[])": {
        "details": "deregister",
        "params": {
          "bannedUsers": "- Array of users to remove from the whitelist"
        }
      },
      "enableBurning(bool)": {
        "details": "enableBurning - Allows the owner to activate burning on the underlying token contract"
      },
      "evacuateToVault()": {
        "details": "evacuateToVault - This is only used to evacuate remaining to ether from this contract to the vault address"
      },
      "getFeeToTokenConversion(uint256)": {
        "details": "getFeeToTokenConversion (v2) - Controller could be changed in the future to update this function",
        "params": {
          "_contributed": "- The value of fees contributed during the window"
        }
      },
      "onApprove(address,address,uint256)": {
        "params": {
          "_amount": "The amount in the `approve()` call",
          "_owner": "The address that calls `approve()`",
          "_spender": "The spender in the `approve()` call"
        },
        "return": "False if the controller does not authorize the approval"
      },
      "onBurn(address,uint256)": {
        "params": {
          "_owner": "The address that calls `burn()`",
          "_tokensToBurn": "The amount in the `burn()` call"
        },
        "return": "False if the controller does not authorize the approval"
      },
      "onTransfer(address,address,uint256)": {
        "params": {
          "_amount": "The amount of the transfer",
          "_from": "The origin of the transfer",
          "_to": "The destination of the transfer"
        },
        "return": "False if the controller does not authorize the transfer"
      },
      "proxyAccountingCreation(address,uint256,uint256)": {
        "params": {
          "_owner": "The person who will have the created tokens"
        }
      },
      "proxyPayment(address)": {
        "params": {
          "_owner": "Does not do anything, but preserved because of MiniMe standard function."
        }
      },
      "register(address[])": {
        "details": "register",
        "params": {
          "newUsers": "- Array of users to add to the whitelist"
        }
      },
      "removeAdmin(address)": {
        "params": {
          "_admin": "Address of current admin"
        }
      },
      "setVault(address)": {
        "params": {
          "_newVaultAddress": "The address that will store the fees collected"
        }
      },
      "topUpBalance()": {
        "details": "topUpBalance - This is only used to increase this.balance in the case this controller is used to allow burning"
      },
      "upgradeController(address)": {
        "params": {
          "_newControllerAddress": "The address that will have the token control logic"
        }
      }
    }
  },
  "userdoc": {
    "methods": {
      "addAdmin(address)": {
        "notice": "The owner is able to add new admin"
      },
      "changeOwner(address)": {
        "notice": "`owner` can step down and assign some other address to this role"
      },
      "claimTokens(address)": {
        "notice": "///////This method can be used by the owner to extract mistakenly  sent tokens to this contract."
      },
      "getFeeToTokenConversion(uint256)": {
        "notice": "//////////////"
      },
      "getRegistrationStatus(address)": {
        "notice": "//// Getters to allow the same whitelist to be used also by other contracts (including upgraded Controllers) ///////"
      },
      "onApprove(address,address,uint256)": {
        "notice": "Notifies the controller about an approval, for this Campaign all  approvals are allowed by default and no extra notifications are needed"
      },
      "onBurn(address,uint256)": {
        "notice": "Notifies the controller about a burn attempt. Initially all burns are disabled. Upgraded Controllers in the future will allow token holders to claim the pledged ETH"
      },
      "onTransfer(address,address,uint256)": {
        "notice": "Notifies the controller about a transfer. Transfers can only happen to whitelisted addresses"
      },
      "proxyAccountingCreation(address,uint256,uint256)": {
        "notice": "`proxyAccountingCreation()` allows owner to create tokens without sending ether via the contract Creates tokens, pledging an amount of eth to token holders but not sending it through the contract to the vault"
      },
      "proxyPayment(address)": {
        "notice": "//////////////`proxyPayment()` allows the caller to send ether to the Campaign but does not create tokens. This functions the same as the fallback function."
      },
      "removeAdmin(address)": {
        "notice": "Only owner is able to remove admin"
      },
      "setVault(address)": {
        "notice": "`onlyOwner` changes the location that ether is sent"
      },
      "upgradeController(address)": {
        "notice": "`onlyOwner` can upgrade the controller contract"
      }
    }
  }
}