{
  "contractName": "NectarController",
  "abi": [
    {
      "constant": true,
      "inputs": [
        {
          "name": "_maker",
          "type": "address"
        }
      ],
      "name": "getAuthorisationStatus",
      "outputs": [
        {
          "name": "",
          "type": "bool"
        }
      ],
      "payable": false,
      "stateMutability": "view",
      "type": "function"
    },
    {
      "constant": false,
      "inputs": [
        {
          "name": "_admin",
          "type": "address"
        }
      ],
      "name": "removeAdmin",
      "outputs": [],
      "payable": false,
      "stateMutability": "nonpayable",
      "type": "function"
    },
    {
      "constant": true,
      "inputs": [
        {
          "name": "_admin",
          "type": "address"
        }
      ],
      "name": "isAdmin",
      "outputs": [
        {
          "name": "",
          "type": "bool"
        }
      ],
      "payable": false,
      "stateMutability": "view",
      "type": "function"
    },
    {
      "constant": false,
      "inputs": [
        {
          "name": "bannedUsers",
          "type": "address[]"
        }
      ],
      "name": "deregister",
      "outputs": [],
      "payable": false,
      "stateMutability": "nonpayable",
      "type": "function"
    },
    {
      "constant": false,
      "inputs": [
        {
          "name": "maker",
          "type": "address"
        }
      ],
      "name": "authoriseMaker",
      "outputs": [],
      "payable": false,
      "stateMutability": "nonpayable",
      "type": "function"
    },
    {
      "constant": true,
      "inputs": [
        {
          "name": "",
          "type": "address"
        }
      ],
      "name": "isAuthorisedMaker",
      "outputs": [
        {
          "name": "",
          "type": "bool"
        }
      ],
      "payable": false,
      "stateMutability": "view",
      "type": "function"
    },
    {
      "constant": true,
      "inputs": [
        {
          "name": "",
          "type": "address"
        }
      ],
      "name": "admins",
      "outputs": [
        {
          "name": "",
          "type": "bool"
        }
      ],
      "payable": false,
      "stateMutability": "view",
      "type": "function"
    },
    {
      "constant": true,
      "inputs": [],
      "name": "vaultAddress",
      "outputs": [
        {
          "name": "",
          "type": "address"
        }
      ],
      "payable": false,
      "stateMutability": "view",
      "type": "function"
    },
    {
      "constant": false,
      "inputs": [
        {
          "name": "newUsers",
          "type": "address[]"
        }
      ],
      "name": "register",
      "outputs": [],
      "payable": false,
      "stateMutability": "nonpayable",
      "type": "function"
    },
    {
      "constant": false,
      "inputs": [
        {
          "name": "newSetting",
          "type": "bool"
        }
      ],
      "name": "activateWhitelist",
      "outputs": [],
      "payable": false,
      "stateMutability": "nonpayable",
      "type": "function"
    },
    {
      "constant": true,
      "inputs": [],
      "name": "tokenContract",
      "outputs": [
        {
          "name": "",
          "type": "address"
        }
      ],
      "payable": false,
      "stateMutability": "view",
      "type": "function"
    },
    {
      "constant": false,
      "inputs": [
        {
          "name": "_newAdmin",
          "type": "address"
        }
      ],
      "name": "addAdmin",
      "outputs": [],
      "payable": false,
      "stateMutability": "nonpayable",
      "type": "function"
    },
    {
      "constant": true,
      "inputs": [
        {
          "name": "",
          "type": "address"
        }
      ],
      "name": "isOnList",
      "outputs": [
        {
          "name": "",
          "type": "bool"
        }
      ],
      "payable": false,
      "stateMutability": "view",
      "type": "function"
    },
    {
      "constant": true,
      "inputs": [],
      "name": "startTime",
      "outputs": [
        {
          "name": "",
          "type": "uint256"
        }
      ],
      "payable": false,
      "stateMutability": "view",
      "type": "function"
    },
    {
      "constant": true,
      "inputs": [],
      "name": "getOwner",
      "outputs": [
        {
          "name": "",
          "type": "address"
        }
      ],
      "payable": false,
      "stateMutability": "view",
      "type": "function"
    },
    {
      "constant": true,
      "inputs": [],
      "name": "owner",
      "outputs": [
        {
          "name": "",
          "type": "address"
        }
      ],
      "payable": false,
      "stateMutability": "view",
      "type": "function"
    },
    {
      "constant": false,
      "inputs": [
        {
          "name": "_newOwner",
          "type": "address"
        }
      ],
      "name": "changeOwner",
      "outputs": [],
      "payable": false,
      "stateMutability": "nonpayable",
      "type": "function"
    },
    {
      "constant": true,
      "inputs": [
        {
          "name": "_user",
          "type": "address"
        }
      ],
      "name": "getRegistrationStatus",
      "outputs": [
        {
          "name": "",
          "type": "bool"
        }
      ],
      "payable": false,
      "stateMutability": "view",
      "type": "function"
    },
    {
      "constant": true,
      "inputs": [
        {
          "name": "_user",
          "type": "address"
        }
      ],
      "name": "isRegistered",
      "outputs": [
        {
          "name": "",
          "type": "bool"
        }
      ],
      "payable": false,
      "stateMutability": "view",
      "type": "function"
    },
    {
      "constant": true,
      "inputs": [
        {
          "name": "",
          "type": "uint256"
        }
      ],
      "name": "windowFinalBlock",
      "outputs": [
        {
          "name": "",
          "type": "uint256"
        }
      ],
      "payable": false,
      "stateMutability": "view",
      "type": "function"
    },
    {
      "constant": true,
      "inputs": [],
      "name": "periodLength",
      "outputs": [
        {
          "name": "",
          "type": "uint256"
        }
      ],
      "payable": false,
      "stateMutability": "view",
      "type": "function"
    },
    {
      "constant": true,
      "inputs": [],
      "name": "listActive",
      "outputs": [
        {
          "name": "",
          "type": "bool"
        }
      ],
      "payable": false,
      "stateMutability": "view",
      "type": "function"
    },
    {
      "constant": false,
      "inputs": [
        {
          "name": "maker",
          "type": "address"
        }
      ],
      "name": "deauthoriseMaker",
      "outputs": [],
      "payable": false,
      "stateMutability": "nonpayable",
      "type": "function"
    },
    {
      "inputs": [
        {
          "name": "_vaultAddress",
          "type": "address"
        },
        {
          "name": "_tokenAddress",
          "type": "address"
        }
      ],
      "payable": false,
      "stateMutability": "nonpayable",
      "type": "constructor"
    },
    {
      "payable": true,
      "stateMutability": "payable",
      "type": "fallback"
    },
    {
      "anonymous": false,
      "inputs": [
        {
          "indexed": true,
          "name": "_token",
          "type": "address"
        },
        {
          "indexed": true,
          "name": "_controller",
          "type": "address"
        },
        {
          "indexed": false,
          "name": "_amount",
          "type": "uint256"
        }
      ],
      "name": "ClaimedTokens",
      "type": "event"
    },
    {
      "anonymous": false,
      "inputs": [
        {
          "indexed": false,
          "name": "_amount",
          "type": "uint256"
        }
      ],
      "name": "LogFeeTopUp",
      "type": "event"
    },
    {
      "anonymous": false,
      "inputs": [
        {
          "indexed": false,
          "name": "_amount",
          "type": "uint256"
        }
      ],
      "name": "LogFeeEvacuation",
      "type": "event"
    },
    {
      "anonymous": false,
      "inputs": [
        {
          "indexed": false,
          "name": "_user",
          "type": "address"
        },
        {
          "indexed": false,
          "name": "_amount",
          "type": "uint256"
        },
        {
          "indexed": false,
          "name": "_maker",
          "type": "bool"
        }
      ],
      "name": "LogContributions",
      "type": "event"
    },
    {
      "anonymous": false,
      "inputs": [
        {
          "indexed": false,
          "name": "_user",
          "type": "address"
        },
        {
          "indexed": false,
          "name": "_amount",
          "type": "uint256"
        }
      ],
      "name": "LogClaim",
      "type": "event"
    },
    {
      "anonymous": false,
      "inputs": [
        {
          "indexed": false,
          "name": "newAddress",
          "type": "address"
        }
      ],
      "name": "UpgradedController",
      "type": "event"
    },
    {
      "constant": false,
      "inputs": [
        {
          "name": "_owner",
          "type": "address"
        }
      ],
      "name": "contributeForMakers",
      "outputs": [],
      "payable": true,
      "stateMutability": "payable",
      "type": "function"
    },
    {
      "constant": false,
      "inputs": [
        {
          "name": "_owner",
          "type": "address"
        }
      ],
      "name": "proxyPayment",
      "outputs": [
        {
          "name": "",
          "type": "bool"
        }
      ],
      "payable": true,
      "stateMutability": "payable",
      "type": "function"
    },
    {
      "constant": false,
      "inputs": [
        {
          "name": "_owner",
          "type": "address"
        },
        {
          "name": "_pledgedAmount",
          "type": "uint256"
        },
        {
          "name": "_tokensToCreate",
          "type": "uint256"
        }
      ],
      "name": "proxyAccountingCreation",
      "outputs": [
        {
          "name": "",
          "type": "bool"
        }
      ],
      "payable": false,
      "stateMutability": "nonpayable",
      "type": "function"
    },
    {
      "constant": false,
      "inputs": [
        {
          "name": "_from",
          "type": "address"
        },
        {
          "name": "_to",
          "type": "address"
        },
        {
          "name": "_amount",
          "type": "uint256"
        }
      ],
      "name": "onTransfer",
      "outputs": [
        {
          "name": "",
          "type": "bool"
        }
      ],
      "payable": false,
      "stateMutability": "nonpayable",
      "type": "function"
    },
    {
      "constant": false,
      "inputs": [
        {
          "name": "_owner",
          "type": "address"
        },
        {
          "name": "_spender",
          "type": "address"
        },
        {
          "name": "_amount",
          "type": "uint256"
        }
      ],
      "name": "onApprove",
      "outputs": [
        {
          "name": "",
          "type": "bool"
        }
      ],
      "payable": false,
      "stateMutability": "nonpayable",
      "type": "function"
    },
    {
      "constant": false,
      "inputs": [
        {
          "name": "_owner",
          "type": "address"
        },
        {
          "name": "_tokensToBurn",
          "type": "uint256"
        }
      ],
      "name": "onBurn",
      "outputs": [
        {
          "name": "",
          "type": "bool"
        }
      ],
      "payable": false,
      "stateMutability": "nonpayable",
      "type": "function"
    },
    {
      "constant": false,
      "inputs": [
        {
          "name": "_newVaultAddress",
          "type": "address"
        }
      ],
      "name": "setVault",
      "outputs": [],
      "payable": false,
      "stateMutability": "nonpayable",
      "type": "function"
    },
    {
      "constant": false,
      "inputs": [
        {
          "name": "_newControllerAddress",
          "type": "address"
        }
      ],
      "name": "upgradeController",
      "outputs": [],
      "payable": false,
      "stateMutability": "nonpayable",
      "type": "function"
    },
    {
      "constant": true,
      "inputs": [
        {
          "name": "_contributed",
          "type": "uint256"
        }
      ],
      "name": "getFeeToTokenConversion",
      "outputs": [
        {
          "name": "",
          "type": "uint256"
        }
      ],
      "payable": false,
      "stateMutability": "view",
      "type": "function"
    },
    {
      "constant": true,
      "inputs": [],
      "name": "currentWindow",
      "outputs": [
        {
          "name": "",
          "type": "uint256"
        }
      ],
      "payable": false,
      "stateMutability": "view",
      "type": "function"
    },
    {
      "constant": true,
      "inputs": [
        {
          "name": "timestamp",
          "type": "uint256"
        }
      ],
      "name": "windowAt",
      "outputs": [
        {
          "name": "",
          "type": "uint256"
        }
      ],
      "payable": false,
      "stateMutability": "view",
      "type": "function"
    },
    {
      "constant": false,
      "inputs": [],
      "name": "topUpBalance",
      "outputs": [],
      "payable": true,
      "stateMutability": "payable",
      "type": "function"
    },
    {
      "constant": false,
      "inputs": [],
      "name": "evacuateToVault",
      "outputs": [],
      "payable": false,
      "stateMutability": "nonpayable",
      "type": "function"
    },
    {
      "constant": false,
      "inputs": [
        {
          "name": "_burningEnabled",
          "type": "bool"
        }
      ],
      "name": "enableBurning",
      "outputs": [],
      "payable": false,
      "stateMutability": "nonpayable",
      "type": "function"
    },
    {
      "constant": false,
      "inputs": [
        {
          "name": "_token",
          "type": "address"
        }
      ],
      "name": "claimTokens",
      "outputs": [],
      "payable": false,
      "stateMutability": "nonpayable",
      "type": "function"
    }
  ],
  "bytecode": "0x60806040526000805460a060020a60ff02191674010000000000000000000000000000000000000000179055601e600655635a82d5d960075534801561004457600080fd5b50604051604080611d12833981016040908152815160209283015160008054600160a060020a031916339081178255815260019485905292909220805460ff1916909317909255600160a060020a03821615156100a057600080fd5b60048054600160a060020a03928316600160a060020a031991821617909155600580549390921692169190911790556008602052624d8e6d7f5eff886ea0ce6ca488a3d6e336d6c0f75f46d19b42c06ce5ee98e42c96d256c7556001600052625044267fad67d757c34507f157cacfa2e3153e9f260a2244f30428821be7be64587ac55f55611bde806101346000396000f3006080604052600436106101be5763ffffffff60e060020a6000350416630a5dc24d81146101c85780631785f53c146101fd578063198695551461021e57806324d7806c146102335780632b8b6667146102545780632dff7a2b146102a957806337aa7f91146102ca578063429b62e5146102eb578063430bf08a1461030c57806343dc3ab21461033d57806345a1b92c146103925780634714c0aa146103b65780634a393149146103dd5780634cedfc0c1461040757806355a373d6146104215780636817031b1461043657806370480275146104575780637330daac1461047857806378e97925146104995780637efff887146104c0578063893d20e8146104c85780638da5cb5b146104dd578063a6f9dae1146104f2578063a8af4ff514610513578063aba3d01714610534578063b45dd8731461054c578063b9c2ee8214610566578063ba0bafb414610587578063c3c5a5471461059c578063cb22d392146105bd578063cdc62c03146105d5578063d2ca2115146105ed578063da682aeb14610602578063db25b4071461062c578063df8de3e714610641578063dfca8fd214610662578063e24a1d1e14610676578063f48c305414610697575b6101c66106ab565b005b3480156101d457600080fd5b506101e9600160a060020a036004351661085c565b604080519115158252519081900360200190f35b34801561020957600080fd5b506101c6600160a060020a036004351661087e565b34801561022a57600080fd5b506101c66108b6565b34801561023f57600080fd5b506101e9600160a060020a036004351661093e565b34801561026057600080fd5b50604080516020600480358082013583810280860185019096528085526101c69536959394602494938501929182918501908490808284375094975061095c9650505050505050565b3480156102b557600080fd5b506101c6600160a060020a03600435166109d1565b3480156102d657600080fd5b506101e9600160a060020a0360043516610a60565b3480156102f757600080fd5b506101e9600160a060020a0360043516610a75565b34801561031857600080fd5b50610321610a8a565b60408051600160a060020a039092168252519081900360200190f35b34801561034957600080fd5b50604080516020600480358082013583810280860185019096528085526101c695369593946024949385019291829185019084908082843750949750610a999650505050505050565b34801561039e57600080fd5b506101e9600160a060020a0360043516602435610b0a565b3480156103c257600080fd5b506101e9600160a060020a0360043516602435604435610d9b565b3480156103e957600080fd5b506101e9600160a060020a0360043581169060243516604435610dc9565b34801561041357600080fd5b506101c66004351515610df9565b34801561042d57600080fd5b50610321610e50565b34801561044257600080fd5b506101c6600160a060020a0360043516610e5f565b34801561046357600080fd5b506101c6600160a060020a0360043516610ea5565b34801561048457600080fd5b506101e9600160a060020a0360043516610ee3565b3480156104a557600080fd5b506104ae610ef8565b60408051918252519081900360200190f35b6101c6610efe565b3480156104d457600080fd5b50610321610f33565b3480156104e957600080fd5b50610321610f42565b3480156104fe57600080fd5b506101c6600160a060020a0360043516610f51565b34801561051f57600080fd5b506101e9600160a060020a0360043516610f97565b34801561054057600080fd5b506104ae600435610fb5565b34801561055857600080fd5b506101c66004351515610ff1565b34801561057257600080fd5b506101c6600160a060020a036004351661108b565b34801561059357600080fd5b506104ae611165565b3480156105a857600080fd5b506101e9600160a060020a0360043516611175565b3480156105c957600080fd5b506104ae6004356111c4565b3480156105e157600080fd5b506104ae6004356111d6565b3480156105f957600080fd5b506104ae6113da565b34801561060e57600080fd5b506101e9600160a060020a03600435811690602435166044356113e0565b34801561063857600080fd5b506101e96113eb565b34801561064d57600080fd5b506101c6600160a060020a036004351661140c565b6101c6600160a060020a03600435166115a1565b34801561068257600080fd5b506101c6600160a060020a03600435166115cb565b6101e9600160a060020a0360043516611603565b60048054604080517ff77c47910000000000000000000000000000000000000000000000000000000081529051600160a060020a039092169263f77c47919282820192602092908290030181600087803b15801561070857600080fd5b505af115801561071c573d6000803e3d6000fd5b505050506040513d602081101561073257600080fd5b5051600160a060020a03161580159061074a57503415155b151561075557600080fd5b60048054604080517f4fa7e353000000000000000000000000000000000000000000000000000000008152349381019390935251600160a060020a0390911691634fa7e3539160248083019260209291908290030181600087803b1580156107bc57600080fd5b505af11580156107d0573d6000803e3d6000fd5b505050506040513d60208110156107e657600080fd5b5050600554604051600160a060020a03909116903480156108fc02916000818181858888f19350505050151561081b57600080fd5b6040805133815234602082015260008183015290517f07c7bae800cac64b1ccb6998a41bfc58b5da0447a2bcea4f8430983a566cd13c9181900360600190a1565b600160a060020a03811660009081526003602052604090205460ff165b919050565b600054600160a060020a0316331461089557600080fd5b600160a060020a03166000908152600160205260409020805460ff19169055565b600054600160a060020a031633146108cd57600080fd5b600554604051600160a060020a0390911690303180156108fc02916000818181858888f19350505050158015610907573d6000803e3d6000fd5b50604080513031815290517f8cf1c5c446b156b14402e4a2526dab237cb6defe71043cbb787f51ce6724b0db9181900360200190a1565b600160a060020a031660009081526001602052604090205460ff1690565b60006109673361093e565b151561097257600080fd5b5060005b81518110156109cd57600060026000848481518110151561099357fe5b602090810291909101810151600160a060020a03168252810191909152604001600020805460ff1916911515919091179055600101610976565b5050565b600054606090600160a060020a031633146109eb57600080fd5b600160a060020a03821660009081526003602052604090819020805460ff19166001908117909155815181815280830190925281602001602082028038833901905050905081816000815181101515610a4057fe5b600160a060020a039092166020928302909101909101526109cd81610a99565b60036020526000908152604090205460ff1681565b60016020526000908152604090205460ff1681565b600554600160a060020a031681565b6000610aa43361093e565b1515610aaf57600080fd5b5060005b81518110156109cd576001600260008484815181101515610ad057fe5b602090810291909101810151600160a060020a03168252810191909152604001600020805460ff1916911515919091179055600101610ab3565b600454600090819081908190600160a060020a03163314610b2a57600080fd5b60048054604080517f311325bd0000000000000000000000000000000000000000000000000000000081529051600160a060020a039092169263311325bd9282820192602092908290030181600087803b158015610b8757600080fd5b505af1158015610b9b573d6000803e3d6000fd5b505050506040513d6020811015610bb157600080fd5b505160048054604080517f18160ddd0000000000000000000000000000000000000000000000000000000081529051939650600160a060020a03909116926318160ddd928281019260209291908290030181600087803b158015610c1457600080fd5b505af1158015610c28573d6000803e3d6000fd5b505050506040513d6020811015610c3e57600080fd5b50519150610c6282610c56858863ffffffff61161516565b9063ffffffff61164b16565b60048054604080517fd3ce77fe000000000000000000000000000000000000000000000000000000008152600160a060020a038b811694820194909452602481018a9052905193945091169163d3ce77fe916044808201926020929091908290030181600087803b158015610cd657600080fd5b505af1158015610cea573d6000803e3d6000fd5b505050506040513d6020811015610d0057600080fd5b50511515610d0d57600080fd5b3031811115610d1b57600080fd5b604051600160a060020a0387169082156108fc029083906000818181858888f193505050501515610d4b57600080fd5b60408051600160a060020a03881681526020810183905281517ffce6d5860f911bc27ece1365300332d2ddbe20c1adc46ee2eddd8f72c48053b2929181900390910190a150600195945050505050565b60008054600160a060020a03163314610db357600080fd5b610dbe848484611662565b5060015b9392505050565b6000610dd483611175565b8015610de45750610de484611175565b15610df157506001610dc2565b506000610dc2565b600054600160a060020a03163314610e1057600080fd5b60008054911515740100000000000000000000000000000000000000000274ff000000000000000000000000000000000000000019909216919091179055565b600454600160a060020a031681565b600054600160a060020a03163314610e7657600080fd5b6005805473ffffffffffffffffffffffffffffffffffffffff1916600160a060020a0392909216919091179055565b600054600160a060020a03163314610ebc57600080fd5b600160a060020a03166000908152600160208190526040909120805460ff19169091179055565b60026020526000908152604090205460ff1681565b60075481565b6040805134815290517f386c5a74f4b48b1c24abbf0aedacece36a9699f01ed737f0486ebfd9d549b14a9181900360200190a1565b600054600160a060020a031690565b600054600160a060020a031681565b600054600160a060020a03163314610f6857600080fd5b6000805473ffffffffffffffffffffffffffffffffffffffff1916600160a060020a0392909216919091179055565b600160a060020a031660009081526002602052604090205460ff1690565b60006007548210610fe857610fe06006546201518002610c56600754856118d690919063ffffffff16565b600101610feb565b60005b92915050565b600054600160a060020a0316331461100857600080fd5b60048054604080517fb45dd8730000000000000000000000000000000000000000000000000000000081528415159381019390935251600160a060020a039091169163b45dd87391602480830192600092919082900301818387803b15801561107057600080fd5b505af1158015611084573d6000803e3d6000fd5b5050505050565b600054600160a060020a031633146110a257600080fd5b60048054604080517f3cebb823000000000000000000000000000000000000000000000000000000008152600160a060020a038581169482019490945290519290911691633cebb8239160248082019260009290919082900301818387803b15801561110d57600080fd5b505af1158015611121573d6000803e3d6000fd5b505060408051600160a060020a038516815290517fbef2873659f3bf8b3c7c64380b7543be225c22ebb0f56a811c1a7209b00f82229350908190036020019150a150565b600061117042610fb5565b905090565b6000805474010000000000000000000000000000000000000000900460ff1615156111a257506001610879565b50600160a060020a03811660009081526002602052604090205460ff16610879565b60086020526000908152604090205481565b60008060008060006008600060016111ec611165565b038152602001908152602001600020549350600460009054906101000a9004600160a060020a0316600160a060020a031663981b24d0856040518263ffffffff1660e060020a02815260040180828152602001915050602060405180830381600087803b15801561125c57600080fd5b505af1158015611270573d6000803e3d6000fd5b505050506040513d602081101561128657600080fd5b5051600480546000808052600860209081527f5eff886ea0ce6ca488a3d6e336d6c0f75f46d19b42c06ce5ee98e42c96d256c754604080517f981b24d00000000000000000000000000000000000000000000000000000000081529586019190915251949750600160a060020a039092169363981b24d09360248082019493918390030190829087803b15801561131c57600080fd5b505af1158015611330573d6000803e3d6000fd5b505050506040513d602081101561134657600080fd5b5051915060028202831061135d57600094506113d1565b6113cb61138361136d60016118e8565b61137760016118e8565b9063ffffffff61161516565b610c5661139385610c56886118e8565b61139d60026118e8565b036113776113ae87610c568a6118e8565b6113b860026118e8565b036113778c6103e863ffffffff61161516565b90508094505b50505050919050565b60065481565b6000610de484611175565b60005474010000000000000000000000000000000000000000900460ff1681565b600080548190600160a060020a0316331461142657600080fd5b604080517f70a082310000000000000000000000000000000000000000000000000000000081523060048201529051849350600160a060020a038416916370a082319160248083019260209291908290030181600087803b15801561148a57600080fd5b505af115801561149e573d6000803e3d6000fd5b505050506040513d60208110156114b457600080fd5b505160008054604080517fa9059cbb000000000000000000000000000000000000000000000000000000008152600160a060020a0392831660048201526024810185905290519394509085169263a9059cbb92604480840193602093929083900390910190829087803b15801561152a57600080fd5b505af115801561153e573d6000803e3d6000fd5b505050506040513d602081101561155457600080fd5b5050600054604080518381529051600160a060020a03928316928616917ff931edb47c50b4b4104c187b5814a9aef5f709e17e2ecf9617e860cacade929c919081900360200190a3505050565b3360009081526003602052604090205460ff1615156115bf57600080fd5b6115c8816118ff565b50565b600054600160a060020a031633146115e257600080fd5b600160a060020a03166000908152600360205260409020805460ff19169055565b600061160d6106ab565b506001919050565b6000808315156116285760009150611644565b5082820282848281151561163857fe5b041461164057fe5b8091505b5092915050565b600080828481151561165957fe5b04949350505050565b6000600460009054906101000a9004600160a060020a0316600160a060020a031663f77c47916040518163ffffffff1660e060020a028152600401602060405180830381600087803b1580156116b757600080fd5b505af11580156116cb573d6000803e3d6000fd5b505050506040513d60208110156116e157600080fd5b5051600160a060020a031615156116f757600080fd5b600860006001611705611165565b0381526020019081526020016000205460001415611742576001430360086000600161172f611165565b0381526020810191909152604001600020555b60048054604080517f4fa7e35300000000000000000000000000000000000000000000000000000000815292830186905251600160a060020a0390911691634fa7e3539160248083019260209291908290030181600087803b1580156117a757600080fd5b505af11580156117bb573d6000803e3d6000fd5b505050506040513d60208110156117d157600080fd5b50506000821115611890576117e5836111d6565b60048054604080517f827f32c0000000000000000000000000000000000000000000000000000000008152600160a060020a038981169482019490945260248101879052905193945091169163827f32c0916044808201926020929091908290030181600087803b15801561185957600080fd5b505af115801561186d573d6000803e3d6000fd5b505050506040513d602081101561188357600080fd5b5051151561189057600080fd5b604080513381526020810185905260018183015290517f07c7bae800cac64b1ccb6998a41bfc58b5da0447a2bcea4f8430983a566cd13c9181900360600190a150505050565b6000828211156118e257fe5b50900390565b6000610feb826402540be40063ffffffff61161516565b6000600460009054906101000a9004600160a060020a0316600160a060020a031663f77c47916040518163ffffffff1660e060020a028152600401602060405180830381600087803b15801561195457600080fd5b505af1158015611968573d6000803e3d6000fd5b505050506040513d602081101561197e57600080fd5b5051600160a060020a03161580159061199657503415155b15156119a157600080fd5b60048054604080517f4fa7e353000000000000000000000000000000000000000000000000000000008152349381019390935251600160a060020a0390911691634fa7e3539160248083019260209291908290030181600087803b158015611a0857600080fd5b505af1158015611a1c573d6000803e3d6000fd5b505050506040513d6020811015611a3257600080fd5b5050600554604051600160a060020a03909116903480156108fc02916000818181858888f193505050501515611a6757600080fd5b600860006001611a75611165565b0381526020019081526020016000205460001415611ab25760014303600860006001611a9f611165565b0381526020810191909152604001600020555b611abb346111d6565b60048054604080517f827f32c0000000000000000000000000000000000000000000000000000000008152600160a060020a038781169482019490945260248101859052905193945091169163827f32c0916044808201926020929091908290030181600087803b158015611b2f57600080fd5b505af1158015611b43573d6000803e3d6000fd5b505050506040513d6020811015611b5957600080fd5b50511515611b6657600080fd5b60408051600160a060020a038416815234602082015260018183015290517f07c7bae800cac64b1ccb6998a41bfc58b5da0447a2bcea4f8430983a566cd13c9181900360600190a150505600a165627a7a723058202c78ea6433cbfde398995358a55a5170098b36d35850580cfea54a39c67c99540029",
  "source": "\nimport \"./TokenController.sol\";\nimport \"./Whitelist.sol\";\nimport \"./NEC.sol\";\n\nlibrary SafeMath {\n  function mul(uint256 a, uint256 b) internal pure returns (uint256) {\n    if (a == 0) {\n      return 0;\n    }\n    uint256 c = a * b;\n    assert(c / a == b);\n    return c;\n  }\n\n  function div(uint256 a, uint256 b) internal pure returns (uint256) {\n    // assert(b > 0); // Solidity automatically throws when dividing by 0\n    uint256 c = a / b;\n    // assert(a == b * c + a % b); // There is no case in which this doesn't hold\n    return c;\n  }\n\n  function sub(uint256 a, uint256 b) internal pure returns (uint256) {\n    assert(b <= a);\n    return a - b;\n  }\n\n  function add(uint256 a, uint256 b) internal pure returns (uint256) {\n    uint256 c = a + b;\n    assert(c >= a);\n    return c;\n  }\n}\n\n\ncontract NectarController is TokenController, Whitelist {\n    using SafeMath for uint256;\n\n    NEC public tokenContract;   // The new token for this Campaign\n    address public vaultAddress;        // The address to hold the funds donated\n\n    uint public periodLength = 30;       // Contribution windows length in days\n    uint public startTime = 1518523865;  // Time of window 1 opening\n\n    mapping (uint => uint) public windowFinalBlock;  // Final block before initialisation of new window\n\n\n    /// @dev There are several checks to make sure the parameters are acceptable\n    /// @param _vaultAddress The address that will store the donated funds\n    /// @param _tokenAddress Address of the token contract this contract controls\n\n    function NectarController(\n        address _vaultAddress,\n        address _tokenAddress\n    ) public {\n        require(_vaultAddress != 0);                // To prevent burning ETH\n        tokenContract = NEC(_tokenAddress); // The Deployed Token Contract\n        vaultAddress = _vaultAddress;\n        windowFinalBlock[0] = 5082733;\n        windowFinalBlock[1] = 5260326;\n    }\n\n    /// @dev The fallback function is called when ether is sent to the contract, it\n    /// simply calls `doTakerPayment()` . No tokens are created when takers contribute.\n    /// `_owner`. Payable is a required solidity modifier for functions to receive\n    /// ether, without this modifier functions will throw if ether is sent to them\n\n    function ()  public payable {\n        doTakerPayment();\n    }\n\n    function contributeForMakers(address _owner) public payable authorised {\n        doMakerPayment(_owner);\n    }\n\n/////////////////\n// TokenController interface\n/////////////////\n\n    /// @notice `proxyPayment()` allows the caller to send ether to the Campaign\n    /// but does not create tokens. This functions the same as the fallback function.\n    /// @param _owner Does not do anything, but preserved because of MiniMe standard function.\n    function proxyPayment(address _owner) public payable returns(bool) {\n        doTakerPayment();\n        return true;\n    }\n\n    /// @notice `proxyAccountingCreation()` allows owner to create tokens without sending ether via the contract\n    /// Creates tokens, pledging an amount of eth to token holders but not sending it through the contract to the vault\n    /// @param _owner The person who will have the created tokens\n    function proxyAccountingCreation(address _owner, uint _pledgedAmount, uint _tokensToCreate) public onlyOwner returns(bool) {\n        // Ethfinex is a hybrid decentralised exchange\n        // This function is only for use to create tokens on behalf of users of the centralised side of Ethfinex\n        // Because there are several different fee tiers (depending on trading volume) token creation rates may not always be proportional to fees contributed.\n        // For example if a user is trading with a 0.025% fee as opposed to the standard 0.1% the tokensToCreate the pledged fees will be lower than through using the standard contributeForMakers function\n        // Tokens to create must be calculated off-chain using the issuance equation and current parameters of this contract, multiplied depending on user's fee tier\n        doProxyAccounting(_owner, _pledgedAmount, _tokensToCreate);\n        return true;\n    }\n\n\n    /// @notice Notifies the controller about a transfer.\n    /// Transfers can only happen to whitelisted addresses\n    /// @param _from The origin of the transfer\n    /// @param _to The destination of the transfer\n    /// @param _amount The amount of the transfer\n    /// @return False if the controller does not authorize the transfer\n    function onTransfer(address _from, address _to, uint _amount) public returns(bool) {\n        if (isRegistered(_to) && isRegistered(_from)) {\n          return true;\n        } else {\n          return false;\n        }\n    }\n\n    /// @notice Notifies the controller about an approval, for this Campaign all\n    ///  approvals are allowed by default and no extra notifications are needed\n    /// @param _owner The address that calls `approve()`\n    /// @param _spender The spender in the `approve()` call\n    /// @param _amount The amount in the `approve()` call\n    /// @return False if the controller does not authorize the approval\n    function onApprove(address _owner, address _spender, uint _amount) public\n        returns(bool)\n    {\n        if (isRegistered(_owner)) {\n          return true;\n        } else {\n          return false;\n        }\n    }\n\n    /// @notice Notifies the controller about a burn attempt. Initially all burns are disabled.\n    /// Upgraded Controllers in the future will allow token holders to claim the pledged ETH\n    /// @param _owner The address that calls `burn()`\n    /// @param _tokensToBurn The amount in the `burn()` call\n    /// @return False if the controller does not authorize the approval\n    function onBurn(address _owner, uint _tokensToBurn) public\n        returns(bool)\n    {\n        // This plugin can only be called by the token contract\n        require(msg.sender == address(tokenContract));\n\n        uint256 feeTotal = tokenContract.totalPledgedFees();\n        uint256 totalTokens = tokenContract.totalSupply();\n        uint256 feeValueOfTokens = (feeTotal.mul(_tokensToBurn)).div(totalTokens);\n\n        // Destroy the owners tokens prior to sending them the associated fees\n        require (tokenContract.destroyTokens(_owner, _tokensToBurn));\n        require (address(this).balance >= feeValueOfTokens);\n        require (_owner.send(feeValueOfTokens));\n\n        emit LogClaim(_owner, feeValueOfTokens);\n        return true;\n    }\n\n/////////////////\n// Maker and taker fee payments handling\n/////////////////\n\n\n    /// @dev `doMakerPayment()` is an internal function that sends the ether that this\n    ///  contract receives to the `vault` and creates tokens in the address of the\n    ///  `_owner`who the fee contribution was sent by\n    /// @param _owner The address that will hold the newly created tokens\n    function doMakerPayment(address _owner) internal {\n\n        require ((tokenContract.controller() != 0) && (msg.value != 0) );\n        tokenContract.pledgeFees(msg.value);\n        require (vaultAddress.send(msg.value));\n\n        // Set the block number which will be used to calculate issuance rate during\n        // this window if it has not already been set\n        if(windowFinalBlock[currentWindow()-1] == 0) {\n            windowFinalBlock[currentWindow()-1] = block.number -1;\n        }\n\n        uint256 newIssuance = getFeeToTokenConversion(msg.value);\n        require (tokenContract.generateTokens(_owner, newIssuance));\n\n        emit LogContributions (_owner, msg.value, true);\n        return;\n    }\n\n    /// @dev `doTakerPayment()` is an internal function that sends the ether that this\n    ///  contract receives to the `vault`, creating no tokens\n    function doTakerPayment() internal {\n\n        require ((tokenContract.controller() != 0) && (msg.value != 0) );\n        tokenContract.pledgeFees(msg.value);\n        require (vaultAddress.send(msg.value));\n\n        emit LogContributions (msg.sender, msg.value, false);\n        return;\n    }\n\n    /// @dev `doProxyAccounting()` is an internal function that creates tokens\n    /// for fees pledged by the owner\n    function doProxyAccounting(address _owner, uint _pledgedAmount, uint _tokensToCreate) internal {\n\n        require ((tokenContract.controller() != 0));\n        if(windowFinalBlock[currentWindow()-1] == 0) {\n            windowFinalBlock[currentWindow()-1] = block.number -1;\n        }\n        tokenContract.pledgeFees(_pledgedAmount);\n\n        if(_tokensToCreate > 0) {\n            uint256 newIssuance = getFeeToTokenConversion(_pledgedAmount);\n            require (tokenContract.generateTokens(_owner, _tokensToCreate));\n        }\n\n        emit LogContributions (msg.sender, _pledgedAmount, true);\n        return;\n    }\n\n    /// @notice `onlyOwner` changes the location that ether is sent\n    /// @param _newVaultAddress The address that will store the fees collected\n    function setVault(address _newVaultAddress) public onlyOwner {\n        vaultAddress = _newVaultAddress;\n    }\n\n    /// @notice `onlyOwner` can upgrade the controller contract\n    /// @param _newControllerAddress The address that will have the token control logic\n    function upgradeController(address _newControllerAddress) public onlyOwner {\n        tokenContract.changeController(_newControllerAddress);\n        emit UpgradedController(_newControllerAddress);\n    }\n\n/////////////////\n// Issuance reward related functions - upgraded by changing controller\n/////////////////\n\n    /// @dev getFeeToTokenConversion (v2) - Controller could be changed in the future to update this function\n    /// @param _contributed - The value of fees contributed during the window\n    function getFeeToTokenConversion(uint256 _contributed) public view returns (uint256) {\n\n        uint calculationBlock = windowFinalBlock[currentWindow()-1];\n        uint256 previousSupply = tokenContract.totalSupplyAt(calculationBlock);\n        uint256 initialSupply = tokenContract.totalSupplyAt(windowFinalBlock[0]);\n        // Rate = 1000 * (2-totalSupply/InitialSupply)^2\n        // This imposes a max possible supply of 2 billion\n        if (previousSupply >= 2 * initialSupply) {\n            return 0;\n        }\n        uint256 newTokens = _contributed.mul(1000).mul(bigInt(2)-(bigInt(previousSupply).div(initialSupply))).mul(bigInt(2)-(bigInt(previousSupply).div(initialSupply))).div(bigInt(1).mul(bigInt(1)));\n        return newTokens;\n    }\n\n    function bigInt(uint256 input) internal pure returns (uint256) {\n      return input.mul(10 ** 10);\n    }\n\n    function currentWindow() public constant returns (uint) {\n       return windowAt(block.timestamp);\n    }\n\n    function windowAt(uint timestamp) public constant returns (uint) {\n      return timestamp < startTime\n          ? 0\n          : timestamp.sub(startTime).div(periodLength * 1 days) + 1;\n    }\n\n    /// @dev topUpBalance - This is only used to increase this.balance in the case this controller is used to allow burning\n    function topUpBalance() public payable {\n        // Pledged fees could be sent here and used to payout users who burn their tokens\n        emit LogFeeTopUp(msg.value);\n    }\n\n    /// @dev evacuateToVault - This is only used to evacuate remaining to ether from this contract to the vault address\n    function evacuateToVault() public onlyOwner{\n        vaultAddress.transfer(address(this).balance);\n        emit LogFeeEvacuation(address(this).balance);\n    }\n\n    /// @dev enableBurning - Allows the owner to activate burning on the underlying token contract\n    function enableBurning(bool _burningEnabled) public onlyOwner{\n        tokenContract.enableBurning(_burningEnabled);\n    }\n\n\n//////////\n// Safety Methods\n//////////\n\n    /// @notice This method can be used by the owner to extract mistakenly\n    ///  sent tokens to this contract.\n    /// @param _token The address of the token contract that you want to recover\n    function claimTokens(address _token) public onlyOwner {\n\n        NEC token = NEC(_token);\n        uint balance = token.balanceOf(this);\n        token.transfer(owner, balance);\n        emit ClaimedTokens(_token, owner, balance);\n    }\n\n////////////////\n// Events\n////////////////\n    event ClaimedTokens(address indexed _token, address indexed _controller, uint _amount);\n\n    event LogFeeTopUp(uint _amount);\n    event LogFeeEvacuation(uint _amount);\n    event LogContributions (address _user, uint _amount, bool _maker);\n    event LogClaim (address _user, uint _amount);\n\n    event UpgradedController (address newAddress);\n\n}",
  "sourcePath": "/Users/nikolaklipa/Decenter/community-gateway/solidity/contracts/NectarController.sol",
  "compiler": {
    "name": "solc",
    "version": "0.4.24+commit.e67f0147.Emscripten.clang"
  },
  "schemaVersion": "2.0.1",
  "updatedAt": "2018-08-31T15:17:48.651Z"
}