{
  "contractName": "Owned",
  "abi": [
    {
      "constant": true,
      "inputs": [],
      "name": "owner",
      "outputs": [
        {
          "name": "",
          "type": "address"
        }
      ],
      "payable": false,
      "stateMutability": "view",
      "type": "function"
    },
    {
      "inputs": [],
      "payable": false,
      "stateMutability": "nonpayable",
      "type": "constructor"
    },
    {
      "constant": false,
      "inputs": [
        {
          "name": "_newOwner",
          "type": "address"
        }
      ],
      "name": "changeOwner",
      "outputs": [],
      "payable": false,
      "stateMutability": "nonpayable",
      "type": "function"
    }
  ],
  "bytecode": "0x608060405234801561001057600080fd5b5060008054600160a060020a03191633179055610166806100326000396000f30060806040526004361061004b5763ffffffff7c01000000000000000000000000000000000000000000000000000000006000350416638da5cb5b8114610050578063a6f9dae11461008e575b600080fd5b34801561005c57600080fd5b506100656100be565b6040805173ffffffffffffffffffffffffffffffffffffffff9092168252519081900360200190f35b34801561009a57600080fd5b506100bc73ffffffffffffffffffffffffffffffffffffffff600435166100da565b005b60005473ffffffffffffffffffffffffffffffffffffffff1681565b60005473ffffffffffffffffffffffffffffffffffffffff1633146100fe57600080fd5b6000805473ffffffffffffffffffffffffffffffffffffffff191673ffffffffffffffffffffffffffffffffffffffff929092169190911790555600a165627a7a7230582068b98a9bfae1c3fe78d245602f8c06d5d6389d420bc15b5800f07cc1a35beab00029",
  "source": "\n/// @dev `Owned` is a base level contract that assigns an `owner` that can be\n///  later changed\ncontract Owned {\n    /// @dev `owner` is the only address that can call a function with this\n    /// modifier\n    modifier onlyOwner { require (msg.sender == owner); _; }\n\n    address public owner;\n\n    /// @notice The Constructor assigns the message sender to be `owner`\n    function Owned() public { owner = msg.sender;}\n\n    /// @notice `owner` can step down and assign some other address to this role\n    /// @param _newOwner The address of the new owner. 0x0 can be used to create\n    ///  an unowned neutral vault, however that cannot be undone\n    function changeOwner(address _newOwner) public onlyOwner {\n        owner = _newOwner;\n    }\n}\n\ncontract Whitelist is Owned {\n\n  function Whitelist() {\n    admins[msg.sender] = true;\n  }\n\n  bool public listActive = true;\n\n  // Only users who are on the whitelist\n  function isRegistered(address _user) public constant returns (bool) {\n    if (!listActive) {\n      return true;\n    } else {\n      return isOnList[_user];\n    }\n  }\n\n  // Can add people to the whitelist\n  function isAdmin(address _admin) public view returns(bool) {\n    return admins[_admin];\n  }\n\n  /// @notice The owner is able to add new admin\n  /// @param _newAdmin Address of new admin\n  function addAdmin(address _newAdmin) public onlyOwner {\n    admins[_newAdmin] = true;\n  }\n\n  /// @notice Only owner is able to remove admin\n  /// @param _admin Address of current admin\n  function removeAdmin(address _admin) public onlyOwner {\n    admins[_admin] = false;\n  }\n\n  // Only authorised sources/contracts can contribute fees on behalf of makers to earn tokens\n  modifier authorised () {\n    require(isAuthorisedMaker[msg.sender]);\n    _;\n  }\n\n  modifier onlyAdmins() {\n    require(isAdmin(msg.sender));\n    _;\n  }\n\n  // These admins are able to add new users to the whitelist\n  mapping (address => bool) public admins;\n\n  // This is the whitelist of users who are registered to be able to own the tokens\n  mapping (address => bool) public isOnList;\n\n  // This is a more select list of a few contracts or addresses which can contribute fees on behalf of makers, to generate tokens\n  mapping (address => bool) public isAuthorisedMaker;\n\n\n  /// @dev register\n  /// @param newUsers - Array of users to add to the whitelist\n  function register(address[] newUsers) public onlyAdmins {\n    for (uint i = 0; i < newUsers.length; i++) {\n      isOnList[newUsers[i]] = true;\n    }\n  }\n\n  /// @dev deregister\n  /// @param bannedUsers - Array of users to remove from the whitelist\n  function deregister(address[] bannedUsers) public onlyAdmins {\n    for (uint i = 0; i < bannedUsers.length; i++) {\n      isOnList[bannedUsers[i]] = false;\n    }\n  }\n\n  /// @dev authoriseMaker\n  /// @param maker - Source to add to authorised contributors\n  function authoriseMaker(address maker) public onlyOwner {\n      isAuthorisedMaker[maker] = true;\n      // Also add any authorised Maker to the whitelist\n      address[] memory makers = new address[](1);\n      makers[0] = maker;\n      register(makers);\n  }\n\n  /// @dev deauthoriseMaker\n  /// @param maker - Source to remove from authorised contributors\n  function deauthoriseMaker(address maker) public onlyOwner {\n      isAuthorisedMaker[maker] = false;\n  }\n\n  function activateWhitelist(bool newSetting) public onlyOwner {\n      listActive = newSetting;\n  }\n\n  /////// Getters to allow the same whitelist to be used also by other contracts (including upgraded Controllers) ///////\n\n  function getRegistrationStatus(address _user) constant external returns (bool) {\n    return isOnList[_user];\n  }\n\n  function getAuthorisationStatus(address _maker) constant external returns (bool) {\n    return isAuthorisedMaker[_maker];\n  }\n\n  function getOwner() external constant returns (address) {\n    return owner;\n  }\n\n\n}",
  "sourcePath": "/Users/nikolaklipa/Decenter/community-gateway/solidity/contracts/Whitelist.sol",
  "compiler": {
    "name": "solc",
    "version": "0.4.24+commit.e67f0147.Emscripten.clang"
  },
  "schemaVersion": "2.0.1",
  "updatedAt": "2018-08-31T18:35:29.945Z"
}