{
  "contractName": "ProposalManager",
  "abi": [
    {
      "constant": false,
      "inputs": [
        {
          "name": "_admin",
          "type": "address"
        }
      ],
      "name": "removeAdmin",
      "outputs": [],
      "payable": false,
      "stateMutability": "nonpayable",
      "type": "function"
    },
    {
      "constant": true,
      "inputs": [
        {
          "name": "_proposalId",
          "type": "uint256"
        }
      ],
      "name": "proposal",
      "outputs": [
        {
          "name": "_proposer",
          "type": "address"
        },
        {
          "name": "_startBlock",
          "type": "uint256"
        },
        {
          "name": "_startTime",
          "type": "uint256"
        },
        {
          "name": "_duration",
          "type": "uint256"
        },
        {
          "name": "_storageHash",
          "type": "bytes32"
        },
        {
          "name": "_active",
          "type": "bool"
        },
        {
          "name": "_finalized",
          "type": "bool"
        },
        {
          "name": "_totalYes",
          "type": "uint256"
        },
        {
          "name": "_totalNo",
          "type": "uint256"
        },
        {
          "name": "_token",
          "type": "address"
        },
        {
          "name": "_approved",
          "type": "bool"
        },
        {
          "name": "_hasBalance",
          "type": "bool"
        }
      ],
      "payable": false,
      "stateMutability": "view",
      "type": "function"
    },
    {
      "constant": false,
      "inputs": [
        {
          "name": "_duration",
          "type": "uint256"
        },
        {
          "name": "_storageHash",
          "type": "bytes32"
        }
      ],
      "name": "addProposal",
      "outputs": [
        {
          "name": "_proposalId",
          "type": "uint256"
        }
      ],
      "payable": false,
      "stateMutability": "nonpayable",
      "type": "function"
    },
    {
      "constant": true,
      "inputs": [],
      "name": "getApprovedProposals",
      "outputs": [
        {
          "name": "",
          "type": "uint256[]"
        }
      ],
      "payable": false,
      "stateMutability": "view",
      "type": "function"
    },
    {
      "constant": true,
      "inputs": [],
      "name": "nProposals",
      "outputs": [
        {
          "name": "",
          "type": "uint256"
        }
      ],
      "payable": false,
      "stateMutability": "view",
      "type": "function"
    },
    {
      "constant": true,
      "inputs": [
        {
          "name": "",
          "type": "address"
        },
        {
          "name": "",
          "type": "address"
        },
        {
          "name": "",
          "type": "uint256"
        }
      ],
      "name": "onTransfer",
      "outputs": [
        {
          "name": "",
          "type": "bool"
        }
      ],
      "payable": false,
      "stateMutability": "pure",
      "type": "function"
    },
    {
      "constant": true,
      "inputs": [],
      "name": "getActiveProposals",
      "outputs": [
        {
          "name": "",
          "type": "uint256[]"
        }
      ],
      "payable": false,
      "stateMutability": "view",
      "type": "function"
    },
    {
      "constant": false,
      "inputs": [
        {
          "name": "_newAdmin",
          "type": "address"
        }
      ],
      "name": "addAdmin",
      "outputs": [],
      "payable": false,
      "stateMutability": "nonpayable",
      "type": "function"
    },
    {
      "constant": true,
      "inputs": [],
      "name": "owner",
      "outputs": [
        {
          "name": "",
          "type": "address"
        }
      ],
      "payable": false,
      "stateMutability": "view",
      "type": "function"
    },
    {
      "constant": false,
      "inputs": [
        {
          "name": "_proposalId",
          "type": "uint256"
        }
      ],
      "name": "approveProposal",
      "outputs": [],
      "payable": false,
      "stateMutability": "nonpayable",
      "type": "function"
    },
    {
      "constant": false,
      "inputs": [
        {
          "name": "_proposalId",
          "type": "uint256"
        },
        {
          "name": "_yes",
          "type": "bool"
        }
      ],
      "name": "vote",
      "outputs": [],
      "payable": false,
      "stateMutability": "nonpayable",
      "type": "function"
    },
    {
      "constant": true,
      "inputs": [
        {
          "name": "",
          "type": "address"
        },
        {
          "name": "",
          "type": "address"
        },
        {
          "name": "",
          "type": "uint256"
        }
      ],
      "name": "onApprove",
      "outputs": [
        {
          "name": "",
          "type": "bool"
        }
      ],
      "payable": false,
      "stateMutability": "pure",
      "type": "function"
    },
    {
      "constant": true,
      "inputs": [],
      "name": "tokenFactory",
      "outputs": [
        {
          "name": "",
          "type": "address"
        }
      ],
      "payable": false,
      "stateMutability": "view",
      "type": "function"
    },
    {
      "constant": false,
      "inputs": [
        {
          "name": "newOwner",
          "type": "address"
        }
      ],
      "name": "transferOwnership",
      "outputs": [],
      "payable": false,
      "stateMutability": "nonpayable",
      "type": "function"
    },
    {
      "constant": false,
      "inputs": [
        {
          "name": "",
          "type": "address"
        }
      ],
      "name": "proxyPayment",
      "outputs": [
        {
          "name": "",
          "type": "bool"
        }
      ],
      "payable": true,
      "stateMutability": "payable",
      "type": "function"
    },
    {
      "inputs": [],
      "payable": false,
      "stateMutability": "nonpayable",
      "type": "constructor"
    },
    {
      "anonymous": false,
      "inputs": [
        {
          "indexed": true,
          "name": "idProposal",
          "type": "uint256"
        },
        {
          "indexed": true,
          "name": "_voter",
          "type": "address"
        },
        {
          "indexed": false,
          "name": "yes",
          "type": "bool"
        },
        {
          "indexed": false,
          "name": "amount",
          "type": "uint256"
        }
      ],
      "name": "Vote",
      "type": "event"
    },
    {
      "anonymous": false,
      "inputs": [
        {
          "indexed": true,
          "name": "idProposal",
          "type": "uint256"
        }
      ],
      "name": "Approved",
      "type": "event"
    },
    {
      "anonymous": false,
      "inputs": [
        {
          "indexed": true,
          "name": "idProposal",
          "type": "uint256"
        },
        {
          "indexed": false,
          "name": "duration",
          "type": "uint256"
        },
        {
          "indexed": false,
          "name": "storageHash",
          "type": "bytes32"
        }
      ],
      "name": "NewProposal",
      "type": "event"
    },
    {
      "anonymous": false,
      "inputs": [
        {
          "indexed": true,
          "name": "previousOwner",
          "type": "address"
        },
        {
          "indexed": true,
          "name": "newOwner",
          "type": "address"
        }
      ],
      "name": "OwnershipTransferred",
      "type": "event"
    }
  ],
  "bytecode": "0x6060604052341561000f57600080fd5b60008054600160a060020a033316600160a060020a031991821681178355600280548316723ea7f54b6dcf6cee86986edc18143a35f155051790556003805490921673cc80c051057b774cd75067dc48f8987c4eb97a5e179091558152600460205260409020805460ff191660011790556112e88061008f6000396000f3006060604052600436106100c15763ffffffff60e060020a6000350416631785f53c81146100c657806330326c17146100e757806336055ba8146101705780633ac0feac1461019b5780633bd5aceb146102015780634a393149146102145780635584c4f91461025057806370480275146102635780638da5cb5b1461028257806398951b56146102b1578063c9d27afe146102c7578063da682aeb14610214578063e77772fe146102e2578063f2fde38b146102f5578063f48c305414610314575b600080fd5b34156100d157600080fd5b6100e5600160a060020a0360043516610328565b005b34156100f257600080fd5b6100fd600435610364565b604051600160a060020a039c8d168152602081019b909b526040808c019a909a5260608b019890985260808a019690965293151560a089015291151560c088015260e087015261010086015290941661012084015292151561014083015291151561016082015261018001905180910390f35b341561017b57600080fd5b610189600435602435610531565b60405190815260200160405180910390f35b34156101a657600080fd5b6101ae610680565b60405160208082528190810183818151815260200191508051906020019060200280838360005b838110156101ed5780820151838201526020016101d5565b505050509050019250505060405180910390f35b341561020c57600080fd5b610189610770565b341561021f57600080fd5b61023c600160a060020a0360043581169060243516604435610777565b604051901515815260200160405180910390f35b341561025b57600080fd5b6101ae610780565b341561026e57600080fd5b6100e5600160a060020a0360043516610831565b341561028d57600080fd5b61029561087c565b604051600160a060020a03909116815260200160405180910390f35b34156102bc57600080fd5b6100e560043561088b565b34156102d257600080fd5b6100e56004356024351515610bcb565b34156102ed57600080fd5b610295610e4d565b341561030057600080fd5b6100e5600160a060020a0360043516610e5c565b61023c600160a060020a0360043516610ef7565b60005433600160a060020a0390811691161461034357600080fd5b600160a060020a03166000908152600460205260409020805460ff19169055565b60008060008060008060008060008060008061037e6111b4565b6001548e1061038c57600080fd5b600180548f90811061039a57fe5b906000526020600020906009020161012060405190810160409081528254600160a060020a03908116835260018401546020840152600284015491830191909152600383015460608301526004830154166080820152600582015460a0820152600682015460ff16151560c0820152600782015460e0820152600890910154610100820152905080519c5080602001519b5080604001519a50806060015199508060a001519850428b8b0110965086158761045f5750610458610efd565b8160200151105b801561046c57508060c001515b97508060e0015195508061010001519450806080015193508060c0015192508060800151600160a060020a03161561051c5760008160800151600160a060020a03166370a082313360006040516020015260405160e060020a63ffffffff8416028152600160a060020a039091166004820152602401602060405180830381600087803b15156104fb57600080fd5b6102c65a03f1151561050c57600080fd5b505050604051805190501161051f565b60005b91505091939597999b5091939597999b565b60008080600785101561054357600080fd5b602d85111561055157600080fd5b600354600160a060020a03166370a082313360006040516020015260405160e060020a63ffffffff8416028152600160a060020a039091166004820152602401602060405180830381600087803b15156105aa57600080fd5b6102c65a03f115156105bb57600080fd5b5050506040518051925050600082116105d057fe5b60018054935083906105e490828101611200565b5060018054849081106105f357fe5b60009182526020909120600990910201600581018590556201518086026003820155805473ffffffffffffffffffffffffffffffffffffffff191633600160a060020a03161781559050827f43d770f80aa1ff8804e6d2262da56081f46e121abee135e85e79a12fb0d1adea868660405191825260208201526040908101905180910390a2505092915050565b610688611231565b600080610693611231565b60009250600091505b6001548210156106e25760018054839081106106b457fe5b600091825260209091206006600990920201015460ff16156106d7576001909201915b60019091019061069c565b826040518059106106f05750595b9080825280602002602001820160405250905060009250600091505b60015482101561076957600180548390811061072457fe5b600091825260209091206006600990920201015460ff161561075e578181848151811061074d57fe5b602090810290910101526001909201915b60019091019061070c565b9392505050565b6001545b90565b60019392505050565b610788611231565b600080610793611231565b60009250600091505b6001548210156107c6576107af82610f01565b156107bb576001909201915b60019091019061079c565b826040518059106107d45750595b9080825280602002602001820160405250905060009250600091505b6001548210156107695761080382610f01565b15610826578181848151811061081557fe5b602090810290910101526001909201915b6001909101906107f0565b600160a060020a03331660009081526004602052604090205460ff16151561085857600080fd5b600160a060020a03166000908152600460205260409020805460ff19166001179055565b600054600160a060020a031681565b600160a060020a03331660009081526004602052604081205460ff1615156108b257600080fd5b6001548290116108c157600080fd5b60018054839081106108cf57fe5b60009182526020909120600990910201600681015490915060ff16156108f457600080fd5b600254600354600160a060020a0391821691635b7b72c19116610915610efd565b61095260408051908101604052600f81527f4e656374617250726f706f73616c2d0000000000000000000000000000000000602082015287610fd0565b600354600160a060020a031663313ce5676000604051602001526040518163ffffffff1660e060020a028152600401602060405180830381600087803b151561099a57600080fd5b6102c65a03f115156109ab57600080fd5b505050604051805190506109f260408051908101604052600381527f4e502d0000000000000000000000000000000000000000000000000000000000602082015289610fd0565b600160006040516020015260405160e060020a63ffffffff8916028152600160a060020a038716600482019081526024820187905260ff8516606483015282151560a483015260c0604483019081529091608481019060c40187818151815260200191508051906020019080838360005b83811015610a7b578082015183820152602001610a63565b50505050905090810190601f168015610aa85780820380516001836020036101000a031916815260200191505b50838103825285818151815260200191508051906020019080838360005b83811015610ade578082015183820152602001610ac6565b50505050905090810190601f168015610b0b5780820380516001836020036101000a031916815260200191505b5098505050505050505050602060405180830381600087803b1515610b2f57600080fd5b6102c65a03f11515610b4057600080fd5b505050604051805160048301805473ffffffffffffffffffffffffffffffffffffffff1916600160a060020a03929092169190911790555060068101805460ff19166001179055426002820155610b95610efd565b6001820155817f3ad93af63cb7967b23e4fb500b7d7d28b07516325dcf341f88bebf959d82c1cb60405160405180910390a25050565b610bd36111b4565b6001546000908410610be457600080fd5b610bed84610f01565b1515610bf857600080fd5b6001805485908110610c0657fe5b906000526020600020906009020161012060405190810160409081528254600160a060020a039081168352600184015460208401526002840154918301919091526003830154606083015260048301541660808201908152600583015460a0830152600683015460ff16151560c0830152600783015460e0830152600890920154610100820152925051600160a060020a03166370a082313360006040516020015260405160e060020a63ffffffff8416028152600160a060020a039091166004820152602401602060405180830381600087803b1515610ce657600080fd5b6102c65a03f11515610cf757600080fd5b505050604051805191505060008111610d0c57fe5b8160800151600160a060020a03166323b872dd33308460006040516020015260405160e060020a63ffffffff8616028152600160a060020a0393841660048201529190921660248201526044810191909152606401602060405180830381600087803b1515610d7a57600080fd5b6102c65a03f11515610d8b57600080fd5b505050604051805190501515610da057600080fd5b8215610dd55780600185815481101515610db657fe5b6000918252602090912060076009909202010180549091019055610e00565b80600185815481101515610de557fe5b60009182526020909120600860099092020101805490910190555b33600160a060020a0316847f88d35328232823f54954b6627e9f732371656f6daa40cb1b01b27dc7875a7b478584604051911515825260208201526040908101905180910390a350505050565b600254600160a060020a031681565b60005433600160a060020a03908116911614610e7757600080fd5b600160a060020a0381161515610e8c57600080fd5b600054600160a060020a0380831691167f8be0079c531659141344cd1fd0a4f28419497f9722a3daafe3b4186f6b6457e060405160405180910390a36000805473ffffffffffffffffffffffffffffffffffffffff1916600160a060020a0392909216919091179055565b50600090565b4390565b6000610f0b6111b4565b6001805484908110610f1957fe5b906000526020600020906009020161012060405190810160409081528254600160a060020a0390811683526001840154602084015260028401549183019190915260038301546060830190815260048401549091166080830152600583015460a0830152600683015460ff16151560c0830152600783015460e08301526008909201546101008201529150429051826040015101118015610fbd5750428160400151105b801561076957508060c001519392505050565b610fd8611231565b6000610fe2611231565b600080610fed611231565b610ff5611231565b600060649650866040518059106110095750595b818152601f19601f8301168101602001604052905095506000945088151561107b5760018501947f30000000000000000000000000000000000000000000000000000000000000009087908151811061105e57fe5b906020010190600160f860020a031916908160001a9053506110c6565b88156110c657600a89069350600a890498508360300160f860020a028686806001019750815181106110a957fe5b906020010190600160f860020a031916908160001a90535061107b565b899250848351016040518059106110da5750595b818152601f19601f830116810160200160405290509150600090505b82518110156111495782818151811061110b57fe5b016020015160f860020a900460f860020a0282828151811061112957fe5b906020010190600160f860020a031916908160001a9053506001016110f6565b5060005b848110156111a757858160018703038151811061116657fe5b016020015160f860020a900460f860020a0282845183018151811061118757fe5b906020010190600160f860020a031916908160001a90535060010161114d565b5098975050505050505050565b6101206040519081016040908152600080835260208301819052908201819052606082018190526080820181905260a0820181905260c0820181905260e0820181905261010082015290565b81548183558181151161122c5760090281600902836000526020600020918201910161122c9190611243565b505050565b60206040519081016040526000815290565b61077491905b808211156112b857805473ffffffffffffffffffffffffffffffffffffffff19908116825560006001830181905560028301819055600383018190556004830180549092169091556005820181905560068201805460ff19169055600782018190556008820155600901611249565b50905600a165627a7a723058202c3db7f70e17e76767c117607f14f2f134517101742081ddef002ad5361691a10029",
  "source": "pragma solidity ^0.4.18;\n\nimport \"./MiniMeToken.sol\";\nimport \"./Ownable.sol\";\n\n/*\n    Copyright 2018, Nikola Klipa @ Decenter\n*/\n\n/// @title ProposalManager Contract\n/// @author Nikola Klipa @ Decenter\ncontract ProposalManager is Ownable {\n\n    address constant NECTAR_TOKEN = 0xCc80C051057B774cD75067Dc48f8987C4Eb97A5e;\n    address constant TOKEN_FACTORY = 0x003ea7f54b6Dcf6cEE86986EdC18143A35F15505;\n    uint constant MIN_PROPOSAL_DURATION = 7;\n    uint constant MAX_PROPOSAL_DURATION = 45;\n\n    struct Proposal {\n        address proposer;\n        uint startBlock;\n        uint startTime;\n        uint duration;\n        address token;\n        bytes32 storageHash;\n        bool approved;\n        uint yesVotes;\n        uint noVotes;\n    }\n\n    Proposal[] proposals;\n\n    MiniMeTokenFactory public tokenFactory;\n    address nectarToken;\n    mapping(address => bool) admins;\n\n    modifier onlyAdmins() { \n        require(admins[msg.sender]);\n        _; \n    }\n\n    function ProposalManager() public {\n        tokenFactory = MiniMeTokenFactory(TOKEN_FACTORY);\n        nectarToken = NECTAR_TOKEN;\n        admins[msg.sender] = true;\n    }\n\n    /// @notice Add new proposal and put it in list to be approved\n    /// @param _duration Duration of proposal in days after it is approved\n    /// @param _storageHash Hash to text of proposal\n    /// @return Created proposal id\n    function addProposal(\n        uint _duration, // number of days\n        bytes32 _storageHash) public returns (uint _proposalId)\n    {\n        require(_duration >= MIN_PROPOSAL_DURATION);\n        require(_duration <= MAX_PROPOSAL_DURATION);\n\n        uint amount = MiniMeToken(nectarToken).balanceOf(msg.sender);\n        assert(amount > 0); // user can't submit proposal if doesn't own any tokens\n\n        _proposalId = proposals.length;\n        proposals.length++;\n\n        Proposal storage p = proposals[_proposalId];\n        p.storageHash = _storageHash;\n        p.duration = _duration * (1 days);\n        p.proposer = msg.sender;\n        \n        NewProposal(_proposalId, _duration, _storageHash);\n    }\n\n    /// @notice Admins are able to approve proposal that someone submitted\n    /// @param _proposalId Id of proposal that admin approves\n    function approveProposal(uint _proposalId) public onlyAdmins {\n        require(proposals.length > _proposalId);\n\n        Proposal storage p = proposals[_proposalId];\n\n        // if not checked, admin is able to restart proposal\n        require(!p.approved);\n\n        p.token = tokenFactory.createCloneToken(\n                nectarToken,\n                getBlockNumber(),\n                appendUintToString(\"NectarProposal-\", _proposalId),\n                MiniMeToken(nectarToken).decimals(),\n                appendUintToString(\"NP-\", _proposalId),\n                true);\n\n        p.approved = true;\n        p.startTime = now;\n        p.startBlock = getBlockNumber();\n\n        Approved(_proposalId);\n    }\n\n    /// @notice Vote for specific proposal with yes or no\n    /// @param _proposalId Id of proposal that we user is voting for\n    /// @param _yes True if user is voting for yes and false if no\n    function vote(uint _proposalId, bool _yes) public {\n        require(_proposalId < proposals.length);\n        require(checkIfCurrentlyActive(_proposalId));\n        \n        Proposal memory p = proposals[_proposalId];\n\n        uint amount = MiniMeToken(p.token).balanceOf(msg.sender);      \n        assert(amount > 0);\n\n        require(MiniMeToken(p.token).transferFrom(msg.sender, address(this), amount));\n\n        if (_yes) {\n            proposals[_proposalId].yesVotes += amount;    \n        }else {\n            proposals[_proposalId].noVotes += amount;\n        }\n        \n        Vote(_proposalId, msg.sender, _yes, amount);\n    }\n\n    /// @notice Any admin is able to add new admin\n    /// @param _newAdmin Address of new admin\n    function addAdmin(address _newAdmin) public onlyAdmins {\n        admins[_newAdmin] = true;\n    }\n\n    /// @notice Only owner is able to remove admin\n    /// @param _admin Address of current admin\n    function removeAdmin(address _admin) public onlyOwner {\n        admins[_admin] = false;\n    }\n\n    /// @notice Get data about specific proposal\n    /// @param _proposalId Id of proposal \n    function proposal(uint _proposalId) public view returns(\n        address _proposer,\n        uint _startBlock,\n        uint _startTime,\n        uint _duration,\n        bytes32 _storageHash,\n        bool _active,\n        bool _finalized,\n        uint _totalYes,\n        uint _totalNo,\n        address _token,\n        bool _approved,\n        bool _hasBalance\n    ) {\n        require(_proposalId < proposals.length);\n\n        Proposal memory p = proposals[_proposalId];\n        _proposer = p.proposer;\n        _startBlock = p.startBlock;\n        _startTime = p.startTime;\n        _duration = p.duration;\n        _storageHash = p.storageHash;\n        _finalized = (_startTime+_duration < now);\n        _active = !_finalized && (p.startBlock < getBlockNumber()) && p.approved;\n        _totalYes = p.yesVotes;\n        _totalNo = p.noVotes;\n        _token = p.token;\n        _approved = p.approved;\n        _hasBalance = p.token == 0x0 ? false : (MiniMeToken(p.token).balanceOf(msg.sender) > 0);\n    }\n\n    /// @notice Get all approved proposals\n    /// @dev looping two times through array so we can make array with exact count\n    ///       because of Solidity limitation to make dynamic array in memory\n    function getApprovedProposals() public view returns(uint[]) {\n        uint count = 0;\n        for (uint i=0; i<proposals.length; i++) {\n            if (proposals[i].approved) {\n                count++;\n            }\n        }\n\n        uint[] memory approvedProposals = new uint[](count);\n        count = 0;\n        for (i=0; i<proposals.length; i++) {\n            if (proposals[i].approved) {\n                approvedProposals[count] = i;\n                count++;\n            }\n        }\n\n        return approvedProposals;\n    }\n\n    /// @notice Get all active proposals\n    /// @dev looping two times through array so we can make array with exact count\n    ///       because of Solidity limitation to make dynamic array in memory\n    function getActiveProposals() public view returns(uint[]) {\n        uint count = 0;\n        for (uint i=0; i<proposals.length; i++) {\n            if (checkIfCurrentlyActive(i)) {\n                count++;\n            }\n        }\n\n        uint[] memory activeProposals = new uint[](count);\n        count = 0;\n        for (i=0; i<proposals.length; i++) {\n            if (checkIfCurrentlyActive(i)) {\n                activeProposals[count] = i;\n                count++;\n            }\n        }\n\n        return activeProposals;\n    }\n\n    function appendUintToString(string inStr, uint v) private pure returns (string str) {\n        uint maxlength = 100;\n        bytes memory reversed = new bytes(maxlength);\n        uint i = 0;\n        if (v==0) {\n            reversed[i++] = byte(48);  \n        } else { \n            while (v != 0) {\n                uint remainder = v % 10;\n                v = v / 10;\n                reversed[i++] = byte(48 + remainder);\n            }\n        }\n        bytes memory inStrb = bytes(inStr);\n        bytes memory s = new bytes(inStrb.length + i);\n        uint j;\n        for (j = 0; j < inStrb.length; j++) {\n            s[j] = inStrb[j];\n        }\n        for (j = 0; j < i; j++) {\n            s[j + inStrb.length] = reversed[i - 1 - j];\n        }\n        str = string(s);\n    }\n\n    function nProposals() public view returns(uint) {\n        return proposals.length;\n    }\n\n    function checkIfCurrentlyActive(uint _proposalId) private view returns(bool) {\n        Proposal memory p = proposals[_proposalId];\n        return (p.startTime + p.duration > now && p.startTime < now && p.approved);    \n    }  \n    \n    function proxyPayment(address ) public payable returns(bool) {\n        return false;\n    }\n\n    function onTransfer(address , address , uint ) public pure returns(bool) {\n        return true;\n    }\n\n    function onApprove(address , address , uint ) public pure returns(bool) {\n        return true;\n    }\n\n    function getBlockNumber() internal constant returns (uint) {\n        return block.number;\n    }\n\n    event Vote(uint indexed idProposal, address indexed _voter, bool yes, uint amount);\n    event Approved(uint indexed idProposal);\n    event NewProposal(uint indexed idProposal, uint duration, bytes32 storageHash);\n}",
  "sourcePath": "/Users/nikolaklipa/Decenter/community-gateway/solidity/contracts/ProposalManager.sol",
  "compiler": {
    "name": "solc",
    "version": "0.4.18+commit.9cf6e910.Emscripten.clang"
  },
  "schemaVersion": "1.0.1",
  "updatedAt": "2018-03-09T15:00:49.459Z"
}