{
  "contractName": "ProposalManager",
  "abi": [
    {
      "constant": false,
      "inputs": [
        {
          "name": "_admin",
          "type": "address"
        }
      ],
      "name": "removeAdmin",
      "outputs": [],
      "payable": false,
      "stateMutability": "nonpayable",
      "type": "function"
    },
    {
      "constant": true,
      "inputs": [
        {
          "name": "_proposalId",
          "type": "uint256"
        }
      ],
      "name": "proposal",
      "outputs": [
        {
          "name": "_startBlock",
          "type": "uint256"
        },
        {
          "name": "_startTime",
          "type": "uint256"
        },
        {
          "name": "_duration",
          "type": "uint256"
        },
        {
          "name": "_storageHash",
          "type": "bytes32"
        },
        {
          "name": "_active",
          "type": "bool"
        },
        {
          "name": "_finalized",
          "type": "bool"
        },
        {
          "name": "_totalYes",
          "type": "uint256"
        },
        {
          "name": "_totalNo",
          "type": "uint256"
        },
        {
          "name": "_token",
          "type": "address"
        },
        {
          "name": "_approved",
          "type": "bool"
        }
      ],
      "payable": false,
      "stateMutability": "view",
      "type": "function"
    },
    {
      "constant": false,
      "inputs": [
        {
          "name": "_duration",
          "type": "uint256"
        },
        {
          "name": "_storageHash",
          "type": "bytes32"
        }
      ],
      "name": "addProposal",
      "outputs": [
        {
          "name": "_proposalId",
          "type": "uint256"
        }
      ],
      "payable": false,
      "stateMutability": "nonpayable",
      "type": "function"
    },
    {
      "constant": true,
      "inputs": [],
      "name": "getApprovedProposals",
      "outputs": [
        {
          "name": "",
          "type": "uint256[]"
        }
      ],
      "payable": false,
      "stateMutability": "view",
      "type": "function"
    },
    {
      "constant": true,
      "inputs": [],
      "name": "nProposals",
      "outputs": [
        {
          "name": "",
          "type": "uint256"
        }
      ],
      "payable": false,
      "stateMutability": "view",
      "type": "function"
    },
    {
      "constant": true,
      "inputs": [
        {
          "name": "",
          "type": "address"
        },
        {
          "name": "",
          "type": "address"
        },
        {
          "name": "",
          "type": "uint256"
        }
      ],
      "name": "onTransfer",
      "outputs": [
        {
          "name": "",
          "type": "bool"
        }
      ],
      "payable": false,
      "stateMutability": "pure",
      "type": "function"
    },
    {
      "constant": true,
      "inputs": [],
      "name": "getActiveProposals",
      "outputs": [
        {
          "name": "",
          "type": "uint256[]"
        }
      ],
      "payable": false,
      "stateMutability": "view",
      "type": "function"
    },
    {
      "constant": false,
      "inputs": [
        {
          "name": "_newAdmin",
          "type": "address"
        }
      ],
      "name": "addAdmin",
      "outputs": [],
      "payable": false,
      "stateMutability": "nonpayable",
      "type": "function"
    },
    {
      "constant": true,
      "inputs": [],
      "name": "owner",
      "outputs": [
        {
          "name": "",
          "type": "address"
        }
      ],
      "payable": false,
      "stateMutability": "view",
      "type": "function"
    },
    {
      "constant": false,
      "inputs": [
        {
          "name": "_proposalId",
          "type": "uint256"
        }
      ],
      "name": "approveProposal",
      "outputs": [],
      "payable": false,
      "stateMutability": "nonpayable",
      "type": "function"
    },
    {
      "constant": false,
      "inputs": [
        {
          "name": "_proposalId",
          "type": "uint256"
        },
        {
          "name": "_yes",
          "type": "bool"
        }
      ],
      "name": "vote",
      "outputs": [],
      "payable": false,
      "stateMutability": "nonpayable",
      "type": "function"
    },
    {
      "constant": true,
      "inputs": [
        {
          "name": "",
          "type": "address"
        },
        {
          "name": "",
          "type": "address"
        },
        {
          "name": "",
          "type": "uint256"
        }
      ],
      "name": "onApprove",
      "outputs": [
        {
          "name": "",
          "type": "bool"
        }
      ],
      "payable": false,
      "stateMutability": "pure",
      "type": "function"
    },
    {
      "constant": true,
      "inputs": [],
      "name": "tokenFactory",
      "outputs": [
        {
          "name": "",
          "type": "address"
        }
      ],
      "payable": false,
      "stateMutability": "view",
      "type": "function"
    },
    {
      "constant": false,
      "inputs": [
        {
          "name": "newOwner",
          "type": "address"
        }
      ],
      "name": "transferOwnership",
      "outputs": [],
      "payable": false,
      "stateMutability": "nonpayable",
      "type": "function"
    },
    {
      "constant": false,
      "inputs": [
        {
          "name": "",
          "type": "address"
        }
      ],
      "name": "proxyPayment",
      "outputs": [
        {
          "name": "",
          "type": "bool"
        }
      ],
      "payable": true,
      "stateMutability": "payable",
      "type": "function"
    },
    {
      "inputs": [],
      "payable": false,
      "stateMutability": "nonpayable",
      "type": "constructor"
    },
    {
      "anonymous": false,
      "inputs": [
        {
          "indexed": true,
          "name": "idProposal",
          "type": "uint256"
        },
        {
          "indexed": true,
          "name": "_voter",
          "type": "address"
        },
        {
          "indexed": false,
          "name": "yes",
          "type": "bool"
        },
        {
          "indexed": false,
          "name": "amount",
          "type": "uint256"
        }
      ],
      "name": "Vote",
      "type": "event"
    },
    {
      "anonymous": false,
      "inputs": [
        {
          "indexed": true,
          "name": "idProposal",
          "type": "uint256"
        }
      ],
      "name": "Approved",
      "type": "event"
    },
    {
      "anonymous": false,
      "inputs": [
        {
          "indexed": true,
          "name": "idProposal",
          "type": "uint256"
        },
        {
          "indexed": false,
          "name": "duration",
          "type": "uint256"
        },
        {
          "indexed": false,
          "name": "storageHash",
          "type": "bytes32"
        }
      ],
      "name": "NewProposal",
      "type": "event"
    },
    {
      "anonymous": false,
      "inputs": [
        {
          "indexed": true,
          "name": "previousOwner",
          "type": "address"
        },
        {
          "indexed": true,
          "name": "newOwner",
          "type": "address"
        }
      ],
      "name": "OwnershipTransferred",
      "type": "event"
    }
  ],
  "bytecode": "0x6060604052341561000f57600080fd5b60008054600160a060020a033316600160a060020a031991821681178355600280548316730e59f06f597af0a7c30d79b0a7988fa45eeaf29217905560038054909216734c88d00971467abd70381541aed6417b0e541c41179091558152600460205260409020805460ff19166001179055610ec8806100906000396000f3006060604052600436106100c15763ffffffff60e060020a6000350416631785f53c81146100c657806330326c17146100e757806336055ba81461015c5780633ac0feac146101875780633bd5aceb146101ed5780634a393149146102005780635584c4f91461023c578063704802751461024f5780638da5cb5b1461026e57806398951b561461029d578063c9d27afe146102b3578063da682aeb14610200578063e77772fe146102ce578063f2fde38b146102e1578063f48c305414610300575b600080fd5b34156100d157600080fd5b6100e5600160a060020a0360043516610314565b005b34156100f257600080fd5b6100fd600435610350565b604051998a5260208a01989098526040808a01979097526060890195909552921515608088015290151560a087015260c086015260e0850152600160a060020a0316610100840152901515610120830152610140909101905180910390f35b341561016757600080fd5b610175600435602435610466565b60405190815260200160405180910390f35b341561019257600080fd5b61019a610703565b60405160208082528190810183818151815260200191508051906020019060200280838360005b838110156101d95780820151838201526020016101c1565b505050509050019250505060405180910390f35b34156101f857600080fd5b6101756107f3565b341561020b57600080fd5b610228600160a060020a03600435811690602435166044356107fa565b604051901515815260200160405180910390f35b341561024757600080fd5b61019a610803565b341561025a57600080fd5b6100e5600160a060020a03600435166108b4565b341561027957600080fd5b6102816108ff565b604051600160a060020a03909116815260200160405180910390f35b34156102a857600080fd5b6100e560043561090e565b34156102be57600080fd5b6100e560043560243515156109c9565b34156102d957600080fd5b610281610c3a565b34156102ec57600080fd5b6100e5600160a060020a0360043516610c49565b610228600160a060020a0360043516610ce4565b60005433600160a060020a0390811691161461032f57600080fd5b600160a060020a03166000908152600460205260409020805460ff19169055565b600080600080600080600080600080610367610daa565b6001548c1061037557600080fd5b600180548d90811061038357fe5b9060005260206000209060080201610100604051908101604090815282548252600183015460208301526002830154908201526003820154600160a060020a0316606082015260048201546080820152600582015460ff16151560a0820152600682015460c082015260079091015460e0820152905080519a50806020015199508060400151985080608001519750428a8a0110955085158661042d5750610429610cea565b8151105b801561043a57508060a001515b96508060c0015194508060e001519350806060015192508060a001519150509193959799509193959799565b60018054906000908190839061047e90828101610dee565b50600180548490811061048d57fe5b600091825260209091206008909102016004810185905562015180860260028083019190915554600354919350600160a060020a0390811691635b7b72c191166104d5610cea565b600354600160a060020a031663313ce5676000604051602001526040518163ffffffff1660e060020a028152600401602060405180830381600087803b151561051d57600080fd5b6102c65a03f1151561052e57600080fd5b50505060405180519050600160006040516020015260405160e060020a63ffffffff8716028152600160a060020a039094166004850152602484019290925260ff166064830152151560a482015260c06044820152600660c48201527f4e6563746172000000000000000000000000000000000000000000000000000060e4820152610100608482015260036101048201527f4e4543000000000000000000000000000000000000000000000000000000000061012482015261014401602060405180830381600087803b151561060457600080fd5b6102c65a03f1151561061557600080fd5b505050604051805160038401805473ffffffffffffffffffffffffffffffffffffffff1916600160a060020a0392831617908190551690506370a082313360006040516020015260405160e060020a63ffffffff8416028152600160a060020a039091166004820152602401602060405180830381600087803b151561069a57600080fd5b6102c65a03f115156106ab57600080fd5b5050506040518051915050600081116106c057fe5b827f43d770f80aa1ff8804e6d2262da56081f46e121abee135e85e79a12fb0d1adea868660405191825260208201526040908101905180910390a2505092915050565b61070b610e1f565b600080610716610e1f565b60009250600091505b60015482101561076557600180548390811061073757fe5b600091825260209091206005600890920201015460ff161561075a576001909201915b60019091019061071f565b826040518059106107735750595b9080825280602002602001820160405250905060009250600091505b6001548210156107ec5760018054839081106107a757fe5b600091825260209091206005600890920201015460ff16156107e157818184815181106107d057fe5b602090810290910101526001909201915b60019091019061078f565b9392505050565b6001545b90565b60019392505050565b61080b610e1f565b600080610816610e1f565b60009250600091505b6001548210156108495761083282610cee565b1561083e576001909201915b60019091019061081f565b826040518059106108575750595b9080825280602002602001820160405250905060009250600091505b6001548210156107ec5761088682610cee565b156108a9578181848151811061089857fe5b602090810290910101526001909201915b600190910190610873565b600160a060020a03331660009081526004602052604090205460ff1615156108db57600080fd5b600160a060020a03166000908152600460205260409020805460ff19166001179055565b600054600160a060020a031681565b600160a060020a03331660009081526004602052604081205460ff16151561093557600080fd5b60015482901161094457600080fd5b600180548390811061095257fe5b60009182526020909120600890910201600581015490915060ff161561097757600080fd5b60058101805460ff191660019081179091554290820155610996610cea565b8155817f3ad93af63cb7967b23e4fb500b7d7d28b07516325dcf341f88bebf959d82c1cb60405160405180910390a25050565b6109d1610daa565b60015460009084106109e257600080fd5b6109eb84610cee565b15156109f657600080fd5b6001805485908110610a0457fe5b9060005260206000209060080201610100604051908101604090815282548252600183015460208301526002830154908201526003820154600160a060020a03166060820190815260048301546080830152600583015460ff16151560a0830152600683015460c083015260079092015460e0820152925051600160a060020a03166370a082313360006040516020015260405160e060020a63ffffffff8416028152600160a060020a039091166004820152602401602060405180830381600087803b1515610ad357600080fd5b6102c65a03f11515610ae457600080fd5b505050604051805191505060008111610af957fe5b8160600151600160a060020a03166323b872dd33308460006040516020015260405160e060020a63ffffffff8616028152600160a060020a0393841660048201529190921660248201526044810191909152606401602060405180830381600087803b1515610b6757600080fd5b6102c65a03f11515610b7857600080fd5b505050604051805190501515610b8d57600080fd5b8215610bc25780600185815481101515610ba357fe5b6000918252602090912060066008909202010180549091019055610bed565b80600185815481101515610bd257fe5b60009182526020909120600760089092020101805490910190555b33600160a060020a0316847f88d35328232823f54954b6627e9f732371656f6daa40cb1b01b27dc7875a7b478584604051911515825260208201526040908101905180910390a350505050565b600254600160a060020a031681565b60005433600160a060020a03908116911614610c6457600080fd5b600160a060020a0381161515610c7957600080fd5b600054600160a060020a0380831691167f8be0079c531659141344cd1fd0a4f28419497f9722a3daafe3b4186f6b6457e060405160405180910390a36000805473ffffffffffffffffffffffffffffffffffffffff1916600160a060020a0392909216919091179055565b50600090565b4390565b6000610cf8610daa565b6001805484908110610d0657fe5b90600052602060002090600802016101006040519081016040908152825482526001830154602083015260028301549082019081526003830154600160a060020a0316606083015260048301546080830152600583015460ff16151560a0830152600683015460c083015260079092015460e08201529150429051826020015101118015610d975750428160200151105b80156107ec57508060a001519392505050565b6101006040519081016040908152600080835260208301819052908201819052606082018190526080820181905260a0820181905260c0820181905260e082015290565b815481835581811511610e1a57600802816008028360005260206000209182019101610e1a9190610e31565b505050565b60206040519081016040526000815290565b6107f791905b80821115610e98576000808255600182018190556002820181905560038201805473ffffffffffffffffffffffffffffffffffffffff191690556004820181905560058201805460ff19169055600682018190556007820155600801610e37565b50905600a165627a7a72305820c1e9483073962e2ef617442f867e8ca46bbc1d7028b146d5a94613f0a5474a190029",
  "source": "pragma solidity ^0.4.18;\n\nimport \"./MiniMeToken.sol\";\nimport \"./Ownable.sol\";\n\n/*\n    Copyright 2018, Nikola Klipa @ Decenter\n\n    This program is free software: you can redistribute it and/or modify\n    it under the terms of the GNU General Public License as published by\n    the Free Software Foundation, either version 3 of the License, or\n    (at your option) any later version.\n\n    This program is distributed in the hope that it will be useful,\n    but WITHOUT ANY WARRANTY; without even the implied warranty of\n    MERCHANTABILITY or FITNESS FOR A PARTICULAR PURPOSE.  See the\n    GNU General Public License for more details.\n\n    You should have received a copy of the GNU General Public License\n    along with this program.  If not, see <http://www.gnu.org/licenses/>.\n */\n\n/// @title ProposalManager Contract\n/// @author Nikola Klipa @ Decenter\ncontract ProposalManager is Ownable {\n\n    address constant NECTAR_TOKEN = 0x4c88D00971467aBd70381541AED6417B0e541C41;\n    address constant TOKEN_FACTORY = 0x0E59f06f597Af0a7c30d79B0a7988fa45eEaf292;\n\n    struct Proposal {\n        uint startBlock;\n        uint startTime;\n        uint duration;\n        address token;\n        bytes32 storageHash;\n        bool approved;\n        uint yesVotes;\n        uint noVotes;\n    }\n\n    Proposal[] proposals;\n\n    MiniMeTokenFactory public tokenFactory;\n    address nectarToken;\n    mapping(address => bool) admins;\n\n    modifier onlyAdmins() { \n        require(admins[msg.sender]);\n        _; \n    }\n\n    function ProposalManager() public {\n        tokenFactory = MiniMeTokenFactory(TOKEN_FACTORY);\n        nectarToken = NECTAR_TOKEN;\n        admins[msg.sender] = true;\n    }\n\n    /// @notice Add new proposal and put it in list to be approved\n    /// @param _duration Duration of proposal in days after it is approved\n    /// @param _storageHash Hash to text of proposal\n    /// @return Created proposal id\n    function addProposal(\n        uint _duration, // number of days\n        bytes32 _storageHash) public returns (uint _proposalId)\n    {\n\n        _proposalId = proposals.length;\n        proposals.length++;\n\n        Proposal storage p = proposals[_proposalId];\n        p.storageHash = _storageHash;\n        p.duration = _duration * (1 days);\n        p.token = tokenFactory.createCloneToken(\n                nectarToken,\n                getBlockNumber(),\n                \"Nectar\",\n                MiniMeToken(nectarToken).decimals(),\n                \"NEC\",\n                true);\n\n        uint amount = MiniMeToken(p.token).balanceOf(msg.sender);\n        assert(amount > 0); // user can't submit proposal if doesn't own any tokens\n        \n        NewProposal(_proposalId, _duration, _storageHash);\n    }\n\n    /// @notice Admins are able to approve proposal that someone submitted\n    /// @param _proposalId Id of proposal that admin approves\n    function approveProposal(uint _proposalId) public onlyAdmins {\n        require(proposals.length > _proposalId);\n\n        Proposal storage p = proposals[_proposalId];\n\n        require(!p.approved);\n\n        p.approved = true;\n        p.startTime = now;\n        p.startBlock = getBlockNumber();\n\n        Approved(_proposalId);\n    }\n\n    /// @notice Vote for specific proposal with yes or no\n    /// @param _proposalId Id of proposal that we user is voting for\n    /// @param _yes True if user is voting for yes and false if no\n    function vote(uint _proposalId, bool _yes) public {\n        require(_proposalId < proposals.length);\n        require(checkIfCurrentlyActive(_proposalId));\n        \n        Proposal memory p = proposals[_proposalId];\n\n        uint amount = MiniMeToken(p.token).balanceOf(msg.sender);      \n        assert(amount > 0);\n\n        require(MiniMeToken(p.token).transferFrom(msg.sender, address(this), amount));\n\n        if (_yes) {\n            proposals[_proposalId].yesVotes += amount;    \n        }else {\n            proposals[_proposalId].noVotes += amount;\n        }\n        \n        Vote(_proposalId, msg.sender, _yes, amount);\n    }\n\n    /// @notice Any admin is able to add new admin\n    /// @param _newAdmin Address of new admin\n    function addAdmin(address _newAdmin) public onlyAdmins {\n        admins[_newAdmin] = true;\n    }\n\n    /// @notice Only owner is able to remove admin\n    /// @param _admin Address of current admin\n    function removeAdmin(address _admin) public onlyOwner {\n        admins[_admin] = false;\n    }\n\n    /// @notice Get data about specific proposal\n    /// @param _proposalId Id of proposal \n    function proposal(uint _proposalId) public view returns(\n        uint _startBlock,\n        uint _startTime,\n        uint _duration,\n        bytes32 _storageHash,\n        bool _active,\n        bool _finalized,\n        uint _totalYes,\n        uint _totalNo,\n        address _token,\n        bool _approved\n    ) {\n        require(_proposalId < proposals.length);\n\n        Proposal memory p = proposals[_proposalId];\n        _startBlock = p.startBlock;\n        _startTime = p.startTime;\n        _duration = p.duration;\n        _storageHash = p.storageHash;\n        _finalized = (_startTime+_duration < now);\n        _active = !_finalized && (p.startBlock < getBlockNumber()) && p.approved;\n        _totalYes = p.yesVotes;\n        _totalNo = p.noVotes;\n        _token = p.token;\n        _approved = p.approved;\n    }\n\n    /// @notice Get all approved proposals\n    /// @dev looping two times through array so we can make array with exact count\n    ///       because of Solidity limitation to make dynamic array in memory\n    function getApprovedProposals() public view returns(uint[]) {\n        uint count = 0;\n        for (uint i=0; i<proposals.length; i++) {\n            if (proposals[i].approved) {\n                count++;\n            }\n        }\n\n        uint[] memory approvedProposals = new uint[](count);\n        count = 0;\n        for (i=0; i<proposals.length; i++) {\n            if (proposals[i].approved) {\n                approvedProposals[count] = i;\n                count++;\n            }\n        }\n\n        return approvedProposals;\n    }\n\n    /// @notice Get all active proposals\n    /// @dev looping two times through array so we can make array with exact count\n    ///       because of Solidity limitation to make dynamic array in memory\n    function getActiveProposals() public view returns(uint[]) {\n        uint count = 0;\n        for (uint i=0; i<proposals.length; i++) {\n            if (checkIfCurrentlyActive(i)) {\n                count++;\n            }\n        }\n\n        uint[] memory activeProposals = new uint[](count);\n        count = 0;\n        for (i=0; i<proposals.length; i++) {\n            if (checkIfCurrentlyActive(i)) {\n                activeProposals[count] = i;\n                count++;\n            }\n        }\n\n        return activeProposals;\n    }\n\n    function nProposals() public view returns(uint) {\n        return proposals.length;\n    }\n\n    function checkIfCurrentlyActive(uint _proposalId) private view returns(bool) {\n        Proposal memory p = proposals[_proposalId];\n        return (p.startTime + p.duration > now && p.startTime < now && p.approved);    \n    }  \n    \n    function proxyPayment(address ) public payable returns(bool) {\n        return false;\n    }\n\n    function onTransfer(address , address , uint ) public pure returns(bool) {\n        return true;\n    }\n\n    function onApprove(address , address , uint ) public pure returns(bool) {\n        return true;\n    }\n\n    function getBlockNumber() internal constant returns (uint) {\n        return block.number;\n    }\n\n    event Vote(uint indexed idProposal, address indexed _voter, bool yes, uint amount);\n    event Approved(uint indexed idProposal);\n    event NewProposal(uint indexed idProposal, uint duration, bytes32 storageHash);\n}\n",
  "sourcePath": "/Users/nikolaklipa/Decenter/community-gateway/solidity/contracts/ProposalManager.sol",
  "compiler": {
    "name": "solc",
    "version": "0.4.18+commit.9cf6e910.Emscripten.clang"
  },
  "schemaVersion": "1.0.1",
  "updatedAt": "2018-03-02T11:34:27.771Z"
}