{
  "contractName": "ProposalManager",
  "abi": [
    {
      "constant": true,
      "inputs": [],
      "name": "owner",
      "outputs": [
        {
          "name": "",
          "type": "address"
        }
      ],
      "payable": false,
      "stateMutability": "view",
      "type": "function"
    },
    {
      "constant": true,
      "inputs": [],
      "name": "tokenFactory",
      "outputs": [
        {
          "name": "",
          "type": "address"
        }
      ],
      "payable": false,
      "stateMutability": "view",
      "type": "function"
    },
    {
      "constant": false,
      "inputs": [
        {
          "name": "newOwner",
          "type": "address"
        }
      ],
      "name": "transferOwnership",
      "outputs": [],
      "payable": false,
      "stateMutability": "nonpayable",
      "type": "function"
    },
    {
      "inputs": [],
      "payable": false,
      "stateMutability": "nonpayable",
      "type": "constructor"
    },
    {
      "anonymous": false,
      "inputs": [
        {
          "indexed": true,
          "name": "idProposal",
          "type": "uint256"
        },
        {
          "indexed": true,
          "name": "_voter",
          "type": "address"
        },
        {
          "indexed": false,
          "name": "yes",
          "type": "bool"
        },
        {
          "indexed": false,
          "name": "amount",
          "type": "uint256"
        }
      ],
      "name": "Vote",
      "type": "event"
    },
    {
      "anonymous": false,
      "inputs": [
        {
          "indexed": true,
          "name": "idProposal",
          "type": "uint256"
        }
      ],
      "name": "Approved",
      "type": "event"
    },
    {
      "anonymous": false,
      "inputs": [
        {
          "indexed": true,
          "name": "idProposal",
          "type": "uint256"
        },
        {
          "indexed": false,
          "name": "duration",
          "type": "uint256"
        },
        {
          "indexed": false,
          "name": "storageHash",
          "type": "bytes32"
        }
      ],
      "name": "NewProposal",
      "type": "event"
    },
    {
      "anonymous": false,
      "inputs": [
        {
          "indexed": true,
          "name": "previousOwner",
          "type": "address"
        },
        {
          "indexed": true,
          "name": "newOwner",
          "type": "address"
        }
      ],
      "name": "OwnershipTransferred",
      "type": "event"
    },
    {
      "constant": false,
      "inputs": [
        {
          "name": "_duration",
          "type": "uint256"
        },
        {
          "name": "_storageHash",
          "type": "bytes32"
        }
      ],
      "name": "addProposal",
      "outputs": [
        {
          "name": "_proposalId",
          "type": "uint256"
        }
      ],
      "payable": false,
      "stateMutability": "nonpayable",
      "type": "function"
    },
    {
      "constant": false,
      "inputs": [
        {
          "name": "_proposalId",
          "type": "uint256"
        }
      ],
      "name": "approveProposal",
      "outputs": [],
      "payable": false,
      "stateMutability": "nonpayable",
      "type": "function"
    },
    {
      "constant": false,
      "inputs": [
        {
          "name": "_proposalId",
          "type": "uint256"
        },
        {
          "name": "_yes",
          "type": "bool"
        }
      ],
      "name": "vote",
      "outputs": [],
      "payable": false,
      "stateMutability": "nonpayable",
      "type": "function"
    },
    {
      "constant": false,
      "inputs": [
        {
          "name": "_newAdmin",
          "type": "address"
        }
      ],
      "name": "addAdmin",
      "outputs": [],
      "payable": false,
      "stateMutability": "nonpayable",
      "type": "function"
    },
    {
      "constant": false,
      "inputs": [
        {
          "name": "_admin",
          "type": "address"
        }
      ],
      "name": "removeAdmin",
      "outputs": [],
      "payable": false,
      "stateMutability": "nonpayable",
      "type": "function"
    },
    {
      "constant": true,
      "inputs": [
        {
          "name": "_proposalId",
          "type": "uint256"
        }
      ],
      "name": "proposal",
      "outputs": [
        {
          "name": "_proposer",
          "type": "address"
        },
        {
          "name": "_startBlock",
          "type": "uint256"
        },
        {
          "name": "_startTime",
          "type": "uint256"
        },
        {
          "name": "_duration",
          "type": "uint256"
        },
        {
          "name": "_storageHash",
          "type": "bytes32"
        },
        {
          "name": "_active",
          "type": "bool"
        },
        {
          "name": "_finalized",
          "type": "bool"
        },
        {
          "name": "_totalYes",
          "type": "uint256"
        },
        {
          "name": "_totalNo",
          "type": "uint256"
        },
        {
          "name": "_token",
          "type": "address"
        },
        {
          "name": "_approved",
          "type": "bool"
        },
        {
          "name": "_denied",
          "type": "bool"
        },
        {
          "name": "_hasBalance",
          "type": "bool"
        }
      ],
      "payable": false,
      "stateMutability": "view",
      "type": "function"
    },
    {
      "constant": false,
      "inputs": [
        {
          "name": "_proposalId",
          "type": "uint256"
        }
      ],
      "name": "denyProposal",
      "outputs": [],
      "payable": false,
      "stateMutability": "nonpayable",
      "type": "function"
    },
    {
      "constant": true,
      "inputs": [],
      "name": "getNotApprovedProposals",
      "outputs": [
        {
          "name": "",
          "type": "uint256[]"
        }
      ],
      "payable": false,
      "stateMutability": "view",
      "type": "function"
    },
    {
      "constant": true,
      "inputs": [],
      "name": "getApprovedProposals",
      "outputs": [
        {
          "name": "",
          "type": "uint256[]"
        }
      ],
      "payable": false,
      "stateMutability": "view",
      "type": "function"
    },
    {
      "constant": true,
      "inputs": [],
      "name": "getActiveProposals",
      "outputs": [
        {
          "name": "",
          "type": "uint256[]"
        }
      ],
      "payable": false,
      "stateMutability": "view",
      "type": "function"
    },
    {
      "constant": true,
      "inputs": [],
      "name": "nProposals",
      "outputs": [
        {
          "name": "",
          "type": "uint256"
        }
      ],
      "payable": false,
      "stateMutability": "view",
      "type": "function"
    },
    {
      "constant": true,
      "inputs": [
        {
          "name": "_admin",
          "type": "address"
        }
      ],
      "name": "isAdmin",
      "outputs": [
        {
          "name": "",
          "type": "bool"
        }
      ],
      "payable": false,
      "stateMutability": "view",
      "type": "function"
    },
    {
      "constant": false,
      "inputs": [
        {
          "name": "",
          "type": "address"
        }
      ],
      "name": "proxyPayment",
      "outputs": [
        {
          "name": "",
          "type": "bool"
        }
      ],
      "payable": true,
      "stateMutability": "payable",
      "type": "function"
    },
    {
      "constant": true,
      "inputs": [
        {
          "name": "",
          "type": "address"
        },
        {
          "name": "",
          "type": "address"
        },
        {
          "name": "",
          "type": "uint256"
        }
      ],
      "name": "onTransfer",
      "outputs": [
        {
          "name": "",
          "type": "bool"
        }
      ],
      "payable": false,
      "stateMutability": "pure",
      "type": "function"
    },
    {
      "constant": true,
      "inputs": [
        {
          "name": "",
          "type": "address"
        },
        {
          "name": "",
          "type": "address"
        },
        {
          "name": "",
          "type": "uint256"
        }
      ],
      "name": "onApprove",
      "outputs": [
        {
          "name": "",
          "type": "bool"
        }
      ],
      "payable": false,
      "stateMutability": "pure",
      "type": "function"
    }
  ],
  "bytecode": "0x608060405234801561001057600080fd5b5060008054600160a060020a0319908116339081178355600280548316723ea7f54b6dcf6cee86986edc18143a35f155051790556003805490921673cc80c051057b774cd75067dc48f8987c4eb97a5e179091558152600460205260409020805460ff191660011790556116c9806100896000396000f3006080604052600436106100e25763ffffffff60e060020a6000350416631785f53c81146100e757806324d7806c1461010a578063271c34d71461013f578063285f23461461015757806330326c17146101bc57806336055ba8146102535780633ac0feac146102805780633bd5aceb146102955780634a393149146102aa5780635584c4f9146102d457806370480275146102e95780638da5cb5b1461030a57806398951b561461033b578063c9d27afe14610353578063da682aeb146102aa578063e77772fe14610370578063f2fde38b14610385578063f48c3054146103a6575b600080fd5b3480156100f357600080fd5b50610108600160a060020a03600435166103ba565b005b34801561011657600080fd5b5061012b600160a060020a03600435166103f2565b604080519115158252519081900360200190f35b34801561014b57600080fd5b50610108600435610410565b34801561016357600080fd5b5061016c610488565b60408051602080825283518183015283519192839290830191858101910280838360005b838110156101a8578181015183820152602001610190565b505050509050019250505060405180910390f35b3480156101c857600080fd5b506101d46004356105cf565b60408051600160a060020a039e8f168152602081019d909d528c81019b909b5260608c019990995260808b019790975294151560a08a015292151560c089015260e08801919091526101008701529095166101208501529315156101408401529215156101608301529115156101808201529051908190036101a00190f35b34801561025f57600080fd5b5061026e600435602435610835565b60408051918252519081900360200190f35b34801561028c57600080fd5b5061016c6109a1565b3480156102a157600080fd5b5061026e610adf565b3480156102b657600080fd5b5061012b600160a060020a0360043581169060243516604435610ae6565b3480156102e057600080fd5b5061016c610aef565b3480156102f557600080fd5b50610108600160a060020a0360043516610b99565b34801561031657600080fd5b5061031f610bd1565b60408051600160a060020a039092168252519081900360200190f35b34801561034757600080fd5b50610108600435610be0565b34801561035f57600080fd5b506101086004356024351515610f5e565b34801561037c57600080fd5b5061031f611219565b34801561039157600080fd5b50610108600160a060020a0360043516611228565b61012b600160a060020a03600435166112bc565b600054600160a060020a031633146103d157600080fd5b600160a060020a03166000908152600460205260409020805460ff19169055565b600160a060020a031660009081526004602052604090205460ff1690565b610419336103f2565b151561042457600080fd5b600180548290811061043257fe5b600091825260209091206006600a90920201015460ff161561045357600080fd5b6001808281548110151561046357fe5b60009182526020909120600a90910201600901805460ff191691151591909117905550565b6060600080825b6001548210156105045760018054839081106104a757fe5b600091825260209091206006600a90920201015460ff161580156104ed575060018054839081106104d457fe5b600091825260209091206009600a90920201015460ff16155b156104f9576001909201915b60019091019061048f565b8260405190808252806020026020018201604052801561052e578160200160208202803883390190505b50905060009250600091505b6001548210156105c857600180548390811061055257fe5b600091825260209091206006600a90920201015460ff161580156105985750600180548390811061057f57fe5b600091825260209091206009600a90920201015460ff16155b156105bd578181848151811015156105ac57fe5b602090810290910101526001909201915b60019091019061053a565b9392505050565b60008060008060008060008060008060008060006105eb61158e565b6001548f106105f957600080fd5b60018f81548110151561060857fe5b90600052602060002090600a020161014060405190810160405290816000820160009054906101000a9004600160a060020a0316600160a060020a0316600160a060020a031681526020016001820154815260200160028201548152602001600382015481526020016004820160009054906101000a9004600160a060020a0316600160a060020a0316600160a060020a031681526020016005820154600019166000191681526020016006820160009054906101000a900460ff1615151515815260200160078201548152602001600882015481526020016009820160009054906101000a900460ff161515151581525050905080600001519d5080602001519c5080604001519b5080606001519a508060a001519950428b8d011097508715801561073f57506107386112c2565b8160200151105b801561074c57508060c001515b60e0820151610100830151608084015160c0850151610120860151949d50929a50909850965094509250600160a060020a0385161561081e576080810151604080517f70a082310000000000000000000000000000000000000000000000000000000081523360048201529051600092600160a060020a0316916370a0823191602480830192602092919082900301818787803b1580156107ec57600080fd5b505af1158015610800573d6000803e3d6000fd5b505050506040513d602081101561081657600080fd5b505111610821565b60005b91505091939597999b9d90929496989a9c50565b60008080600785101561084757600080fd5b602d85111561085557600080fd5b600354604080517f70a082310000000000000000000000000000000000000000000000000000000081523360048201529051600160a060020a03909216916370a08231916024808201926020929091908290030181600087803b1580156108bb57600080fd5b505af11580156108cf573d6000803e3d6000fd5b505050506040513d60208110156108e557600080fd5b50519150600082116108f657600080fd5b600180549350839061090a908281016115e2565b50600180548490811061091957fe5b60009182526020918290206005600a909202019081018690556201518087026003820155805473ffffffffffffffffffffffffffffffffffffffff19163317815560408051888152928301879052805191935085927f43d770f80aa1ff8804e6d2262da56081f46e121abee135e85e79a12fb0d1adea929081900390910190a2505092915050565b6060600080825b600154821015610a1c5760018054839081106109c057fe5b600091825260209091206006600a90920201015460ff168015610a05575060018054839081106109ec57fe5b600091825260209091206009600a90920201015460ff16155b15610a11576001909201915b6001909101906109a8565b82604051908082528060200260200182016040528015610a46578160200160208202803883390190505b50905060009250600091505b6001548210156105c8576001805483908110610a6a57fe5b600091825260209091206006600a90920201015460ff168015610aaf57506001805483908110610a9657fe5b600091825260209091206009600a90920201015460ff16155b15610ad457818184815181101515610ac357fe5b602090810290910101526001909201915b600190910190610a52565b6001545b90565b60019392505050565b6060600080825b600154821015610b2057610b09826112c6565b15610b15576001909201915b600190910190610af6565b82604051908082528060200260200182016040528015610b4a578160200160208202803883390190505b50905060009250600091505b6001548210156105c857610b69826112c6565b15610b8e57818184815181101515610b7d57fe5b602090810290910101526001909201915b600190910190610b56565b610ba2336103f2565b1515610bad57600080fd5b600160a060020a03166000908152600460205260409020805460ff19166001179055565b600054600160a060020a031681565b6000610beb336103f2565b1515610bf657600080fd5b6001548210610c0457600080fd5b6001805483908110610c1257fe5b600091825260209091206009600a90920201015460ff1615610c3357600080fd5b6001805483908110610c4157fe5b60009182526020909120600a90910201600681015490915060ff1615610c6657600080fd5b600254600354600160a060020a0391821691635b7b72c19116610c876112c2565b610cc66040805190810160405280600f81526020017f4e656374617250726f706f73616c2d0000000000000000000000000000000000815250876113b0565b600360009054906101000a9004600160a060020a0316600160a060020a031663313ce5676040518163ffffffff1660e060020a028152600401602060405180830381600087803b158015610d1957600080fd5b505af1158015610d2d573d6000803e3d6000fd5b505050506040513d6020811015610d4357600080fd5b505160408051808201909152600381527f4e502d00000000000000000000000000000000000000000000000000000000006020820152610d8390896113b0565b60405160e060020a63ffffffff8816028152600160a060020a038616600482019081526024820186905260ff84166064830152600160a4830181905260c060448401908152865160c4850152865191939091608482019160e40190602089019080838360005b83811015610e01578181015183820152602001610de9565b50505050905090810190601f168015610e2e5780820380516001836020036101000a031916815260200191505b50838103825285518152855160209182019187019080838360005b83811015610e61578181015183820152602001610e49565b50505050905090810190601f168015610e8e5780820380516001836020036101000a031916815260200191505b5098505050505050505050602060405180830381600087803b158015610eb357600080fd5b505af1158015610ec7573d6000803e3d6000fd5b505050506040513d6020811015610edd57600080fd5b505160048201805473ffffffffffffffffffffffffffffffffffffffff1916600160a060020a0390921691909117905560068101805460ff19166001179055426002820155610f2a6112c2565b600182015560405182907f3ad93af63cb7967b23e4fb500b7d7d28b07516325dcf341f88bebf959d82c1cb90600090a25050565b610f6661158e565b6001546000908410610f7757600080fd5b610f80846112c6565b1515610f8b57600080fd5b6001805485908110610f9957fe5b600091825260208083206040805161014081018252600a9094029091018054600160a060020a0390811685526001820154858501526002820154858401526003820154606086015260048083015490911660808601819052600583015460a0870152600683015460ff908116151560c0880152600784015460e08801526008840154610100880152600990930154909216151561012086015282517f70a0823100000000000000000000000000000000000000000000000000000000815233918101919091529151939650936370a0823193602480840194939192918390030190829087803b15801561108b57600080fd5b505af115801561109f573d6000803e3d6000fd5b505050506040513d60208110156110b557600080fd5b50519050600081116110c657600080fd5b6080820151604080517f23b872dd000000000000000000000000000000000000000000000000000000008152336004820152306024820152604481018490529051600160a060020a03909216916323b872dd916064808201926020929091908290030181600087803b15801561113b57600080fd5b505af115801561114f573d6000803e3d6000fd5b505050506040513d602081101561116557600080fd5b5051151561117257600080fd5b82156111a7578060018581548110151561118857fe5b600091825260209091206007600a9092020101805490910190556111d2565b806001858154811015156111b757fe5b600091825260209091206008600a9092020101805490910190555b604080518415158152602081018390528151339287927f88d35328232823f54954b6627e9f732371656f6daa40cb1b01b27dc7875a7b47929081900390910190a350505050565b600254600160a060020a031681565b600054600160a060020a0316331461123f57600080fd5b600160a060020a038116151561125457600080fd5b60008054604051600160a060020a03808516939216917f8be0079c531659141344cd1fd0a4f28419497f9722a3daafe3b4186f6b6457e091a36000805473ffffffffffffffffffffffffffffffffffffffff1916600160a060020a0392909216919091179055565b50600090565b4390565b60006112d061158e565b60018054849081106112de57fe5b60009182526020918290206040805161014081018252600a9093029091018054600160a060020a039081168452600182015494840194909452600281015491830182905260038101546060840181905260048201549094166080840152600581015460a0840152600681015460ff908116151560c0850152600782015460e085015260088201546101008501526009909101541615156101208301529092504291011180156113905750428160400151105b801561139d57508060c001515b80156105c8575061012001511592915050565b60408051606480825260a0820190925260609190829060009081908390819083908760208201610c80803883390190505095506000945088151561143f57855160018601957f300000000000000000000000000000000000000000000000000000000000000091889190811061142257fe5b906020010190600160f860020a031916908160001a90535061148a565b881561148a578551600a808b049a6001880197919006955060f860020a603087010291889190811061146d57fe5b906020010190600160f860020a031916908160001a90535061143f565b899250848351016040519080825280601f01601f1916602001820160405280156114be578160200160208202803883390190505b509150600090505b825181101561151e5782818151811015156114dd57fe5b90602001015160f860020a900460f860020a0282828151811015156114fe57fe5b906020010190600160f860020a031916908160001a9053506001016114c6565b5060005b84811015611581578581600187030381518110151561153d57fe5b90602001015160f860020a900460f860020a02828451830181518110151561156157fe5b906020010190600160f860020a031916908160001a905350600101611522565b5098975050505050505050565b6040805161014081018252600080825260208201819052918101829052606081018290526080810182905260a0810182905260c0810182905260e08101829052610100810182905261012081019190915290565b81548183558181111561160e57600a0281600a02836000526020600020918201910161160e9190611613565b505050565b610ae391905b8082111561169957805473ffffffffffffffffffffffffffffffffffffffff19908116825560006001830181905560028301819055600383018190556004830180549092169091556005820181905560068201805460ff199081169091556007830182905560088301919091556009820180549091169055600a01611619565b50905600a165627a7a723058206c3694d88266c4c3a194c141d4ebaf5436dc3be7bc0e036942de13d5c696c3470029",
  "source": "pragma solidity ^0.4.18;\n\nimport \"./MiniMeToken.sol\";\nimport \"./Ownable.sol\";\n\n/*\n    Copyright 2018, Nikola Klipa @ Decenter\n*/\n\n/// @title ProposalManager Contract\n/// @author Nikola Klipa @ Decenter\ncontract ProposalManager is Ownable {\n\n    address constant NECTAR_TOKEN = 0xCc80C051057B774cD75067Dc48f8987C4Eb97A5e;\n    address constant TOKEN_FACTORY = 0x003ea7f54b6Dcf6cEE86986EdC18143A35F15505;\n    uint constant MIN_PROPOSAL_DURATION = 7;\n    uint constant MAX_PROPOSAL_DURATION = 45;\n\n    struct Proposal {\n        address proposer;\n        uint startBlock;\n        uint startTime;\n        uint duration;\n        address token;\n        bytes32 storageHash;\n        bool approved;\n        uint yesVotes;\n        uint noVotes;\n        bool denied;\n    }\n\n    Proposal[] proposals;\n\n    MiniMeTokenFactory public tokenFactory;\n    address nectarToken;\n    mapping(address => bool) admins;\n\n    modifier onlyAdmins() { \n        require(isAdmin(msg.sender));\n        _; \n    }\n\n    function ProposalManager() public {\n        tokenFactory = MiniMeTokenFactory(TOKEN_FACTORY);\n        nectarToken = NECTAR_TOKEN;\n        admins[msg.sender] = true;\n    }\n\n    /// @notice Add new proposal and put it in list to be approved\n    /// @param _duration Duration of proposal in days after it is approved\n    /// @param _storageHash Hash to text of proposal\n    /// @return Created proposal id\n    function addProposal(\n        uint _duration, // number of days\n        bytes32 _storageHash) public returns (uint _proposalId)\n    {\n        require(_duration >= MIN_PROPOSAL_DURATION);\n        require(_duration <= MAX_PROPOSAL_DURATION);\n\n        uint amount = MiniMeToken(nectarToken).balanceOf(msg.sender);\n        require(amount > 0); // user can't submit proposal if doesn't own any tokens\n\n        _proposalId = proposals.length;\n        proposals.length++;\n\n        Proposal storage p = proposals[_proposalId];\n        p.storageHash = _storageHash;\n        p.duration = _duration * (1 days);\n        p.proposer = msg.sender;\n        \n        emit NewProposal(_proposalId, _duration, _storageHash);\n    }\n\n    /// @notice Admins are able to approve proposal that someone submitted\n    /// @param _proposalId Id of proposal that admin approves\n    function approveProposal(uint _proposalId) public onlyAdmins {\n        require(proposals.length > _proposalId);\n        require(!proposals[_proposalId].denied);\n\n        Proposal storage p = proposals[_proposalId];\n\n        // if not checked, admin is able to restart proposal\n        require(!p.approved);\n\n        p.token = tokenFactory.createCloneToken(\n                nectarToken,\n                getBlockNumber(),\n                appendUintToString(\"NectarProposal-\", _proposalId),\n                MiniMeToken(nectarToken).decimals(),\n                appendUintToString(\"NP-\", _proposalId),\n                true);\n\n        p.approved = true;\n        p.startTime = now;\n        p.startBlock = getBlockNumber();\n\n        emit Approved(_proposalId);\n    }\n\n    /// @notice Vote for specific proposal with yes or no\n    /// @param _proposalId Id of proposal that we user is voting for\n    /// @param _yes True if user is voting for yes and false if no\n    function vote(uint _proposalId, bool _yes) public {\n        require(_proposalId < proposals.length);\n        require(checkIfCurrentlyActive(_proposalId));\n        \n        Proposal memory p = proposals[_proposalId];\n\n        uint amount = MiniMeToken(p.token).balanceOf(msg.sender);      \n        require(amount > 0);\n\n        require(MiniMeToken(p.token).transferFrom(msg.sender, address(this), amount));\n\n        if (_yes) {\n            proposals[_proposalId].yesVotes += amount;    \n        }else {\n            proposals[_proposalId].noVotes += amount;\n        }\n        \n        emit Vote(_proposalId, msg.sender, _yes, amount);\n    }\n\n    /// @notice Any admin is able to add new admin\n    /// @param _newAdmin Address of new admin\n    function addAdmin(address _newAdmin) public onlyAdmins {\n        admins[_newAdmin] = true;\n    }\n\n    /// @notice Only owner is able to remove admin\n    /// @param _admin Address of current admin\n    function removeAdmin(address _admin) public onlyOwner {\n        admins[_admin] = false;\n    }\n\n    /// @notice Get data about specific proposal\n    /// @param _proposalId Id of proposal \n    function proposal(uint _proposalId) public view returns(\n        address _proposer,\n        uint _startBlock,\n        uint _startTime,\n        uint _duration,\n        bytes32 _storageHash,\n        bool _active,\n        bool _finalized,\n        uint _totalYes,\n        uint _totalNo,\n        address _token,\n        bool _approved,\n        bool _denied,\n        bool _hasBalance\n    ) {\n        require(_proposalId < proposals.length);\n\n        Proposal memory p = proposals[_proposalId];\n        _proposer = p.proposer;\n        _startBlock = p.startBlock;\n        _startTime = p.startTime;\n        _duration = p.duration;\n        _storageHash = p.storageHash;\n        _finalized = (_startTime+_duration < now);\n        _active = !_finalized && (p.startBlock < getBlockNumber()) && p.approved;\n        _totalYes = p.yesVotes;\n        _totalNo = p.noVotes;\n        _token = p.token;\n        _approved = p.approved;\n        _denied = p.denied;\n        _hasBalance = (p.token == 0x0) ? false : (MiniMeToken(p.token).balanceOf(msg.sender) > 0);\n    }\n\n    function denyProposal(uint _proposalId) public onlyAdmins {\n        require(!proposals[_proposalId].approved);\n\n        proposals[_proposalId].denied = true;\n    }\n\n    /// @notice Get all not approved proposals\n    /// @dev looping two times through array so we can make array with exact count\n    ///       because of Solidity limitation to make dynamic array in memory\n    function getNotApprovedProposals() public view returns(uint[]) {\n        uint count = 0;\n        for (uint i=0; i<proposals.length; i++) {\n            if (!proposals[i].approved && !proposals[i].denied) {\n                count++;\n            }\n        }\n\n        uint[] memory notApprovedProposals = new uint[](count);\n        count = 0;\n        for (i=0; i<proposals.length; i++) {\n            if (!proposals[i].approved && !proposals[i].denied) {\n                notApprovedProposals[count] = i;\n                count++;\n            }\n        }\n\n        return notApprovedProposals;\n    }\n\n    /// @notice Get all approved proposals\n    /// @dev looping two times through array so we can make array with exact count\n    ///       because of Solidity limitation to make dynamic array in memory\n    function getApprovedProposals() public view returns(uint[]) {\n        uint count = 0;\n        for (uint i=0; i<proposals.length; i++) {\n            if (proposals[i].approved && !proposals[i].denied) {\n                count++;\n            }\n        }\n\n        uint[] memory approvedProposals = new uint[](count);\n        count = 0;\n        for (i=0; i<proposals.length; i++) {\n            if (proposals[i].approved && !proposals[i].denied) {\n                approvedProposals[count] = i;\n                count++;\n            }\n        }\n\n        return approvedProposals;\n    }\n\n    /// @notice Get all active proposals\n    /// @dev looping two times through array so we can make array with exact count\n    ///       because of Solidity limitation to make dynamic array in memory\n    function getActiveProposals() public view returns(uint[]) {\n        uint count = 0;\n        for (uint i=0; i<proposals.length; i++) {\n            if (checkIfCurrentlyActive(i)) {\n                count++;\n            }\n        }\n\n        uint[] memory activeProposals = new uint[](count);\n        count = 0;\n        for (i=0; i<proposals.length; i++) {\n            if (checkIfCurrentlyActive(i)) {\n                activeProposals[count] = i;\n                count++;\n            }\n        }\n\n        return activeProposals;\n    }\n\n    function appendUintToString(string inStr, uint v) private pure returns (string str) {\n        uint maxlength = 100;\n        bytes memory reversed = new bytes(maxlength);\n        uint i = 0;\n        if (v==0) {\n            reversed[i++] = byte(48);  \n        } else { \n            while (v != 0) {\n                uint remainder = v % 10;\n                v = v / 10;\n                reversed[i++] = byte(48 + remainder);\n            }\n        }\n        bytes memory inStrb = bytes(inStr);\n        bytes memory s = new bytes(inStrb.length + i);\n        uint j;\n        for (j = 0; j < inStrb.length; j++) {\n            s[j] = inStrb[j];\n        }\n        for (j = 0; j < i; j++) {\n            s[j + inStrb.length] = reversed[i - 1 - j];\n        }\n        str = string(s);\n    }\n\n    function nProposals() public view returns(uint) {\n        return proposals.length;\n    }\n\n    function isAdmin(address _admin) public view returns(bool) {\n        return admins[_admin];\n    }\n\n    function checkIfCurrentlyActive(uint _proposalId) private view returns(bool) {\n        Proposal memory p = proposals[_proposalId];\n        return (p.startTime + p.duration > now && p.startTime < now && p.approved && !p.denied);    \n    }  \n    \n    function proxyPayment(address ) public payable returns(bool) {\n        return false;\n    }\n\n    function onTransfer(address , address , uint ) public pure returns(bool) {\n        return true;\n    }\n\n    function onApprove(address , address , uint ) public pure returns(bool) {\n        return true;\n    }\n\n    function getBlockNumber() internal constant returns (uint) {\n        return block.number;\n    }\n\n    event Vote(uint indexed idProposal, address indexed _voter, bool yes, uint amount);\n    event Approved(uint indexed idProposal);\n    event NewProposal(uint indexed idProposal, uint duration, bytes32 storageHash);\n}\n",
  "sourcePath": "/Users/nikolaklipa/Decenter/community-gateway/solidity/contracts/ProposalManager.sol",
  "compiler": {
    "name": "solc",
    "version": "0.4.24+commit.e67f0147.Emscripten.clang"
  },
  "schemaVersion": "2.0.1",
  "updatedAt": "2018-08-17T12:38:06.168Z"
}