{
  "contractName": "TokenListingManagerAdvanced",
  "abi": [
    {
      "constant": true,
      "inputs": [
        {
          "name": "",
          "type": "address"
        }
      ],
      "name": "isDelegate",
      "outputs": [
        {
          "name": "",
          "type": "bool"
        }
      ],
      "payable": false,
      "stateMutability": "view",
      "type": "function"
    },
    {
      "constant": true,
      "inputs": [
        {
          "name": "",
          "type": "uint256"
        }
      ],
      "name": "yesVotes",
      "outputs": [
        {
          "name": "",
          "type": "uint256"
        }
      ],
      "payable": false,
      "stateMutability": "view",
      "type": "function"
    },
    {
      "constant": true,
      "inputs": [
        {
          "name": "",
          "type": "address"
        }
      ],
      "name": "admins",
      "outputs": [
        {
          "name": "",
          "type": "bool"
        }
      ],
      "payable": false,
      "stateMutability": "view",
      "type": "function"
    },
    {
      "constant": true,
      "inputs": [
        {
          "name": "",
          "type": "uint256"
        },
        {
          "name": "",
          "type": "address"
        }
      ],
      "name": "isVoted",
      "outputs": [
        {
          "name": "",
          "type": "bool"
        }
      ],
      "payable": false,
      "stateMutability": "view",
      "type": "function"
    },
    {
      "constant": true,
      "inputs": [],
      "name": "TOKEN_FACTORY",
      "outputs": [
        {
          "name": "",
          "type": "address"
        }
      ],
      "payable": false,
      "stateMutability": "view",
      "type": "function"
    },
    {
      "constant": true,
      "inputs": [],
      "name": "NECTAR_TOKEN",
      "outputs": [
        {
          "name": "",
          "type": "address"
        }
      ],
      "payable": false,
      "stateMutability": "view",
      "type": "function"
    },
    {
      "constant": true,
      "inputs": [
        {
          "name": "",
          "type": "uint256"
        }
      ],
      "name": "consideredTokens",
      "outputs": [
        {
          "name": "",
          "type": "address"
        }
      ],
      "payable": false,
      "stateMutability": "view",
      "type": "function"
    },
    {
      "constant": true,
      "inputs": [
        {
          "name": "",
          "type": "address"
        }
      ],
      "name": "lastVote",
      "outputs": [
        {
          "name": "",
          "type": "uint256"
        }
      ],
      "payable": false,
      "stateMutability": "view",
      "type": "function"
    },
    {
      "constant": true,
      "inputs": [
        {
          "name": "",
          "type": "uint256"
        }
      ],
      "name": "tokenBatches",
      "outputs": [
        {
          "name": "startBlock",
          "type": "uint256"
        },
        {
          "name": "startTime",
          "type": "uint256"
        },
        {
          "name": "duration",
          "type": "uint256"
        },
        {
          "name": "votingToken",
          "type": "address"
        },
        {
          "name": "criteria",
          "type": "uint256"
        },
        {
          "name": "extraData",
          "type": "uint256"
        }
      ],
      "payable": false,
      "stateMutability": "view",
      "type": "function"
    },
    {
      "constant": true,
      "inputs": [],
      "name": "owner",
      "outputs": [
        {
          "name": "",
          "type": "address"
        }
      ],
      "payable": false,
      "stateMutability": "view",
      "type": "function"
    },
    {
      "constant": true,
      "inputs": [
        {
          "name": "",
          "type": "address"
        }
      ],
      "name": "myDelegate",
      "outputs": [
        {
          "name": "",
          "type": "address"
        }
      ],
      "payable": false,
      "stateMutability": "view",
      "type": "function"
    },
    {
      "constant": true,
      "inputs": [
        {
          "name": "",
          "type": "uint256"
        }
      ],
      "name": "allDelegates",
      "outputs": [
        {
          "name": "user",
          "type": "address"
        },
        {
          "name": "storageHash",
          "type": "bytes32"
        },
        {
          "name": "exists",
          "type": "bool"
        }
      ],
      "payable": false,
      "stateMutability": "view",
      "type": "function"
    },
    {
      "constant": true,
      "inputs": [
        {
          "name": "",
          "type": "address"
        }
      ],
      "name": "isWinner",
      "outputs": [
        {
          "name": "",
          "type": "bool"
        }
      ],
      "payable": false,
      "stateMutability": "view",
      "type": "function"
    },
    {
      "constant": true,
      "inputs": [],
      "name": "nectarToken",
      "outputs": [
        {
          "name": "",
          "type": "address"
        }
      ],
      "payable": false,
      "stateMutability": "view",
      "type": "function"
    },
    {
      "constant": true,
      "inputs": [
        {
          "name": "",
          "type": "address"
        }
      ],
      "name": "tokenExists",
      "outputs": [
        {
          "name": "",
          "type": "bool"
        }
      ],
      "payable": false,
      "stateMutability": "view",
      "type": "function"
    },
    {
      "constant": true,
      "inputs": [
        {
          "name": "",
          "type": "address"
        },
        {
          "name": "",
          "type": "uint256"
        }
      ],
      "name": "myVotes",
      "outputs": [
        {
          "name": "",
          "type": "address"
        }
      ],
      "payable": false,
      "stateMutability": "view",
      "type": "function"
    },
    {
      "constant": true,
      "inputs": [],
      "name": "tokenFactory",
      "outputs": [
        {
          "name": "",
          "type": "address"
        }
      ],
      "payable": false,
      "stateMutability": "view",
      "type": "function"
    },
    {
      "constant": true,
      "inputs": [],
      "name": "MAX_CANDIDATES",
      "outputs": [
        {
          "name": "",
          "type": "uint256"
        }
      ],
      "payable": false,
      "stateMutability": "view",
      "type": "function"
    },
    {
      "constant": false,
      "inputs": [
        {
          "name": "newOwner",
          "type": "address"
        }
      ],
      "name": "transferOwnership",
      "outputs": [],
      "payable": false,
      "stateMutability": "nonpayable",
      "type": "function"
    },
    {
      "inputs": [
        {
          "name": "_tokenFactory",
          "type": "address"
        },
        {
          "name": "_nectarToken",
          "type": "address"
        }
      ],
      "payable": false,
      "stateMutability": "nonpayable",
      "type": "constructor"
    },
    {
      "anonymous": false,
      "inputs": [
        {
          "indexed": true,
          "name": "idProposal",
          "type": "uint256"
        },
        {
          "indexed": true,
          "name": "_voter",
          "type": "address"
        },
        {
          "indexed": false,
          "name": "chosenToken",
          "type": "address"
        },
        {
          "indexed": false,
          "name": "amount",
          "type": "uint256"
        }
      ],
      "name": "Vote",
      "type": "event"
    },
    {
      "anonymous": false,
      "inputs": [
        {
          "indexed": true,
          "name": "idProposal",
          "type": "uint256"
        }
      ],
      "name": "NewTokens",
      "type": "event"
    },
    {
      "anonymous": false,
      "inputs": [
        {
          "indexed": true,
          "name": "previousOwner",
          "type": "address"
        },
        {
          "indexed": true,
          "name": "newOwner",
          "type": "address"
        }
      ],
      "name": "OwnershipTransferred",
      "type": "event"
    },
    {
      "constant": false,
      "inputs": [
        {
          "name": "_tokens",
          "type": "address[]"
        },
        {
          "name": "_duration",
          "type": "uint256"
        },
        {
          "name": "_criteria",
          "type": "uint256"
        },
        {
          "name": "_extraData",
          "type": "uint256"
        },
        {
          "name": "_previousWinners",
          "type": "address[]"
        }
      ],
      "name": "startTokenVotes",
      "outputs": [],
      "payable": false,
      "stateMutability": "nonpayable",
      "type": "function"
    },
    {
      "constant": false,
      "inputs": [
        {
          "name": "_tokenIndex",
          "type": "uint256"
        },
        {
          "name": "_amount",
          "type": "uint256"
        }
      ],
      "name": "vote",
      "outputs": [],
      "payable": false,
      "stateMutability": "nonpayable",
      "type": "function"
    },
    {
      "constant": false,
      "inputs": [
        {
          "name": "_storageHash",
          "type": "bytes32"
        }
      ],
      "name": "registerAsDelegate",
      "outputs": [],
      "payable": false,
      "stateMutability": "nonpayable",
      "type": "function"
    },
    {
      "constant": true,
      "inputs": [],
      "name": "delegateCount",
      "outputs": [
        {
          "name": "",
          "type": "uint256"
        }
      ],
      "payable": false,
      "stateMutability": "view",
      "type": "function"
    },
    {
      "constant": false,
      "inputs": [
        {
          "name": "_to",
          "type": "address"
        }
      ],
      "name": "delegateVote",
      "outputs": [],
      "payable": false,
      "stateMutability": "nonpayable",
      "type": "function"
    },
    {
      "constant": true,
      "inputs": [],
      "name": "getWinners",
      "outputs": [
        {
          "name": "winners",
          "type": "address[]"
        }
      ],
      "payable": false,
      "stateMutability": "view",
      "type": "function"
    },
    {
      "constant": true,
      "inputs": [],
      "name": "numberOfProposals",
      "outputs": [
        {
          "name": "",
          "type": "uint256"
        }
      ],
      "payable": false,
      "stateMutability": "view",
      "type": "function"
    },
    {
      "constant": false,
      "inputs": [
        {
          "name": "_newAdmin",
          "type": "address"
        }
      ],
      "name": "addAdmin",
      "outputs": [],
      "payable": false,
      "stateMutability": "nonpayable",
      "type": "function"
    },
    {
      "constant": false,
      "inputs": [
        {
          "name": "_admin",
          "type": "address"
        }
      ],
      "name": "removeAdmin",
      "outputs": [],
      "payable": false,
      "stateMutability": "nonpayable",
      "type": "function"
    },
    {
      "constant": true,
      "inputs": [
        {
          "name": "_proposalId",
          "type": "uint256"
        }
      ],
      "name": "proposal",
      "outputs": [
        {
          "name": "_startBlock",
          "type": "uint256"
        },
        {
          "name": "_startTime",
          "type": "uint256"
        },
        {
          "name": "_duration",
          "type": "uint256"
        },
        {
          "name": "_active",
          "type": "bool"
        },
        {
          "name": "_finalized",
          "type": "bool"
        },
        {
          "name": "_votes",
          "type": "uint256[]"
        },
        {
          "name": "_tokens",
          "type": "address[]"
        },
        {
          "name": "_votingToken",
          "type": "address"
        },
        {
          "name": "_hasBalance",
          "type": "bool"
        }
      ],
      "payable": false,
      "stateMutability": "view",
      "type": "function"
    },
    {
      "constant": true,
      "inputs": [],
      "name": "getConsideredTokens",
      "outputs": [
        {
          "name": "tokens",
          "type": "address[]"
        }
      ],
      "payable": false,
      "stateMutability": "view",
      "type": "function"
    },
    {
      "constant": true,
      "inputs": [],
      "name": "getVotes",
      "outputs": [
        {
          "name": "votes",
          "type": "uint256[]"
        }
      ],
      "payable": false,
      "stateMutability": "view",
      "type": "function"
    },
    {
      "constant": true,
      "inputs": [
        {
          "name": "index",
          "type": "uint256"
        }
      ],
      "name": "getCurrentVotes",
      "outputs": [
        {
          "name": "",
          "type": "uint256"
        }
      ],
      "payable": false,
      "stateMutability": "view",
      "type": "function"
    },
    {
      "constant": true,
      "inputs": [
        {
          "name": "_admin",
          "type": "address"
        }
      ],
      "name": "isAdmin",
      "outputs": [
        {
          "name": "",
          "type": "bool"
        }
      ],
      "payable": false,
      "stateMutability": "view",
      "type": "function"
    },
    {
      "constant": false,
      "inputs": [
        {
          "name": "",
          "type": "address"
        }
      ],
      "name": "proxyPayment",
      "outputs": [
        {
          "name": "",
          "type": "bool"
        }
      ],
      "payable": true,
      "stateMutability": "payable",
      "type": "function"
    },
    {
      "constant": true,
      "inputs": [
        {
          "name": "_from",
          "type": "address"
        },
        {
          "name": "_to",
          "type": "address"
        },
        {
          "name": "_amount",
          "type": "uint256"
        }
      ],
      "name": "onTransfer",
      "outputs": [
        {
          "name": "",
          "type": "bool"
        }
      ],
      "payable": false,
      "stateMutability": "view",
      "type": "function"
    },
    {
      "constant": true,
      "inputs": [
        {
          "name": "",
          "type": "address"
        },
        {
          "name": "",
          "type": "address"
        },
        {
          "name": "",
          "type": "uint256"
        }
      ],
      "name": "onApprove",
      "outputs": [
        {
          "name": "",
          "type": "bool"
        }
      ],
      "payable": false,
      "stateMutability": "pure",
      "type": "function"
    }
  ],
  "bytecode": "0x608060405234801561001057600080fd5b50604051604080612a3e83398101604090815281516020928301516000805433600160a060020a031991821681178355600580548316600160a060020a03968716179055600680549092169490931693909317909255815260078352908120805460ff199081166001908117909255828052600d9093527f81955a0a11e65eac625c29e8882660bae4e165a75d72780094acae8ece9a29ee80549093161790915561297d9081906100c190396000f3006080604052600436106101a85763ffffffff60e060020a6000350416630777962781146101ad5780630dc96015146101e25780631785f53c146102475780631b538bcc1461026a57806324d7806c146102945780632b8343c7146102b557806330326c17146102cd5780633bb8a87f146103c55780633e38a2b7146103da57806340128db3146103ef578063429b62e51461040757806349c1a581146104285780634a3931491461044c5780635a58fe4b146104765780635fce4a18146104a757806362fb9ed6146104bc5780636accc8cf146104d457806370480275146104f55780637fe4aa6f146105165780638d7af473146105695780638da5cb5b1461057e5780639132620314610593578063947dd6e5146105b45780639d9ca28d146105f6578063a5df10ce14610617578063b31e1d4d1461062c578063b33f78ca1461064d578063b384abef1461066e578063da682aeb14610689578063dac4cc09146106b3578063db93f375146106d7578063df15c37e14610776578063e77772fe1461078b578063f0786096146107a0578063f2fde38b146107b5578063f48c3054146107d6575b600080fd5b3480156101b957600080fd5b506101ce600160a060020a03600435166107ea565b604080519115158252519081900360200190f35b3480156101ee57600080fd5b506101f76107ff565b60408051602080825283518183015283519192839290830191858101910280838360005b8381101561023357818101518382015260200161021b565b505050509050019250505060405180910390f35b34801561025357600080fd5b50610268600160a060020a0360043516610871565b005b34801561027657600080fd5b506102826004356108a9565b60408051918252519081900360200190f35b3480156102a057600080fd5b506101ce600160a060020a036004351661097d565b3480156102c157600080fd5b5061028260043561099b565b3480156102d957600080fd5b506102e56004356109ba565b604080518a815260208082018b905291810189905287151560608201528615156080820152600160a060020a03841660e082015282151561010082015261012060a0820181815287519183019190915286519192909160c0840191610140850191898201910280838360005b83811015610369578181015183820152602001610351565b50505050905001838103825286818151815260200191508051906020019060200280838360005b838110156103a8578181015183820152602001610390565b505050509050019b50505050505050505050505060405180910390f35b3480156103d157600080fd5b506101f7610b3f565b3480156103e657600080fd5b50610282610c45565b3480156103fb57600080fd5b50610268600435610c4c565b34801561041357600080fd5b506101ce600160a060020a0360043516610efd565b34801561043457600080fd5b506101ce600435600160a060020a0360243516610f12565b34801561045857600080fd5b506101ce600160a060020a0360043581169060243516604435610f32565b34801561048257600080fd5b5061048b610fb9565b60408051600160a060020a039092168252519081900360200190f35b3480156104b357600080fd5b5061048b610fd1565b3480156104c857600080fd5b5061048b600435610fe9565b3480156104e057600080fd5b50610282600160a060020a0360043516611011565b34801561050157600080fd5b50610268600160a060020a0360043516611023565b34801561052257600080fd5b5061052e60043561105b565b60408051968752602087019590955285850193909352600160a060020a039091166060850152608084015260a0830152519081900360c00190f35b34801561057557600080fd5b506102826110ab565b34801561058a57600080fd5b5061048b6110b1565b34801561059f57600080fd5b5061048b600160a060020a03600435166110c0565b3480156105c057600080fd5b506105cc6004356110db565b60408051600160a060020a0390941684526020840192909252151582820152519081900360600190f35b34801561060257600080fd5b506101ce600160a060020a0360043516611119565b34801561062357600080fd5b5061048b61112e565b34801561063857600080fd5b50610268600160a060020a036004351661113d565b34801561065957600080fd5b506101ce600160a060020a036004351661137f565b34801561067a57600080fd5b50610268600435602435611394565b34801561069557600080fd5b506101ce600160a060020a0360043581169060243516604435611832565b3480156106bf57600080fd5b5061048b600160a060020a036004351660243561183b565b3480156106e357600080fd5b5060408051602060048035808201358381028086018501909652808552610268953695939460249493850192918291850190849080828437505060408051602060608901358a01803582810280850184018652818552999c8b359c848d01359c968701359b919a509850608090950196509294508101928291850190849080828437509497506118729650505050505050565b34801561078257600080fd5b506101f7611e9b565b34801561079757600080fd5b5061048b61253b565b3480156107ac57600080fd5b5061028261254a565b3480156107c157600080fd5b50610268600160a060020a036004351661254f565b6101ce600160a060020a03600435166125d6565b600d6020526000908152604090205460ff1681565b60606000600480549050604051908082528060200260200182016040528015610832578160200160208202803883390190505b509150600090505b60045481101561086d5761084d816108a9565b828281518110151561085b57fe5b6020908102909101015260010161083a565b5090565b600054600160a060020a0316331461088857600080fd5b600160a060020a03166000908152600760205260409020805460ff19169055565b6001546003805460009260001901918391859081106108c457fe5b90600052602060002001549050600a60006004868154811015156108e457fe5b6000918252602080832090910154600160a060020a0316835282019290925260400190205482111561097657600a600060048681548110151561092357fe5b600091825260208083209190910154600160a060020a0316835282019290925260400190205460038054918403600202918690811061095e57fe5b906000526020600020015481151561097257fe5b0490505b9392505050565b600160a060020a031660009081526007602052604090205460ff1690565b60038054829081106109a957fe5b600091825260209091200154905081565b60008060008060006060806000806109d061285b565b6001548b106109de57600080fd5b600180548c9081106109ec57fe5b60009182526020918290206040805160c08101825260069093029091018054808452600182015494840185905260028201549284018390526003820154600160a060020a031660608501526004820154608085015260059091015460a08401529c50919a5090985042898b011096509050610a668b6125dc565b9650610a706107ff565b9450610a7a610b3f565b60608201519094509250600160a060020a03831615610b2c576060810151604080517f70a082310000000000000000000000000000000000000000000000000000000081523360048201529051600092600160a060020a0316916370a0823191602480830192602092919082900301818787803b158015610afa57600080fd5b505af1158015610b0e573d6000803e3d6000fd5b505050506040513d6020811015610b2457600080fd5b505111610b2f565b60005b9150509193959799909294969850565b60606000600480549050604051908082528060200260200182016040528015610b72578160200160208202803883390190505b509150600090505b60045481101561086d5760086000600483815481101515610b9757fe5b6000918252602080832090910154600160a060020a0316835282019290925260400190205460ff161515610c15576004805482908110610bd357fe5b6000918252602090912001548251600160a060020a0390911690839083908110610bf957fe5b600160a060020a03909216602092830290910190910152610c3d565b60008282815181101515610c2557fe5b600160a060020a039092166020928302909101909101525b600101610b7a565b6002545b90565b600080610c5f60018080549050036125dc565b15610c6957600080fd5b336000908152600c6020526040902054600160a060020a031615610e17575050336000908152600c6020526040812054600160a060020a0316905b600160a060020a0382166000908152600b6020526040902054811015610df957600160a060020a0382166000908152600b60205260409020805433919083908110610ceb57fe5b600091825260209091200154600160a060020a03161415610df157600160a060020a0382166000908152600b6020526040902080546000198101908110610d2e57fe5b6000918252602080832090910154600160a060020a038581168452600b9092526040909220805491909216919083908110610d6557fe5b60009182526020808320919091018054600160a060020a031916600160a060020a039485161790559184168152600b9091526040902080546000198101908110610dab57fe5b600091825260208083209091018054600160a060020a0319169055600160a060020a0384168252600b905260409020805490610deb90600019830161289b565b50610df9565b600101610ca4565b336000908152600c602052604090208054600160a060020a03191690555b5050336000818152600d602090815260408083208054600160ff199182168117909255825160608101845295865292850195865290840181815260028054928301815590935292517f405787fa12a823e0f2b7631cc41b3ba8828b3321ca811111fa75cd3aa3bb5ace60039094029384018054600160a060020a031916600160a060020a0390921691909117905592517f405787fa12a823e0f2b7631cc41b3ba8828b3321ca811111fa75cd3aa3bb5acf830155517f405787fa12a823e0f2b7631cc41b3ba8828b3321ca811111fa75cd3aa3bb5ad09091018054909216901515179055565b60076020526000908152604090205460ff1681565b600e60209081526000928352604080842090915290825290205460ff1681565b600154600019016000818152600e60209081526040808320600160a060020a038089168552600c84528285205416845290915281205490919060ff16158015610f9e57506000818152600e60209081526040808320600160a060020a038916845290915290205460ff16155b15610fac5760019150610fb1565b600091505b509392505050565b736eb97237b8bc26e8057793200207bb0a2a83c34781565b73cc80c051057b774cd75067dc48f8987c4eb97a5e81565b6004805482908110610ff757fe5b600091825260209091200154600160a060020a0316905081565b600a6020526000908152604090205481565b61102c3361097d565b151561103757600080fd5b600160a060020a03166000908152600760205260409020805460ff19166001179055565b600180548290811061106957fe5b600091825260209091206006909102018054600182015460028301546003840154600485015460059095015493955091939092600160a060020a039092169186565b60015490565b600054600160a060020a031681565b600c60205260009081526040902054600160a060020a031681565b60028054829081106110e957fe5b6000918252602090912060039091020180546001820154600290920154600160a060020a03909116925060ff1683565b60086020526000908152604090205460ff1681565b600654600160a060020a031681565b600160a060020a0381166000908152600d6020526040812054819060ff16151561116657600080fd5b336000908152600d602052604090205460ff161561118357600080fd5b60015461119390600019016125dc565b1561119d57600080fd5b336000908152600c6020526040902054600160a060020a03161561132d575050336000908152600c6020526040812054600160a060020a0316905b600160a060020a0382166000908152600b602052604090205481101561132d57600160a060020a0382166000908152600b6020526040902080543391908390811061121f57fe5b600091825260209091200154600160a060020a0316141561132557600160a060020a0382166000908152600b602052604090208054600019810190811061126257fe5b6000918252602080832090910154600160a060020a038581168452600b909252604090922080549190921691908390811061129957fe5b60009182526020808320919091018054600160a060020a031916600160a060020a039485161790559184168152600b90915260409020805460001981019081106112df57fe5b600091825260208083209091018054600160a060020a0319169055600160a060020a0384168252600b90526040902080549061131f90600019830161289b565b5061132d565b6001016111d8565b5050336000818152600c602090815260408083208054600160a060020a03909616600160a060020a031996871681179091558352600b8252822080546001810182559083529120018054909216179055565b60096020526000908152604090205460ff1681565b600061139e61285b565b336000908152600c6020526040812054819081908190600160a060020a0316156113c757600080fd5b6008600060048a8154811015156113da57fe5b6000918252602080832090910154600160a060020a0316835282019290925260400190205460ff161561140c57600080fd5b60015460001061141b57600080fd5b60015460001901955061142d866125dc565b151561143857600080fd5b6000868152600e6020908152604080832033845290915290205460ff161561145f57600080fd5b600180548790811061146d57fe5b600091825260208083206040805160c0810182526006909402909101805484526001810154928401929092526002820154908301526003810154600160a060020a03166060830152600480820154608084015260059091015460a083015280549197508892600a929091908c9081106114e257fe5b6000918252602080832090910154600160a060020a0316835282019290925260400190205410156115b557600a600060048a81548110151561152057fe5b600091825260208083209190910154600160a060020a0316835282019290925260400190205460038054918803600202918a90811061155b57fe5b90600052602060002001600082825481151561157357fe5b049250508190555085600a600060048b81548110151561158f57fe5b6000918252602080832090910154600160a060020a031683528201929092526040019020555b8693508460600151600160a060020a03166370a08231336040518263ffffffff1660e060020a0281526004018082600160a060020a0316600160a060020a03168152602001915050602060405180830381600087803b15801561161757600080fd5b505af115801561162b573d6000803e3d6000fd5b505050506040513d602081101561164157600080fd5b50519250838310611655576000935061165b565b82840393505b336000908152600d602052604090205460ff161561177857600091505b336000908152600b602052604090205482101561177857336000908152600b602052604090208054839081106116aa57fe5b9060005260206000200160009054906101000a9004600160a060020a031690508460600151600160a060020a03166370a08231826040518263ffffffff1660e060020a0281526004018082600160a060020a0316600160a060020a03168152602001915050602060405180830381600087803b15801561172957600080fd5b505af115801561173d573d6000803e3d6000fd5b505050506040513d602081101561175357600080fd5b50519250838310611767576000935061176d565b82840393505b600190910190611678565b831561178357600080fd5b8660038981548110151561179357fe5b600091825260208083209091018054909301909255878152600e825260408082203380845293529020805460ff191660011790556004805488917fd3e566fa4d4d8b17c007ba24b9dbb382c9185a03c9ef59477ee3c6132ca0a306918c9081106117f957fe5b6000918252602091829020015460408051600160a060020a0390921682529181018c905281519081900390910190a35050505050505050565b60019392505050565b600b6020528160005260406000208181548110151561185657fe5b600091825260209091200154600160a060020a03169150829050565b60008061187d61285b565b60006118883361097d565b151561189357600080fd5b8851601410156118a257600080fd5b600454855111156118b257600080fd5b600093505b84518410156119125760016008600087878151811015156118d457fe5b602090810291909101810151600160a060020a03168252810191909152604001600020805460ff1916911515919091179055600193909301926118b7565b866001141561192957600454861061192957600080fd5b60015492506000831115611a115760018054600019850190811061194957fe5b600091825260208083206040805160c0810182526006909402909101805484526001810154928401929092526002820154838201526003820154600160a060020a031660608401819052600480840154608086015260059093015460a085015281517f0f23cbaa000000000000000000000000000000000000000000000000000000008152915193965093630f23cbaa9382840193919290919082900301818387803b1580156119f857600080fd5b505af1158015611a0c573d6000803e3d6000fd5b505050505b6001805490611a22908281016128c4565b506001805484908110611a3157fe5b906000526020600020906006020190508762015180028160020181905550600093505b8851841015611bad57600960008a86815181101515611a6f57fe5b6020908102909101810151600160a060020a031682528101919091526040016000205460ff1615611a9f57600080fd5b60048985815181101515611aaf57fe5b6020908102919091018101518254600180820185556000948552928420018054600160a060020a031916600160a060020a0390921691909117905560038054918201815582527fc2575a0e9e593c00f959f8c92f12db2869c3395a3b0502d05e2516446f71f85b0181905589518491600a918c9088908110611b2d57fe5b90602001906020020151600160a060020a0316600160a060020a03168152602001908152602001600020819055506001600960008b87815181101515611b6f57fe5b602090810291909101810151600160a060020a03168252810191909152604001600020805460ff191691151591909117905560019390930192611a54565b600554600654600160a060020a039182169163408e097c9116611bce612679565b611c0d6040805190810160405280600e81526020017f456678546f6b656e566f7465732d0000000000000000000000000000000000008152508861267d565b600660009054906101000a9004600160a060020a0316600160a060020a031663313ce5676040518163ffffffff1660e060020a028152600401602060405180830381600087803b158015611c6057600080fd5b505af1158015611c74573d6000803e3d6000fd5b505050506040513d6020811015611c8a57600080fd5b505160408051808201909152600481527f4556542d000000000000000000000000000000000000000000000000000000006020820152611cca908a61267d565b60405160e060020a63ffffffff8816028152600160a060020a038616600482019081526024820186905260ff84166064830152600160a4830181905260c060448401908152865160c4850152865191939091608482019160e40190602089019080838360005b83811015611d48578181015183820152602001611d30565b50505050905090810190601f168015611d755780820380516001836020036101000a031916815260200191505b50838103825285518152855160209182019187019080838360005b83811015611da8578181015183820152602001611d90565b50505050905090810190601f168015611dd55780820380516001836020036101000a031916815260200191505b5098505050505050505050602060405180830381600087803b158015611dfa57600080fd5b505af1158015611e0e573d6000803e3d6000fd5b505050506040513d6020811015611e2457600080fd5b5051600382018054600160a060020a031916600160a060020a03909216919091179055426001820155611e55612679565b8155600481018790556005810186905560405183907fd7c894eab7da0862dea424c47485ac49eab56e3690186d9ee97bfc895e0eb5e990600090a2505050505050505050565b60606000611ea761285b565b60008060006060600080600080600060018080549050039a5060018b815481101515611ecf57fe5b60009182526020918290206040805160c0810182526006909302909101805483526001810154938301939093526002830154908201526003820154600160a060020a0316606082015260048201546080820181905260059092015460a08201529a501515612063576040805160018082528183019092529060208083019080388339019050509b5060009850600097505b60045488101561201a576008600060048a815481101515611f7d57fe5b6000918252602080832090910154600160a060020a0316835282019290925260400190205460ff1615611faf5761200f565b6008600060048b815481101515611fc257fe5b6000918252602080832090910154600160a060020a0316835282019290925260400190205460ff1615611ff3578798505b611ffc896108a9565b612005896108a9565b111561200f578798505b600190970196611f60565b600480548a90811061202857fe5b60009182526020822001548d51600160a060020a03909116918e91811061204b57fe5b600160a060020a039092166020928302909101909101525b8960800151600114156123b157600096508960a001516040519080825280602002602001820160405280156120a2578160200160208202803883390190505b5095508960a001516040519080825280602002602001820160405280156120d3578160200160208202803883390190505b509b50600097505b600454881015612334576008600060048a8154811015156120f857fe5b6000918252602080832090910154600160a060020a0316835282019290925260400190205460ff161561212a57612329565b8960a0015187101561215a5787868881518110151561214557fe5b60209081029091010152600190960195612329565b8960a0015187141561223657600091505b8551821015612236578160010194505b855185101561222b576121a4868681518110151561219557fe5b906020019060200201516108a9565b6121b5878481518110151561219557fe5b10156122205785828151811015156121c957fe5b90602001906020020151935085858151811015156121e357fe5b9060200190602002015186838151811015156121fb57fe5b602090810290910101528551849087908790811061221557fe5b602090810290910101525b60019094019361217b565b60019091019061216b565b60018a60a00151039250612251868481518110151561219557fe5b61225a896108a9565b11156123295787868481518110151561226f57fe5b602090810290910101528291505b60008211156123295761229a866001840381518110151561219557fe5b6122ab878481518110151561219557fe5b111561231d5785828151811015156122bf57fe5b90602001906020020151935085600183038151811015156122dc57fe5b9060200190602002015186838151811015156122f457fe5b60209081029091010152855184908790600019850190811061231257fe5b602090810290910101525b6000199091019061227d565b6001909701966120db565b600097505b8960a001518810156123b1576004868981518110151561235557fe5b602090810290910101518154811061236957fe5b6000918252602090912001548c51600160a060020a03909116908d908a90811061238f57fe5b600160a060020a03909216602092830290910190910152600190970196612339565b89608001516002141561252d575060009650865b600454881015612437576008600060048a8154811015156123e257fe5b6000918252602080832090910154600160a060020a0316835282019290925260400190205460ff16156124145761242c565b8960a00151612422896108a9565b111561242c576001015b6001909701966123c5565b80604051908082528060200260200182016040528015612461578160200160208202803883390190505b509b5060009650600097505b60045488101561252d576008600060048a81548110151561248a57fe5b6000918252602080832090910154600160a060020a0316835282019290925260400190205460ff16156124bc57612522565b8960a001516124ca896108a9565b11156125225760048054899081106124de57fe5b6000918252602090912001548c51600160a060020a03909116908d908990811061250457fe5b600160a060020a039092166020928302909101909101526001909601955b60019097019661246d565b505050505050505050505090565b600554600160a060020a031681565b601481565b600054600160a060020a0316331461256657600080fd5b600160a060020a038116151561257b57600080fd5b60008054604051600160a060020a03808516939216917f8be0079c531659141344cd1fd0a4f28419497f9722a3daafe3b4186f6b6457e091a360008054600160a060020a031916600160a060020a0392909216919091179055565b50600090565b60006125e661285b565b60006001848154811015156125f757fe5b60009182526020918290206040805160c081018252600690930290910180548352600181015493830184905260028101549183018290526003810154600160a060020a03166060840152600481015460808401526005015460a0830152909350429101109050801581612671575061266d612679565b8251105b949350505050565b4390565b60408051606480825260a0820190925260609190829060009081908390819083908760208201610c80803883390190505095506000945088151561270c57855160018601957f30000000000000000000000000000000000000000000000000000000000000009188919081106126ef57fe5b906020010190600160f860020a031916908160001a905350612757565b8815612757578551600a808b049a6001880197919006955060f860020a603087010291889190811061273a57fe5b906020010190600160f860020a031916908160001a90535061270c565b899250848351016040519080825280601f01601f19166020018201604052801561278b578160200160208202803883390190505b509150600090505b82518110156127eb5782818151811015156127aa57fe5b90602001015160f860020a900460f860020a0282828151811015156127cb57fe5b906020010190600160f860020a031916908160001a905350600101612793565b5060005b8481101561284e578581600187030381518110151561280a57fe5b90602001015160f860020a900460f860020a02828451830181518110151561282e57fe5b906020010190600160f860020a031916908160001a9053506001016127ef565b5098975050505050505050565b60c0604051908101604052806000815260200160008152602001600081526020016000600160a060020a0316815260200160008152602001600081525090565b8154818355818111156128bf576000838152602090206128bf9181019083016128f0565b505050565b8154818355818111156128bf576006028160060283600052602060002091820191016128bf919061290a565b610c4991905b8082111561086d57600081556001016128f6565b610c4991905b8082111561086d5760008082556001820181905560028201819055600382018054600160a060020a03191690556004820181905560058201556006016129105600a165627a7a7230582092ff21d44cb55aaf667304fe98db3289f0a9edda651f1fe1fb8b2378269c6f750029",
  "source": "pragma solidity ^0.4.24;\n\nimport \"./DestructibleMiniMeTokenFactory.sol\";\nimport \"./Ownable.sol\";\n\n/*\n    Copyright 2018, Will Harborne @ Ethfinex\n*/\n\n/// @title ProposalManager Contract\n/// @author Will Harborne @ Ethfinex\ncontract TokenListingManagerAdvanced is Ownable {\n\n    address public constant NECTAR_TOKEN = 0xCc80C051057B774cD75067Dc48f8987C4Eb97A5e;\n    address public constant TOKEN_FACTORY = 0x6EB97237B8bc26E8057793200207bB0a2A83C347;\n    uint public constant MAX_CANDIDATES = 20;\n\n    struct TokenProposal {\n        uint startBlock;\n        uint startTime;\n        uint duration;\n        address votingToken;\n        // criteria values\n        // 0. only first one win the vote; \n        // 1. top N (number in extraData) win the vote;\n        // 2. All over N (number in extra data) votes win the vote;\n        uint criteria; \n        uint extraData;\n    }\n\n    struct Delegate {\n        address user;\n        bytes32 storageHash;\n        bool exists;\n    }\n\n    TokenProposal[] public tokenBatches;\n    Delegate[] public allDelegates;\n\n    uint[] public yesVotes;\n    address[] public consideredTokens;\n\n    DestructibleMiniMeTokenFactory public tokenFactory;\n    address public nectarToken;\n    mapping(address => bool) public admins;\n    mapping(address => bool) public isWinner;\n    mapping(address => bool) public tokenExists;\n    mapping(address => uint) public lastVote;\n\n    mapping(address => address[]) public myVotes;\n    mapping(address => address) public myDelegate;\n    mapping(address => bool) public isDelegate;\n\n    mapping(uint => mapping(address => bool)) public isVoted;\n\n    modifier onlyAdmins() {\n        require(isAdmin(msg.sender));\n        _;\n    }\n\n    constructor(address _tokenFactory, address _nectarToken) public {\n        tokenFactory = DestructibleMiniMeTokenFactory(_tokenFactory);\n        nectarToken = _nectarToken;\n        admins[msg.sender] = true;\n        isDelegate[address(0)] = true;\n    }\n\n    /// @notice Admins are able to approve proposal that someone submitted\n    /// @param _tokens the list of tokens in consideration during this period\n    /// @param _duration number of days for voting\n    /// @param _criteria number that determines how winner is selected\n    /// @param _extraData extra data for criteria parameter\n    /// @param _previousWinners addresses that won previous proposal\n    function startTokenVotes(address[] _tokens, uint _duration, uint _criteria, uint _extraData, address[] _previousWinners) public onlyAdmins {\n        require(_tokens.length <= MAX_CANDIDATES);\n        require(_previousWinners.length <= consideredTokens.length);\n\n        for (uint i=0; i < _previousWinners.length; i++) {\n            isWinner[_previousWinners[i]] = true;\n        }\n\n        if (_criteria == 1) {\n            // in other case all tokens would be winners\n            require(_extraData < consideredTokens.length);\n        }\n\n        uint _proposalId = tokenBatches.length;\n        if (_proposalId > 0) {\n            TokenProposal memory op = tokenBatches[_proposalId - 1];\n            DestructibleMiniMeToken(op.votingToken).recycle();\n        }\n        tokenBatches.length++;\n        TokenProposal storage p = tokenBatches[_proposalId];\n        p.duration = _duration * (1 days);\n\n        for (i = 0; i < _tokens.length; i++) {\n            require(!tokenExists[_tokens[i]]);\n\n            consideredTokens.push(_tokens[i]);\n            yesVotes.push(0);\n            lastVote[_tokens[i]] = _proposalId;\n            tokenExists[_tokens[i]] = true;\n        }\n\n        p.votingToken = tokenFactory.createDestructibleCloneToken(\n                nectarToken,\n                getBlockNumber(),\n                appendUintToString(\"EfxTokenVotes-\", _proposalId),\n                MiniMeToken(nectarToken).decimals(),\n                appendUintToString(\"EVT-\", _proposalId),\n                true);\n\n        p.startTime = now;\n        p.startBlock = getBlockNumber();\n        p.criteria = _criteria;\n        p.extraData = _extraData;\n\n        emit NewTokens(_proposalId);\n    }\n\n    /// @notice Vote for specific token with yes\n    /// @param _tokenIndex is the position from 0-9 in the token array of the chosen token\n    function vote(uint _tokenIndex, uint _amount) public {\n        require(myDelegate[msg.sender] == address(0));\n        require(!isWinner[consideredTokens[_tokenIndex]]);\n\n        // voting only on the most recent set of proposed tokens\n        require(tokenBatches.length > 0);\n        uint _proposalId = tokenBatches.length - 1;\n\n        require(isActive(_proposalId));\n        require(!isVoted[_proposalId][msg.sender]);\n\n        TokenProposal memory p = tokenBatches[_proposalId];\n\n        if (lastVote[consideredTokens[_tokenIndex]] < _proposalId) {\n            // if voting for this token for first time in current proposal, we need to deduce votes\n            // we deduce number of yes votes for diff of current proposal and lastVote time multiplied by 2\n            yesVotes[_tokenIndex] /= 2*(_proposalId - lastVote[consideredTokens[_tokenIndex]]);\n            lastVote[consideredTokens[_tokenIndex]] = _proposalId;\n        }\n\n        uint toBurn = _amount;\n        uint balance = DestructibleMiniMeToken(p.votingToken).balanceOf(msg.sender);\n\n        if (balance >= toBurn) {\n            toBurn = 0;\n        } else {\n            toBurn -= balance;\n        }\n\n        if (isDelegate[msg.sender]) {\n            for (uint i=0; i < myVotes[msg.sender].length; i++) {\n                address user = myVotes[msg.sender][i];\n                balance = DestructibleMiniMeToken(p.votingToken).balanceOf(user);\n\n                if (balance >= toBurn) {\n                    toBurn = 0;\n                } else {\n                    toBurn -= balance;\n                }\n            }\n        }\n\n        // if not 0 that means that user sent more to burn than he has\n        require(toBurn == 0);\n\n        yesVotes[_tokenIndex] += _amount;\n        // set the info that the user voted in this round\n        isVoted[_proposalId][msg.sender] = true;\n\n        emit Vote(_proposalId, msg.sender, consideredTokens[_tokenIndex], _amount);\n    }\n\n    function registerAsDelegate(bytes32 _storageHash) public {\n        // if not this, user is able to delegate vote and then after his delegate votes\n        // he can register as delegate and vote again\n        require(!isActive(tokenBatches.length - 1));\n        \n        if (myDelegate[msg.sender] != address(0)) {\n            address delegate = myDelegate[msg.sender];\n\n            for (uint i=0; i < myVotes[delegate].length; i++) {\n                if (myVotes[delegate][i] == msg.sender) {\n                    myVotes[delegate][i] = myVotes[delegate][myVotes[delegate].length-1];\n\n                    delete myVotes[delegate][myVotes[delegate].length-1];\n                    myVotes[delegate].length--;\n\n                    break;\n                }\n            }\n            myDelegate[msg.sender] = address(0);\n        }\n\n        isDelegate[msg.sender] = true;\n        allDelegates.push(Delegate({\n            user: msg.sender,\n            storageHash: _storageHash,\n            exists: true\n        }));\n    }\n\n    function delegateCount() public view returns(uint) {\n        return allDelegates.length;\n    }\n\n    /// @notice Delegate vote to other address\n    /// @param _to address who will be able to vote instead of you\n    function delegateVote(address _to) public {\n        require(isDelegate[_to]);\n        require(!isDelegate[msg.sender]);\n        require(!isActive(tokenBatches.length - 1));\n\n        if (myDelegate[msg.sender] != address(0)) {\n            address delegate = myDelegate[msg.sender];\n\n            for (uint i=0; i < myVotes[delegate].length; i++) {\n                if (myVotes[delegate][i] == msg.sender) {\n                    myVotes[delegate][i] = myVotes[delegate][myVotes[delegate].length-1];\n\n                    delete myVotes[delegate][myVotes[delegate].length-1];\n                    myVotes[delegate].length--;\n\n                    break;\n                }\n            }\n        }\n\n        myDelegate[msg.sender] = _to;\n        myVotes[_to].push(msg.sender);\n    }\n\n    function getWinners() public view returns(address[] winners) {\n        uint _proposalId = tokenBatches.length - 1;\n\n        TokenProposal memory p = tokenBatches[_proposalId];\n\n        // there is only one winner in criteria 0\n        if (p.criteria == 0) {\n            winners = new address[](1);\n            uint max = 0;\n\n            for (uint i=0; i < consideredTokens.length; i++) {\n                if (isWinner[consideredTokens[i]]) {\n                    continue;\n                }\n\n                if (isWinner[consideredTokens[max]]) {\n                    max = i;\n                }\n\n                if (getCurrentVotes(i) > getCurrentVotes(max)) {\n                    max = i;\n                }\n            }\n\n            winners[0] = consideredTokens[max];\n        }\n\n        // there is N winners in criteria 1\n        if (p.criteria == 1) {\n            uint count = 0;\n            uint[] memory indexesWithMostVotes = new uint[](p.extraData);\n            winners = new address[](p.extraData);\n\n            // for each token we check if he has more votes than last one,\n            // if it has we put it in array and always keep array sorted\n            for (i = 0; i < consideredTokens.length; i++) {\n                if (isWinner[consideredTokens[i]]) {\n                    continue;\n                }\n                if (count < p.extraData) {\n                    indexesWithMostVotes[count] = i;\n                    count++;\n                    continue;\n                }\n\n                // so we just do it once, sort all in descending order\n                if (count == p.extraData) {\n                    for (j = 0; j < indexesWithMostVotes.length; j++) {\n                        for (uint k = j+1; k < indexesWithMostVotes.length; k++) {\n                            if (getCurrentVotes(indexesWithMostVotes[j]) < getCurrentVotes(indexesWithMostVotes[k])) {\n                                uint help = indexesWithMostVotes[j];\n                                indexesWithMostVotes[j] = indexesWithMostVotes[k];\n                                indexesWithMostVotes[k] = help; \n                            }\n                        }\n                    }\n                }\n\n                uint last = p.extraData - 1;\n                if (getCurrentVotes(i) > getCurrentVotes(indexesWithMostVotes[last])) {\n                    indexesWithMostVotes[last] = i;\n\n                    for (uint j=last; j > 0; j--) {\n                        if (getCurrentVotes(indexesWithMostVotes[j]) > getCurrentVotes(indexesWithMostVotes[j-1])) {\n                            help = indexesWithMostVotes[j];\n                            indexesWithMostVotes[j] = indexesWithMostVotes[j-1];\n                            indexesWithMostVotes[j-1] = help; \n                        }\n                    }\n                }\n            }\n\n            for (i = 0; i < p.extraData; i++) {\n                winners[i] = consideredTokens[indexesWithMostVotes[i]];\n            }\n        }\n\n        // everybody who has over N votes are winners in criteria 2\n        if (p.criteria == 2) {\n            uint numOfTokens = 0;\n            for (i = 0; i < consideredTokens.length; i++) {\n                if (isWinner[consideredTokens[i]]) {\n                    continue;\n                }\n                if (getCurrentVotes(i) > p.extraData) {\n                    numOfTokens++;\n                }\n            }\n\n            winners = new address[](numOfTokens);\n            count = 0;\n            for (i = 0; i < consideredTokens.length; i++) {\n                if (isWinner[consideredTokens[i]]) {\n                    continue;\n                }\n                if (getCurrentVotes(i) > p.extraData) {\n                    winners[count] = consideredTokens[i];\n                    count++;\n                }\n            }\n        }\n    }\n\n    /// @notice Get number of proposals so you can know which is the last one\n    function numberOfProposals() public view returns(uint) {\n        return tokenBatches.length;\n    }\n\n    /// @notice Any admin is able to add new admin\n    /// @param _newAdmin Address of new admin\n    function addAdmin(address _newAdmin) public onlyAdmins {\n        admins[_newAdmin] = true;\n    }\n\n    /// @notice Only owner is able to remove admin\n    /// @param _admin Address of current admin\n    function removeAdmin(address _admin) public onlyOwner {\n        admins[_admin] = false;\n    }\n\n    /// @notice Get data about specific proposal\n    /// @param _proposalId Id of proposal\n    function proposal(uint _proposalId) public view returns(\n        uint _startBlock,\n        uint _startTime,\n        uint _duration,\n        bool _active,\n        bool _finalized,\n        uint[] _votes,\n        address[] _tokens,\n        address _votingToken,\n        bool _hasBalance\n    ) {\n        require(_proposalId < tokenBatches.length);\n\n        TokenProposal memory p = tokenBatches[_proposalId];\n        _startBlock = p.startBlock;\n        _startTime = p.startTime;\n        _duration = p.duration;\n        _finalized = (_startTime+_duration < now);\n        _active = isActive(_proposalId);\n        _votes = getVotes();\n        _tokens = getConsideredTokens();\n        _votingToken = p.votingToken;\n        _hasBalance = (p.votingToken == 0x0) ? false : (DestructibleMiniMeToken(p.votingToken).balanceOf(msg.sender) > 0);\n    }\n\n    function getConsideredTokens() public view returns(address[] tokens) {\n        tokens = new address[](consideredTokens.length);\n        \n        for (uint i = 0; i < consideredTokens.length; i++) {\n            if (!isWinner[consideredTokens[i]]) {\n                tokens[i] = consideredTokens[i];\n            } else {\n                tokens[i] = address(0);\n            }\n        }\n    }\n\n    function getVotes() public view returns(uint[] votes) {\n        votes = new uint[](consideredTokens.length);\n        \n        for (uint i = 0; i < consideredTokens.length; i++) {\n            votes[i] = getCurrentVotes(i);\n        }\n    }\n\n    function getCurrentVotes(uint index) public view returns(uint) {\n        uint _proposalId = tokenBatches.length - 1;\n        uint vote = yesVotes[index];\n        if (_proposalId > lastVote[consideredTokens[index]]) {\n            vote = yesVotes[index] / (2 * (_proposalId - lastVote[consideredTokens[index]]));\n        }\n\n        return vote;\n    }\n\n    function isAdmin(address _admin) public view returns(bool) {\n        return admins[_admin];\n    }\n\n    function proxyPayment(address ) public payable returns(bool) {\n        return false;\n    }\n\n    // transfer can use someone who didn't vote and doesn't have a set delegate\n    function onTransfer(address _from, address _to, uint _amount) public view returns(bool) {\n        uint _proposalId = tokenBatches.length - 1;\n\n        if (!isVoted[_proposalId][myDelegate[_from]] && !isVoted[_proposalId][_from]) {\n            return true;\n        } else {\n            return false;\n        }\n    }\n\n    function onApprove(address, address, uint ) public pure returns(bool) {\n        return true;\n    }\n\n    function getBlockNumber() internal constant returns (uint) {\n        return block.number;\n    }\n\n    function isActive(uint id) internal view returns (bool) {\n        TokenProposal memory p = tokenBatches[id];\n        bool _finalized = (p.startTime + p.duration < now);\n        return !_finalized && (p.startBlock < getBlockNumber());\n    }\n    \n    function appendUintToString(string inStr, uint v) private pure returns (string str) {\n        uint maxlength = 100;\n        bytes memory reversed = new bytes(maxlength);\n        uint i = 0;\n        if (v == 0) {\n            reversed[i++] = byte(48);\n        } else {\n            while (v != 0) {\n                uint remainder = v % 10;\n                v = v / 10;\n                reversed[i++] = byte(48 + remainder);\n            }\n        }\n        bytes memory inStrb = bytes(inStr);\n        bytes memory s = new bytes(inStrb.length + i);\n        uint j;\n        for (j = 0; j < inStrb.length; j++) {\n            s[j] = inStrb[j];\n        }\n        for (j = 0; j < i; j++) {\n            s[j + inStrb.length] = reversed[i - 1 - j];\n        }\n        str = string(s);\n    }\n\n    event Vote(uint indexed idProposal, address indexed _voter, address chosenToken, uint amount);\n    event NewTokens(uint indexed idProposal);\n}\n",
  "sourcePath": "/Users/nikolaklipa/Decenter/community-gateway/solidity/contracts/TokenListingManagerAdvanced.sol",
  "compiler": {
    "name": "solc",
    "version": "0.4.24+commit.e67f0147.Emscripten.clang"
  },
  "schemaVersion": "2.0.1",
  "updatedAt": "2018-09-12T15:34:12.197Z"
}