{
  "contractName": "TokenListingManagerAdvanced",
  "abi": [
    {
      "constant": true,
      "inputs": [
        {
          "name": "",
          "type": "address"
        }
      ],
      "name": "isDelegate",
      "outputs": [
        {
          "name": "",
          "type": "bool"
        }
      ],
      "payable": false,
      "stateMutability": "view",
      "type": "function"
    },
    {
      "constant": true,
      "inputs": [
        {
          "name": "",
          "type": "uint256"
        }
      ],
      "name": "yesVotes",
      "outputs": [
        {
          "name": "",
          "type": "uint256"
        }
      ],
      "payable": false,
      "stateMutability": "view",
      "type": "function"
    },
    {
      "constant": true,
      "inputs": [
        {
          "name": "",
          "type": "address"
        }
      ],
      "name": "admins",
      "outputs": [
        {
          "name": "",
          "type": "bool"
        }
      ],
      "payable": false,
      "stateMutability": "view",
      "type": "function"
    },
    {
      "constant": true,
      "inputs": [],
      "name": "TOKEN_FACTORY",
      "outputs": [
        {
          "name": "",
          "type": "address"
        }
      ],
      "payable": false,
      "stateMutability": "view",
      "type": "function"
    },
    {
      "constant": true,
      "inputs": [],
      "name": "NECTAR_TOKEN",
      "outputs": [
        {
          "name": "",
          "type": "address"
        }
      ],
      "payable": false,
      "stateMutability": "view",
      "type": "function"
    },
    {
      "constant": true,
      "inputs": [
        {
          "name": "",
          "type": "uint256"
        }
      ],
      "name": "consideredTokens",
      "outputs": [
        {
          "name": "",
          "type": "address"
        }
      ],
      "payable": false,
      "stateMutability": "view",
      "type": "function"
    },
    {
      "constant": true,
      "inputs": [
        {
          "name": "",
          "type": "address"
        }
      ],
      "name": "lastVote",
      "outputs": [
        {
          "name": "",
          "type": "uint256"
        }
      ],
      "payable": false,
      "stateMutability": "view",
      "type": "function"
    },
    {
      "constant": true,
      "inputs": [
        {
          "name": "",
          "type": "uint256"
        }
      ],
      "name": "tokenBatches",
      "outputs": [
        {
          "name": "startBlock",
          "type": "uint256"
        },
        {
          "name": "startTime",
          "type": "uint256"
        },
        {
          "name": "duration",
          "type": "uint256"
        },
        {
          "name": "votingToken",
          "type": "address"
        },
        {
          "name": "criteria",
          "type": "uint256"
        },
        {
          "name": "extraData",
          "type": "uint256"
        }
      ],
      "payable": false,
      "stateMutability": "view",
      "type": "function"
    },
    {
      "constant": true,
      "inputs": [],
      "name": "owner",
      "outputs": [
        {
          "name": "",
          "type": "address"
        }
      ],
      "payable": false,
      "stateMutability": "view",
      "type": "function"
    },
    {
      "constant": true,
      "inputs": [
        {
          "name": "",
          "type": "address"
        }
      ],
      "name": "myDelegate",
      "outputs": [
        {
          "name": "",
          "type": "address"
        }
      ],
      "payable": false,
      "stateMutability": "view",
      "type": "function"
    },
    {
      "constant": true,
      "inputs": [
        {
          "name": "",
          "type": "uint256"
        }
      ],
      "name": "allDelegates",
      "outputs": [
        {
          "name": "user",
          "type": "address"
        },
        {
          "name": "storageHash",
          "type": "bytes32"
        },
        {
          "name": "exists",
          "type": "bool"
        }
      ],
      "payable": false,
      "stateMutability": "view",
      "type": "function"
    },
    {
      "constant": true,
      "inputs": [
        {
          "name": "",
          "type": "address"
        }
      ],
      "name": "isWinner",
      "outputs": [
        {
          "name": "",
          "type": "bool"
        }
      ],
      "payable": false,
      "stateMutability": "view",
      "type": "function"
    },
    {
      "constant": true,
      "inputs": [],
      "name": "nectarToken",
      "outputs": [
        {
          "name": "",
          "type": "address"
        }
      ],
      "payable": false,
      "stateMutability": "view",
      "type": "function"
    },
    {
      "constant": true,
      "inputs": [
        {
          "name": "",
          "type": "address"
        }
      ],
      "name": "tokenExists",
      "outputs": [
        {
          "name": "",
          "type": "bool"
        }
      ],
      "payable": false,
      "stateMutability": "view",
      "type": "function"
    },
    {
      "constant": true,
      "inputs": [
        {
          "name": "",
          "type": "address"
        },
        {
          "name": "",
          "type": "uint256"
        }
      ],
      "name": "myVotes",
      "outputs": [
        {
          "name": "",
          "type": "address"
        }
      ],
      "payable": false,
      "stateMutability": "view",
      "type": "function"
    },
    {
      "constant": true,
      "inputs": [],
      "name": "tokenFactory",
      "outputs": [
        {
          "name": "",
          "type": "address"
        }
      ],
      "payable": false,
      "stateMutability": "view",
      "type": "function"
    },
    {
      "constant": true,
      "inputs": [],
      "name": "MAX_CANDIDATES",
      "outputs": [
        {
          "name": "",
          "type": "uint256"
        }
      ],
      "payable": false,
      "stateMutability": "view",
      "type": "function"
    },
    {
      "constant": false,
      "inputs": [
        {
          "name": "newOwner",
          "type": "address"
        }
      ],
      "name": "transferOwnership",
      "outputs": [],
      "payable": false,
      "stateMutability": "nonpayable",
      "type": "function"
    },
    {
      "inputs": [
        {
          "name": "_tokenFactory",
          "type": "address"
        },
        {
          "name": "_nectarToken",
          "type": "address"
        }
      ],
      "payable": false,
      "stateMutability": "nonpayable",
      "type": "constructor"
    },
    {
      "anonymous": false,
      "inputs": [
        {
          "indexed": false,
          "name": "a",
          "type": "address"
        },
        {
          "indexed": false,
          "name": "votes",
          "type": "uint256"
        }
      ],
      "name": "Log",
      "type": "event"
    },
    {
      "anonymous": false,
      "inputs": [
        {
          "indexed": false,
          "name": "a",
          "type": "address"
        }
      ],
      "name": "LogWin",
      "type": "event"
    },
    {
      "anonymous": false,
      "inputs": [
        {
          "indexed": true,
          "name": "idProposal",
          "type": "uint256"
        },
        {
          "indexed": true,
          "name": "_voter",
          "type": "address"
        },
        {
          "indexed": false,
          "name": "chosenToken",
          "type": "address"
        },
        {
          "indexed": false,
          "name": "amount",
          "type": "uint256"
        }
      ],
      "name": "Vote",
      "type": "event"
    },
    {
      "anonymous": false,
      "inputs": [
        {
          "indexed": true,
          "name": "idProposal",
          "type": "uint256"
        }
      ],
      "name": "NewTokens",
      "type": "event"
    },
    {
      "anonymous": false,
      "inputs": [
        {
          "indexed": true,
          "name": "previousOwner",
          "type": "address"
        },
        {
          "indexed": true,
          "name": "newOwner",
          "type": "address"
        }
      ],
      "name": "OwnershipTransferred",
      "type": "event"
    },
    {
      "constant": false,
      "inputs": [
        {
          "name": "_tokens",
          "type": "address[]"
        },
        {
          "name": "_duration",
          "type": "uint256"
        },
        {
          "name": "_criteria",
          "type": "uint256"
        },
        {
          "name": "_extraData",
          "type": "uint256"
        },
        {
          "name": "_previousWinners",
          "type": "address[]"
        }
      ],
      "name": "startTokenVotes",
      "outputs": [],
      "payable": false,
      "stateMutability": "nonpayable",
      "type": "function"
    },
    {
      "constant": false,
      "inputs": [
        {
          "name": "_tokenIndex",
          "type": "uint256"
        },
        {
          "name": "_amount",
          "type": "uint256"
        }
      ],
      "name": "vote",
      "outputs": [],
      "payable": false,
      "stateMutability": "nonpayable",
      "type": "function"
    },
    {
      "constant": false,
      "inputs": [
        {
          "name": "_storageHash",
          "type": "bytes32"
        }
      ],
      "name": "registerAsDelegate",
      "outputs": [],
      "payable": false,
      "stateMutability": "nonpayable",
      "type": "function"
    },
    {
      "constant": true,
      "inputs": [],
      "name": "delegateCount",
      "outputs": [
        {
          "name": "",
          "type": "uint256"
        }
      ],
      "payable": false,
      "stateMutability": "view",
      "type": "function"
    },
    {
      "constant": false,
      "inputs": [
        {
          "name": "_to",
          "type": "address"
        }
      ],
      "name": "delegateVote",
      "outputs": [],
      "payable": false,
      "stateMutability": "nonpayable",
      "type": "function"
    },
    {
      "constant": true,
      "inputs": [],
      "name": "getWinners",
      "outputs": [
        {
          "name": "winners",
          "type": "address[]"
        }
      ],
      "payable": false,
      "stateMutability": "view",
      "type": "function"
    },
    {
      "constant": true,
      "inputs": [],
      "name": "numberOfProposals",
      "outputs": [
        {
          "name": "",
          "type": "uint256"
        }
      ],
      "payable": false,
      "stateMutability": "view",
      "type": "function"
    },
    {
      "constant": false,
      "inputs": [
        {
          "name": "_newAdmin",
          "type": "address"
        }
      ],
      "name": "addAdmin",
      "outputs": [],
      "payable": false,
      "stateMutability": "nonpayable",
      "type": "function"
    },
    {
      "constant": false,
      "inputs": [
        {
          "name": "_admin",
          "type": "address"
        }
      ],
      "name": "removeAdmin",
      "outputs": [],
      "payable": false,
      "stateMutability": "nonpayable",
      "type": "function"
    },
    {
      "constant": true,
      "inputs": [
        {
          "name": "_proposalId",
          "type": "uint256"
        }
      ],
      "name": "proposal",
      "outputs": [
        {
          "name": "_startBlock",
          "type": "uint256"
        },
        {
          "name": "_startTime",
          "type": "uint256"
        },
        {
          "name": "_duration",
          "type": "uint256"
        },
        {
          "name": "_active",
          "type": "bool"
        },
        {
          "name": "_finalized",
          "type": "bool"
        },
        {
          "name": "_votes",
          "type": "uint256[]"
        },
        {
          "name": "_tokens",
          "type": "address[]"
        },
        {
          "name": "_votingToken",
          "type": "address"
        },
        {
          "name": "_hasBalance",
          "type": "bool"
        }
      ],
      "payable": false,
      "stateMutability": "view",
      "type": "function"
    },
    {
      "constant": true,
      "inputs": [],
      "name": "getConsideredTokens",
      "outputs": [
        {
          "name": "tokens",
          "type": "address[]"
        }
      ],
      "payable": false,
      "stateMutability": "view",
      "type": "function"
    },
    {
      "constant": true,
      "inputs": [],
      "name": "getVotes",
      "outputs": [
        {
          "name": "votes",
          "type": "uint256[]"
        }
      ],
      "payable": false,
      "stateMutability": "view",
      "type": "function"
    },
    {
      "constant": true,
      "inputs": [
        {
          "name": "index",
          "type": "uint256"
        }
      ],
      "name": "getCurrentVotes",
      "outputs": [
        {
          "name": "",
          "type": "uint256"
        }
      ],
      "payable": false,
      "stateMutability": "view",
      "type": "function"
    },
    {
      "constant": true,
      "inputs": [
        {
          "name": "_admin",
          "type": "address"
        }
      ],
      "name": "isAdmin",
      "outputs": [
        {
          "name": "",
          "type": "bool"
        }
      ],
      "payable": false,
      "stateMutability": "view",
      "type": "function"
    },
    {
      "constant": false,
      "inputs": [
        {
          "name": "",
          "type": "address"
        }
      ],
      "name": "proxyPayment",
      "outputs": [
        {
          "name": "",
          "type": "bool"
        }
      ],
      "payable": true,
      "stateMutability": "payable",
      "type": "function"
    },
    {
      "constant": true,
      "inputs": [
        {
          "name": "",
          "type": "address"
        },
        {
          "name": "",
          "type": "address"
        },
        {
          "name": "",
          "type": "uint256"
        }
      ],
      "name": "onTransfer",
      "outputs": [
        {
          "name": "",
          "type": "bool"
        }
      ],
      "payable": false,
      "stateMutability": "pure",
      "type": "function"
    },
    {
      "constant": true,
      "inputs": [
        {
          "name": "",
          "type": "address"
        },
        {
          "name": "",
          "type": "address"
        },
        {
          "name": "",
          "type": "uint256"
        }
      ],
      "name": "onApprove",
      "outputs": [
        {
          "name": "",
          "type": "bool"
        }
      ],
      "payable": false,
      "stateMutability": "pure",
      "type": "function"
    }
  ],
  "bytecode": "0x608060405234801561001057600080fd5b50604051604080612a4183398101604090815281516020928301516000805433600160a060020a031991821681178355600580548316600160a060020a03968716179055600680549092169490931693909317909255815260079092528120805460ff191660011790556129b790819061008a90396000f30060806040526004361061019d5763ffffffff60e060020a6000350416630777962781146101a25780630dc96015146101d75780631785f53c1461023c5780631b538bcc1461025f57806324d7806c146102895780632b8343c7146102aa57806330326c17146102c25780633bb8a87f146103ba5780633e38a2b7146103cf57806340128db3146103e4578063429b62e5146103fc5780634a3931491461041d5780635a58fe4b146104475780635fce4a181461047857806362fb9ed61461048d5780636accc8cf146104a557806370480275146104c65780637fe4aa6f146104e75780638d7af4731461053a5780638da5cb5b1461054f5780639132620314610564578063947dd6e5146105855780639d9ca28d146105c7578063a5df10ce146105e8578063b31e1d4d146105fd578063b33f78ca1461061e578063b384abef1461063f578063da682aeb1461041d578063dac4cc091461065a578063db93f3751461067e578063df15c37e1461071d578063e77772fe14610732578063f078609614610747578063f2fde38b1461075c578063f48c30541461077d575b600080fd5b3480156101ae57600080fd5b506101c3600160a060020a0360043516610791565b604080519115158252519081900360200190f35b3480156101e357600080fd5b506101ec6107a6565b60408051602080825283518183015283519192839290830191858101910280838360005b83811015610228578181015183820152602001610210565b505050509050019250505060405180910390f35b34801561024857600080fd5b5061025d600160a060020a0360043516610818565b005b34801561026b57600080fd5b50610277600435610850565b60408051918252519081900360200190f35b34801561029557600080fd5b506101c3600160a060020a0360043516610924565b3480156102b657600080fd5b50610277600435610942565b3480156102ce57600080fd5b506102da600435610961565b604080518a815260208082018b905291810189905287151560608201528615156080820152600160a060020a03841660e082015282151561010082015261012060a0820181815287519183019190915286519192909160c0840191610140850191898201910280838360005b8381101561035e578181015183820152602001610346565b50505050905001838103825286818151815260200191508051906020019060200280838360005b8381101561039d578181015183820152602001610385565b505050509050019b50505050505050505050505060405180910390f35b3480156103c657600080fd5b506101ec610af1565b3480156103db57600080fd5b50610277610bf7565b3480156103f057600080fd5b5061025d600435610bfe565b34801561040857600080fd5b506101c3600160a060020a0360043516610e94565b34801561042957600080fd5b506101c3600160a060020a0360043581169060243516604435610ea9565b34801561045357600080fd5b5061045c610eb2565b60408051600160a060020a039092168252519081900360200190f35b34801561048457600080fd5b5061045c610eca565b34801561049957600080fd5b5061045c600435610ee2565b3480156104b157600080fd5b50610277600160a060020a0360043516610f0a565b3480156104d257600080fd5b5061025d600160a060020a0360043516610f1c565b3480156104f357600080fd5b506104ff600435610f54565b60408051968752602087019590955285850193909352600160a060020a039091166060850152608084015260a0830152519081900360c00190f35b34801561054657600080fd5b50610277610fa4565b34801561055b57600080fd5b5061045c610faa565b34801561057057600080fd5b5061045c600160a060020a0360043516610fb9565b34801561059157600080fd5b5061059d600435610fd4565b60408051600160a060020a0390941684526020840192909252151582820152519081900360600190f35b3480156105d357600080fd5b506101c3600160a060020a0360043516611012565b3480156105f457600080fd5b5061045c611027565b34801561060957600080fd5b5061025d600160a060020a0360043516611036565b34801561062a57600080fd5b506101c3600160a060020a036004351661125e565b34801561064b57600080fd5b5061025d600435602435611273565b34801561066657600080fd5b5061045c600160a060020a0360043516602435611912565b34801561068a57600080fd5b506040805160206004803580820135838102808601850190965280855261025d953695939460249493850192918291850190849080828437505060408051602060608901358a01803582810280850184018652818552999c8b359c848d01359c968701359b919a509850608090950196509294508101928291850190849080828437509497506119499650505050505050565b34801561072957600080fd5b506101ec611f72565b34801561073e57600080fd5b5061045c612612565b34801561075357600080fd5b50610277612621565b34801561076857600080fd5b5061025d600160a060020a0360043516612626565b6101c3600160a060020a03600435166126ad565b600d6020526000908152604090205460ff1681565b606060006004805490506040519080825280602002602001820160405280156107d9578160200160208202803883390190505b509150600090505b600454811015610814576107f481610850565b828281518110151561080257fe5b602090810290910101526001016107e1565b5090565b600054600160a060020a0316331461082f57600080fd5b600160a060020a03166000908152600760205260409020805460ff19169055565b60015460038054600092600019019183918590811061086b57fe5b90600052602060002001549050600a600060048681548110151561088b57fe5b6000918252602080832090910154600160a060020a0316835282019290925260400190205482111561091d57600a60006004868154811015156108ca57fe5b600091825260208083209190910154600160a060020a0316835282019290925260400190205460038054918403600202918690811061090557fe5b906000526020600020015481151561091957fe5b0490505b9392505050565b600160a060020a031660009081526007602052604090205460ff1690565b600380548290811061095057fe5b600091825260209091200154905081565b6000806000806000606080600080610977612895565b6001548b1061098557600080fd5b600180548c90811061099357fe5b60009182526020918290206040805160c08101825260069093029091018054808452600182015494840185905260028201549284018390526003820154600160a060020a031660608501526004820154608085015260059091015460a08401529c50919a5090985042898b011096509050851586610a185750610a146126b3565b8151105b9650610a226107a6565b9450610a2c610af1565b60608201519094509250600160a060020a03831615610ade576060810151604080517f70a082310000000000000000000000000000000000000000000000000000000081523360048201529051600092600160a060020a0316916370a0823191602480830192602092919082900301818787803b158015610aac57600080fd5b505af1158015610ac0573d6000803e3d6000fd5b505050506040513d6020811015610ad657600080fd5b505111610ae1565b60005b9150509193959799909294969850565b60606000600480549050604051908082528060200260200182016040528015610b24578160200160208202803883390190505b509150600090505b6004548110156108145760086000600483815481101515610b4957fe5b6000918252602080832090910154600160a060020a0316835282019290925260400190205460ff161515610bc7576004805482908110610b8557fe5b6000918252602090912001548251600160a060020a0390911690839083908110610bab57fe5b600160a060020a03909216602092830290910190910152610bef565b60008282815181101515610bd757fe5b600160a060020a039092166020928302909101909101525b600101610b2c565b6002545b90565b336000908152600c60205260408120548190600160a060020a031615610dae575050336000908152600c6020526040812054600160a060020a0316905b600160a060020a0382166000908152600b6020526040902054811015610d9057600160a060020a0382166000908152600b60205260409020805433919083908110610c8257fe5b600091825260209091200154600160a060020a03161415610d8857600160a060020a0382166000908152600b6020526040902080546000198101908110610cc557fe5b6000918252602080832090910154600160a060020a038581168452600b9092526040909220805491909216919083908110610cfc57fe5b60009182526020808320919091018054600160a060020a031916600160a060020a039485161790559184168152600b9091526040902080546000198101908110610d4257fe5b600091825260208083209091018054600160a060020a0319169055600160a060020a0384168252600b905260409020805490610d829060001983016128d5565b50610d90565b600101610c3b565b336000908152600c602052604090208054600160a060020a03191690555b5050336000818152600d602090815260408083208054600160ff199182168117909255825160608101845295865292850195865290840181815260028054928301815590935292517f405787fa12a823e0f2b7631cc41b3ba8828b3321ca811111fa75cd3aa3bb5ace60039094029384018054600160a060020a031916600160a060020a0390921691909117905592517f405787fa12a823e0f2b7631cc41b3ba8828b3321ca811111fa75cd3aa3bb5acf830155517f405787fa12a823e0f2b7631cc41b3ba8828b3321ca811111fa75cd3aa3bb5ad09091018054909216901515179055565b60076020526000908152604090205460ff1681565b60019392505050565b736eb97237b8bc26e8057793200207bb0a2a83c34781565b73cc80c051057b774cd75067dc48f8987c4eb97a5e81565b6004805482908110610ef057fe5b600091825260209091200154600160a060020a0316905081565b600a6020526000908152604090205481565b610f2533610924565b1515610f3057600080fd5b600160a060020a03166000908152600760205260409020805460ff19166001179055565b6001805482908110610f6257fe5b600091825260209091206006909102018054600182015460028301546003840154600485015460059095015493955091939092600160a060020a039092169186565b60015490565b600054600160a060020a031681565b600c60205260009081526040902054600160a060020a031681565b6002805482908110610fe257fe5b6000918252602090912060039091020180546001820154600290920154600160a060020a03909116925060ff1683565b60086020526000908152604090205460ff1681565b600654600160a060020a031681565b600160a060020a0381166000908152600d6020526040812054819060ff16151561105f57600080fd5b336000908152600d602052604090205460ff161561107c57600080fd5b336000908152600c6020526040902054600160a060020a03161561120c575050336000908152600c6020526040812054600160a060020a0316905b600160a060020a0382166000908152600b602052604090205481101561120c57600160a060020a0382166000908152600b602052604090208054339190839081106110fe57fe5b600091825260209091200154600160a060020a0316141561120457600160a060020a0382166000908152600b602052604090208054600019810190811061114157fe5b6000918252602080832090910154600160a060020a038581168452600b909252604090922080549190921691908390811061117857fe5b60009182526020808320919091018054600160a060020a031916600160a060020a039485161790559184168152600b90915260409020805460001981019081106111be57fe5b600091825260208083209091018054600160a060020a0319169055600160a060020a0384168252600b9052604090208054906111fe9060001983016128d5565b5061120c565b6001016110b7565b5050336000818152600c602090815260408083208054600160a060020a03909616600160a060020a031996871681179091558352600b8252822080546001810182559083529120018054909216179055565b60096020526000908152604090205460ff1681565b600061127d612895565b336000908152600c6020526040812054819081908190600160a060020a0316156112a657600080fd5b6008600060048a8154811015156112b957fe5b6000918252602080832090910154600160a060020a0316835282019290925260400190205460ff16156112eb57600080fd5b6001546000106112fa57600080fd5b60018054600019810197508790811061130f57fe5b60009182526020918290206040805160c081018252600690930290910180548352600181015493830184905260028101549183018290526003810154600160a060020a03166060840152600481015460808401526005015460a083015290965001421061137b57600080fd5b85600a600060048b81548110151561138f57fe5b6000918252602080832090910154600160a060020a03168352820192909252604001902054101561146257600a600060048a8154811015156113cd57fe5b600091825260208083209190910154600160a060020a0316835282019290925260400190205460038054918803600202918a90811061140857fe5b90600052602060002001600082825481151561142057fe5b049250508190555085600a600060048b81548110151561143c57fe5b6000918252602080832090910154600160a060020a031683528201929092526040019020555b8693508460600151600160a060020a03166370a08231336040518263ffffffff1660e060020a0281526004018082600160a060020a0316600160a060020a03168152602001915050602060405180830381600087803b1580156114c457600080fd5b505af11580156114d8573d6000803e3d6000fd5b505050506040513d60208110156114ee57600080fd5b5051925083831061159e576060850151604080517fd3ce77fe000000000000000000000000000000000000000000000000000000008152336004820152602481018790529051600160a060020a039092169163d3ce77fe916044808201926020929091908290030181600087803b15801561156857600080fd5b505af115801561157c573d6000803e3d6000fd5b505050506040513d602081101561159257600080fd5b506000945061163f9050565b6060850151604080517fd3ce77fe000000000000000000000000000000000000000000000000000000008152336004820152602481018690529051600160a060020a039092169163d3ce77fe916044808201926020929091908290030181600087803b15801561160d57600080fd5b505af1158015611621573d6000803e3d6000fd5b505050506040513d602081101561163757600080fd5b505092829003925b600091505b336000908152600b60205260409020548210156118775783151561166757611877565b336000908152600b6020526040902080548390811061168257fe5b9060005260206000200160009054906101000a9004600160a060020a031690508460600151600160a060020a03166370a08231826040518263ffffffff1660e060020a0281526004018082600160a060020a0316600160a060020a03168152602001915050602060405180830381600087803b15801561170157600080fd5b505af1158015611715573d6000803e3d6000fd5b505050506040513d602081101561172b57600080fd5b505192508383106117d3578460600151600160a060020a031663d3ce77fe82866040518363ffffffff1660e060020a0281526004018083600160a060020a0316600160a060020a0316815260200182815260200192505050602060405180830381600087803b15801561179d57600080fd5b505af11580156117b1573d6000803e3d6000fd5b505050506040513d60208110156117c757600080fd5b506000945061186c9050565b8460600151600160a060020a031663d3ce77fe82856040518363ffffffff1660e060020a0281526004018083600160a060020a0316600160a060020a0316815260200182815260200192505050602060405180830381600087803b15801561183a57600080fd5b505af115801561184e573d6000803e3d6000fd5b505050506040513d602081101561186457600080fd5b505092829003925b600190910190611644565b831561188257600080fd5b8660038981548110151561189257fe5b60009182526020909120018054909101905560048054339188917fd3e566fa4d4d8b17c007ba24b9dbb382c9185a03c9ef59477ee3c6132ca0a30691908c9081106118d957fe5b6000918252602091829020015460408051600160a060020a0390921682529181018c905281519081900390910190a35050505050505050565b600b6020528160005260406000208181548110151561192d57fe5b600091825260209091200154600160a060020a03169150829050565b600080611954612895565b600061195f33610924565b151561196a57600080fd5b88516014101561197957600080fd5b6004548551111561198957600080fd5b600093505b84518410156119e95760016008600087878151811015156119ab57fe5b602090810291909101810151600160a060020a03168252810191909152604001600020805460ff19169115159190911790556001939093019261198e565b8660011415611a00576004548610611a0057600080fd5b60015492506000831115611ae857600180546000198501908110611a2057fe5b600091825260208083206040805160c0810182526006909402909101805484526001810154928401929092526002820154838201526003820154600160a060020a031660608401819052600480840154608086015260059093015460a085015281517f0f23cbaa000000000000000000000000000000000000000000000000000000008152915193965093630f23cbaa9382840193919290919082900301818387803b158015611acf57600080fd5b505af1158015611ae3573d6000803e3d6000fd5b505050505b6001805490611af9908281016128fe565b506001805484908110611b0857fe5b906000526020600020906006020190508762015180028160020181905550600093505b8851841015611c8457600960008a86815181101515611b4657fe5b6020908102909101810151600160a060020a031682528101919091526040016000205460ff1615611b7657600080fd5b60048985815181101515611b8657fe5b6020908102919091018101518254600180820185556000948552928420018054600160a060020a031916600160a060020a0390921691909117905560038054918201815582527fc2575a0e9e593c00f959f8c92f12db2869c3395a3b0502d05e2516446f71f85b0181905589518491600a918c9088908110611c0457fe5b90602001906020020151600160a060020a0316600160a060020a03168152602001908152602001600020819055506001600960008b87815181101515611c4657fe5b602090810291909101810151600160a060020a03168252810191909152604001600020805460ff191691151591909117905560019390930192611b2b565b600554600654600160a060020a039182169163408e097c9116611ca56126b3565b611ce46040805190810160405280600e81526020017f456678546f6b656e566f7465732d000000000000000000000000000000000000815250886126b7565b600660009054906101000a9004600160a060020a0316600160a060020a031663313ce5676040518163ffffffff1660e060020a028152600401602060405180830381600087803b158015611d3757600080fd5b505af1158015611d4b573d6000803e3d6000fd5b505050506040513d6020811015611d6157600080fd5b505160408051808201909152600e81527f456678546f6b656e566f7465732d0000000000000000000000000000000000006020820152611da1908a6126b7565b60405160e060020a63ffffffff8816028152600160a060020a038616600482019081526024820186905260ff84166064830152600160a4830181905260c060448401908152865160c4850152865191939091608482019160e40190602089019080838360005b83811015611e1f578181015183820152602001611e07565b50505050905090810190601f168015611e4c5780820380516001836020036101000a031916815260200191505b50838103825285518152855160209182019187019080838360005b83811015611e7f578181015183820152602001611e67565b50505050905090810190601f168015611eac5780820380516001836020036101000a031916815260200191505b5098505050505050505050602060405180830381600087803b158015611ed157600080fd5b505af1158015611ee5573d6000803e3d6000fd5b505050506040513d6020811015611efb57600080fd5b5051600382018054600160a060020a031916600160a060020a03909216919091179055426001820155611f2c6126b3565b8155600481018790556005810186905560405183907fd7c894eab7da0862dea424c47485ac49eab56e3690186d9ee97bfc895e0eb5e990600090a2505050505050505050565b60606000611f7e612895565b60008060006060600080600080600060018080549050039a5060018b815481101515611fa657fe5b60009182526020918290206040805160c0810182526006909302909101805483526001810154938301939093526002830154908201526003820154600160a060020a0316606082015260048201546080820181905260059092015460a08201529a50151561213a576040805160018082528183019092529060208083019080388339019050509b5060009850600097505b6004548810156120f1576008600060048a81548110151561205457fe5b6000918252602080832090910154600160a060020a0316835282019290925260400190205460ff1615612086576120e6565b6008600060048b81548110151561209957fe5b6000918252602080832090910154600160a060020a0316835282019290925260400190205460ff16156120ca578798505b6120d389610850565b6120dc89610850565b11156120e6578798505b600190970196612037565b600480548a9081106120ff57fe5b60009182526020822001548d51600160a060020a03909116918e91811061212257fe5b600160a060020a039092166020928302909101909101525b89608001516001141561248857600096508960a00151604051908082528060200260200182016040528015612179578160200160208202803883390190505b5095508960a001516040519080825280602002602001820160405280156121aa578160200160208202803883390190505b509b50600097505b60045488101561240b576008600060048a8154811015156121cf57fe5b6000918252602080832090910154600160a060020a0316835282019290925260400190205460ff161561220157612400565b8960a001518710156122315787868881518110151561221c57fe5b60209081029091010152600190960195612400565b8960a0015187141561230d57600091505b855182101561230d578160010194505b85518510156123025761227b868681518110151561226c57fe5b90602001906020020151610850565b61228c878481518110151561226c57fe5b10156122f75785828151811015156122a057fe5b90602001906020020151935085858151811015156122ba57fe5b9060200190602002015186838151811015156122d257fe5b60209081029091010152855184908790879081106122ec57fe5b602090810290910101525b600190940193612252565b600190910190612242565b60018a60a00151039250612328868481518110151561226c57fe5b61233189610850565b11156124005787868481518110151561234657fe5b602090810290910101528291505b600082111561240057612371866001840381518110151561226c57fe5b612382878481518110151561226c57fe5b11156123f457858281518110151561239657fe5b90602001906020020151935085600183038151811015156123b357fe5b9060200190602002015186838151811015156123cb57fe5b6020908102909101015285518490879060001985019081106123e957fe5b602090810290910101525b60001990910190612354565b6001909701966121b2565b600097505b8960a00151881015612488576004868981518110151561242c57fe5b602090810290910101518154811061244057fe5b6000918252602090912001548c51600160a060020a03909116908d908a90811061246657fe5b600160a060020a03909216602092830290910190910152600190970196612410565b896080015160021415612604575060009650865b60045488101561250e576008600060048a8154811015156124b957fe5b6000918252602080832090910154600160a060020a0316835282019290925260400190205460ff16156124eb57612503565b8960a001516124f989610850565b1115612503576001015b60019097019661249c565b80604051908082528060200260200182016040528015612538578160200160208202803883390190505b509b5060009650600097505b600454881015612604576008600060048a81548110151561256157fe5b6000918252602080832090910154600160a060020a0316835282019290925260400190205460ff1615612593576125f9565b8960a001516125a189610850565b11156125f95760048054899081106125b557fe5b6000918252602090912001548c51600160a060020a03909116908d90899081106125db57fe5b600160a060020a039092166020928302909101909101526001909601955b600190970196612544565b505050505050505050505090565b600554600160a060020a031681565b601481565b600054600160a060020a0316331461263d57600080fd5b600160a060020a038116151561265257600080fd5b60008054604051600160a060020a03808516939216917f8be0079c531659141344cd1fd0a4f28419497f9722a3daafe3b4186f6b6457e091a360008054600160a060020a031916600160a060020a0392909216919091179055565b50600090565b4390565b60408051606480825260a0820190925260609190829060009081908390819083908760208201610c80803883390190505095506000945088151561274657855160018601957f300000000000000000000000000000000000000000000000000000000000000091889190811061272957fe5b906020010190600160f860020a031916908160001a905350612791565b8815612791578551600a808b049a6001880197919006955060f860020a603087010291889190811061277457fe5b906020010190600160f860020a031916908160001a905350612746565b899250848351016040519080825280601f01601f1916602001820160405280156127c5578160200160208202803883390190505b509150600090505b82518110156128255782818151811015156127e457fe5b90602001015160f860020a900460f860020a02828281518110151561280557fe5b906020010190600160f860020a031916908160001a9053506001016127cd565b5060005b84811015612888578581600187030381518110151561284457fe5b90602001015160f860020a900460f860020a02828451830181518110151561286857fe5b906020010190600160f860020a031916908160001a905350600101612829565b5098975050505050505050565b60c0604051908101604052806000815260200160008152602001600081526020016000600160a060020a0316815260200160008152602001600081525090565b8154818355818111156128f9576000838152602090206128f991810190830161292a565b505050565b8154818355818111156128f9576006028160060283600052602060002091820191016128f99190612944565b610bfb91905b808211156108145760008155600101612930565b610bfb91905b808211156108145760008082556001820181905560028201819055600382018054600160a060020a031916905560048201819055600582015560060161294a5600a165627a7a723058205570e3ff5ae327584058b4514041476dc9b56cbf651cf6f714bb472c3b161b290029",
  "source": "pragma solidity ^0.4.24;\n\nimport \"./DestructibleMiniMeTokenFactory.sol\";\nimport \"./Ownable.sol\";\n\n/*\n    Copyright 2018, Will Harborne @ Ethfinex\n*/\n\n/// @title ProposalManager Contract\n/// @author Will Harborne @ Ethfinex\ncontract TokenListingManagerAdvanced is Ownable {\n\n    address public constant NECTAR_TOKEN = 0xCc80C051057B774cD75067Dc48f8987C4Eb97A5e;\n    address public constant TOKEN_FACTORY = 0x6EB97237B8bc26E8057793200207bB0a2A83C347;\n    uint public constant MAX_CANDIDATES = 20;\n\n    struct TokenProposal {\n        uint startBlock;\n        uint startTime;\n        uint duration;\n        address votingToken;\n        // criteria values\n        // 0. only first one win the vote; \n        // 1. top N (number in extraData) win the vote;\n        // 2. All over N (number in extra data) votes win the vote;\n        uint criteria; \n        uint extraData;\n    }\n\n    struct Delegate {\n        address user;\n        bytes32 storageHash;\n        bool exists;\n    }\n\n    TokenProposal[] public tokenBatches;\n    Delegate[] public allDelegates;\n\n    uint[] public yesVotes;\n    address[] public consideredTokens;\n\n    DestructibleMiniMeTokenFactory public tokenFactory;\n    address public nectarToken;\n    mapping(address => bool) public admins;\n    mapping(address => bool) public isWinner;\n    mapping(address => bool) public tokenExists;\n    mapping(address => uint) public lastVote;\n\n    mapping(address => address[]) public myVotes;\n    mapping(address => address) public myDelegate;\n    mapping(address => bool) public isDelegate;\n\n    modifier onlyAdmins() {\n        require(isAdmin(msg.sender));\n        _;\n    }\n\n    constructor(address _tokenFactory, address _nectarToken) public {\n        tokenFactory = DestructibleMiniMeTokenFactory(_tokenFactory);\n        nectarToken = _nectarToken;\n        admins[msg.sender] = true;\n    }\n\n    /// @notice Admins are able to approve proposal that someone submitted\n    /// @param _tokens the list of tokens in consideration during this period\n    /// @param _duration number of days for voting\n    /// @param _criteria number that determines how winner is selected\n    /// @param _extraData extra data for criteria parameter\n    /// @param _previousWinners addresses that won previous proposal\n    function startTokenVotes(address[] _tokens, uint _duration, uint _criteria, uint _extraData, address[] _previousWinners) public onlyAdmins {\n        require(_tokens.length <= MAX_CANDIDATES);\n        require(_previousWinners.length <= consideredTokens.length);\n\n        for (uint i=0; i < _previousWinners.length; i++) {\n            isWinner[_previousWinners[i]] = true;\n        }\n\n        if (_criteria == 1) {\n            // in other case all tokens would be winners\n            require(_extraData < consideredTokens.length);\n        }\n\n        uint _proposalId = tokenBatches.length;\n        if (_proposalId > 0) {\n            TokenProposal memory op = tokenBatches[_proposalId - 1];\n            DestructibleMiniMeToken(op.votingToken).recycle();\n        }\n        tokenBatches.length++;\n        TokenProposal storage p = tokenBatches[_proposalId];\n        p.duration = _duration * (1 days);\n\n        for (i = 0; i < _tokens.length; i++) {\n            require(!tokenExists[_tokens[i]]);\n\n            consideredTokens.push(_tokens[i]);\n            yesVotes.push(0);\n            lastVote[_tokens[i]] = _proposalId;\n            tokenExists[_tokens[i]] = true;\n        }\n\n        p.votingToken = tokenFactory.createDestructibleCloneToken(\n                nectarToken,\n                getBlockNumber(),\n                appendUintToString(\"EfxTokenVotes-\", _proposalId),\n                MiniMeToken(nectarToken).decimals(),\n                appendUintToString(\"EfxTokenVotes-\", _proposalId),\n                true);\n\n        p.startTime = now;\n        p.startBlock = getBlockNumber();\n        p.criteria = _criteria;\n        p.extraData = _extraData;\n\n        emit NewTokens(_proposalId);\n    }\n\n    /// @notice Vote for specific token with yes\n    /// @param _tokenIndex is the position from 0-9 in the token array of the chosen token\n    function vote(uint _tokenIndex, uint _amount) public {\n        require(myDelegate[msg.sender] == address(0));\n        require(!isWinner[consideredTokens[_tokenIndex]]);\n\n        // voting only on the most recent set of proposed tokens\n        require(tokenBatches.length > 0);\n        uint _proposalId = tokenBatches.length - 1;\n\n        TokenProposal memory p = tokenBatches[_proposalId];\n\n        require(now < p.startTime + p.duration);\n\n        if (lastVote[consideredTokens[_tokenIndex]] < _proposalId) {\n            // if voting for this token for first time, we need to deduce votes\n            // we deduce number of yes votes for diff of current proposal and lastVote time multiplied by 2\n            yesVotes[_tokenIndex] /= 2*(_proposalId - lastVote[consideredTokens[_tokenIndex]]);\n            lastVote[consideredTokens[_tokenIndex]] = _proposalId;\n        }\n\n        uint toBurn = _amount;\n        uint balance = DestructibleMiniMeToken(p.votingToken).balanceOf(msg.sender);\n        \n        if (balance >= toBurn) {\n            DestructibleMiniMeToken(p.votingToken).destroyTokens(msg.sender, toBurn);\n            toBurn = 0;\n        } else {\n            DestructibleMiniMeToken(p.votingToken).destroyTokens(msg.sender, balance);\n            toBurn -= balance;\n        }\n        \n        for (uint i=0; i < myVotes[msg.sender].length; i++) {\n            if (toBurn == 0) {\n                break;\n            }\n\n            address user = myVotes[msg.sender][i];\n            balance = DestructibleMiniMeToken(p.votingToken).balanceOf(user);\n        \n            if (balance >= toBurn) {\n                DestructibleMiniMeToken(p.votingToken).destroyTokens(user, toBurn);\n                toBurn = 0;\n            } else {\n                DestructibleMiniMeToken(p.votingToken).destroyTokens(user, balance);\n                toBurn -= balance;\n            }\n        }\n        // if not 0 that means that user sent more to burn than he has\n        require(toBurn == 0);\n\n        yesVotes[_tokenIndex] += _amount;\n\n        emit Vote(_proposalId, msg.sender, consideredTokens[_tokenIndex], _amount);\n    }\n\n    function registerAsDelegate(bytes32 _storageHash) public {\n        if (myDelegate[msg.sender] != address(0)) {\n            address delegate = myDelegate[msg.sender];\n\n            for (uint i=0; i < myVotes[delegate].length; i++) {\n                if (myVotes[delegate][i] == msg.sender) {\n                    myVotes[delegate][i] = myVotes[delegate][myVotes[delegate].length-1];\n\n                    delete myVotes[delegate][myVotes[delegate].length-1];\n                    myVotes[delegate].length--;\n\n                    break;\n                }\n            }\n            myDelegate[msg.sender] = address(0);\n        }\n\n        isDelegate[msg.sender] = true;\n        allDelegates.push(Delegate({\n            user: msg.sender,\n            storageHash: _storageHash,\n            exists: true\n        }));\n    }\n\n    function delegateCount() public view returns(uint) {\n        return allDelegates.length;\n    }\n\n    /// @notice Delegate vote to other address\n    /// @param _to address who will be able to vote instead of you\n    function delegateVote(address _to) public {\n        require(isDelegate[_to]);\n        require(!isDelegate[msg.sender]);\n\n        if (myDelegate[msg.sender] != address(0)) {\n            address delegate = myDelegate[msg.sender];\n\n            for (uint i=0; i < myVotes[delegate].length; i++) {\n                if (myVotes[delegate][i] == msg.sender) {\n                    myVotes[delegate][i] = myVotes[delegate][myVotes[delegate].length-1];\n\n                    delete myVotes[delegate][myVotes[delegate].length-1];\n                    myVotes[delegate].length--;\n\n                    break;\n                }\n            }\n        }\n\n        myDelegate[msg.sender] = _to;\n        myVotes[_to].push(msg.sender);\n    }\n\n    event Log(address a, uint votes);\n    event LogWin(address a);\n\n    function getWinners() public view returns(address[] winners) {\n        uint _proposalId = tokenBatches.length - 1;\n\n        TokenProposal memory p = tokenBatches[_proposalId];\n\n        // there is only one winner in criteria 0\n        if (p.criteria == 0) {\n            winners = new address[](1);\n            uint max = 0;\n\n            for (uint i=0; i < consideredTokens.length; i++) {\n                if (isWinner[consideredTokens[i]]) {\n                    continue;\n                }\n\n                if (isWinner[consideredTokens[max]]) {\n                    max = i;\n                }\n\n                if (getCurrentVotes(i) > getCurrentVotes(max)) {\n                    max = i;\n                }\n            }\n\n            winners[0] = consideredTokens[max];\n        }\n\n        // there is N winners in criteria 1\n        if (p.criteria == 1) {\n            uint count = 0;\n            uint[] memory indexesWithMostVotes = new uint[](p.extraData);\n            winners = new address[](p.extraData);\n\n            // for each token we check if he has more votes than last one,\n            // if it has we put it in array and always keep array sorted\n            for (i = 0; i < consideredTokens.length; i++) {\n                if (isWinner[consideredTokens[i]]) {\n                    continue;\n                }\n                if (count < p.extraData) {\n                    indexesWithMostVotes[count] = i;\n                    count++;\n                    continue;\n                }\n\n                // so we just do it once, sort all in descending order\n                if (count == p.extraData) {\n                    for (j = 0; j < indexesWithMostVotes.length; j++) {\n                        for (uint k = j+1; k < indexesWithMostVotes.length; k++) {\n                            if (getCurrentVotes(indexesWithMostVotes[j]) < getCurrentVotes(indexesWithMostVotes[k])) {\n                                uint help = indexesWithMostVotes[j];\n                                indexesWithMostVotes[j] = indexesWithMostVotes[k];\n                                indexesWithMostVotes[k] = help; \n                            }\n                        }\n                    }\n                }\n\n                uint last = p.extraData - 1;\n                if (getCurrentVotes(i) > getCurrentVotes(indexesWithMostVotes[last])) {\n                    indexesWithMostVotes[last] = i;\n\n                    for (uint j=last; j > 0; j--) {\n                        if (getCurrentVotes(indexesWithMostVotes[j]) > getCurrentVotes(indexesWithMostVotes[j-1])) {\n                            help = indexesWithMostVotes[j];\n                            indexesWithMostVotes[j] = indexesWithMostVotes[j-1];\n                            indexesWithMostVotes[j-1] = help; \n                        }\n                    }\n                }\n            }\n\n            for (i = 0; i < p.extraData; i++) {\n                winners[i] = consideredTokens[indexesWithMostVotes[i]];\n            }\n        }\n\n        // everybody who has over N votes are winners in criteria 2\n        if (p.criteria == 2) {\n            uint numOfTokens = 0;\n            for (i = 0; i < consideredTokens.length; i++) {\n                if (isWinner[consideredTokens[i]]) {\n                    continue;\n                }\n                if (getCurrentVotes(i) > p.extraData) {\n                    numOfTokens++;\n                }\n            }\n\n            winners = new address[](numOfTokens);\n            count = 0;\n            for (i = 0; i < consideredTokens.length; i++) {\n                if (isWinner[consideredTokens[i]]) {\n                    continue;\n                }\n                if (getCurrentVotes(i) > p.extraData) {\n                    winners[count] = consideredTokens[i];\n                    count++;\n                }\n            }\n        }\n    }\n\n    /// @notice Get number of proposals so you can know which is the last one\n    function numberOfProposals() public view returns(uint) {\n        return tokenBatches.length;\n    }\n\n    /// @notice Any admin is able to add new admin\n    /// @param _newAdmin Address of new admin\n    function addAdmin(address _newAdmin) public onlyAdmins {\n        admins[_newAdmin] = true;\n    }\n\n    /// @notice Only owner is able to remove admin\n    /// @param _admin Address of current admin\n    function removeAdmin(address _admin) public onlyOwner {\n        admins[_admin] = false;\n    }\n\n    /// @notice Get data about specific proposal\n    /// @param _proposalId Id of proposal\n    function proposal(uint _proposalId) public view returns(\n        uint _startBlock,\n        uint _startTime,\n        uint _duration,\n        bool _active,\n        bool _finalized,\n        uint[] _votes,\n        address[] _tokens,\n        address _votingToken,\n        bool _hasBalance\n    ) {\n        require(_proposalId < tokenBatches.length);\n\n        TokenProposal memory p = tokenBatches[_proposalId];\n        _startBlock = p.startBlock;\n        _startTime = p.startTime;\n        _duration = p.duration;\n        _finalized = (_startTime+_duration < now);\n        _active = !_finalized && (p.startBlock < getBlockNumber());\n        _votes = getVotes();\n        _tokens = getConsideredTokens();\n        _votingToken = p.votingToken;\n        _hasBalance = (p.votingToken == 0x0) ? false : (DestructibleMiniMeToken(p.votingToken).balanceOf(msg.sender) > 0);\n    }\n\n    function getConsideredTokens() public view returns(address[] tokens) {\n        tokens = new address[](consideredTokens.length);\n        \n        for (uint i = 0; i < consideredTokens.length; i++) {\n            if (!isWinner[consideredTokens[i]]) {\n                tokens[i] = consideredTokens[i];\n            } else {\n                tokens[i] = address(0);\n            }\n        }\n    }\n\n    function getVotes() public view returns(uint[] votes) {\n        votes = new uint[](consideredTokens.length);\n        \n        for (uint i = 0; i < consideredTokens.length; i++) {\n            votes[i] = getCurrentVotes(i);\n        }\n    }\n\n    function getCurrentVotes(uint index) public view returns(uint) {\n        uint _proposalId = tokenBatches.length - 1;\n        uint vote = yesVotes[index];\n        if (_proposalId > lastVote[consideredTokens[index]]) {\n            vote = yesVotes[index] / (2 * (_proposalId - lastVote[consideredTokens[index]]));\n        }\n\n        return vote;\n    }\n\n    function isAdmin(address _admin) public view returns(bool) {\n        return admins[_admin];\n    }\n\n    function proxyPayment(address ) public payable returns(bool) {\n        return false;\n    }\n\n    function onTransfer(address, address, uint ) public pure returns(bool) {\n        return true;\n    }\n\n    function onApprove(address, address, uint ) public pure returns(bool) {\n        return true;\n    }\n\n    function getBlockNumber() internal constant returns (uint) {\n        return block.number;\n    }\n\n    function appendUintToString(string inStr, uint v) private pure returns (string str) {\n        uint maxlength = 100;\n        bytes memory reversed = new bytes(maxlength);\n        uint i = 0;\n        if (v == 0) {\n            reversed[i++] = byte(48);\n        } else {\n            while (v != 0) {\n                uint remainder = v % 10;\n                v = v / 10;\n                reversed[i++] = byte(48 + remainder);\n            }\n        }\n        bytes memory inStrb = bytes(inStr);\n        bytes memory s = new bytes(inStrb.length + i);\n        uint j;\n        for (j = 0; j < inStrb.length; j++) {\n            s[j] = inStrb[j];\n        }\n        for (j = 0; j < i; j++) {\n            s[j + inStrb.length] = reversed[i - 1 - j];\n        }\n        str = string(s);\n    }\n\n    event Vote(uint indexed idProposal, address indexed _voter, address chosenToken, uint amount);\n    event NewTokens(uint indexed idProposal);\n}\n",
  "sourcePath": "/Users/nikolaklipa/Decenter/community-gateway/solidity/contracts/TokenListingManagerAdvanced.sol",
  "compiler": {
    "name": "solc",
    "version": "0.4.24+commit.e67f0147.Emscripten.clang"
  },
  "schemaVersion": "2.0.1",
  "updatedAt": "2018-08-31T18:37:45.239Z"
}