{
  "contractName": "TokenListingManager",
  "abi": [
    {
      "constant": true,
      "inputs": [
        {
          "name": "",
          "type": "uint256"
        }
      ],
      "name": "yesVotes",
      "outputs": [
        {
          "name": "",
          "type": "uint256"
        }
      ],
      "payable": false,
      "stateMutability": "view",
      "type": "function"
    },
    {
      "constant": true,
      "inputs": [
        {
          "name": "",
          "type": "address"
        }
      ],
      "name": "allWinners",
      "outputs": [
        {
          "name": "",
          "type": "bool"
        }
      ],
      "payable": false,
      "stateMutability": "view",
      "type": "function"
    },
    {
      "constant": true,
      "inputs": [
        {
          "name": "",
          "type": "address"
        }
      ],
      "name": "admins",
      "outputs": [
        {
          "name": "",
          "type": "bool"
        }
      ],
      "payable": false,
      "stateMutability": "view",
      "type": "function"
    },
    {
      "constant": true,
      "inputs": [],
      "name": "TOKEN_FACTORY",
      "outputs": [
        {
          "name": "",
          "type": "address"
        }
      ],
      "payable": false,
      "stateMutability": "view",
      "type": "function"
    },
    {
      "constant": true,
      "inputs": [],
      "name": "NECTAR_TOKEN",
      "outputs": [
        {
          "name": "",
          "type": "address"
        }
      ],
      "payable": false,
      "stateMutability": "view",
      "type": "function"
    },
    {
      "constant": true,
      "inputs": [
        {
          "name": "",
          "type": "uint256"
        }
      ],
      "name": "consideredTokens",
      "outputs": [
        {
          "name": "",
          "type": "address"
        }
      ],
      "payable": false,
      "stateMutability": "view",
      "type": "function"
    },
    {
      "constant": true,
      "inputs": [
        {
          "name": "",
          "type": "uint256"
        }
      ],
      "name": "tokenBatches",
      "outputs": [
        {
          "name": "startBlock",
          "type": "uint256"
        },
        {
          "name": "startTime",
          "type": "uint256"
        },
        {
          "name": "duration",
          "type": "uint256"
        },
        {
          "name": "votingToken",
          "type": "address"
        },
        {
          "name": "criteria",
          "type": "uint256"
        },
        {
          "name": "extraData",
          "type": "uint256"
        }
      ],
      "payable": false,
      "stateMutability": "view",
      "type": "function"
    },
    {
      "constant": true,
      "inputs": [],
      "name": "owner",
      "outputs": [
        {
          "name": "",
          "type": "address"
        }
      ],
      "payable": false,
      "stateMutability": "view",
      "type": "function"
    },
    {
      "constant": true,
      "inputs": [],
      "name": "nectarToken",
      "outputs": [
        {
          "name": "",
          "type": "address"
        }
      ],
      "payable": false,
      "stateMutability": "view",
      "type": "function"
    },
    {
      "constant": true,
      "inputs": [
        {
          "name": "",
          "type": "address"
        }
      ],
      "name": "tokenExists",
      "outputs": [
        {
          "name": "",
          "type": "bool"
        }
      ],
      "payable": false,
      "stateMutability": "view",
      "type": "function"
    },
    {
      "constant": true,
      "inputs": [],
      "name": "tokenFactory",
      "outputs": [
        {
          "name": "",
          "type": "address"
        }
      ],
      "payable": false,
      "stateMutability": "view",
      "type": "function"
    },
    {
      "constant": true,
      "inputs": [],
      "name": "MAX_CANDIDATES",
      "outputs": [
        {
          "name": "",
          "type": "uint256"
        }
      ],
      "payable": false,
      "stateMutability": "view",
      "type": "function"
    },
    {
      "constant": false,
      "inputs": [
        {
          "name": "newOwner",
          "type": "address"
        }
      ],
      "name": "transferOwnership",
      "outputs": [],
      "payable": false,
      "stateMutability": "nonpayable",
      "type": "function"
    },
    {
      "inputs": [
        {
          "name": "_tokenFactory",
          "type": "address"
        },
        {
          "name": "_nectarToken",
          "type": "address"
        }
      ],
      "payable": false,
      "stateMutability": "nonpayable",
      "type": "constructor"
    },
    {
      "anonymous": false,
      "inputs": [
        {
          "indexed": true,
          "name": "idProposal",
          "type": "uint256"
        },
        {
          "indexed": true,
          "name": "_voter",
          "type": "address"
        },
        {
          "indexed": false,
          "name": "chosenToken",
          "type": "address"
        },
        {
          "indexed": false,
          "name": "amount",
          "type": "uint256"
        }
      ],
      "name": "Vote",
      "type": "event"
    },
    {
      "anonymous": false,
      "inputs": [
        {
          "indexed": true,
          "name": "idProposal",
          "type": "uint256"
        }
      ],
      "name": "NewTokens",
      "type": "event"
    },
    {
      "anonymous": false,
      "inputs": [
        {
          "indexed": true,
          "name": "previousOwner",
          "type": "address"
        },
        {
          "indexed": true,
          "name": "newOwner",
          "type": "address"
        }
      ],
      "name": "OwnershipTransferred",
      "type": "event"
    },
    {
      "constant": false,
      "inputs": [
        {
          "name": "_tokens",
          "type": "address[]"
        },
        {
          "name": "_duration",
          "type": "uint256"
        },
        {
          "name": "_criteria",
          "type": "uint256"
        },
        {
          "name": "_extraData",
          "type": "uint256"
        },
        {
          "name": "_previousWinners",
          "type": "address[]"
        }
      ],
      "name": "startTokenVotes",
      "outputs": [],
      "payable": false,
      "stateMutability": "nonpayable",
      "type": "function"
    },
    {
      "constant": false,
      "inputs": [
        {
          "name": "_tokenIndex",
          "type": "uint256"
        },
        {
          "name": "_amount",
          "type": "uint256"
        }
      ],
      "name": "vote",
      "outputs": [],
      "payable": false,
      "stateMutability": "nonpayable",
      "type": "function"
    },
    {
      "constant": true,
      "inputs": [
        {
          "name": "_proposalId",
          "type": "uint256"
        }
      ],
      "name": "getWinners",
      "outputs": [
        {
          "name": "winners",
          "type": "address[]"
        }
      ],
      "payable": false,
      "stateMutability": "view",
      "type": "function"
    },
    {
      "constant": true,
      "inputs": [],
      "name": "numberOfProposals",
      "outputs": [
        {
          "name": "",
          "type": "uint256"
        }
      ],
      "payable": false,
      "stateMutability": "view",
      "type": "function"
    },
    {
      "constant": false,
      "inputs": [
        {
          "name": "_newAdmin",
          "type": "address"
        }
      ],
      "name": "addAdmin",
      "outputs": [],
      "payable": false,
      "stateMutability": "nonpayable",
      "type": "function"
    },
    {
      "constant": false,
      "inputs": [
        {
          "name": "_admin",
          "type": "address"
        }
      ],
      "name": "removeAdmin",
      "outputs": [],
      "payable": false,
      "stateMutability": "nonpayable",
      "type": "function"
    },
    {
      "constant": true,
      "inputs": [
        {
          "name": "_proposalId",
          "type": "uint256"
        }
      ],
      "name": "proposal",
      "outputs": [
        {
          "name": "_startBlock",
          "type": "uint256"
        },
        {
          "name": "_startTime",
          "type": "uint256"
        },
        {
          "name": "_duration",
          "type": "uint256"
        },
        {
          "name": "_active",
          "type": "bool"
        },
        {
          "name": "_finalized",
          "type": "bool"
        },
        {
          "name": "_votes",
          "type": "uint256[]"
        },
        {
          "name": "_tokens",
          "type": "address[]"
        },
        {
          "name": "_votingToken",
          "type": "address"
        },
        {
          "name": "_hasBalance",
          "type": "bool"
        }
      ],
      "payable": false,
      "stateMutability": "view",
      "type": "function"
    },
    {
      "constant": true,
      "inputs": [
        {
          "name": "_admin",
          "type": "address"
        }
      ],
      "name": "isAdmin",
      "outputs": [
        {
          "name": "",
          "type": "bool"
        }
      ],
      "payable": false,
      "stateMutability": "view",
      "type": "function"
    },
    {
      "constant": false,
      "inputs": [
        {
          "name": "",
          "type": "address"
        }
      ],
      "name": "proxyPayment",
      "outputs": [
        {
          "name": "",
          "type": "bool"
        }
      ],
      "payable": true,
      "stateMutability": "payable",
      "type": "function"
    },
    {
      "constant": true,
      "inputs": [
        {
          "name": "",
          "type": "address"
        },
        {
          "name": "",
          "type": "address"
        },
        {
          "name": "",
          "type": "uint256"
        }
      ],
      "name": "onTransfer",
      "outputs": [
        {
          "name": "",
          "type": "bool"
        }
      ],
      "payable": false,
      "stateMutability": "pure",
      "type": "function"
    },
    {
      "constant": true,
      "inputs": [
        {
          "name": "",
          "type": "address"
        },
        {
          "name": "",
          "type": "address"
        },
        {
          "name": "",
          "type": "uint256"
        }
      ],
      "name": "onApprove",
      "outputs": [
        {
          "name": "",
          "type": "bool"
        }
      ],
      "payable": false,
      "stateMutability": "pure",
      "type": "function"
    }
  ],
  "bytecode": "0x608060405234801561001057600080fd5b50604051604080611d1683398101604090815281516020928301516000805433600160a060020a031991821681178355600480548316600160a060020a03968716179055600580549092169490931693909317909255815260069092528120805460ff19166001179055611c8c90819061008a90396000f3006080604052600436106101245763ffffffff60e060020a6000350416631785f53c811461012957806324d7806c1461014c5780632b8343c714610181578063302eff45146101ab57806330326c17146101cc578063429b62e5146102c45780634a393149146102e55780635a58fe4b1461030f5780635fce4a181461034057806362fb9ed6146103555780636b1426a41461036d57806370480275146103d55780637fe4aa6f146103f65780638d7af473146104495780638da5cb5b1461045e578063a5df10ce14610473578063b33f78ca14610488578063b384abef146104a9578063da682aeb146102e5578063db93f375146104c4578063e77772fe14610563578063f078609614610578578063f2fde38b1461058d578063f48c3054146105ae575b600080fd5b34801561013557600080fd5b5061014a600160a060020a03600435166105c2565b005b34801561015857600080fd5b5061016d600160a060020a03600435166105fa565b604080519115158252519081900360200190f35b34801561018d57600080fd5b50610199600435610618565b60408051918252519081900360200190f35b3480156101b757600080fd5b5061016d600160a060020a0360043516610637565b3480156101d857600080fd5b506101e460043561064c565b604080518a815260208082018b905291810189905287151560608201528615156080820152600160a060020a03841660e082015282151561010082015261012060a0820181815287519183019190915286519192909160c0840191610140850191898201910280838360005b83811015610268578181015183820152602001610250565b50505050905001838103825286818151815260200191508051906020019060200280838360005b838110156102a757818101518382015260200161028f565b505050509050019b50505050505050505050505060405180910390f35b3480156102d057600080fd5b5061016d600160a060020a0360043516610874565b3480156102f157600080fd5b5061016d600160a060020a0360043581169060243516604435610889565b34801561031b57600080fd5b50610324610892565b60408051600160a060020a039092168252519081900360200190f35b34801561034c57600080fd5b506103246108aa565b34801561036157600080fd5b506103246004356108c2565b34801561037957600080fd5b506103856004356108ea565b60408051602080825283518183015283519192839290830191858101910280838360005b838110156103c15781810151838201526020016103a9565b505050509050019250505060405180910390f35b3480156103e157600080fd5b5061014a600160a060020a0360043516610dd4565b34801561040257600080fd5b5061040e600435610e0c565b60408051968752602087019590955285850193909352600160a060020a039091166060850152608084015260a0830152519081900360c00190f35b34801561045557600080fd5b50610199610e5c565b34801561046a57600080fd5b50610324610e63565b34801561047f57600080fd5b50610324610e72565b34801561049457600080fd5b5061016d600160a060020a0360043516610e81565b3480156104b557600080fd5b5061014a600435602435610e96565b3480156104d057600080fd5b506040805160206004803580820135838102808601850190965280855261014a953695939460249493850192918291850190849080828437505060408051602060608901358a01803582810280850184018652818552999c8b359c848d01359c968701359b919a509850608090950196509294508101928291850190849080828437509497506111059650505050505050565b34801561056f57600080fd5b506103246118c9565b34801561058457600080fd5b506101996118d8565b34801561059957600080fd5b5061014a600160a060020a03600435166118dd565b61016d600160a060020a0360043516611971565b600054600160a060020a031633146105d957600080fd5b600160a060020a03166000908152600660205260409020805460ff19169055565b600160a060020a031660009081526006602052604090205460ff1690565b600280548290811061062657fe5b600091825260209091200154905081565b60076020526000908152604090205460ff1681565b6000806000806000606080600080610662611b59565b6001548b1061067057600080fd5b600180548c90811061067e57fe5b60009182526020918290206040805160c08101825260069093029091018054808452600182015494840185905260028201549284018390526003820154600160a060020a031660608501526004820154608085015260059091015460a08401529c50919a5090985042898b01109650905085158661070357506106ff611977565b8151105b6002805460408051602080840282018101909252828152939a5083018282801561074c57602002820191906000526020600020905b815481526020019060010190808311610738575b5050505050945060038054806020026020016040519081016040528092919081815260200182805480156107a957602002820191906000526020600020905b8154600160a060020a0316815260019091019060200180831161078b575b50505060608401519296509194505050600160a060020a03831615610861576060810151604080517f70a082310000000000000000000000000000000000000000000000000000000081523360048201529051600092600160a060020a0316916370a0823191602480830192602092919082900301818787803b15801561082f57600080fd5b505af1158015610843573d6000803e3d6000fd5b505050506040513d602081101561085957600080fd5b505111610864565b60005b9150509193959799909294969850565b60066020526000908152604090205460ff1681565b60019392505050565b736eb97237b8bc26e8057793200207bb0a2a83c34781565b73cc80c051057b774cd75067dc48f8987c4eb97a5e81565b60038054829081106108d057fe5b600091825260209091200154600160a060020a0316905081565b60606108f4611b59565b600080606060008060008060006001805490508b10151561091457600080fd5b600180548c90811061092257fe5b60009182526020918290206040805160c0810182526006909302909101805483526001810154938301939093526002830154908201526003820154600160a060020a0316606082015260048201546080820181905260059092015460a082015299501515610a4e57604080516001808252818301909252906020808301908038833901905050995060009750600096505b600354871015610a055760028054899081106109cb57fe5b90600052602060002001546002888154811015156109e557fe5b906000526020600020015411156109fa578697505b6001909601956109b3565b6003805489908110610a1357fe5b60009182526020822001548b51600160a060020a03909116918c918110610a3657fe5b600160a060020a039092166020928302909101909101525b886080015160011415610cb2578860a00151604051908082528060200260200182016040528015610a89578160200160208202803883390190505b5095508860a00151604051908082528060200260200182016040528015610aba578160200160208202803883390190505b509950600096505b600354871015610c355760018960a0015103945060028686815181101515610ae657fe5b6020908102909101015181548110610afa57fe5b9060005260206000200154600288815481101515610b1457fe5b90600052602060002001541115610c2a57868686815181101515610b3457fe5b602090810290910101528493505b6000841115610c2a5760028660018603815181101515610b5e57fe5b6020908102909101015181548110610b7257fe5b906000526020600020015460028786815181101515610b8d57fe5b6020908102909101015181548110610ba157fe5b90600052602060002001541115610c1e578584815181101515610bc057fe5b9060200190602002015192508560018503815181101515610bdd57fe5b906020019060200201518685815181101515610bf557fe5b602090810290910101528551839087906000198701908110610c1357fe5b602090810290910101525b60001990930192610b42565b600190960195610ac2565b600096505b8860a00151871015610cb25760038688815181101515610c5657fe5b6020908102909101015181548110610c6a57fe5b6000918252602090912001548a51600160a060020a03909116908b9089908110610c9057fe5b600160a060020a03909216602092830290910190910152600190960195610c3a565b886080015160021415610dc65760009150600096505b600354871015610d085760a08901516002805489908110610ce557fe5b90600052602060002001541115610cfd576001909101905b600190960195610cc8565b81604051908082528060200260200182016040528015610d32578160200160208202803883390190505b50995060009050600096505b600354871015610dc65760a08901516002805489908110610d5b57fe5b90600052602060002001541115610dbb576003805488908110610d7a57fe5b6000918252602090912001548a51600160a060020a03909116908b9083908110610da057fe5b600160a060020a039092166020928302909101909101526001015b600190960195610d3e565b505050505050505050919050565b610ddd336105fa565b1515610de857600080fd5b600160a060020a03166000908152600660205260409020805460ff19166001179055565b6001805482908110610e1a57fe5b600091825260209091206006909102018054600182015460028301546003840154600485015460059095015493955091939092600160a060020a039092169186565b6001545b90565b600054600160a060020a031681565b600554600160a060020a031681565b60086020526000908152604090205460ff1681565b6000610ea0611b59565b6001546000908110610eb157600080fd5b600180546000198101945084908110610ec657fe5b60009182526020918290206040805160c081018252600690930290910180548352600181015493830184905260028101549183018290526003810154600160a060020a03166060840152600481015460808401526005015460a0830152909350014210610f3257600080fd5b8160600151600160a060020a03166370a08231336040518263ffffffff1660e060020a0281526004018082600160a060020a0316600160a060020a03168152602001915050602060405180830381600087803b158015610f9157600080fd5b505af1158015610fa5573d6000803e3d6000fd5b505050506040513d6020811015610fbb57600080fd5b5051905083811015610fcc57600080fd5b6060820151604080517f23b872dd000000000000000000000000000000000000000000000000000000008152336004820152306024820152604481018790529051600160a060020a03909216916323b872dd916064808201926020929091908290030181600087803b15801561104157600080fd5b505af1158015611055573d6000803e3d6000fd5b505050506040513d602081101561106b57600080fd5b5051151561107857600080fd5b8360028681548110151561108857fe5b60009182526020909120018054909101905560038054339185917fd3e566fa4d4d8b17c007ba24b9dbb382c9185a03c9ef59477ee3c6132ca0a3069190899081106110cf57fe5b6000918252602091829020015460408051600160a060020a03909216825291810189905281519081900390910190a35050505050565b600080611110611b59565b600061111b336105fa565b151561112657600080fd5b88516014101561113557600080fd5b6003548551111561114557600080fd5b600093505b84518410156111a557600160076000878781518110151561116757fe5b602090810291909101810151600160a060020a03168252810191909152604001600020805460ff19169115159190911790556001939093019261114a565b86600114156111bb57885186106111bb57600080fd5b600154925060008311156112a3576001805460001985019081106111db57fe5b600091825260208083206040805160c0810182526006909402909101805484526001810154928401929092526002820154838201526003820154600160a060020a031660608401819052600480840154608086015260059093015460a085015281517f0f23cbaa000000000000000000000000000000000000000000000000000000008152915193965093630f23cbaa9382840193919290919082900301818387803b15801561128a57600080fd5b505af115801561129e573d6000803e3d6000fd5b505050505b60018054906112b490828101611b99565b5060018054849081106112c357fe5b906000526020600020906006020190508762015180028160020181905550600093505b6003548410156114a4576007600060038681548110151561130357fe5b6000918252602080832090910154600160a060020a0316835282019290925260400190205460ff16156114585760038054600019810190811061134257fe5b60009182526020909120015460038054600160a060020a03909216918690811061136857fe5b6000918252602090912001805473ffffffffffffffffffffffffffffffffffffffff1916600160a060020a03929092169190911790556002805460001981019081106113b057fe5b90600052602060002001546002858154811015156113ca57fe5b6000918252602090912001556002805460001981019081106113e857fe5b600091825260208220015560038054600019810190811061140557fe5b6000918252602090912001805473ffffffffffffffffffffffffffffffffffffffff19169055600280549061143e906000198301611bca565b506003805490611452906000198301611bca565b5061149f565b6002808581548110151561146857fe5b906000526020600020015481151561147c57fe5b0460028581548110151561148c57fe5b6000918252602090912001556001909301925b6112e6565b600093505b88518410156115ce57600860008a868151811015156114c457fe5b6020908102909101810151600160a060020a031682528101919091526040016000205460ff16156114f457600080fd5b6003898581518110151561150457fe5b602090810291909101810151825460018082018555600094855292842001805473ffffffffffffffffffffffffffffffffffffffff1916600160a060020a039092169190911790556002805480830182559083527f405787fa12a823e0f2b7631cc41b3ba8828b3321ca811111fa75cd3aa3bb5ace018290558a5190916008918c908890811061159057fe5b602090810291909101810151600160a060020a03168252810191909152604001600020805460ff1916911515919091179055600193909301926114a9565b600454600554600160a060020a039182169163408e097c91166115ef611977565b61162e6040805190810160405280600e81526020017f456678546f6b656e566f7465732d0000000000000000000000000000000000008152508861197b565b600560009054906101000a9004600160a060020a0316600160a060020a031663313ce5676040518163ffffffff1660e060020a028152600401602060405180830381600087803b15801561168157600080fd5b505af1158015611695573d6000803e3d6000fd5b505050506040513d60208110156116ab57600080fd5b505160408051808201909152600e81527f456678546f6b656e566f7465732d00000000000000000000000000000000000060208201526116eb908a61197b565b60405160e060020a63ffffffff8816028152600160a060020a038616600482019081526024820186905260ff84166064830152600160a4830181905260c060448401908152865160c4850152865191939091608482019160e40190602089019080838360005b83811015611769578181015183820152602001611751565b50505050905090810190601f1680156117965780820380516001836020036101000a031916815260200191505b50838103825285518152855160209182019187019080838360005b838110156117c95781810151838201526020016117b1565b50505050905090810190601f1680156117f65780820380516001836020036101000a031916815260200191505b5098505050505050505050602060405180830381600087803b15801561181b57600080fd5b505af115801561182f573d6000803e3d6000fd5b505050506040513d602081101561184557600080fd5b505160038201805473ffffffffffffffffffffffffffffffffffffffff1916600160a060020a03909216919091179055426001820155611883611977565b8155600481018790556005810186905560405183907fd7c894eab7da0862dea424c47485ac49eab56e3690186d9ee97bfc895e0eb5e990600090a2505050505050505050565b600454600160a060020a031681565b601481565b600054600160a060020a031633146118f457600080fd5b600160a060020a038116151561190957600080fd5b60008054604051600160a060020a03808516939216917f8be0079c531659141344cd1fd0a4f28419497f9722a3daafe3b4186f6b6457e091a36000805473ffffffffffffffffffffffffffffffffffffffff1916600160a060020a0392909216919091179055565b50600090565b4390565b60408051606480825260a0820190925260609190829060009081908390819083908760208201610c808038833901905050955060009450881515611a0a57855160018601957f30000000000000000000000000000000000000000000000000000000000000009188919081106119ed57fe5b906020010190600160f860020a031916908160001a905350611a55565b8815611a55578551600a808b049a6001880197919006955060f860020a6030870102918891908110611a3857fe5b906020010190600160f860020a031916908160001a905350611a0a565b899250848351016040519080825280601f01601f191660200182016040528015611a89578160200160208202803883390190505b509150600090505b8251811015611ae9578281815181101515611aa857fe5b90602001015160f860020a900460f860020a028282815181101515611ac957fe5b906020010190600160f860020a031916908160001a905350600101611a91565b5060005b84811015611b4c5785816001870303815181101515611b0857fe5b90602001015160f860020a900460f860020a028284518301815181101515611b2c57fe5b906020010190600160f860020a031916908160001a905350600101611aed565b5098975050505050505050565b60c0604051908101604052806000815260200160008152602001600081526020016000600160a060020a0316815260200160008152602001600081525090565b815481835581811115611bc557600602816006028360005260206000209182019101611bc59190611bee565b505050565b815481835581811115611bc557600083815260209020611bc5918101908301611c46565b610e6091905b80821115611c42576000808255600182018190556002820181905560038201805473ffffffffffffffffffffffffffffffffffffffff19169055600482018190556005820155600601611bf4565b5090565b610e6091905b80821115611c425760008155600101611c4c5600a165627a7a72305820d51582c881c365dd56c4f1f09b81cd389ffb488db1cbd9b12bc028b6d044ea1e0029",
  "source": "pragma solidity ^0.4.24;\n\nimport \"./DestructibleMiniMeTokenFactory.sol\";\nimport \"./Ownable.sol\";\n\n/*\n    Copyright 2018, Will Harborne @ Ethfinex\n*/\n\n/// @title ProposalManager Contract\n/// @author Will Harborne @ Ethfinex\ncontract TokenListingManager is Ownable {\n\n    address public constant NECTAR_TOKEN = 0xCc80C051057B774cD75067Dc48f8987C4Eb97A5e;\n    address public constant TOKEN_FACTORY = 0x6EB97237B8bc26E8057793200207bB0a2A83C347;\n    uint public constant MAX_CANDIDATES = 20;\n\n    struct TokenProposal {\n        uint startBlock;\n        uint startTime;\n        uint duration;\n        address votingToken;\n        // criteria values\n        // 0. only first one win the vote; \n        // 1. top N (number in extraData) win the vote;\n        // 2. All over N (number in extra data) votes win the vote;\n        uint criteria; \n        uint extraData;\n    }\n\n    TokenProposal[] public tokenBatches;\n\n    uint[] public yesVotes;\n    address[] public consideredTokens;\n\n    DestructibleMiniMeTokenFactory public tokenFactory;\n    address public nectarToken;\n    mapping(address => bool) public admins;\n    mapping(address => bool) public allWinners;\n    mapping(address => bool) public tokenExists;\n\n    modifier onlyAdmins() {\n        require(isAdmin(msg.sender));\n        _;\n    }\n\n    constructor(address _tokenFactory, address _nectarToken) public {\n        tokenFactory = DestructibleMiniMeTokenFactory(_tokenFactory);\n        nectarToken = _nectarToken;\n        admins[msg.sender] = true;\n    }\n\n    /// @notice Admins are able to approve proposal that someone submitted\n    /// @param _tokens the list of tokens in consideration during this period\n    /// @param _duration number of days for voting\n    /// @param _criteria number that determines how winner is selected\n    /// @param _extraData extra data for criteria parameter\n    /// @param _previousWinners addresses that won previous proposal\n    function startTokenVotes(address[] _tokens, uint _duration, uint _criteria, uint _extraData, address[] _previousWinners) public onlyAdmins {\n        require(_tokens.length <= MAX_CANDIDATES);\n        require(_previousWinners.length <= consideredTokens.length);\n\n        for (uint i=0; i < _previousWinners.length; i++) {\n            allWinners[_previousWinners[i]] = true;\n        }\n\n        if (_criteria == 1) {\n            // in other case all tokens would be winners\n            require(_extraData < _tokens.length);\n        }\n\n        uint _proposalId = tokenBatches.length;\n        if (_proposalId > 0) {\n            TokenProposal memory op = tokenBatches[_proposalId - 1];\n            DestructibleMiniMeToken(op.votingToken).recycle();\n        }\n        tokenBatches.length++;\n        TokenProposal storage p = tokenBatches[_proposalId];\n        p.duration = _duration * (1 days);\n       \n        i = 0;\n        while (i < consideredTokens.length) {\n            if (allWinners[consideredTokens[i]]) {\n                consideredTokens[i] = consideredTokens[consideredTokens.length-1];\n                yesVotes[i] = yesVotes[yesVotes.length-1];\n\n                delete yesVotes[yesVotes.length-1];\n                delete consideredTokens[consideredTokens.length-1];\n                yesVotes.length--;\n                consideredTokens.length--;\n            } else {\n                yesVotes[i] = yesVotes[i] / 2;\n                i++;\n            }\n        }\n\n        for (i = 0; i < _tokens.length; i++) {\n            require(!tokenExists[_tokens[i]]);\n\n            consideredTokens.push(_tokens[i]);\n            yesVotes.push(0);\n            tokenExists[_tokens[i]] = true;\n        }\n\n        p.votingToken = tokenFactory.createDestructibleCloneToken(\n                nectarToken,\n                getBlockNumber(),\n                appendUintToString(\"EfxTokenVotes-\", _proposalId),\n                MiniMeToken(nectarToken).decimals(),\n                appendUintToString(\"EfxTokenVotes-\", _proposalId),\n                true);\n\n        p.startTime = now;\n        p.startBlock = getBlockNumber();\n        p.criteria = _criteria;\n        p.extraData = _extraData;\n\n        emit NewTokens(_proposalId);\n    }\n\n    /// @notice Vote for specific token with yes\n    /// @param _tokenIndex is the position from 0-9 in the token array of the chosen token\n    function vote(uint _tokenIndex, uint _amount) public {\n        // voting only on the most recent set of proposed tokens\n        require(tokenBatches.length > 0);\n        uint _proposalId = tokenBatches.length - 1;\n\n        TokenProposal memory p = tokenBatches[_proposalId];\n\n        require(now < p.startTime + p.duration);\n\n        uint amount = DestructibleMiniMeToken(p.votingToken).balanceOf(msg.sender);\n        require(amount >= _amount);\n\n        require(DestructibleMiniMeToken(p.votingToken).transferFrom(msg.sender, address(this), _amount));\n\n        yesVotes[_tokenIndex] += _amount;\n\n        emit Vote(_proposalId, msg.sender, consideredTokens[_tokenIndex], _amount);\n    }\n\n    function getWinners(uint _proposalId) public view returns(address[] winners) {\n        require(_proposalId < tokenBatches.length);\n\n        TokenProposal memory p = tokenBatches[_proposalId];\n\n        // there is only one winner in criteria 0\n        if (p.criteria == 0) {\n            winners = new address[](1);\n            uint max = 0;\n\n            for (uint i=0; i < consideredTokens.length; i++) {\n                if (yesVotes[i] > yesVotes[max]) {\n                    max = i;\n                }\n            }\n\n            winners[0] = consideredTokens[max];\n        }\n\n        // there is N winners in criteria 1\n        if (p.criteria == 1) {\n            uint[] memory indexesWithMostVotes = new uint[](p.extraData);\n            winners = new address[](p.extraData);\n\n            // for each token we check if he has more votes than last one,\n            // if it has we put it in array and always keep array sorted\n            for (i = 0; i < consideredTokens.length; i++) {\n                uint last = p.extraData - 1;\n                if (yesVotes[i] > yesVotes[indexesWithMostVotes[last]]) {\n                    indexesWithMostVotes[last] = i;\n\n                    for (uint j=last; j > 0; j--) {\n                        if (yesVotes[indexesWithMostVotes[j]] > yesVotes[indexesWithMostVotes[j-1]]) {\n                            uint help = indexesWithMostVotes[j];\n                            indexesWithMostVotes[j] = indexesWithMostVotes[j-1];\n                            indexesWithMostVotes[j-1] = help; \n                        }\n                    }\n                }\n            }\n\n            for (i = 0; i < p.extraData; i++) {\n                winners[i] = consideredTokens[indexesWithMostVotes[i]];\n            }\n        }\n\n        // everybody who has over N votes are winners in criteria 2\n        if (p.criteria == 2) {\n            uint numOfTokens = 0;\n            for (i = 0; i < consideredTokens.length; i++) {\n                if (yesVotes[i] > p.extraData) {\n                    numOfTokens++;\n                }\n            }\n\n            winners = new address[](numOfTokens);\n            uint count = 0;\n            for (i = 0; i < consideredTokens.length; i++) {\n                if (yesVotes[i] > p.extraData) {\n                    winners[count] = consideredTokens[i];\n                    count++;\n                }\n            }\n        }\n    }\n\n    /// @notice Get number of proposals so you can know which is the last one\n    function numberOfProposals() public view returns(uint) {\n        return tokenBatches.length;\n    }\n\n    /// @notice Any admin is able to add new admin\n    /// @param _newAdmin Address of new admin\n    function addAdmin(address _newAdmin) public onlyAdmins {\n        admins[_newAdmin] = true;\n    }\n\n    /// @notice Only owner is able to remove admin\n    /// @param _admin Address of current admin\n    function removeAdmin(address _admin) public onlyOwner {\n        admins[_admin] = false;\n    }\n\n    /// @notice Get data about specific proposal\n    /// @param _proposalId Id of proposal\n    function proposal(uint _proposalId) public view returns(\n        uint _startBlock,\n        uint _startTime,\n        uint _duration,\n        bool _active,\n        bool _finalized,\n        uint[] _votes,\n        address[] _tokens,\n        address _votingToken,\n        bool _hasBalance\n    ) {\n        require(_proposalId < tokenBatches.length);\n\n        TokenProposal memory p = tokenBatches[_proposalId];\n        _startBlock = p.startBlock;\n        _startTime = p.startTime;\n        _duration = p.duration;\n        _finalized = (_startTime+_duration < now);\n        _active = !_finalized && (p.startBlock < getBlockNumber());\n        _votes = yesVotes;\n        _tokens = consideredTokens;\n        _votingToken = p.votingToken;\n        _hasBalance = (p.votingToken == 0x0) ? false : (DestructibleMiniMeToken(p.votingToken).balanceOf(msg.sender) > 0);\n    }\n\n    function isAdmin(address _admin) public view returns(bool) {\n        return admins[_admin];\n    }\n\n    function proxyPayment(address ) public payable returns(bool) {\n        return false;\n    }\n\n    function onTransfer(address, address, uint ) public pure returns(bool) {\n        return true;\n    }\n\n    function onApprove(address, address, uint ) public pure returns(bool) {\n        return true;\n    }\n\n    function getBlockNumber() internal constant returns (uint) {\n        return block.number;\n    }\n\n    function appendUintToString(string inStr, uint v) private pure returns (string str) {\n        uint maxlength = 100;\n        bytes memory reversed = new bytes(maxlength);\n        uint i = 0;\n        if (v == 0) {\n            reversed[i++] = byte(48);\n        } else {\n            while (v != 0) {\n                uint remainder = v % 10;\n                v = v / 10;\n                reversed[i++] = byte(48 + remainder);\n            }\n        }\n        bytes memory inStrb = bytes(inStr);\n        bytes memory s = new bytes(inStrb.length + i);\n        uint j;\n        for (j = 0; j < inStrb.length; j++) {\n            s[j] = inStrb[j];\n        }\n        for (j = 0; j < i; j++) {\n            s[j + inStrb.length] = reversed[i - 1 - j];\n        }\n        str = string(s);\n    }\n\n    event Vote(uint indexed idProposal, address indexed _voter, address chosenToken, uint amount);\n    event NewTokens(uint indexed idProposal);\n}\n",
  "sourcePath": "/Users/nikolaklipa/Decenter/community-gateway/solidity/contracts/TokenListingManager.sol",
  "compiler": {
    "name": "solc",
    "version": "0.4.24+commit.e67f0147.Emscripten.clang"
  },
  "schemaVersion": "2.0.1",
  "updatedAt": "2018-08-23T15:24:39.782Z"
}