{
  "contractName": "TokenListingManagerAdvanced",
  "abi": [
    {
      "constant": true,
      "inputs": [
        {
          "name": "",
          "type": "address"
        }
      ],
      "name": "isDelegate",
      "outputs": [
        {
          "name": "",
          "type": "bool"
        }
      ],
      "payable": false,
      "stateMutability": "view",
      "type": "function"
    },
    {
      "constant": true,
      "inputs": [
        {
          "name": "",
          "type": "uint256"
        }
      ],
      "name": "yesVotes",
      "outputs": [
        {
          "name": "",
          "type": "uint256"
        }
      ],
      "payable": false,
      "stateMutability": "view",
      "type": "function"
    },
    {
      "constant": true,
      "inputs": [
        {
          "name": "",
          "type": "address"
        }
      ],
      "name": "admins",
      "outputs": [
        {
          "name": "",
          "type": "bool"
        }
      ],
      "payable": false,
      "stateMutability": "view",
      "type": "function"
    },
    {
      "constant": true,
      "inputs": [
        {
          "name": "",
          "type": "uint256"
        },
        {
          "name": "",
          "type": "address"
        }
      ],
      "name": "isVoted",
      "outputs": [
        {
          "name": "",
          "type": "bool"
        }
      ],
      "payable": false,
      "stateMutability": "view",
      "type": "function"
    },
    {
      "constant": true,
      "inputs": [],
      "name": "TOKEN_FACTORY",
      "outputs": [
        {
          "name": "",
          "type": "address"
        }
      ],
      "payable": false,
      "stateMutability": "view",
      "type": "function"
    },
    {
      "constant": true,
      "inputs": [],
      "name": "NECTAR_TOKEN",
      "outputs": [
        {
          "name": "",
          "type": "address"
        }
      ],
      "payable": false,
      "stateMutability": "view",
      "type": "function"
    },
    {
      "constant": true,
      "inputs": [
        {
          "name": "",
          "type": "uint256"
        }
      ],
      "name": "consideredTokens",
      "outputs": [
        {
          "name": "",
          "type": "address"
        }
      ],
      "payable": false,
      "stateMutability": "view",
      "type": "function"
    },
    {
      "constant": true,
      "inputs": [
        {
          "name": "",
          "type": "address"
        }
      ],
      "name": "lastVote",
      "outputs": [
        {
          "name": "",
          "type": "uint256"
        }
      ],
      "payable": false,
      "stateMutability": "view",
      "type": "function"
    },
    {
      "constant": true,
      "inputs": [
        {
          "name": "",
          "type": "uint256"
        }
      ],
      "name": "tokenBatches",
      "outputs": [
        {
          "name": "startBlock",
          "type": "uint256"
        },
        {
          "name": "startTime",
          "type": "uint256"
        },
        {
          "name": "duration",
          "type": "uint256"
        },
        {
          "name": "votingToken",
          "type": "address"
        },
        {
          "name": "criteria",
          "type": "uint256"
        },
        {
          "name": "extraData",
          "type": "uint256"
        }
      ],
      "payable": false,
      "stateMutability": "view",
      "type": "function"
    },
    {
      "constant": true,
      "inputs": [],
      "name": "owner",
      "outputs": [
        {
          "name": "",
          "type": "address"
        }
      ],
      "payable": false,
      "stateMutability": "view",
      "type": "function"
    },
    {
      "constant": true,
      "inputs": [
        {
          "name": "",
          "type": "address"
        }
      ],
      "name": "myDelegate",
      "outputs": [
        {
          "name": "",
          "type": "address"
        }
      ],
      "payable": false,
      "stateMutability": "view",
      "type": "function"
    },
    {
      "constant": true,
      "inputs": [
        {
          "name": "",
          "type": "uint256"
        }
      ],
      "name": "allDelegates",
      "outputs": [
        {
          "name": "user",
          "type": "address"
        },
        {
          "name": "storageHash",
          "type": "bytes32"
        },
        {
          "name": "exists",
          "type": "bool"
        }
      ],
      "payable": false,
      "stateMutability": "view",
      "type": "function"
    },
    {
      "constant": true,
      "inputs": [
        {
          "name": "",
          "type": "address"
        }
      ],
      "name": "isWinner",
      "outputs": [
        {
          "name": "",
          "type": "bool"
        }
      ],
      "payable": false,
      "stateMutability": "view",
      "type": "function"
    },
    {
      "constant": true,
      "inputs": [],
      "name": "nectarToken",
      "outputs": [
        {
          "name": "",
          "type": "address"
        }
      ],
      "payable": false,
      "stateMutability": "view",
      "type": "function"
    },
    {
      "constant": true,
      "inputs": [
        {
          "name": "",
          "type": "address"
        }
      ],
      "name": "tokenExists",
      "outputs": [
        {
          "name": "",
          "type": "bool"
        }
      ],
      "payable": false,
      "stateMutability": "view",
      "type": "function"
    },
    {
      "constant": true,
      "inputs": [
        {
          "name": "",
          "type": "address"
        },
        {
          "name": "",
          "type": "uint256"
        }
      ],
      "name": "myVotes",
      "outputs": [
        {
          "name": "",
          "type": "address"
        }
      ],
      "payable": false,
      "stateMutability": "view",
      "type": "function"
    },
    {
      "constant": true,
      "inputs": [],
      "name": "tokenFactory",
      "outputs": [
        {
          "name": "",
          "type": "address"
        }
      ],
      "payable": false,
      "stateMutability": "view",
      "type": "function"
    },
    {
      "constant": true,
      "inputs": [],
      "name": "MAX_CANDIDATES",
      "outputs": [
        {
          "name": "",
          "type": "uint256"
        }
      ],
      "payable": false,
      "stateMutability": "view",
      "type": "function"
    },
    {
      "constant": false,
      "inputs": [
        {
          "name": "newOwner",
          "type": "address"
        }
      ],
      "name": "transferOwnership",
      "outputs": [],
      "payable": false,
      "stateMutability": "nonpayable",
      "type": "function"
    },
    {
      "inputs": [
        {
          "name": "_tokenFactory",
          "type": "address"
        },
        {
          "name": "_nectarToken",
          "type": "address"
        }
      ],
      "payable": false,
      "stateMutability": "nonpayable",
      "type": "constructor"
    },
    {
      "anonymous": false,
      "inputs": [
        {
          "indexed": true,
          "name": "idProposal",
          "type": "uint256"
        },
        {
          "indexed": true,
          "name": "_voter",
          "type": "address"
        },
        {
          "indexed": false,
          "name": "chosenToken",
          "type": "address"
        },
        {
          "indexed": false,
          "name": "amount",
          "type": "uint256"
        }
      ],
      "name": "Vote",
      "type": "event"
    },
    {
      "anonymous": false,
      "inputs": [
        {
          "indexed": true,
          "name": "idProposal",
          "type": "uint256"
        }
      ],
      "name": "NewTokens",
      "type": "event"
    },
    {
      "anonymous": false,
      "inputs": [
        {
          "indexed": true,
          "name": "previousOwner",
          "type": "address"
        },
        {
          "indexed": true,
          "name": "newOwner",
          "type": "address"
        }
      ],
      "name": "OwnershipTransferred",
      "type": "event"
    },
    {
      "constant": false,
      "inputs": [
        {
          "name": "_tokens",
          "type": "address[]"
        },
        {
          "name": "_duration",
          "type": "uint256"
        },
        {
          "name": "_criteria",
          "type": "uint256"
        },
        {
          "name": "_extraData",
          "type": "uint256"
        },
        {
          "name": "_previousWinners",
          "type": "address[]"
        }
      ],
      "name": "startTokenVotes",
      "outputs": [],
      "payable": false,
      "stateMutability": "nonpayable",
      "type": "function"
    },
    {
      "constant": false,
      "inputs": [
        {
          "name": "_tokenIndex",
          "type": "uint256"
        },
        {
          "name": "_amount",
          "type": "uint256"
        }
      ],
      "name": "vote",
      "outputs": [],
      "payable": false,
      "stateMutability": "nonpayable",
      "type": "function"
    },
    {
      "constant": false,
      "inputs": [
        {
          "name": "_storageHash",
          "type": "bytes32"
        }
      ],
      "name": "registerAsDelegate",
      "outputs": [],
      "payable": false,
      "stateMutability": "nonpayable",
      "type": "function"
    },
    {
      "constant": false,
      "inputs": [],
      "name": "undelegateVote",
      "outputs": [],
      "payable": false,
      "stateMutability": "nonpayable",
      "type": "function"
    },
    {
      "constant": false,
      "inputs": [
        {
          "name": "_to",
          "type": "address"
        }
      ],
      "name": "delegateVote",
      "outputs": [],
      "payable": false,
      "stateMutability": "nonpayable",
      "type": "function"
    },
    {
      "constant": true,
      "inputs": [],
      "name": "delegateCount",
      "outputs": [
        {
          "name": "",
          "type": "uint256"
        }
      ],
      "payable": false,
      "stateMutability": "view",
      "type": "function"
    },
    {
      "constant": true,
      "inputs": [],
      "name": "getWinners",
      "outputs": [
        {
          "name": "winners",
          "type": "address[]"
        }
      ],
      "payable": false,
      "stateMutability": "view",
      "type": "function"
    },
    {
      "constant": true,
      "inputs": [],
      "name": "numberOfProposals",
      "outputs": [
        {
          "name": "",
          "type": "uint256"
        }
      ],
      "payable": false,
      "stateMutability": "view",
      "type": "function"
    },
    {
      "constant": false,
      "inputs": [
        {
          "name": "_newAdmin",
          "type": "address"
        }
      ],
      "name": "addAdmin",
      "outputs": [],
      "payable": false,
      "stateMutability": "nonpayable",
      "type": "function"
    },
    {
      "constant": false,
      "inputs": [
        {
          "name": "_admin",
          "type": "address"
        }
      ],
      "name": "removeAdmin",
      "outputs": [],
      "payable": false,
      "stateMutability": "nonpayable",
      "type": "function"
    },
    {
      "constant": true,
      "inputs": [
        {
          "name": "_proposalId",
          "type": "uint256"
        }
      ],
      "name": "proposal",
      "outputs": [
        {
          "name": "_startBlock",
          "type": "uint256"
        },
        {
          "name": "_startTime",
          "type": "uint256"
        },
        {
          "name": "_duration",
          "type": "uint256"
        },
        {
          "name": "_active",
          "type": "bool"
        },
        {
          "name": "_finalized",
          "type": "bool"
        },
        {
          "name": "_votes",
          "type": "uint256[]"
        },
        {
          "name": "_tokens",
          "type": "address[]"
        },
        {
          "name": "_votingToken",
          "type": "address"
        },
        {
          "name": "_hasBalance",
          "type": "bool"
        }
      ],
      "payable": false,
      "stateMutability": "view",
      "type": "function"
    },
    {
      "constant": true,
      "inputs": [],
      "name": "getConsideredTokens",
      "outputs": [
        {
          "name": "tokens",
          "type": "address[]"
        }
      ],
      "payable": false,
      "stateMutability": "view",
      "type": "function"
    },
    {
      "constant": true,
      "inputs": [],
      "name": "getVotes",
      "outputs": [
        {
          "name": "votes",
          "type": "uint256[]"
        }
      ],
      "payable": false,
      "stateMutability": "view",
      "type": "function"
    },
    {
      "constant": true,
      "inputs": [
        {
          "name": "index",
          "type": "uint256"
        }
      ],
      "name": "getCurrentVotes",
      "outputs": [
        {
          "name": "",
          "type": "uint256"
        }
      ],
      "payable": false,
      "stateMutability": "view",
      "type": "function"
    },
    {
      "constant": true,
      "inputs": [
        {
          "name": "_admin",
          "type": "address"
        }
      ],
      "name": "isAdmin",
      "outputs": [
        {
          "name": "",
          "type": "bool"
        }
      ],
      "payable": false,
      "stateMutability": "view",
      "type": "function"
    },
    {
      "constant": false,
      "inputs": [
        {
          "name": "",
          "type": "address"
        }
      ],
      "name": "proxyPayment",
      "outputs": [
        {
          "name": "",
          "type": "bool"
        }
      ],
      "payable": true,
      "stateMutability": "payable",
      "type": "function"
    },
    {
      "constant": true,
      "inputs": [
        {
          "name": "_from",
          "type": "address"
        },
        {
          "name": "_to",
          "type": "address"
        },
        {
          "name": "_amount",
          "type": "uint256"
        }
      ],
      "name": "onTransfer",
      "outputs": [
        {
          "name": "",
          "type": "bool"
        }
      ],
      "payable": false,
      "stateMutability": "view",
      "type": "function"
    },
    {
      "constant": true,
      "inputs": [
        {
          "name": "",
          "type": "address"
        },
        {
          "name": "",
          "type": "address"
        },
        {
          "name": "",
          "type": "uint256"
        }
      ],
      "name": "onApprove",
      "outputs": [
        {
          "name": "",
          "type": "bool"
        }
      ],
      "payable": false,
      "stateMutability": "pure",
      "type": "function"
    }
  ],
  "bytecode": "0x608060405234801561001057600080fd5b506040516040806128f183398101604090815281516020928301516000805433600160a060020a031991821681178355600580548316600160a060020a03968716179055600680549092169490931693909317909255815260078352908120805460ff199081166001908117909255828052600d9093527f81955a0a11e65eac625c29e8882660bae4e165a75d72780094acae8ece9a29ee8054909316179091556128309081906100c190396000f3006080604052600436106101b35763ffffffff60e060020a6000350416630777962781146101b85780630dc96015146101ed5780631785f53c146102525780631b538bcc1461027557806324d7806c1461029f5780632b8343c7146102c057806330326c17146102d85780633bb8a87f146103d05780633e38a2b7146103e557806340128db3146103fa578063429b62e51461041257806349c1a581146104335780634a393149146104575780635a58fe4b146104815780635fce4a18146104b257806362fb9ed6146104c75780636accc8cf146104df57806370480275146105005780637fe4aa6f146105215780638d7af473146105745780638da5cb5b14610589578063913262031461059e578063947dd6e5146105bf5780639d9ca28d14610601578063a5df10ce14610622578063b31e1d4d14610637578063b33f78ca14610658578063b384abef14610679578063ccf8ef2414610694578063da682aeb146106a9578063dac4cc09146106d3578063db93f375146106f7578063df15c37e14610796578063e77772fe146107ab578063f0786096146107c0578063f2fde38b146107d5578063f48c3054146107f6575b600080fd5b3480156101c457600080fd5b506101d9600160a060020a036004351661080a565b604080519115158252519081900360200190f35b3480156101f957600080fd5b5061020261081f565b60408051602080825283518183015283519192839290830191858101910280838360005b8381101561023e578181015183820152602001610226565b505050509050019250505060405180910390f35b34801561025e57600080fd5b50610273600160a060020a0360043516610891565b005b34801561028157600080fd5b5061028d6004356108c9565b60408051918252519081900360200190f35b3480156102ab57600080fd5b506101d9600160a060020a03600435166109b1565b3480156102cc57600080fd5b5061028d6004356109cf565b3480156102e457600080fd5b506102f06004356109ee565b604080518a815260208082018b905291810189905287151560608201528615156080820152600160a060020a03841660e082015282151561010082015261012060a0820181815287519183019190915286519192909160c0840191610140850191898201910280838360005b8381101561037457818101518382015260200161035c565b50505050905001838103825286818151815260200191508051906020019060200280838360005b838110156103b357818101518382015260200161039b565b505050509050019b50505050505050505050505060405180910390f35b3480156103dc57600080fd5b50610202610b73565b3480156103f157600080fd5b5061028d610c79565b34801561040657600080fd5b50610273600435610c80565b34801561041e57600080fd5b506101d9600160a060020a0360043516610d9a565b34801561043f57600080fd5b506101d9600435600160a060020a0360243516610daf565b34801561046357600080fd5b506101d9600160a060020a0360043581169060243516604435610dcf565b34801561048d57600080fd5b50610496610de3565b60408051600160a060020a039092168252519081900360200190f35b3480156104be57600080fd5b50610496610dfb565b3480156104d357600080fd5b50610496600435610e13565b3480156104eb57600080fd5b5061028d600160a060020a0360043516610e3b565b34801561050c57600080fd5b50610273600160a060020a0360043516610e4d565b34801561052d57600080fd5b50610539600435610e85565b60408051968752602087019590955285850193909352600160a060020a039091166060850152608084015260a0830152519081900360c00190f35b34801561058057600080fd5b5061028d610ed5565b34801561059557600080fd5b50610496610edb565b3480156105aa57600080fd5b50610496600160a060020a0360043516610eea565b3480156105cb57600080fd5b506105d7600435610f05565b60408051600160a060020a0390941684526020840192909252151582820152519081900360600190f35b34801561060d57600080fd5b506101d9600160a060020a0360043516610f43565b34801561062e57600080fd5b50610496610f58565b34801561064357600080fd5b50610273600160a060020a0360043516610f67565b34801561066457600080fd5b506101d9600160a060020a0360043516611031565b34801561068557600080fd5b50610273600435602435611046565b3480156106a057600080fd5b5061027361149f565b3480156106b557600080fd5b506101d9600160a060020a036004358116906024351660443561164f565b3480156106df57600080fd5b50610496600160a060020a0360043516602435611658565b34801561070357600080fd5b5060408051602060048035808201358381028086018501909652808552610273953695939460249493850192918291850190849080828437505060408051602060608901358a01803582810280850184018652818552999c8b359c848d01359c968701359b919a5098506080909501965092945081019282918501908490808284375094975061168f9650505050505050565b3480156107a257600080fd5b50610202611ca8565b3480156107b757600080fd5b50610496612357565b3480156107cc57600080fd5b5061028d612366565b3480156107e157600080fd5b50610273600160a060020a036004351661236b565b6101d9600160a060020a03600435166123f2565b600d6020526000908152604090205460ff1681565b60606000600480549050604051908082528060200260200182016040528015610852578160200160208202803883390190505b509150600090505b60045481101561088d5761086d816108c9565b828281518110151561087b57fe5b6020908102909101015260010161085a565b5090565b600054600160a060020a031633146108a857600080fd5b600160a060020a03166000908152600760205260409020805460ff19169055565b6001546000908190819081106108de57600080fd5b60015460038054600019909201935090859081106108f857fe5b90600052602060002001549050600a600060048681548110151561091857fe5b6000918252602080832090910154600160a060020a031683528201929092526040019020548211156109aa57600a600060048681548110151561095757fe5b600091825260208083209190910154600160a060020a0316835282019290925260400190205460038054918403600202918690811061099257fe5b90600052602060002001548115156109a657fe5b0490505b9392505050565b600160a060020a031660009081526007602052604090205460ff1690565b60038054829081106109dd57fe5b600091825260209091200154905081565b6000806000806000606080600080610a0461270e565b6001548b10610a1257600080fd5b600180548c908110610a2057fe5b60009182526020918290206040805160c08101825260069093029091018054808452600182015494840185905260028201549284018390526003820154600160a060020a031660608501526004820154608085015260059091015460a08401529c50919a5090985042898b011096509050610a9a8b6123f8565b9650610aa461081f565b9450610aae610b73565b60608201519094509250600160a060020a03831615610b60576060810151604080517f70a082310000000000000000000000000000000000000000000000000000000081523360048201529051600092600160a060020a0316916370a0823191602480830192602092919082900301818787803b158015610b2e57600080fd5b505af1158015610b42573d6000803e3d6000fd5b505050506040513d6020811015610b5857600080fd5b505111610b63565b60005b9150509193959799909294969850565b60606000600480549050604051908082528060200260200182016040528015610ba6578160200160208202803883390190505b509150600090505b60045481101561088d5760086000600483815481101515610bcb57fe5b6000918252602080832090910154600160a060020a0316835282019290925260400190205460ff161515610c49576004805482908110610c0757fe5b6000918252602090912001548251600160a060020a0390911690839083908110610c2d57fe5b600160a060020a03909216602092830290910190910152610c71565b60008282815181101515610c5957fe5b600160a060020a039092166020928302909101909101525b600101610bae565b6002545b90565b610c8933612495565b15610c9357600080fd5b336000908152600c6020526040902054600160a060020a031615610cb657600080fd5b336000818152600d602090815260408083208054600160ff199182168117909255825160608101845295865292850195865290840181815260028054928301815590935292517f405787fa12a823e0f2b7631cc41b3ba8828b3321ca811111fa75cd3aa3bb5ace60039094029384018054600160a060020a031916600160a060020a0390921691909117905592517f405787fa12a823e0f2b7631cc41b3ba8828b3321ca811111fa75cd3aa3bb5acf830155517f405787fa12a823e0f2b7631cc41b3ba8828b3321ca811111fa75cd3aa3bb5ad09091018054909216901515179055565b60076020526000908152604090205460ff1681565b600e60209081526000928352604080842090915290825290205460ff1681565b6000610dda84612495565b15949350505050565b736eb97237b8bc26e8057793200207bb0a2a83c34781565b73cc80c051057b774cd75067dc48f8987c4eb97a5e81565b6004805482908110610e2157fe5b600091825260209091200154600160a060020a0316905081565b600a6020526000908152604090205481565b610e56336109b1565b1515610e6157600080fd5b600160a060020a03166000908152600760205260409020805460ff19166001179055565b6001805482908110610e9357fe5b600091825260209091206006909102018054600182015460028301546003840154600485015460059095015493955091939092600160a060020a039092169186565b60015490565b600054600160a060020a031681565b600c60205260009081526040902054600160a060020a031681565b6002805482908110610f1357fe5b6000918252602090912060039091020180546001820154600290920154600160a060020a03909116925060ff1683565b60086020526000908152604090205460ff1681565b600654600160a060020a031681565b610f7033612495565b15610f7a57600080fd5b336000908152600d602052604090205460ff1615610f9757600080fd5b600160a060020a0381166000908152600d602052604090205460ff161515610fbe57600080fd5b336000908152600c6020526040902054600160a060020a031615610fe157600080fd5b336000818152600c602090815260408083208054600160a060020a03909616600160a060020a031996871681179091558352600b8252822080546001810182559083529120018054909216179055565b60096020526000908152604090205460ff1681565b600061105061270e565b336000908152600c602052604081205481908190600160a060020a03161561107757600080fd5b6008600060048981548110151561108a57fe5b6000918252602080832090910154600160a060020a0316835282019290925260400190205460ff16156110bc57600080fd5b6001546000106110cb57600080fd5b6001546000190194506110dd856123f8565b15156110e857600080fd5b6000858152600e6020908152604080832033845290915290205460ff161561110f57600080fd5b600180548690811061111d57fe5b600091825260208083206040805160c0810182526006909402909101805484526001810154928401929092526002820154908301526003810154600160a060020a03166060830152600480820154608084015260059091015460a083015280549196508792600a929091908b90811061119257fe5b6000918252602080832090910154600160a060020a03168352820192909252604001902054101561126557600a60006004898154811015156111d057fe5b600091825260208083209190910154600160a060020a0316835282019290925260400190205460038054918703600202918990811061120b57fe5b90600052602060002001600082825481151561122357fe5b049250508190555084600a600060048a81548110151561123f57fe5b6000918252602080832090910154600160a060020a031683528201929092526040019020555b8360600151600160a060020a03166370a08231336040518263ffffffff1660e060020a0281526004018082600160a060020a0316600160a060020a03168152602001915050602060405180830381600087803b1580156112c457600080fd5b505af11580156112d8573d6000803e3d6000fd5b505050506040513d60208110156112ee57600080fd5b50519250600091505b336000908152600b60205260409020548210156113e457336000908152600b6020526040902080548390811061132957fe5b9060005260206000200160009054906101000a9004600160a060020a031690508360600151600160a060020a03166370a08231826040518263ffffffff1660e060020a0281526004018082600160a060020a0316600160a060020a03168152602001915050602060405180830381600087803b1580156113a857600080fd5b505af11580156113bc573d6000803e3d6000fd5b505050506040513d60208110156113d257600080fd5b505192909201916001909101906112f7565b828611156113f157600080fd5b8560038881548110151561140157fe5b600091825260208083209091018054909301909255868152600e825260408082203380845293529020805460ff191660011790556004805487917fd3e566fa4d4d8b17c007ba24b9dbb382c9185a03c9ef59477ee3c6132ca0a306918b90811061146757fe5b6000918252602091829020015460408051600160a060020a0390921682529181018b905281519081900390910190a350505050505050565b6000806114ab33612495565b156114b557600080fd5b336000908152600c6020526040902054600160a060020a031615156114d957600080fd5b5050336000908152600c6020526040812054600160a060020a0316905b600160a060020a0382166000908152600b602052604090205481101561164b57600160a060020a0382166000908152600b6020526040902080543391908390811061153d57fe5b600091825260209091200154600160a060020a0316141561164357600160a060020a0382166000908152600b602052604090208054600019810190811061158057fe5b6000918252602080832090910154600160a060020a038581168452600b90925260409092208054919092169190839081106115b757fe5b60009182526020808320919091018054600160a060020a031916600160a060020a039485161790559184168152600b90915260409020805460001981019081106115fd57fe5b600091825260208083209091018054600160a060020a0319169055600160a060020a0384168252600b90526040902080549061163d90600019830161274e565b5061164b565b6001016114f6565b5050565b60019392505050565b600b6020528160005260406000208181548110151561167357fe5b600091825260209091200154600160a060020a03169150829050565b60008061169a61270e565b60006116a5336109b1565b15156116b057600080fd5b8851601410156116bf57600080fd5b600093505b845184101561171f5760016008600087878151811015156116e157fe5b602090810291909101810151600160a060020a03168252810191909152604001600020805460ff1916911515919091179055600193909301926116c4565b866001141561173657600454861061173657600080fd5b6001549250600083111561181e5760018054600019850190811061175657fe5b600091825260208083206040805160c0810182526006909402909101805484526001810154928401929092526002820154838201526003820154600160a060020a031660608401819052600480840154608086015260059093015460a085015281517f0f23cbaa000000000000000000000000000000000000000000000000000000008152915193965093630f23cbaa9382840193919290919082900301818387803b15801561180557600080fd5b505af1158015611819573d6000803e3d6000fd5b505050505b600180549061182f90828101612777565b50600180548490811061183e57fe5b906000526020600020906006020190508762015180028160020181905550600093505b88518410156119ba57600960008a8681518110151561187c57fe5b6020908102909101810151600160a060020a031682528101919091526040016000205460ff16156118ac57600080fd5b600489858151811015156118bc57fe5b6020908102919091018101518254600180820185556000948552928420018054600160a060020a031916600160a060020a0390921691909117905560038054918201815582527fc2575a0e9e593c00f959f8c92f12db2869c3395a3b0502d05e2516446f71f85b0181905589518491600a918c908890811061193a57fe5b90602001906020020151600160a060020a0316600160a060020a03168152602001908152602001600020819055506001600960008b8781518110151561197c57fe5b602090810291909101810151600160a060020a03168252810191909152604001600020805460ff191691151591909117905560019390930192611861565b600554600654600160a060020a039182169163408e097c91166119db61252c565b611a1a6040805190810160405280600e81526020017f456678546f6b656e566f7465732d00000000000000000000000000000000000081525088612530565b600660009054906101000a9004600160a060020a0316600160a060020a031663313ce5676040518163ffffffff1660e060020a028152600401602060405180830381600087803b158015611a6d57600080fd5b505af1158015611a81573d6000803e3d6000fd5b505050506040513d6020811015611a9757600080fd5b505160408051808201909152600481527f4556542d000000000000000000000000000000000000000000000000000000006020820152611ad7908a612530565b60405160e060020a63ffffffff8816028152600160a060020a038616600482019081526024820186905260ff84166064830152600160a4830181905260c060448401908152865160c4850152865191939091608482019160e40190602089019080838360005b83811015611b55578181015183820152602001611b3d565b50505050905090810190601f168015611b825780820380516001836020036101000a031916815260200191505b50838103825285518152855160209182019187019080838360005b83811015611bb5578181015183820152602001611b9d565b50505050905090810190601f168015611be25780820380516001836020036101000a031916815260200191505b5098505050505050505050602060405180830381600087803b158015611c0757600080fd5b505af1158015611c1b573d6000803e3d6000fd5b505050506040513d6020811015611c3157600080fd5b5051600382018054600160a060020a031916600160a060020a03909216919091179055426001820155611c6261252c565b8155600481018790556005810186905560405183907fd7c894eab7da0862dea424c47485ac49eab56e3690186d9ee97bfc895e0eb5e990600090a2505050505050505050565b60606000611cb461270e565b60008060006060600080600080600080600180549050111515611cd657600080fd5b6001805460001981019c508c908110611ceb57fe5b60009182526020918290206040805160c0810182526006909302909101805483526001810154938301939093526002830154908201526003820154600160a060020a0316606082015260048201546080820181905260059092015460a08201529a501515611e7f576040805160018082528183019092529060208083019080388339019050509b5060009850600097505b600454881015611e36576008600060048a815481101515611d9957fe5b6000918252602080832090910154600160a060020a0316835282019290925260400190205460ff1615611dcb57611e2b565b6008600060048b815481101515611dde57fe5b6000918252602080832090910154600160a060020a0316835282019290925260400190205460ff1615611e0f578798505b611e18896108c9565b611e21896108c9565b1115611e2b578798505b600190970196611d7c565b600480548a908110611e4457fe5b60009182526020822001548d51600160a060020a03909116918e918110611e6757fe5b600160a060020a039092166020928302909101909101525b8960800151600114156121cd57600096508960a00151604051908082528060200260200182016040528015611ebe578160200160208202803883390190505b5095508960a00151604051908082528060200260200182016040528015611eef578160200160208202803883390190505b509b50600097505b600454881015612150576008600060048a815481101515611f1457fe5b6000918252602080832090910154600160a060020a0316835282019290925260400190205460ff1615611f4657612145565b8960a00151871015611f7657878688815181101515611f6157fe5b60209081029091010152600190960195612145565b8960a0015187141561205257600091505b8551821015612052578160010194505b855185101561204757611fc08686815181101515611fb157fe5b906020019060200201516108c9565b611fd18784815181101515611fb157fe5b101561203c578582815181101515611fe557fe5b9060200190602002015193508585815181101515611fff57fe5b90602001906020020151868381518110151561201757fe5b602090810290910101528551849087908790811061203157fe5b602090810290910101525b600190940193611f97565b600190910190611f87565b60018a60a0015103925061206d8684815181101515611fb157fe5b612076896108c9565b11156121455787868481518110151561208b57fe5b602090810290910101528291505b6000821115612145576120b68660018403815181101515611fb157fe5b6120c78784815181101515611fb157fe5b11156121395785828151811015156120db57fe5b90602001906020020151935085600183038151811015156120f857fe5b90602001906020020151868381518110151561211057fe5b60209081029091010152855184908790600019850190811061212e57fe5b602090810290910101525b60001990910190612099565b600190970196611ef7565b600097505b8960a001518810156121cd576004868981518110151561217157fe5b602090810290910101518154811061218557fe5b6000918252602090912001548c51600160a060020a03909116908d908a9081106121ab57fe5b600160a060020a03909216602092830290910190910152600190970196612155565b896080015160021415612349575060009650865b600454881015612253576008600060048a8154811015156121fe57fe5b6000918252602080832090910154600160a060020a0316835282019290925260400190205460ff161561223057612248565b8960a0015161223e896108c9565b1115612248576001015b6001909701966121e1565b8060405190808252806020026020018201604052801561227d578160200160208202803883390190505b509b5060009650600097505b600454881015612349576008600060048a8154811015156122a657fe5b6000918252602080832090910154600160a060020a0316835282019290925260400190205460ff16156122d85761233e565b8960a001516122e6896108c9565b111561233e5760048054899081106122fa57fe5b6000918252602090912001548c51600160a060020a03909116908d908990811061232057fe5b600160a060020a039092166020928302909101909101526001909601955b600190970196612289565b505050505050505050505090565b600554600160a060020a031681565b601481565b600054600160a060020a0316331461238257600080fd5b600160a060020a038116151561239757600080fd5b60008054604051600160a060020a03808516939216917f8be0079c531659141344cd1fd0a4f28419497f9722a3daafe3b4186f6b6457e091a360008054600160a060020a031916600160a060020a0392909216919091179055565b50600090565b600061240261270e565b600060018481548110151561241357fe5b60009182526020918290206040805160c081018252600690930290910180548352600181015493830184905260028101549183018290526003810154600160a060020a03166060840152600481015460808401526005015460a083015290935042910110905080158161248d575061248961252c565b8251105b949350505050565b600154600090819015156124ac5760009150612526565b50600154600019016000818152600e60209081526040808320600160a060020a038088168552600c84528285205416845290915290205460ff168061251357506000818152600e60209081526040808320600160a060020a038716845290915290205460ff165b156125215760019150612526565b600091505b50919050565b4390565b60408051606480825260a0820190925260609190829060009081908390819083908760208201610c8080388339019050509550600094508815156125bf57855160018601957f30000000000000000000000000000000000000000000000000000000000000009188919081106125a257fe5b906020010190600160f860020a031916908160001a90535061260a565b881561260a578551600a808b049a6001880197919006955060f860020a60308701029188919081106125ed57fe5b906020010190600160f860020a031916908160001a9053506125bf565b899250848351016040519080825280601f01601f19166020018201604052801561263e578160200160208202803883390190505b509150600090505b825181101561269e57828181518110151561265d57fe5b90602001015160f860020a900460f860020a02828281518110151561267e57fe5b906020010190600160f860020a031916908160001a905350600101612646565b5060005b8481101561270157858160018703038151811015156126bd57fe5b90602001015160f860020a900460f860020a0282845183018151811015156126e157fe5b906020010190600160f860020a031916908160001a9053506001016126a2565b5098975050505050505050565b60c0604051908101604052806000815260200160008152602001600081526020016000600160a060020a0316815260200160008152602001600081525090565b815481835581811115612772576000838152602090206127729181019083016127a3565b505050565b8154818355818111156127725760060281600602836000526020600020918201910161277291906127bd565b610c7d91905b8082111561088d57600081556001016127a9565b610c7d91905b8082111561088d5760008082556001820181905560028201819055600382018054600160a060020a03191690556004820181905560058201556006016127c35600a165627a7a723058205762abd64a92ef2c45d3340ab3b1298cfd3c183c98254d6290795c834ecb14250029",
  "source": "pragma solidity ^0.4.24;\n\nimport \"./DestructibleMiniMeTokenFactory.sol\";\nimport \"./Ownable.sol\";\n\n/*\n    Copyright 2018, Will Harborne @ Ethfinex\n*/\n\n/// @title ProposalManager Contract\n/// @author Will Harborne @ Ethfinex\ncontract TokenListingManagerAdvanced is Ownable {\n\n    address public constant NECTAR_TOKEN = 0xCc80C051057B774cD75067Dc48f8987C4Eb97A5e;\n    address public constant TOKEN_FACTORY = 0x6EB97237B8bc26E8057793200207bB0a2A83C347;\n    uint public constant MAX_CANDIDATES = 20;\n\n    struct TokenProposal {\n        uint startBlock;\n        uint startTime;\n        uint duration;\n        address votingToken;\n        // criteria values\n        // 0. only first one win the vote; \n        // 1. top N (number in extraData) win the vote;\n        // 2. All over N (number in extra data) votes win the vote;\n        uint criteria; \n        uint extraData;\n    }\n\n    struct Delegate {\n        address user;\n        bytes32 storageHash;\n        bool exists;\n    }\n\n    TokenProposal[] public tokenBatches;\n    Delegate[] public allDelegates;\n\n    uint[] public yesVotes;\n    address[] public consideredTokens;\n\n    DestructibleMiniMeTokenFactory public tokenFactory;\n    address public nectarToken;\n    mapping(address => bool) public admins;\n    mapping(address => bool) public isWinner;\n    mapping(address => bool) public tokenExists;\n    mapping(address => uint) public lastVote;\n\n    mapping(address => address[]) public myVotes;\n    mapping(address => address) public myDelegate;\n    mapping(address => bool) public isDelegate;\n\n    mapping(uint => mapping(address => bool)) public isVoted;\n\n    modifier onlyAdmins() {\n        require(isAdmin(msg.sender));\n        _;\n    }\n\n    constructor(address _tokenFactory, address _nectarToken) public {\n        tokenFactory = DestructibleMiniMeTokenFactory(_tokenFactory);\n        nectarToken = _nectarToken;\n        admins[msg.sender] = true;\n        isDelegate[address(0)] = true;\n    }\n\n    /// @notice Admins are able to approve proposal that someone submitted\n    /// @param _tokens the list of tokens in consideration during this period\n    /// @param _duration number of days for voting\n    /// @param _criteria number that determines how winner is selected\n    /// @param _extraData extra data for criteria parameter\n    /// @param _previousWinners addresses that won previous proposal\n    function startTokenVotes(address[] _tokens, uint _duration, uint _criteria, uint _extraData, address[] _previousWinners) public onlyAdmins {\n        require(_tokens.length <= MAX_CANDIDATES);\n\n        for (uint i=0; i < _previousWinners.length; i++) {\n            isWinner[_previousWinners[i]] = true;\n        }\n\n        if (_criteria == 1) {\n            // in other case all tokens would be winners\n            require(_extraData < consideredTokens.length);\n        }\n\n        uint _proposalId = tokenBatches.length;\n        if (_proposalId > 0) {\n            TokenProposal memory op = tokenBatches[_proposalId - 1];\n            DestructibleMiniMeToken(op.votingToken).recycle();\n        }\n        tokenBatches.length++;\n        TokenProposal storage p = tokenBatches[_proposalId];\n        p.duration = _duration * (1 days);\n\n        for (i = 0; i < _tokens.length; i++) {\n            require(!tokenExists[_tokens[i]]);\n\n            consideredTokens.push(_tokens[i]);\n            yesVotes.push(0);\n            lastVote[_tokens[i]] = _proposalId;\n            tokenExists[_tokens[i]] = true;\n        }\n\n        p.votingToken = tokenFactory.createDestructibleCloneToken(\n                nectarToken,\n                getBlockNumber(),\n                appendUintToString(\"EfxTokenVotes-\", _proposalId),\n                MiniMeToken(nectarToken).decimals(),\n                appendUintToString(\"EVT-\", _proposalId),\n                true);\n\n        p.startTime = now;\n        p.startBlock = getBlockNumber();\n        p.criteria = _criteria;\n        p.extraData = _extraData;\n\n        emit NewTokens(_proposalId);\n    }\n\n    /// @notice Vote for specific token with yes\n    /// @param _tokenIndex is the position from 0-9 in the token array of the chosen token\n    function vote(uint _tokenIndex, uint _amount) public {\n        require(myDelegate[msg.sender] == address(0));\n        require(!isWinner[consideredTokens[_tokenIndex]]);\n\n        // voting only on the most recent set of proposed tokens\n        require(tokenBatches.length > 0);\n        uint _proposalId = tokenBatches.length - 1;\n\n        require(isActive(_proposalId));\n        require(!isVoted[_proposalId][msg.sender]);\n\n        TokenProposal memory p = tokenBatches[_proposalId];\n\n        if (lastVote[consideredTokens[_tokenIndex]] < _proposalId) {\n            // if voting for this token for first time in current proposal, we need to deduce votes\n            // we deduce number of yes votes for diff of current proposal and lastVote time multiplied by 2\n            yesVotes[_tokenIndex] /= 2*(_proposalId - lastVote[consideredTokens[_tokenIndex]]);\n            lastVote[consideredTokens[_tokenIndex]] = _proposalId;\n        }\n\n        uint balance = DestructibleMiniMeToken(p.votingToken).balanceOf(msg.sender);\n\n        for (uint i=0; i < myVotes[msg.sender].length; i++) {\n            address user = myVotes[msg.sender][i];\n            balance += DestructibleMiniMeToken(p.votingToken).balanceOf(user);\n        }\n        \n        require(_amount <= balance);\n\n        yesVotes[_tokenIndex] += _amount;\n        // set the info that the user voted in this round\n        isVoted[_proposalId][msg.sender] = true;\n\n        emit Vote(_proposalId, msg.sender, consideredTokens[_tokenIndex], _amount);\n    }\n\n    function registerAsDelegate(bytes32 _storageHash) public {\n        // can't register as delegate if already gave vote\n        require(!gaveVote(msg.sender));\n        // can't register as delegate if you have delegate (undelegate first)\n        require(myDelegate[msg.sender] == address(0));\n\n        isDelegate[msg.sender] = true;\n        allDelegates.push(Delegate({\n            user: msg.sender,\n            storageHash: _storageHash,\n            exists: true\n        }));\n    }\n\n    function undelegateVote() public {\n        // can't undelegate if I already gave vote in this round\n        require(!gaveVote(msg.sender));\n        // I must have delegate if I want to undelegate\n        require(myDelegate[msg.sender] != address(0));\n\n        address delegate = myDelegate[msg.sender];\n\n        for (uint i=0; i < myVotes[delegate].length; i++) {\n            if (myVotes[delegate][i] == msg.sender) {\n                myVotes[delegate][i] = myVotes[delegate][myVotes[delegate].length-1];\n\n                delete myVotes[delegate][myVotes[delegate].length-1];\n                myVotes[delegate].length--;\n\n                break;\n            }\n        }\n    }\n\n    /// @notice Delegate vote to other address\n    /// @param _to address who will be able to vote instead of you\n    function delegateVote(address _to) public {\n        // not possible to delegate if I already voted\n        require(!gaveVote(msg.sender));\n        // can't set delegate if I am delegate\n        require(!isDelegate[msg.sender]);\n        // I can only set delegate to someone who is registered delegate\n        require(isDelegate[_to]);\n        // I can't have delegate if I'm setting one (call undelegate first)\n        require(myDelegate[msg.sender] == address(0));\n\n        myDelegate[msg.sender] = _to;\n        myVotes[_to].push(msg.sender);\n    }\n\n    function delegateCount() public view returns(uint) {\n        return allDelegates.length;\n    }\n\n    function getWinners() public view returns(address[] winners) {\n        require(tokenBatches.length > 0);\n        uint _proposalId = tokenBatches.length - 1;\n\n        TokenProposal memory p = tokenBatches[_proposalId];\n\n        // there is only one winner in criteria 0\n        if (p.criteria == 0) {\n            winners = new address[](1);\n            uint max = 0;\n\n            for (uint i=0; i < consideredTokens.length; i++) {\n                if (isWinner[consideredTokens[i]]) {\n                    continue;\n                }\n\n                if (isWinner[consideredTokens[max]]) {\n                    max = i;\n                }\n\n                if (getCurrentVotes(i) > getCurrentVotes(max)) {\n                    max = i;\n                }\n            }\n\n            winners[0] = consideredTokens[max];\n        }\n\n        // there is N winners in criteria 1\n        if (p.criteria == 1) {\n            uint count = 0;\n            uint[] memory indexesWithMostVotes = new uint[](p.extraData);\n            winners = new address[](p.extraData);\n\n            // for each token we check if he has more votes than last one,\n            // if it has we put it in array and always keep array sorted\n            for (i = 0; i < consideredTokens.length; i++) {\n                if (isWinner[consideredTokens[i]]) {\n                    continue;\n                }\n                if (count < p.extraData) {\n                    indexesWithMostVotes[count] = i;\n                    count++;\n                    continue;\n                }\n\n                // so we just do it once, sort all in descending order\n                if (count == p.extraData) {\n                    for (j = 0; j < indexesWithMostVotes.length; j++) {\n                        for (uint k = j+1; k < indexesWithMostVotes.length; k++) {\n                            if (getCurrentVotes(indexesWithMostVotes[j]) < getCurrentVotes(indexesWithMostVotes[k])) {\n                                uint help = indexesWithMostVotes[j];\n                                indexesWithMostVotes[j] = indexesWithMostVotes[k];\n                                indexesWithMostVotes[k] = help; \n                            }\n                        }\n                    }\n                }\n\n                uint last = p.extraData - 1;\n                if (getCurrentVotes(i) > getCurrentVotes(indexesWithMostVotes[last])) {\n                    indexesWithMostVotes[last] = i;\n\n                    for (uint j=last; j > 0; j--) {\n                        if (getCurrentVotes(indexesWithMostVotes[j]) > getCurrentVotes(indexesWithMostVotes[j-1])) {\n                            help = indexesWithMostVotes[j];\n                            indexesWithMostVotes[j] = indexesWithMostVotes[j-1];\n                            indexesWithMostVotes[j-1] = help; \n                        }\n                    }\n                }\n            }\n\n            for (i = 0; i < p.extraData; i++) {\n                winners[i] = consideredTokens[indexesWithMostVotes[i]];\n            }\n        }\n\n        // everybody who has over N votes are winners in criteria 2\n        if (p.criteria == 2) {\n            uint numOfTokens = 0;\n            for (i = 0; i < consideredTokens.length; i++) {\n                if (isWinner[consideredTokens[i]]) {\n                    continue;\n                }\n                if (getCurrentVotes(i) > p.extraData) {\n                    numOfTokens++;\n                }\n            }\n\n            winners = new address[](numOfTokens);\n            count = 0;\n            for (i = 0; i < consideredTokens.length; i++) {\n                if (isWinner[consideredTokens[i]]) {\n                    continue;\n                }\n                if (getCurrentVotes(i) > p.extraData) {\n                    winners[count] = consideredTokens[i];\n                    count++;\n                }\n            }\n        }\n    }\n\n    /// @notice Get number of proposals so you can know which is the last one\n    function numberOfProposals() public view returns(uint) {\n        return tokenBatches.length;\n    }\n\n    /// @notice Any admin is able to add new admin\n    /// @param _newAdmin Address of new admin\n    function addAdmin(address _newAdmin) public onlyAdmins {\n        admins[_newAdmin] = true;\n    }\n\n    /// @notice Only owner is able to remove admin\n    /// @param _admin Address of current admin\n    function removeAdmin(address _admin) public onlyOwner {\n        admins[_admin] = false;\n    }\n\n    /// @notice Get data about specific proposal\n    /// @param _proposalId Id of proposal\n    function proposal(uint _proposalId) public view returns(\n        uint _startBlock,\n        uint _startTime,\n        uint _duration,\n        bool _active,\n        bool _finalized,\n        uint[] _votes,\n        address[] _tokens,\n        address _votingToken,\n        bool _hasBalance\n    ) {\n        require(_proposalId < tokenBatches.length);\n\n        TokenProposal memory p = tokenBatches[_proposalId];\n        _startBlock = p.startBlock;\n        _startTime = p.startTime;\n        _duration = p.duration;\n        _finalized = (_startTime+_duration < now);\n        _active = isActive(_proposalId);\n        _votes = getVotes();\n        _tokens = getConsideredTokens();\n        _votingToken = p.votingToken;\n        _hasBalance = (p.votingToken == 0x0) ? false : (DestructibleMiniMeToken(p.votingToken).balanceOf(msg.sender) > 0);\n    }\n\n    function getConsideredTokens() public view returns(address[] tokens) {\n        tokens = new address[](consideredTokens.length);\n        \n        for (uint i = 0; i < consideredTokens.length; i++) {\n            if (!isWinner[consideredTokens[i]]) {\n                tokens[i] = consideredTokens[i];\n            } else {\n                tokens[i] = address(0);\n            }\n        }\n    }\n\n    function getVotes() public view returns(uint[] votes) {\n        votes = new uint[](consideredTokens.length);\n        \n        for (uint i = 0; i < consideredTokens.length; i++) {\n            votes[i] = getCurrentVotes(i);\n        }\n    }\n\n    function getCurrentVotes(uint index) public view returns(uint) {\n        require(tokenBatches.length > 0);\n\n        uint _proposalId = tokenBatches.length - 1;\n        uint vote = yesVotes[index];\n        if (_proposalId > lastVote[consideredTokens[index]]) {\n            vote = yesVotes[index] / (2 * (_proposalId - lastVote[consideredTokens[index]]));\n        }\n\n        return vote;\n    }\n\n    function isAdmin(address _admin) public view returns(bool) {\n        return admins[_admin];\n    }\n\n    function proxyPayment(address ) public payable returns(bool) {\n        return false;\n    }\n\n    // transfer can use someone who didn't vote and doesn't have a set delegate\n    function onTransfer(address _from, address _to, uint _amount) public view returns(bool) {\n        return !gaveVote(_from);\n    }\n\n    function onApprove(address, address, uint ) public pure returns(bool) {\n        return true;\n    }\n\n    function gaveVote(address _user) internal view returns(bool) {\n        if (tokenBatches.length == 0) return false;\n\n        uint _proposalId = tokenBatches.length - 1;\n\n        if (isVoted[_proposalId][myDelegate[_user]] || isVoted[_proposalId][_user]) {\n            return true;\n        } else {\n            return false;\n        }\n    }\n\n    function getBlockNumber() internal constant returns (uint) {\n        return block.number;\n    }\n\n    function isActive(uint id) internal view returns (bool) {\n        TokenProposal memory p = tokenBatches[id];\n        bool _finalized = (p.startTime + p.duration < now);\n        return !_finalized && (p.startBlock < getBlockNumber());\n    }\n    \n    function appendUintToString(string inStr, uint v) private pure returns (string str) {\n        uint maxlength = 100;\n        bytes memory reversed = new bytes(maxlength);\n        uint i = 0;\n        if (v == 0) {\n            reversed[i++] = byte(48);\n        } else {\n            while (v != 0) {\n                uint remainder = v % 10;\n                v = v / 10;\n                reversed[i++] = byte(48 + remainder);\n            }\n        }\n        bytes memory inStrb = bytes(inStr);\n        bytes memory s = new bytes(inStrb.length + i);\n        uint j;\n        for (j = 0; j < inStrb.length; j++) {\n            s[j] = inStrb[j];\n        }\n        for (j = 0; j < i; j++) {\n            s[j + inStrb.length] = reversed[i - 1 - j];\n        }\n        str = string(s);\n    }\n\n    event Vote(uint indexed idProposal, address indexed _voter, address chosenToken, uint amount);\n    event NewTokens(uint indexed idProposal);\n}\n",
  "sourcePath": "/Users/nikolaklipa/Decenter/community-gateway/solidity/contracts/TokenListingManagerAdvanced.sol",
  "compiler": {
    "name": "solc",
    "version": "0.4.24+commit.e67f0147.Emscripten.clang"
  },
  "schemaVersion": "2.0.1",
  "updatedAt": "2018-09-15T01:01:58.746Z"
}