{
  "contractName": "TokenListingManagerAdvanced",
  "abi": [
    {
      "constant": true,
      "inputs": [
        {
          "name": "",
          "type": "address"
        }
      ],
      "name": "isDelegate",
      "outputs": [
        {
          "name": "",
          "type": "bool"
        }
      ],
      "payable": false,
      "stateMutability": "view",
      "type": "function"
    },
    {
      "constant": true,
      "inputs": [
        {
          "name": "",
          "type": "uint256"
        }
      ],
      "name": "yesVotes",
      "outputs": [
        {
          "name": "",
          "type": "uint256"
        }
      ],
      "payable": false,
      "stateMutability": "view",
      "type": "function"
    },
    {
      "constant": true,
      "inputs": [
        {
          "name": "",
          "type": "address"
        }
      ],
      "name": "allWinners",
      "outputs": [
        {
          "name": "",
          "type": "bool"
        }
      ],
      "payable": false,
      "stateMutability": "view",
      "type": "function"
    },
    {
      "constant": true,
      "inputs": [
        {
          "name": "",
          "type": "address"
        }
      ],
      "name": "admins",
      "outputs": [
        {
          "name": "",
          "type": "bool"
        }
      ],
      "payable": false,
      "stateMutability": "view",
      "type": "function"
    },
    {
      "constant": true,
      "inputs": [],
      "name": "TOKEN_FACTORY",
      "outputs": [
        {
          "name": "",
          "type": "address"
        }
      ],
      "payable": false,
      "stateMutability": "view",
      "type": "function"
    },
    {
      "constant": true,
      "inputs": [],
      "name": "NECTAR_TOKEN",
      "outputs": [
        {
          "name": "",
          "type": "address"
        }
      ],
      "payable": false,
      "stateMutability": "view",
      "type": "function"
    },
    {
      "constant": true,
      "inputs": [
        {
          "name": "",
          "type": "uint256"
        }
      ],
      "name": "consideredTokens",
      "outputs": [
        {
          "name": "",
          "type": "address"
        }
      ],
      "payable": false,
      "stateMutability": "view",
      "type": "function"
    },
    {
      "constant": true,
      "inputs": [
        {
          "name": "",
          "type": "uint256"
        }
      ],
      "name": "tokenBatches",
      "outputs": [
        {
          "name": "startBlock",
          "type": "uint256"
        },
        {
          "name": "startTime",
          "type": "uint256"
        },
        {
          "name": "duration",
          "type": "uint256"
        },
        {
          "name": "votingToken",
          "type": "address"
        },
        {
          "name": "criteria",
          "type": "uint256"
        },
        {
          "name": "extraData",
          "type": "uint256"
        }
      ],
      "payable": false,
      "stateMutability": "view",
      "type": "function"
    },
    {
      "constant": true,
      "inputs": [],
      "name": "owner",
      "outputs": [
        {
          "name": "",
          "type": "address"
        }
      ],
      "payable": false,
      "stateMutability": "view",
      "type": "function"
    },
    {
      "constant": true,
      "inputs": [
        {
          "name": "",
          "type": "address"
        }
      ],
      "name": "myDelegate",
      "outputs": [
        {
          "name": "",
          "type": "address"
        }
      ],
      "payable": false,
      "stateMutability": "view",
      "type": "function"
    },
    {
      "constant": true,
      "inputs": [],
      "name": "nectarToken",
      "outputs": [
        {
          "name": "",
          "type": "address"
        }
      ],
      "payable": false,
      "stateMutability": "view",
      "type": "function"
    },
    {
      "constant": true,
      "inputs": [
        {
          "name": "",
          "type": "address"
        }
      ],
      "name": "tokenExists",
      "outputs": [
        {
          "name": "",
          "type": "bool"
        }
      ],
      "payable": false,
      "stateMutability": "view",
      "type": "function"
    },
    {
      "constant": true,
      "inputs": [
        {
          "name": "",
          "type": "address"
        },
        {
          "name": "",
          "type": "uint256"
        }
      ],
      "name": "myVotes",
      "outputs": [
        {
          "name": "",
          "type": "address"
        }
      ],
      "payable": false,
      "stateMutability": "view",
      "type": "function"
    },
    {
      "constant": true,
      "inputs": [],
      "name": "tokenFactory",
      "outputs": [
        {
          "name": "",
          "type": "address"
        }
      ],
      "payable": false,
      "stateMutability": "view",
      "type": "function"
    },
    {
      "constant": true,
      "inputs": [],
      "name": "MAX_CANDIDATES",
      "outputs": [
        {
          "name": "",
          "type": "uint256"
        }
      ],
      "payable": false,
      "stateMutability": "view",
      "type": "function"
    },
    {
      "constant": false,
      "inputs": [
        {
          "name": "newOwner",
          "type": "address"
        }
      ],
      "name": "transferOwnership",
      "outputs": [],
      "payable": false,
      "stateMutability": "nonpayable",
      "type": "function"
    },
    {
      "inputs": [
        {
          "name": "_tokenFactory",
          "type": "address"
        },
        {
          "name": "_nectarToken",
          "type": "address"
        }
      ],
      "payable": false,
      "stateMutability": "nonpayable",
      "type": "constructor"
    },
    {
      "anonymous": false,
      "inputs": [
        {
          "indexed": true,
          "name": "idProposal",
          "type": "uint256"
        },
        {
          "indexed": true,
          "name": "_voter",
          "type": "address"
        },
        {
          "indexed": false,
          "name": "chosenToken",
          "type": "address"
        },
        {
          "indexed": false,
          "name": "amount",
          "type": "uint256"
        }
      ],
      "name": "Vote",
      "type": "event"
    },
    {
      "anonymous": false,
      "inputs": [
        {
          "indexed": true,
          "name": "idProposal",
          "type": "uint256"
        }
      ],
      "name": "NewTokens",
      "type": "event"
    },
    {
      "anonymous": false,
      "inputs": [
        {
          "indexed": true,
          "name": "previousOwner",
          "type": "address"
        },
        {
          "indexed": true,
          "name": "newOwner",
          "type": "address"
        }
      ],
      "name": "OwnershipTransferred",
      "type": "event"
    },
    {
      "constant": false,
      "inputs": [
        {
          "name": "_tokens",
          "type": "address[]"
        },
        {
          "name": "_duration",
          "type": "uint256"
        },
        {
          "name": "_criteria",
          "type": "uint256"
        },
        {
          "name": "_extraData",
          "type": "uint256"
        },
        {
          "name": "_previousWinners",
          "type": "address[]"
        }
      ],
      "name": "startTokenVotes",
      "outputs": [],
      "payable": false,
      "stateMutability": "nonpayable",
      "type": "function"
    },
    {
      "constant": false,
      "inputs": [
        {
          "name": "_tokenIndex",
          "type": "uint256"
        },
        {
          "name": "_amount",
          "type": "uint256"
        }
      ],
      "name": "vote",
      "outputs": [],
      "payable": false,
      "stateMutability": "nonpayable",
      "type": "function"
    },
    {
      "constant": false,
      "inputs": [],
      "name": "registerAsDelegate",
      "outputs": [],
      "payable": false,
      "stateMutability": "nonpayable",
      "type": "function"
    },
    {
      "constant": false,
      "inputs": [
        {
          "name": "_to",
          "type": "address"
        }
      ],
      "name": "delegateVote",
      "outputs": [],
      "payable": false,
      "stateMutability": "nonpayable",
      "type": "function"
    },
    {
      "constant": true,
      "inputs": [
        {
          "name": "_proposalId",
          "type": "uint256"
        }
      ],
      "name": "getWinners",
      "outputs": [
        {
          "name": "winners",
          "type": "address[]"
        }
      ],
      "payable": false,
      "stateMutability": "view",
      "type": "function"
    },
    {
      "constant": true,
      "inputs": [],
      "name": "numberOfProposals",
      "outputs": [
        {
          "name": "",
          "type": "uint256"
        }
      ],
      "payable": false,
      "stateMutability": "view",
      "type": "function"
    },
    {
      "constant": false,
      "inputs": [
        {
          "name": "_newAdmin",
          "type": "address"
        }
      ],
      "name": "addAdmin",
      "outputs": [],
      "payable": false,
      "stateMutability": "nonpayable",
      "type": "function"
    },
    {
      "constant": false,
      "inputs": [
        {
          "name": "_admin",
          "type": "address"
        }
      ],
      "name": "removeAdmin",
      "outputs": [],
      "payable": false,
      "stateMutability": "nonpayable",
      "type": "function"
    },
    {
      "constant": true,
      "inputs": [
        {
          "name": "_proposalId",
          "type": "uint256"
        }
      ],
      "name": "proposal",
      "outputs": [
        {
          "name": "_startBlock",
          "type": "uint256"
        },
        {
          "name": "_startTime",
          "type": "uint256"
        },
        {
          "name": "_duration",
          "type": "uint256"
        },
        {
          "name": "_active",
          "type": "bool"
        },
        {
          "name": "_finalized",
          "type": "bool"
        },
        {
          "name": "_votes",
          "type": "uint256[]"
        },
        {
          "name": "_tokens",
          "type": "address[]"
        },
        {
          "name": "_votingToken",
          "type": "address"
        },
        {
          "name": "_hasBalance",
          "type": "bool"
        }
      ],
      "payable": false,
      "stateMutability": "view",
      "type": "function"
    },
    {
      "constant": true,
      "inputs": [
        {
          "name": "_admin",
          "type": "address"
        }
      ],
      "name": "isAdmin",
      "outputs": [
        {
          "name": "",
          "type": "bool"
        }
      ],
      "payable": false,
      "stateMutability": "view",
      "type": "function"
    },
    {
      "constant": false,
      "inputs": [
        {
          "name": "",
          "type": "address"
        }
      ],
      "name": "proxyPayment",
      "outputs": [
        {
          "name": "",
          "type": "bool"
        }
      ],
      "payable": true,
      "stateMutability": "payable",
      "type": "function"
    },
    {
      "constant": true,
      "inputs": [
        {
          "name": "",
          "type": "address"
        },
        {
          "name": "",
          "type": "address"
        },
        {
          "name": "",
          "type": "uint256"
        }
      ],
      "name": "onTransfer",
      "outputs": [
        {
          "name": "",
          "type": "bool"
        }
      ],
      "payable": false,
      "stateMutability": "pure",
      "type": "function"
    },
    {
      "constant": true,
      "inputs": [
        {
          "name": "",
          "type": "address"
        },
        {
          "name": "",
          "type": "address"
        },
        {
          "name": "",
          "type": "uint256"
        }
      ],
      "name": "onApprove",
      "outputs": [
        {
          "name": "",
          "type": "bool"
        }
      ],
      "payable": false,
      "stateMutability": "pure",
      "type": "function"
    }
  ],
  "bytecode": "0x608060405234801561001057600080fd5b506040516040806124fc83398101604090815281516020928301516000805433600160a060020a031991821681178355600480548316600160a060020a03968716179055600580549092169490931693909317909255815260069092528120805460ff1916600117905561247290819061008a90396000f30060806040526004361061015b5763ffffffff60e060020a6000350416630777962781146101605780631785f53c1461019557806324d7806c146101b85780632b8343c7146101d9578063302eff451461020357806330326c1714610224578063429b62e51461031c5780634a3931491461033d57806357c2e9fd146103675780635a58fe4b1461037c5780635fce4a18146103ad57806362fb9ed6146103c25780636b1426a4146103da57806370480275146104425780637fe4aa6f146104635780638d7af473146104b65780638da5cb5b146104cb57806391326203146104e0578063a5df10ce14610501578063b31e1d4d14610516578063b33f78ca14610537578063b384abef14610558578063da682aeb1461033d578063dac4cc0914610573578063db93f37514610597578063e77772fe14610636578063f07860961461064b578063f2fde38b14610660578063f48c305414610681575b600080fd5b34801561016c57600080fd5b50610181600160a060020a0360043516610695565b604080519115158252519081900360200190f35b3480156101a157600080fd5b506101b6600160a060020a03600435166106aa565b005b3480156101c457600080fd5b50610181600160a060020a03600435166106e2565b3480156101e557600080fd5b506101f1600435610700565b60408051918252519081900360200190f35b34801561020f57600080fd5b50610181600160a060020a036004351661071f565b34801561023057600080fd5b5061023c600435610734565b604080518a815260208082018b905291810189905287151560608201528615156080820152600160a060020a03841660e082015282151561010082015261012060a0820181815287519183019190915286519192909160c0840191610140850191898201910280838360005b838110156102c05781810151838201526020016102a8565b50505050905001838103825286818151815260200191508051906020019060200280838360005b838110156102ff5781810151838201526020016102e7565b505050509050019b50505050505050505050505060405180910390f35b34801561032857600080fd5b50610181600160a060020a036004351661095c565b34801561034957600080fd5b50610181600160a060020a0360043581169060243516604435610971565b34801561037357600080fd5b506101b661097a565b34801561038857600080fd5b50610391610b48565b60408051600160a060020a039092168252519081900360200190f35b3480156103b957600080fd5b50610391610b60565b3480156103ce57600080fd5b50610391600435610b78565b3480156103e657600080fd5b506103f2600435610ba0565b60408051602080825283518183015283519192839290830191858101910280838360005b8381101561042e578181015183820152602001610416565b505050509050019250505060405180910390f35b34801561044e57600080fd5b506101b6600160a060020a036004351661108a565b34801561046f57600080fd5b5061047b6004356110c2565b60408051968752602087019590955285850193909352600160a060020a039091166060850152608084015260a0830152519081900360c00190f35b3480156104c257600080fd5b506101f1611112565b3480156104d757600080fd5b50610391611119565b3480156104ec57600080fd5b50610391600160a060020a0360043516611128565b34801561050d57600080fd5b50610391611143565b34801561052257600080fd5b506101b6600160a060020a0360043516611152565b34801561054357600080fd5b50610181600160a060020a036004351661137a565b34801561056457600080fd5b506101b660043560243561138f565b34801561057f57600080fd5b50610391600160a060020a0360043516602435611902565b3480156105a357600080fd5b50604080516020600480358082013583810280860185019096528085526101b6953695939460249493850192918291850190849080828437505060408051602060608901358a01803582810280850184018652818552999c8b359c848d01359c968701359b919a509850608090950196509294508101928291850190849080828437509497506119399650505050505050565b34801561064257600080fd5b506103916120c9565b34801561065757600080fd5b506101f16120d8565b34801561066c57600080fd5b506101b6600160a060020a03600435166120dd565b610181600160a060020a0360043516612164565b600b6020526000908152604090205460ff1681565b600054600160a060020a031633146106c157600080fd5b600160a060020a03166000908152600660205260409020805460ff19169055565b600160a060020a031660009081526006602052604090205460ff1690565b600280548290811061070e57fe5b600091825260209091200154905081565b60076020526000908152604090205460ff1681565b600080600080600060608060008061074a61234c565b6001548b1061075857600080fd5b600180548c90811061076657fe5b60009182526020918290206040805160c08101825260069093029091018054808452600182015494840185905260028201549284018390526003820154600160a060020a031660608501526004820154608085015260059091015460a08401529c50919a5090985042898b0110965090508515866107eb57506107e761216a565b8151105b6002805460408051602080840282018101909252828152939a5083018282801561083457602002820191906000526020600020905b815481526020019060010190808311610820575b50505050509450600380548060200260200160405190810160405280929190818152602001828054801561089157602002820191906000526020600020905b8154600160a060020a03168152600190910190602001808311610873575b50505060608401519296509194505050600160a060020a03831615610949576060810151604080517f70a082310000000000000000000000000000000000000000000000000000000081523360048201529051600092600160a060020a0316916370a0823191602480830192602092919082900301818787803b15801561091757600080fd5b505af115801561092b573d6000803e3d6000fd5b505050506040513d602081101561094157600080fd5b50511161094c565b60005b9150509193959799909294969850565b60066020526000908152604090205460ff1681565b60019392505050565b336000908152600a60205260408120548190600160a060020a031615610b2a575050336000908152600a6020526040812054600160a060020a0316905b600160a060020a038216600090815260096020526040902054811015610b0c57600160a060020a03821660009081526009602052604090208054339190839081106109fe57fe5b600091825260209091200154600160a060020a03161415610b0457600160a060020a038216600090815260096020526040902080546000198101908110610a4157fe5b6000918252602080832090910154600160a060020a03858116845260099092526040909220805491909216919083908110610a7857fe5b60009182526020808320919091018054600160a060020a031916600160a060020a03948516179055918416815260099091526040902080546000198101908110610abe57fe5b600091825260208083209091018054600160a060020a0319169055600160a060020a03841682526009905260409020805490610afe90600019830161238c565b50610b0c565b6001016109b7565b336000908152600a602052604090208054600160a060020a03191690555b5050336000908152600b60205260409020805460ff19166001179055565b736eb97237b8bc26e8057793200207bb0a2a83c34781565b73cc80c051057b774cd75067dc48f8987c4eb97a5e81565b6003805482908110610b8657fe5b600091825260209091200154600160a060020a0316905081565b6060610baa61234c565b600080606060008060008060006001805490508b101515610bca57600080fd5b600180548c908110610bd857fe5b60009182526020918290206040805160c0810182526006909302909101805483526001810154938301939093526002830154908201526003820154600160a060020a0316606082015260048201546080820181905260059092015460a082015299501515610d0457604080516001808252818301909252906020808301908038833901905050995060009750600096505b600354871015610cbb576002805489908110610c8157fe5b9060005260206000200154600288815481101515610c9b57fe5b90600052602060002001541115610cb0578697505b600190960195610c69565b6003805489908110610cc957fe5b60009182526020822001548b51600160a060020a03909116918c918110610cec57fe5b600160a060020a039092166020928302909101909101525b886080015160011415610f68578860a00151604051908082528060200260200182016040528015610d3f578160200160208202803883390190505b5095508860a00151604051908082528060200260200182016040528015610d70578160200160208202803883390190505b509950600096505b600354871015610eeb5760018960a0015103945060028686815181101515610d9c57fe5b6020908102909101015181548110610db057fe5b9060005260206000200154600288815481101515610dca57fe5b90600052602060002001541115610ee057868686815181101515610dea57fe5b602090810290910101528493505b6000841115610ee05760028660018603815181101515610e1457fe5b6020908102909101015181548110610e2857fe5b906000526020600020015460028786815181101515610e4357fe5b6020908102909101015181548110610e5757fe5b90600052602060002001541115610ed4578584815181101515610e7657fe5b9060200190602002015192508560018503815181101515610e9357fe5b906020019060200201518685815181101515610eab57fe5b602090810290910101528551839087906000198701908110610ec957fe5b602090810290910101525b60001990930192610df8565b600190960195610d78565b600096505b8860a00151871015610f685760038688815181101515610f0c57fe5b6020908102909101015181548110610f2057fe5b6000918252602090912001548a51600160a060020a03909116908b9089908110610f4657fe5b600160a060020a03909216602092830290910190910152600190960195610ef0565b88608001516002141561107c5760009150600096505b600354871015610fbe5760a08901516002805489908110610f9b57fe5b90600052602060002001541115610fb3576001909101905b600190960195610f7e565b81604051908082528060200260200182016040528015610fe8578160200160208202803883390190505b50995060009050600096505b60035487101561107c5760a0890151600280548990811061101157fe5b9060005260206000200154111561107157600380548890811061103057fe5b6000918252602090912001548a51600160a060020a03909116908b908390811061105657fe5b600160a060020a039092166020928302909101909101526001015b600190960195610ff4565b505050505050505050919050565b611093336106e2565b151561109e57600080fd5b600160a060020a03166000908152600660205260409020805460ff19166001179055565b60018054829081106110d057fe5b600091825260209091206006909102018054600182015460028301546003840154600485015460059095015493955091939092600160a060020a039092169186565b6001545b90565b600054600160a060020a031681565b600a60205260009081526040902054600160a060020a031681565b600554600160a060020a031681565b600160a060020a0381166000908152600b6020526040812054819060ff16151561117b57600080fd5b336000908152600b602052604090205460ff161561119857600080fd5b336000908152600a6020526040902054600160a060020a031615611328575050336000908152600a6020526040812054600160a060020a0316905b600160a060020a03821660009081526009602052604090205481101561132857600160a060020a038216600090815260096020526040902080543391908390811061121a57fe5b600091825260209091200154600160a060020a0316141561132057600160a060020a03821660009081526009602052604090208054600019810190811061125d57fe5b6000918252602080832090910154600160a060020a0385811684526009909252604090922080549190921691908390811061129457fe5b60009182526020808320919091018054600160a060020a031916600160a060020a039485161790559184168152600990915260409020805460001981019081106112da57fe5b600091825260208083209091018054600160a060020a0319169055600160a060020a0384168252600990526040902080549061131a90600019830161238c565b50611328565b6001016111d3565b5050336000818152600a602090815260408083208054600160a060020a03909616600160a060020a03199687168117909155835260098252822080546001810182559083529120018054909216179055565b60086020526000908152604090205460ff1681565b600061139961234c565b336000908152600a6020526040812054819081908190600160a060020a0316156113c257600080fd5b6001546000106113d157600080fd5b6001805460001981019750879081106113e657fe5b60009182526020918290206040805160c081018252600690930290910180548352600181015493830184905260028101549183018290526003810154600160a060020a03166060840152600481015460808401526005015460a083015290965001421061145257600080fd5b8693508460600151600160a060020a03166370a08231336040518263ffffffff1660e060020a0281526004018082600160a060020a0316600160a060020a03168152602001915050602060405180830381600087803b1580156114b457600080fd5b505af11580156114c8573d6000803e3d6000fd5b505050506040513d60208110156114de57600080fd5b5051925083831061158e576060850151604080517fd3ce77fe000000000000000000000000000000000000000000000000000000008152336004820152602481018790529051600160a060020a039092169163d3ce77fe916044808201926020929091908290030181600087803b15801561155857600080fd5b505af115801561156c573d6000803e3d6000fd5b505050506040513d602081101561158257600080fd5b506000945061162f9050565b6060850151604080517fd3ce77fe000000000000000000000000000000000000000000000000000000008152336004820152602481018690529051600160a060020a039092169163d3ce77fe916044808201926020929091908290030181600087803b1580156115fd57600080fd5b505af1158015611611573d6000803e3d6000fd5b505050506040513d602081101561162757600080fd5b505092829003925b600091505b336000908152600960205260409020548210156118675783151561165757611867565b33600090815260096020526040902080548390811061167257fe5b9060005260206000200160009054906101000a9004600160a060020a031690508460600151600160a060020a03166370a08231826040518263ffffffff1660e060020a0281526004018082600160a060020a0316600160a060020a03168152602001915050602060405180830381600087803b1580156116f157600080fd5b505af1158015611705573d6000803e3d6000fd5b505050506040513d602081101561171b57600080fd5b505192508383106117c3578460600151600160a060020a031663d3ce77fe82866040518363ffffffff1660e060020a0281526004018083600160a060020a0316600160a060020a0316815260200182815260200192505050602060405180830381600087803b15801561178d57600080fd5b505af11580156117a1573d6000803e3d6000fd5b505050506040513d60208110156117b757600080fd5b506000945061185c9050565b8460600151600160a060020a031663d3ce77fe82856040518363ffffffff1660e060020a0281526004018083600160a060020a0316600160a060020a0316815260200182815260200192505050602060405180830381600087803b15801561182a57600080fd5b505af115801561183e573d6000803e3d6000fd5b505050506040513d602081101561185457600080fd5b505092829003925b600190910190611634565b831561187257600080fd5b8660028981548110151561188257fe5b60009182526020909120018054909101905560038054339188917fd3e566fa4d4d8b17c007ba24b9dbb382c9185a03c9ef59477ee3c6132ca0a30691908c9081106118c957fe5b6000918252602091829020015460408051600160a060020a0390921682529181018c905281519081900390910190a35050505050505050565b60096020528160005260406000208181548110151561191d57fe5b600091825260209091200154600160a060020a03169150829050565b60008061194461234c565b600061194f336106e2565b151561195a57600080fd5b88516014101561196957600080fd5b6003548551111561197957600080fd5b600093505b84518410156119d957600160076000878781518110151561199b57fe5b602090810291909101810151600160a060020a03168252810191909152604001600020805460ff19169115159190911790556001939093019261197e565b86600114156119ef57885186106119ef57600080fd5b60015492506000831115611ad757600180546000198501908110611a0f57fe5b600091825260208083206040805160c0810182526006909402909101805484526001810154928401929092526002820154838201526003820154600160a060020a031660608401819052600480840154608086015260059093015460a085015281517f0f23cbaa000000000000000000000000000000000000000000000000000000008152915193965093630f23cbaa9382840193919290919082900301818387803b158015611abe57600080fd5b505af1158015611ad2573d6000803e3d6000fd5b505050505b6001805490611ae8908281016123b5565b506001805484908110611af757fe5b906000526020600020906006020190508762015180028160020181905550600093505b600354841015611cbe5760076000600386815481101515611b3757fe5b6000918252602080832090910154600160a060020a0316835282019290925260400190205460ff1615611c7257600380546000198101908110611b7657fe5b60009182526020909120015460038054600160a060020a039092169186908110611b9c57fe5b60009182526020909120018054600160a060020a031916600160a060020a0392909216919091179055600280546000198101908110611bd757fe5b9060005260206000200154600285815481101515611bf157fe5b600091825260209091200155600280546000198101908110611c0f57fe5b6000918252602082200155600380546000198101908110611c2c57fe5b60009182526020909120018054600160a060020a03191690556002805490611c5890600019830161238c565b506003805490611c6c90600019830161238c565b50611cb9565b60028085815481101515611c8257fe5b9060005260206000200154811515611c9657fe5b04600285815481101515611ca657fe5b6000918252602090912001556001909301925b611b1a565b600093505b8851841015611ddb57600860008a86815181101515611cde57fe5b6020908102909101810151600160a060020a031682528101919091526040016000205460ff1615611d0e57600080fd5b60038985815181101515611d1e57fe5b6020908102919091018101518254600180820185556000948552928420018054600160a060020a031916600160a060020a039092169190911790556002805480830182559083527f405787fa12a823e0f2b7631cc41b3ba8828b3321ca811111fa75cd3aa3bb5ace018290558a5190916008918c9088908110611d9d57fe5b602090810291909101810151600160a060020a03168252810191909152604001600020805460ff191691151591909117905560019390930192611cc3565b600454600554600160a060020a039182169163408e097c9116611dfc61216a565b611e3b6040805190810160405280600e81526020017f456678546f6b656e566f7465732d0000000000000000000000000000000000008152508861216e565b600560009054906101000a9004600160a060020a0316600160a060020a031663313ce5676040518163ffffffff1660e060020a028152600401602060405180830381600087803b158015611e8e57600080fd5b505af1158015611ea2573d6000803e3d6000fd5b505050506040513d6020811015611eb857600080fd5b505160408051808201909152600e81527f456678546f6b656e566f7465732d0000000000000000000000000000000000006020820152611ef8908a61216e565b60405160e060020a63ffffffff8816028152600160a060020a038616600482019081526024820186905260ff84166064830152600160a4830181905260c060448401908152865160c4850152865191939091608482019160e40190602089019080838360005b83811015611f76578181015183820152602001611f5e565b50505050905090810190601f168015611fa35780820380516001836020036101000a031916815260200191505b50838103825285518152855160209182019187019080838360005b83811015611fd6578181015183820152602001611fbe565b50505050905090810190601f1680156120035780820380516001836020036101000a031916815260200191505b5098505050505050505050602060405180830381600087803b15801561202857600080fd5b505af115801561203c573d6000803e3d6000fd5b505050506040513d602081101561205257600080fd5b5051600382018054600160a060020a031916600160a060020a0390921691909117905542600182015561208361216a565b8155600481018790556005810186905560405183907fd7c894eab7da0862dea424c47485ac49eab56e3690186d9ee97bfc895e0eb5e990600090a2505050505050505050565b600454600160a060020a031681565b601481565b600054600160a060020a031633146120f457600080fd5b600160a060020a038116151561210957600080fd5b60008054604051600160a060020a03808516939216917f8be0079c531659141344cd1fd0a4f28419497f9722a3daafe3b4186f6b6457e091a360008054600160a060020a031916600160a060020a0392909216919091179055565b50600090565b4390565b60408051606480825260a0820190925260609190829060009081908390819083908760208201610c8080388339019050509550600094508815156121fd57855160018601957f30000000000000000000000000000000000000000000000000000000000000009188919081106121e057fe5b906020010190600160f860020a031916908160001a905350612248565b8815612248578551600a808b049a6001880197919006955060f860020a603087010291889190811061222b57fe5b906020010190600160f860020a031916908160001a9053506121fd565b899250848351016040519080825280601f01601f19166020018201604052801561227c578160200160208202803883390190505b509150600090505b82518110156122dc57828181518110151561229b57fe5b90602001015160f860020a900460f860020a0282828151811015156122bc57fe5b906020010190600160f860020a031916908160001a905350600101612284565b5060005b8481101561233f57858160018703038151811015156122fb57fe5b90602001015160f860020a900460f860020a02828451830181518110151561231f57fe5b906020010190600160f860020a031916908160001a9053506001016122e0565b5098975050505050505050565b60c0604051908101604052806000815260200160008152602001600081526020016000600160a060020a0316815260200160008152602001600081525090565b8154818355818111156123b0576000838152602090206123b09181019083016123e1565b505050565b8154818355818111156123b0576006028160060283600052602060002091820191016123b091906123ff565b61111691905b808211156123fb57600081556001016123e7565b5090565b61111691905b808211156123fb5760008082556001820181905560028201819055600382018054600160a060020a03191690556004820181905560058201556006016124055600a165627a7a72305820995a07c90933524382bfff4dccc468906c8d4dd5185b796b118658296799c7320029",
  "source": "pragma solidity ^0.4.24;\n\nimport \"./DestructibleMiniMeTokenFactory.sol\";\nimport \"./Ownable.sol\";\n\n/*\n    Copyright 2018, Will Harborne @ Ethfinex\n*/\n\n/// @title ProposalManager Contract\n/// @author Will Harborne @ Ethfinex\ncontract TokenListingManagerAdvanced is Ownable {\n\n    address public constant NECTAR_TOKEN = 0xCc80C051057B774cD75067Dc48f8987C4Eb97A5e;\n    address public constant TOKEN_FACTORY = 0x6EB97237B8bc26E8057793200207bB0a2A83C347;\n    uint public constant MAX_CANDIDATES = 20;\n\n    struct TokenProposal {\n        uint startBlock;\n        uint startTime;\n        uint duration;\n        address votingToken;\n        // criteria values\n        // 0. only first one win the vote; \n        // 1. top N (number in extraData) win the vote;\n        // 2. All over N (number in extra data) votes win the vote;\n        uint criteria; \n        uint extraData;\n    }\n\n    TokenProposal[] public tokenBatches;\n\n    uint[] public yesVotes;\n    address[] public consideredTokens;\n\n    DestructibleMiniMeTokenFactory public tokenFactory;\n    address public nectarToken;\n    mapping(address => bool) public admins;\n    mapping(address => bool) public allWinners;\n    mapping(address => bool) public tokenExists;\n\n    mapping(address => address[]) public myVotes;\n    mapping(address => address) public myDelegate;\n    mapping(address => bool) public isDelegate;\n\n    modifier onlyAdmins() {\n        require(isAdmin(msg.sender));\n        _;\n    }\n\n    constructor(address _tokenFactory, address _nectarToken) public {\n        tokenFactory = DestructibleMiniMeTokenFactory(_tokenFactory);\n        nectarToken = _nectarToken;\n        admins[msg.sender] = true;\n    }\n\n    /// @notice Admins are able to approve proposal that someone submitted\n    /// @param _tokens the list of tokens in consideration during this period\n    /// @param _duration number of days for voting\n    /// @param _criteria number that determines how winner is selected\n    /// @param _extraData extra data for criteria parameter\n    /// @param _previousWinners addresses that won previous proposal\n    function startTokenVotes(address[] _tokens, uint _duration, uint _criteria, uint _extraData, address[] _previousWinners) public onlyAdmins {\n        require(_tokens.length <= MAX_CANDIDATES);\n        require(_previousWinners.length <= consideredTokens.length);\n\n        for (uint i=0; i < _previousWinners.length; i++) {\n            allWinners[_previousWinners[i]] = true;\n        }\n\n        if (_criteria == 1) {\n            // in other case all tokens would be winners\n            require(_extraData < _tokens.length);\n        }\n\n        uint _proposalId = tokenBatches.length;\n        if (_proposalId > 0) {\n            TokenProposal memory op = tokenBatches[_proposalId - 1];\n            DestructibleMiniMeToken(op.votingToken).recycle();\n        }\n        tokenBatches.length++;\n        TokenProposal storage p = tokenBatches[_proposalId];\n        p.duration = _duration * (1 days);\n       \n        i = 0;\n        while (i < consideredTokens.length) {\n            if (allWinners[consideredTokens[i]]) {\n                consideredTokens[i] = consideredTokens[consideredTokens.length-1];\n                yesVotes[i] = yesVotes[yesVotes.length-1];\n\n                delete yesVotes[yesVotes.length-1];\n                delete consideredTokens[consideredTokens.length-1];\n                yesVotes.length--;\n                consideredTokens.length--;\n            } else {\n                yesVotes[i] = yesVotes[i] / 2;\n                i++;\n            }\n        }\n\n        for (i = 0; i < _tokens.length; i++) {\n            require(!tokenExists[_tokens[i]]);\n\n            consideredTokens.push(_tokens[i]);\n            yesVotes.push(0);\n            tokenExists[_tokens[i]] = true;\n        }\n\n        p.votingToken = tokenFactory.createDestructibleCloneToken(\n                nectarToken,\n                getBlockNumber(),\n                appendUintToString(\"EfxTokenVotes-\", _proposalId),\n                MiniMeToken(nectarToken).decimals(),\n                appendUintToString(\"EfxTokenVotes-\", _proposalId),\n                true);\n\n        p.startTime = now;\n        p.startBlock = getBlockNumber();\n        p.criteria = _criteria;\n        p.extraData = _extraData;\n\n        emit NewTokens(_proposalId);\n    }\n\n    /// @notice Vote for specific token with yes\n    /// @param _tokenIndex is the position from 0-9 in the token array of the chosen token\n    function vote(uint _tokenIndex, uint _amount) public {\n        require(myDelegate[msg.sender] == address(0));\n\n        // voting only on the most recent set of proposed tokens\n        require(tokenBatches.length > 0);\n        uint _proposalId = tokenBatches.length - 1;\n\n        TokenProposal memory p = tokenBatches[_proposalId];\n\n        require(now < p.startTime + p.duration);\n\n        uint toBurn = _amount;\n        uint balance = DestructibleMiniMeToken(p.votingToken).balanceOf(msg.sender);\n        \n        if (balance >= toBurn) {\n            DestructibleMiniMeToken(p.votingToken).destroyTokens(msg.sender, toBurn);\n            toBurn = 0;\n        } else {\n            DestructibleMiniMeToken(p.votingToken).destroyTokens(msg.sender, balance);\n            toBurn -= balance;\n        }\n        \n        for (uint i=0; i < myVotes[msg.sender].length; i++) {\n            if (toBurn == 0) {\n                break;\n            }\n\n            address user = myVotes[msg.sender][i];\n            balance = DestructibleMiniMeToken(p.votingToken).balanceOf(user);\n        \n            if (balance >= toBurn) {\n                DestructibleMiniMeToken(p.votingToken).destroyTokens(user, toBurn);\n                toBurn = 0;\n            } else {\n                DestructibleMiniMeToken(p.votingToken).destroyTokens(user, balance);\n                toBurn -= balance;\n            }\n        }\n        // if not 0 that means that user sent more to burn than he has\n        require(toBurn == 0);\n\n        yesVotes[_tokenIndex] += _amount;\n\n        emit Vote(_proposalId, msg.sender, consideredTokens[_tokenIndex], _amount);\n    }\n\n    function registerAsDelegate() public {\n        if (myDelegate[msg.sender] != address(0)) {\n            address delegate = myDelegate[msg.sender];\n\n            for (uint i=0; i < myVotes[delegate].length; i++) {\n                if (myVotes[delegate][i] == msg.sender) {\n                    myVotes[delegate][i] = myVotes[delegate][myVotes[delegate].length-1];\n\n                    delete myVotes[delegate][myVotes[delegate].length-1];\n                    myVotes[delegate].length--;\n\n                    break;\n                }\n            }\n            myDelegate[msg.sender] = address(0);\n        }\n\n        isDelegate[msg.sender] = true;\n    }\n\n    /// @notice Delegate vote to other address\n    /// @param _to address who will be able to vote instead of you\n    function delegateVote(address _to) public {\n        require(isDelegate[_to]);\n        require(!isDelegate[msg.sender]);\n\n        if (myDelegate[msg.sender] != address(0)) {\n            address delegate = myDelegate[msg.sender];\n\n            for (uint i=0; i < myVotes[delegate].length; i++) {\n                if (myVotes[delegate][i] == msg.sender) {\n                    myVotes[delegate][i] = myVotes[delegate][myVotes[delegate].length-1];\n\n                    delete myVotes[delegate][myVotes[delegate].length-1];\n                    myVotes[delegate].length--;\n\n                    break;\n                }\n            }\n        }\n\n        myDelegate[msg.sender] = _to;\n        myVotes[_to].push(msg.sender);\n    }\n\n    function getWinners(uint _proposalId) public view returns(address[] winners) {\n        require(_proposalId < tokenBatches.length);\n\n        TokenProposal memory p = tokenBatches[_proposalId];\n\n        // there is only one winner in criteria 0\n        if (p.criteria == 0) {\n            winners = new address[](1);\n            uint max = 0;\n\n            for (uint i=0; i < consideredTokens.length; i++) {\n                if (yesVotes[i] > yesVotes[max]) {\n                    max = i;\n                }\n            }\n\n            winners[0] = consideredTokens[max];\n        }\n\n        // there is N winners in criteria 1\n        if (p.criteria == 1) {\n            uint[] memory indexesWithMostVotes = new uint[](p.extraData);\n            winners = new address[](p.extraData);\n\n            // for each token we check if he has more votes than last one,\n            // if it has we put it in array and always keep array sorted\n            for (i = 0; i < consideredTokens.length; i++) {\n                uint last = p.extraData - 1;\n                if (yesVotes[i] > yesVotes[indexesWithMostVotes[last]]) {\n                    indexesWithMostVotes[last] = i;\n\n                    for (uint j=last; j > 0; j--) {\n                        if (yesVotes[indexesWithMostVotes[j]] > yesVotes[indexesWithMostVotes[j-1]]) {\n                            uint help = indexesWithMostVotes[j];\n                            indexesWithMostVotes[j] = indexesWithMostVotes[j-1];\n                            indexesWithMostVotes[j-1] = help; \n                        }\n                    }\n                }\n            }\n\n            for (i = 0; i < p.extraData; i++) {\n                winners[i] = consideredTokens[indexesWithMostVotes[i]];\n            }\n        }\n\n        // everybody who has over N votes are winners in criteria 2\n        if (p.criteria == 2) {\n            uint numOfTokens = 0;\n            for (i = 0; i < consideredTokens.length; i++) {\n                if (yesVotes[i] > p.extraData) {\n                    numOfTokens++;\n                }\n            }\n\n            winners = new address[](numOfTokens);\n            uint count = 0;\n            for (i = 0; i < consideredTokens.length; i++) {\n                if (yesVotes[i] > p.extraData) {\n                    winners[count] = consideredTokens[i];\n                    count++;\n                }\n            }\n        }\n    }\n\n    /// @notice Get number of proposals so you can know which is the last one\n    function numberOfProposals() public view returns(uint) {\n        return tokenBatches.length;\n    }\n\n    /// @notice Any admin is able to add new admin\n    /// @param _newAdmin Address of new admin\n    function addAdmin(address _newAdmin) public onlyAdmins {\n        admins[_newAdmin] = true;\n    }\n\n    /// @notice Only owner is able to remove admin\n    /// @param _admin Address of current admin\n    function removeAdmin(address _admin) public onlyOwner {\n        admins[_admin] = false;\n    }\n\n    /// @notice Get data about specific proposal\n    /// @param _proposalId Id of proposal\n    function proposal(uint _proposalId) public view returns(\n        uint _startBlock,\n        uint _startTime,\n        uint _duration,\n        bool _active,\n        bool _finalized,\n        uint[] _votes,\n        address[] _tokens,\n        address _votingToken,\n        bool _hasBalance\n    ) {\n        require(_proposalId < tokenBatches.length);\n\n        TokenProposal memory p = tokenBatches[_proposalId];\n        _startBlock = p.startBlock;\n        _startTime = p.startTime;\n        _duration = p.duration;\n        _finalized = (_startTime+_duration < now);\n        _active = !_finalized && (p.startBlock < getBlockNumber());\n        _votes = yesVotes;\n        _tokens = consideredTokens;\n        _votingToken = p.votingToken;\n        _hasBalance = (p.votingToken == 0x0) ? false : (DestructibleMiniMeToken(p.votingToken).balanceOf(msg.sender) > 0);\n    }\n\n    function isAdmin(address _admin) public view returns(bool) {\n        return admins[_admin];\n    }\n\n    function proxyPayment(address ) public payable returns(bool) {\n        return false;\n    }\n\n    function onTransfer(address, address, uint ) public pure returns(bool) {\n        return true;\n    }\n\n    function onApprove(address, address, uint ) public pure returns(bool) {\n        return true;\n    }\n\n    function getBlockNumber() internal constant returns (uint) {\n        return block.number;\n    }\n\n    function appendUintToString(string inStr, uint v) private pure returns (string str) {\n        uint maxlength = 100;\n        bytes memory reversed = new bytes(maxlength);\n        uint i = 0;\n        if (v == 0) {\n            reversed[i++] = byte(48);\n        } else {\n            while (v != 0) {\n                uint remainder = v % 10;\n                v = v / 10;\n                reversed[i++] = byte(48 + remainder);\n            }\n        }\n        bytes memory inStrb = bytes(inStr);\n        bytes memory s = new bytes(inStrb.length + i);\n        uint j;\n        for (j = 0; j < inStrb.length; j++) {\n            s[j] = inStrb[j];\n        }\n        for (j = 0; j < i; j++) {\n            s[j + inStrb.length] = reversed[i - 1 - j];\n        }\n        str = string(s);\n    }\n\n    event Vote(uint indexed idProposal, address indexed _voter, address chosenToken, uint amount);\n    event NewTokens(uint indexed idProposal);\n}\n",
  "sourcePath": "/Users/nikolaklipa/Decenter/community-gateway/solidity/contracts/TokenListingManagerAdvanced.sol",
  "compiler": {
    "name": "solc",
    "version": "0.4.24+commit.e67f0147.Emscripten.clang"
  },
  "schemaVersion": "2.0.1",
  "updatedAt": "2018-08-24T14:55:43.796Z"
}