{
  "contractName": "TokenListingManager",
  "abi": [
    {
      "constant": true,
      "inputs": [
        {
          "name": "",
          "type": "address"
        }
      ],
      "name": "admins",
      "outputs": [
        {
          "name": "",
          "type": "bool"
        }
      ],
      "payable": false,
      "stateMutability": "view",
      "type": "function"
    },
    {
      "constant": true,
      "inputs": [],
      "name": "TOKEN_FACTORY",
      "outputs": [
        {
          "name": "",
          "type": "address"
        }
      ],
      "payable": false,
      "stateMutability": "view",
      "type": "function"
    },
    {
      "constant": true,
      "inputs": [],
      "name": "NECTAR_TOKEN",
      "outputs": [
        {
          "name": "",
          "type": "address"
        }
      ],
      "payable": false,
      "stateMutability": "view",
      "type": "function"
    },
    {
      "constant": true,
      "inputs": [
        {
          "name": "",
          "type": "uint256"
        }
      ],
      "name": "tokenBatches",
      "outputs": [
        {
          "name": "startBlock",
          "type": "uint256"
        },
        {
          "name": "startTime",
          "type": "uint256"
        },
        {
          "name": "duration",
          "type": "uint256"
        },
        {
          "name": "votingToken",
          "type": "address"
        }
      ],
      "payable": false,
      "stateMutability": "view",
      "type": "function"
    },
    {
      "constant": true,
      "inputs": [],
      "name": "owner",
      "outputs": [
        {
          "name": "",
          "type": "address"
        }
      ],
      "payable": false,
      "stateMutability": "view",
      "type": "function"
    },
    {
      "constant": true,
      "inputs": [],
      "name": "nectarToken",
      "outputs": [
        {
          "name": "",
          "type": "address"
        }
      ],
      "payable": false,
      "stateMutability": "view",
      "type": "function"
    },
    {
      "constant": true,
      "inputs": [],
      "name": "tokenFactory",
      "outputs": [
        {
          "name": "",
          "type": "address"
        }
      ],
      "payable": false,
      "stateMutability": "view",
      "type": "function"
    },
    {
      "constant": false,
      "inputs": [
        {
          "name": "newOwner",
          "type": "address"
        }
      ],
      "name": "transferOwnership",
      "outputs": [],
      "payable": false,
      "stateMutability": "nonpayable",
      "type": "function"
    },
    {
      "inputs": [
        {
          "name": "_tokenFactory",
          "type": "address"
        },
        {
          "name": "_nectarToken",
          "type": "address"
        }
      ],
      "payable": false,
      "stateMutability": "nonpayable",
      "type": "constructor"
    },
    {
      "anonymous": false,
      "inputs": [
        {
          "indexed": true,
          "name": "idProposal",
          "type": "uint256"
        },
        {
          "indexed": true,
          "name": "_voter",
          "type": "address"
        },
        {
          "indexed": false,
          "name": "chosenToken",
          "type": "address"
        },
        {
          "indexed": false,
          "name": "amount",
          "type": "uint256"
        }
      ],
      "name": "Vote",
      "type": "event"
    },
    {
      "anonymous": false,
      "inputs": [
        {
          "indexed": true,
          "name": "idProposal",
          "type": "uint256"
        }
      ],
      "name": "NewTokens",
      "type": "event"
    },
    {
      "anonymous": false,
      "inputs": [
        {
          "indexed": true,
          "name": "previousOwner",
          "type": "address"
        },
        {
          "indexed": true,
          "name": "newOwner",
          "type": "address"
        }
      ],
      "name": "OwnershipTransferred",
      "type": "event"
    },
    {
      "constant": false,
      "inputs": [
        {
          "name": "tokens",
          "type": "address[]"
        },
        {
          "name": "duration",
          "type": "uint256"
        }
      ],
      "name": "startTokenVotes",
      "outputs": [],
      "payable": false,
      "stateMutability": "nonpayable",
      "type": "function"
    },
    {
      "constant": false,
      "inputs": [
        {
          "name": "_tokenIndex",
          "type": "uint256"
        }
      ],
      "name": "vote",
      "outputs": [],
      "payable": false,
      "stateMutability": "nonpayable",
      "type": "function"
    },
    {
      "constant": true,
      "inputs": [],
      "name": "numberOfProposals",
      "outputs": [
        {
          "name": "",
          "type": "uint256"
        }
      ],
      "payable": false,
      "stateMutability": "view",
      "type": "function"
    },
    {
      "constant": false,
      "inputs": [
        {
          "name": "_newAdmin",
          "type": "address"
        }
      ],
      "name": "addAdmin",
      "outputs": [],
      "payable": false,
      "stateMutability": "nonpayable",
      "type": "function"
    },
    {
      "constant": false,
      "inputs": [
        {
          "name": "_admin",
          "type": "address"
        }
      ],
      "name": "removeAdmin",
      "outputs": [],
      "payable": false,
      "stateMutability": "nonpayable",
      "type": "function"
    },
    {
      "constant": true,
      "inputs": [
        {
          "name": "_proposalId",
          "type": "uint256"
        }
      ],
      "name": "proposal",
      "outputs": [
        {
          "name": "_startBlock",
          "type": "uint256"
        },
        {
          "name": "_startTime",
          "type": "uint256"
        },
        {
          "name": "_duration",
          "type": "uint256"
        },
        {
          "name": "_active",
          "type": "bool"
        },
        {
          "name": "_finalized",
          "type": "bool"
        },
        {
          "name": "_votes",
          "type": "uint256[]"
        },
        {
          "name": "_tokens",
          "type": "address[]"
        },
        {
          "name": "_votingToken",
          "type": "address"
        },
        {
          "name": "_hasBalance",
          "type": "bool"
        }
      ],
      "payable": false,
      "stateMutability": "view",
      "type": "function"
    },
    {
      "constant": true,
      "inputs": [
        {
          "name": "_admin",
          "type": "address"
        }
      ],
      "name": "isAdmin",
      "outputs": [
        {
          "name": "",
          "type": "bool"
        }
      ],
      "payable": false,
      "stateMutability": "view",
      "type": "function"
    },
    {
      "constant": false,
      "inputs": [
        {
          "name": "",
          "type": "address"
        }
      ],
      "name": "proxyPayment",
      "outputs": [
        {
          "name": "",
          "type": "bool"
        }
      ],
      "payable": true,
      "stateMutability": "payable",
      "type": "function"
    },
    {
      "constant": true,
      "inputs": [
        {
          "name": "",
          "type": "address"
        },
        {
          "name": "",
          "type": "address"
        },
        {
          "name": "",
          "type": "uint256"
        }
      ],
      "name": "onTransfer",
      "outputs": [
        {
          "name": "",
          "type": "bool"
        }
      ],
      "payable": false,
      "stateMutability": "pure",
      "type": "function"
    },
    {
      "constant": true,
      "inputs": [
        {
          "name": "",
          "type": "address"
        },
        {
          "name": "",
          "type": "address"
        },
        {
          "name": "",
          "type": "uint256"
        }
      ],
      "name": "onApprove",
      "outputs": [
        {
          "name": "",
          "type": "bool"
        }
      ],
      "payable": false,
      "stateMutability": "pure",
      "type": "function"
    }
  ],
  "bytecode": "0x608060405234801561001057600080fd5b506040516040806115e383398101604090815281516020928301516000805433600160a060020a031991821681178355600280548316600160a060020a03968716179055600380549092169490931693909317909255815260049092528120805460ff1916600117905561155990819061008a90396000f3006080604052600436106100e25763ffffffff60e060020a6000350416630121b93f81146100e75780631785f53c1461010157806324d7806c1461012257806330326c1714610157578063429b62e51461024f5780634a393149146102705780635a58fe4b1461029a5780635fce4a18146102cb57806370480275146102e05780637fe4aa6f146103015780638a66be42146103485780638d7af4731461039f5780638da5cb5b146103c6578063a5df10ce146103db578063da682aeb14610270578063e77772fe146103f0578063f2fde38b14610405578063f48c305414610426575b600080fd5b3480156100f357600080fd5b506100ff60043561043a565b005b34801561010d57600080fd5b506100ff600160a060020a03600435166107c2565b34801561012e57600080fd5b50610143600160a060020a03600435166107fa565b604080519115158252519081900360200190f35b34801561016357600080fd5b5061016f600435610818565b604080518a815260208082018b905291810189905287151560608201528615156080820152600160a060020a03841660e082015282151561010082015261012060a0820181815287519183019190915286519192909160c0840191610140850191898201910280838360005b838110156101f35781810151838201526020016101db565b50505050905001838103825286818151815260200191508051906020019060200280838360005b8381101561023257818101518382015260200161021a565b505050509050019b50505050505050505050505060405180910390f35b34801561025b57600080fd5b50610143600160a060020a0360043516610a72565b34801561027c57600080fd5b50610143600160a060020a0360043581169060243516604435610a87565b3480156102a657600080fd5b506102af610a90565b60408051600160a060020a039092168252519081900360200190f35b3480156102d757600080fd5b506102af610aa8565b3480156102ec57600080fd5b506100ff600160a060020a0360043516610ac0565b34801561030d57600080fd5b50610319600435610af8565b60408051948552602085019390935283830191909152600160a060020a03166060830152519081900360800190f35b34801561035457600080fd5b50604080516020600480358082013583810280860185019096528085526100ff953695939460249493850192918291850190849080828437509497505093359450610b3c9350505050565b3480156103ab57600080fd5b506103b4611080565b60408051918252519081900360200190f35b3480156103d257600080fd5b506102af611087565b3480156103e757600080fd5b506102af611096565b3480156103fc57600080fd5b506102af6110a5565b34801561041157600080fd5b506100ff600160a060020a03600435166110b4565b610143600160a060020a0360043516611148565b6000610444611330565b600154600090811061045557600080fd5b600154600019019250600a841061046b57600080fd5b600180548490811061047957fe5b906000526020600020906006020160c06040519081016040529081600082018054806020026020016040519081016040528092919081815260200182805480156104ec57602002820191906000526020600020905b8154600160a060020a031681526001909101906020018083116104ce575b505050505081526020016001820154815260200160028201548152602001600382015481526020016004820160009054906101000a9004600160a060020a0316600160a060020a0316600160a060020a031681526020016005820180548060200260200160405190810160405280929190818152602001828054801561059157602002820191906000526020600020905b81548152602001906001019080831161057d575b50505050508152505091508160600151826040015101421015156105b457600080fd5b8160800151600160a060020a03166370a08231336040518263ffffffff1660e060020a0281526004018082600160a060020a0316600160a060020a03168152602001915050602060405180830381600087803b15801561061357600080fd5b505af1158015610627573d6000803e3d6000fd5b505050506040513d602081101561063d57600080fd5b505190506000811161064e57600080fd5b6080820151604080517f23b872dd000000000000000000000000000000000000000000000000000000008152336004820152306024820152604481018490529051600160a060020a03909216916323b872dd916064808201926020929091908290030181600087803b1580156106c357600080fd5b505af11580156106d7573d6000803e3d6000fd5b505050506040513d60208110156106ed57600080fd5b505115156106fa57600080fd5b8060018481548110151561070a57fe5b90600052602060002090600602016005018581548110151561072857fe5b60009182526020909120018054909101905560018054339185917fd3e566fa4d4d8b17c007ba24b9dbb382c9185a03c9ef59477ee3c6132ca0a30691908390811061076f57fe5b90600052602060002090600602016000018781548110151561078d57fe5b6000918252602091829020015460408051600160a060020a03909216825291810186905281519081900390910190a350505050565b600054600160a060020a031633146107d957600080fd5b600160a060020a03166000908152600460205260409020805460ff19169055565b600160a060020a031660009081526004602052604090205460ff1690565b600080600080600060608060008061082e611330565b6001548b1061083c57600080fd5b600180548c90811061084a57fe5b906000526020600020906006020160c06040519081016040529081600082018054806020026020016040519081016040528092919081815260200182805480156108bd57602002820191906000526020600020905b8154600160a060020a0316815260019091019060200180831161089f575b505050505081526020016001820154815260200160028201548152602001600382015481526020016004820160009054906101000a9004600160a060020a0316600160a060020a0316600160a060020a031681526020016005820180548060200260200160405190810160405280929190818152602001828054801561096257602002820191906000526020600020905b81548152602001906001019080831161094e575b505050505081525050905080602001519950806040015198508060600151975042888a01109550851580156109a1575061099a61114e565b8160200151105b60a08201518251608084015192995090965094509250600160a060020a03831615610a5f576080810151604080517f70a082310000000000000000000000000000000000000000000000000000000081523360048201529051600092600160a060020a0316916370a0823191602480830192602092919082900301818787803b158015610a2d57600080fd5b505af1158015610a41573d6000803e3d6000fd5b505050506040513d6020811015610a5757600080fd5b505111610a62565b60005b9150509193959799909294969850565b60046020526000908152604090205460ff1681565b60019392505050565b736eb97237b8bc26e8057793200207bb0a2a83c34781565b73cc80c051057b774cd75067dc48f8987c4eb97a5e81565b610ac9336107fa565b1515610ad457600080fd5b600160a060020a03166000908152600460205260409020805460ff19166001179055565b6001805482908110610b0657fe5b600091825260209091206006909102016001810154600282015460038301546004909301549193509190600160a060020a031684565b6000610b46611330565b6000610b51336107fa565b1515610b5c57600080fd5b60015492506000831115610cfa57600180546000198501908110610b7c57fe5b906000526020600020906006020160c0604051908101604052908160008201805480602002602001604051908101604052809291908181526020018280548015610bef57602002820191906000526020600020905b8154600160a060020a03168152600190910190602001808311610bd1575b505050505081526020016001820154815260200160028201548152602001600382015481526020016004820160009054906101000a9004600160a060020a0316600160a060020a0316600160a060020a0316815260200160058201805480602002602001604051908101604052809291908181526020018280548015610c9457602002820191906000526020600020905b815481526020019060010190808311610c80575b50505050508152505091508160800151600160a060020a0316630f23cbaa6040518163ffffffff1660e060020a028152600401600060405180830381600087803b158015610ce157600080fd5b505af1158015610cf5573d6000803e3d6000fd5b505050505b6001805490610d0b90828101611370565b506001805484908110610d1a57fe5b90600052602060002090600602019050836201518002816003018190555084816000019080519060200190610d509291906113a1565b508451604051908082528060200260200182016040528015610d7c578160200160208202803883390190505b508051610d93916005840191602090910190611413565b50600254600354600160a060020a039182169163408e097c9116610db561114e565b610df46040805190810160405280600e81526020017f456678546f6b656e566f7465732d00000000000000000000000000000000000081525088611152565b600360009054906101000a9004600160a060020a0316600160a060020a031663313ce5676040518163ffffffff1660e060020a028152600401602060405180830381600087803b158015610e4757600080fd5b505af1158015610e5b573d6000803e3d6000fd5b505050506040513d6020811015610e7157600080fd5b505160408051808201909152600e81527f456678546f6b656e566f7465732d0000000000000000000000000000000000006020820152610eb1908a611152565b60405160e060020a63ffffffff8816028152600160a060020a038616600482019081526024820186905260ff84166064830152600160a4830181905260c060448401908152865160c4850152865191939091608482019160e40190602089019080838360005b83811015610f2f578181015183820152602001610f17565b50505050905090810190601f168015610f5c5780820380516001836020036101000a031916815260200191505b50838103825285518152855160209182019187019080838360005b83811015610f8f578181015183820152602001610f77565b50505050905090810190601f168015610fbc5780820380516001836020036101000a031916815260200191505b5098505050505050505050602060405180830381600087803b158015610fe157600080fd5b505af1158015610ff5573d6000803e3d6000fd5b505050506040513d602081101561100b57600080fd5b505160048201805473ffffffffffffffffffffffffffffffffffffffff1916600160a060020a0390921691909117905542600282015561104961114e565b600182015560405183907fd7c894eab7da0862dea424c47485ac49eab56e3690186d9ee97bfc895e0eb5e990600090a25050505050565b6001545b90565b600054600160a060020a031681565b600354600160a060020a031681565b600254600160a060020a031681565b600054600160a060020a031633146110cb57600080fd5b600160a060020a03811615156110e057600080fd5b60008054604051600160a060020a03808516939216917f8be0079c531659141344cd1fd0a4f28419497f9722a3daafe3b4186f6b6457e091a36000805473ffffffffffffffffffffffffffffffffffffffff1916600160a060020a0392909216919091179055565b50600090565b4390565b60408051606480825260a0820190925260609190829060009081908390819083908760208201610c8080388339019050509550600094508815156111e157855160018601957f30000000000000000000000000000000000000000000000000000000000000009188919081106111c457fe5b906020010190600160f860020a031916908160001a90535061122c565b881561122c578551600a808b049a6001880197919006955060f860020a603087010291889190811061120f57fe5b906020010190600160f860020a031916908160001a9053506111e1565b899250848351016040519080825280601f01601f191660200182016040528015611260578160200160208202803883390190505b509150600090505b82518110156112c057828181518110151561127f57fe5b90602001015160f860020a900460f860020a0282828151811015156112a057fe5b906020010190600160f860020a031916908160001a905350600101611268565b5060005b8481101561132357858160018703038151811015156112df57fe5b90602001015160f860020a900460f860020a02828451830181518110151561130357fe5b906020010190600160f860020a031916908160001a9053506001016112c4565b5098975050505050505050565b60c060405190810160405280606081526020016000815260200160008152602001600081526020016000600160a060020a03168152602001606081525090565b81548183558181111561139c5760060281600602836000526020600020918201910161139c919061145a565b505050565b828054828255906000526020600020908101928215611403579160200282015b82811115611403578251825473ffffffffffffffffffffffffffffffffffffffff1916600160a060020a039091161782556020909201916001909101906113c1565b5061140f9291506114c1565b5090565b82805482825590600052602060002090810192821561144e579160200282015b8281111561144e578251825591602001919060010190611433565b5061140f9291506114f2565b61108491905b8082111561140f576000611474828261150c565b600060018301819055600283018190556003830181905560048301805473ffffffffffffffffffffffffffffffffffffffff191690556114b890600584019061150c565b50600601611460565b61108491905b8082111561140f57805473ffffffffffffffffffffffffffffffffffffffff191681556001016114c7565b61108491905b8082111561140f57600081556001016114f8565b508054600082559060005260206000209081019061152a91906114f2565b505600a165627a7a72305820ac36866c26258de891dee50185657345dab2436b97918dffe5dca70a9241b5e40029",
  "source": "pragma solidity ^0.4.24;\n\nimport \"./DestructibleMiniMeTokenFactory.sol\";\nimport \"./Ownable.sol\";\n\n/*\n    Copyright 2018, Will Harborne @ Ethfinex\n*/\n\n/*\n    Improvement ideas\n\n    Basic Parameters:\n        Number of candidates included in the vote\n        Number of winners in the vote\n        Criteria to win the vote (i.e. top 3, all tokens receiving over a certain number of votes)\n        Duration of vote \n\n    Advanced Vote Styles:\n        Carry over of votes and tokens to next round (i.e. half life on votes carried over to next round)\n        Infinitely growing list of tokens included on list instead of replaced each time\n        Allow delegation of votes to be set automatically by users (i.e. delegate votes always to go to a certain address to vote on your behalf)\n        Have two separate lists which can be voted on using the same tokens (i.e. pre-ICO tokens on one list and post-ICO tokens on another)\n        Most numbers of distinct voters over a certain size of EVT instead of total number of EVT to win\n\n\n    *** add finish proposal (can be called after timeout)\n\n\n    we can set some maximum on maximum possible number of candidates\n    second seems to be pretty much same as \n*/\n\n/// @title ProposalManager Contract\n/// @author Will Harborne @ Ethfinex\ncontract TokenListingManager is Ownable {\n\n    address public constant NECTAR_TOKEN = 0xCc80C051057B774cD75067Dc48f8987C4Eb97A5e;\n    address public constant TOKEN_FACTORY = 0x6EB97237B8bc26E8057793200207bB0a2A83C347;\n\n    struct TokenProposal {\n        address[] consideredTokens;\n        uint startBlock;\n        uint startTime;\n        uint duration;\n        address votingToken;\n        uint[] yesVotes;\n    }\n\n    TokenProposal[] public tokenBatches;\n\n    DestructibleMiniMeTokenFactory public tokenFactory;\n    address public nectarToken;\n    mapping(address => bool) public admins;\n\n    modifier onlyAdmins() {\n        require(isAdmin(msg.sender));\n        _;\n    }\n\n    constructor(address _tokenFactory, address _nectarToken) public {\n        tokenFactory = DestructibleMiniMeTokenFactory(_tokenFactory);\n        nectarToken = _nectarToken;\n        admins[msg.sender] = true;\n    }\n\n    /// @notice Admins are able to approve proposal that someone submitted\n    /// @param tokens the list of tokens in consideration during this period\n    function startTokenVotes(address[] tokens, uint duration) public onlyAdmins {\n        uint _proposalId = tokenBatches.length;\n        if (_proposalId > 0) {\n            TokenProposal memory op = tokenBatches[_proposalId - 1];\n            DestructibleMiniMeToken(op.votingToken).recycle();\n        }\n        tokenBatches.length++;\n        TokenProposal storage p = tokenBatches[_proposalId];\n        p.duration = duration * (1 days);\n\n        p.consideredTokens = tokens;\n        p.yesVotes = new uint[](tokens.length);\n\n        p.votingToken = tokenFactory.createDestructibleCloneToken(\n                nectarToken,\n                getBlockNumber(),\n                appendUintToString(\"EfxTokenVotes-\", _proposalId),\n                MiniMeToken(nectarToken).decimals(),\n                appendUintToString(\"EfxTokenVotes-\", _proposalId),\n                true);\n\n        p.startTime = now;\n        p.startBlock = getBlockNumber();\n\n        emit NewTokens(_proposalId);\n    }\n\n    /// @notice Vote for specific token with yes\n    /// @param _tokenIndex is the position from 0-9 in the token array of the chosen token\n    function vote(uint _tokenIndex) public {\n        // voting only on the most recent set of proposed tokens\n        require(tokenBatches.length > 0);\n        uint _proposalId = tokenBatches.length - 1;\n        require(_tokenIndex < 10);\n\n        TokenProposal memory p = tokenBatches[_proposalId];\n\n        require(now < p.startTime + p.duration);\n\n        uint amount = DestructibleMiniMeToken(p.votingToken).balanceOf(msg.sender);\n        require(amount > 0);\n\n        require(DestructibleMiniMeToken(p.votingToken).transferFrom(msg.sender, address(this), amount));\n\n        tokenBatches[_proposalId].yesVotes[_tokenIndex] += amount;\n\n        emit Vote(_proposalId, msg.sender, tokenBatches[_proposalId].consideredTokens[_tokenIndex], amount);\n    }\n\n    /// @notice Get number of proposals so you can know which is the last one\n    function numberOfProposals() public view returns(uint) {\n        return tokenBatches.length;\n    }\n\n    /// @notice Any admin is able to add new admin\n    /// @param _newAdmin Address of new admin\n    function addAdmin(address _newAdmin) public onlyAdmins {\n        admins[_newAdmin] = true;\n    }\n\n    /// @notice Only owner is able to remove admin\n    /// @param _admin Address of current admin\n    function removeAdmin(address _admin) public onlyOwner {\n        admins[_admin] = false;\n    }\n\n    /// @notice Get data about specific proposal\n    /// @param _proposalId Id of proposal\n    function proposal(uint _proposalId) public view returns(\n        uint _startBlock,\n        uint _startTime,\n        uint _duration,\n        bool _active,\n        bool _finalized,\n        uint[] _votes,\n        address[] _tokens,\n        address _votingToken,\n        bool _hasBalance\n    ) {\n        require(_proposalId < tokenBatches.length);\n\n        TokenProposal memory p = tokenBatches[_proposalId];\n        _startBlock = p.startBlock;\n        _startTime = p.startTime;\n        _duration = p.duration;\n        _finalized = (_startTime+_duration < now);\n        _active = !_finalized && (p.startBlock < getBlockNumber());\n        _votes = p.yesVotes;\n        _tokens = p.consideredTokens;\n        _votingToken = p.votingToken;\n        _hasBalance = (p.votingToken == 0x0) ? false : (DestructibleMiniMeToken(p.votingToken).balanceOf(msg.sender) > 0);\n    }\n\n    function isAdmin(address _admin) public view returns(bool) {\n        return admins[_admin];\n    }\n\n    function proxyPayment(address ) public payable returns(bool) {\n        return false;\n    }\n\n    function onTransfer(address, address, uint ) public pure returns(bool) {\n        return true;\n    }\n\n    function onApprove(address, address, uint ) public pure returns(bool) {\n        return true;\n    }\n\n    function getBlockNumber() internal constant returns (uint) {\n        return block.number;\n    }\n\n    function appendUintToString(string inStr, uint v) private pure returns (string str) {\n        uint maxlength = 100;\n        bytes memory reversed = new bytes(maxlength);\n        uint i = 0;\n        if (v == 0) {\n            reversed[i++] = byte(48);\n        } else {\n            while (v != 0) {\n                uint remainder = v % 10;\n                v = v / 10;\n                reversed[i++] = byte(48 + remainder);\n            }\n        }\n        bytes memory inStrb = bytes(inStr);\n        bytes memory s = new bytes(inStrb.length + i);\n        uint j;\n        for (j = 0; j < inStrb.length; j++) {\n            s[j] = inStrb[j];\n        }\n        for (j = 0; j < i; j++) {\n            s[j + inStrb.length] = reversed[i - 1 - j];\n        }\n        str = string(s);\n    }\n\n    event Vote(uint indexed idProposal, address indexed _voter, address chosenToken, uint amount);\n    event NewTokens(uint indexed idProposal);\n}\n",
  "sourcePath": "/Users/nikolaklipa/Decenter/community-gateway/solidity/contracts/TokenListingManager.sol",
  "compiler": {
    "name": "solc",
    "version": "0.4.24+commit.e67f0147.Emscripten.clang"
  },
  "schemaVersion": "2.0.1",
  "updatedAt": "2018-08-17T12:38:07.124Z"
}