{
  "contractName": "TokenListingManager",
  "abi": [
    {
      "constant": true,
      "inputs": [
        {
          "name": "",
          "type": "address"
        }
      ],
      "name": "admins",
      "outputs": [
        {
          "name": "",
          "type": "bool"
        }
      ],
      "payable": false,
      "stateMutability": "view",
      "type": "function"
    },
    {
      "constant": true,
      "inputs": [
        {
          "name": "",
          "type": "address"
        }
      ],
      "name": "proposalWhenTokenWon",
      "outputs": [
        {
          "name": "",
          "type": "uint256"
        }
      ],
      "payable": false,
      "stateMutability": "view",
      "type": "function"
    },
    {
      "constant": true,
      "inputs": [],
      "name": "TOKEN_FACTORY",
      "outputs": [
        {
          "name": "",
          "type": "address"
        }
      ],
      "payable": false,
      "stateMutability": "view",
      "type": "function"
    },
    {
      "constant": true,
      "inputs": [],
      "name": "NECTAR_TOKEN",
      "outputs": [
        {
          "name": "",
          "type": "address"
        }
      ],
      "payable": false,
      "stateMutability": "view",
      "type": "function"
    },
    {
      "constant": true,
      "inputs": [
        {
          "name": "",
          "type": "uint256"
        }
      ],
      "name": "tokenBatches",
      "outputs": [
        {
          "name": "startBlock",
          "type": "uint256"
        },
        {
          "name": "startTime",
          "type": "uint256"
        },
        {
          "name": "duration",
          "type": "uint256"
        },
        {
          "name": "votingToken",
          "type": "address"
        },
        {
          "name": "criteria",
          "type": "uint256"
        },
        {
          "name": "extraData",
          "type": "uint256"
        },
        {
          "name": "concluded",
          "type": "bool"
        }
      ],
      "payable": false,
      "stateMutability": "view",
      "type": "function"
    },
    {
      "constant": true,
      "inputs": [],
      "name": "owner",
      "outputs": [
        {
          "name": "",
          "type": "address"
        }
      ],
      "payable": false,
      "stateMutability": "view",
      "type": "function"
    },
    {
      "constant": true,
      "inputs": [
        {
          "name": "",
          "type": "address"
        }
      ],
      "name": "winningVotes",
      "outputs": [
        {
          "name": "",
          "type": "uint256"
        }
      ],
      "payable": false,
      "stateMutability": "view",
      "type": "function"
    },
    {
      "constant": true,
      "inputs": [
        {
          "name": "",
          "type": "address"
        }
      ],
      "name": "isWinner",
      "outputs": [
        {
          "name": "",
          "type": "bool"
        }
      ],
      "payable": false,
      "stateMutability": "view",
      "type": "function"
    },
    {
      "constant": true,
      "inputs": [],
      "name": "nectarToken",
      "outputs": [
        {
          "name": "",
          "type": "address"
        }
      ],
      "payable": false,
      "stateMutability": "view",
      "type": "function"
    },
    {
      "constant": true,
      "inputs": [],
      "name": "tokenFactory",
      "outputs": [
        {
          "name": "",
          "type": "address"
        }
      ],
      "payable": false,
      "stateMutability": "view",
      "type": "function"
    },
    {
      "constant": true,
      "inputs": [],
      "name": "MAX_CANDIDATES",
      "outputs": [
        {
          "name": "",
          "type": "uint256"
        }
      ],
      "payable": false,
      "stateMutability": "view",
      "type": "function"
    },
    {
      "constant": false,
      "inputs": [
        {
          "name": "newOwner",
          "type": "address"
        }
      ],
      "name": "transferOwnership",
      "outputs": [],
      "payable": false,
      "stateMutability": "nonpayable",
      "type": "function"
    },
    {
      "inputs": [
        {
          "name": "_tokenFactory",
          "type": "address"
        },
        {
          "name": "_nectarToken",
          "type": "address"
        }
      ],
      "payable": false,
      "stateMutability": "nonpayable",
      "type": "constructor"
    },
    {
      "anonymous": false,
      "inputs": [
        {
          "indexed": true,
          "name": "idProposal",
          "type": "uint256"
        },
        {
          "indexed": true,
          "name": "_voter",
          "type": "address"
        },
        {
          "indexed": false,
          "name": "chosenToken",
          "type": "address"
        },
        {
          "indexed": false,
          "name": "amount",
          "type": "uint256"
        }
      ],
      "name": "Vote",
      "type": "event"
    },
    {
      "anonymous": false,
      "inputs": [
        {
          "indexed": true,
          "name": "idProposal",
          "type": "uint256"
        }
      ],
      "name": "NewTokens",
      "type": "event"
    },
    {
      "anonymous": false,
      "inputs": [
        {
          "indexed": true,
          "name": "previousOwner",
          "type": "address"
        },
        {
          "indexed": true,
          "name": "newOwner",
          "type": "address"
        }
      ],
      "name": "OwnershipTransferred",
      "type": "event"
    },
    {
      "constant": false,
      "inputs": [
        {
          "name": "_tokens",
          "type": "address[]"
        },
        {
          "name": "_duration",
          "type": "uint256"
        },
        {
          "name": "_criteria",
          "type": "uint256"
        },
        {
          "name": "_extraData",
          "type": "uint256"
        }
      ],
      "name": "startTokenVotes",
      "outputs": [],
      "payable": false,
      "stateMutability": "nonpayable",
      "type": "function"
    },
    {
      "constant": false,
      "inputs": [
        {
          "name": "_proposalId",
          "type": "uint256"
        }
      ],
      "name": "endTokenVote",
      "outputs": [
        {
          "name": "",
          "type": "bool"
        }
      ],
      "payable": false,
      "stateMutability": "nonpayable",
      "type": "function"
    },
    {
      "constant": false,
      "inputs": [
        {
          "name": "_tokenIndex",
          "type": "uint256"
        },
        {
          "name": "_amount",
          "type": "uint256"
        }
      ],
      "name": "vote",
      "outputs": [],
      "payable": false,
      "stateMutability": "nonpayable",
      "type": "function"
    },
    {
      "constant": true,
      "inputs": [
        {
          "name": "_amount",
          "type": "uint256"
        }
      ],
      "name": "getFactor",
      "outputs": [
        {
          "name": "weighted",
          "type": "uint256"
        }
      ],
      "payable": false,
      "stateMutability": "view",
      "type": "function"
    },
    {
      "constant": true,
      "inputs": [
        {
          "name": "_proposalId",
          "type": "uint256"
        }
      ],
      "name": "getWinnerIndices",
      "outputs": [
        {
          "name": "winners",
          "type": "uint256[]"
        }
      ],
      "payable": false,
      "stateMutability": "view",
      "type": "function"
    },
    {
      "constant": true,
      "inputs": [],
      "name": "numberOfProposals",
      "outputs": [
        {
          "name": "",
          "type": "uint256"
        }
      ],
      "payable": false,
      "stateMutability": "view",
      "type": "function"
    },
    {
      "constant": false,
      "inputs": [
        {
          "name": "_newAdmin",
          "type": "address"
        }
      ],
      "name": "addAdmin",
      "outputs": [],
      "payable": false,
      "stateMutability": "nonpayable",
      "type": "function"
    },
    {
      "constant": false,
      "inputs": [
        {
          "name": "_admin",
          "type": "address"
        }
      ],
      "name": "removeAdmin",
      "outputs": [],
      "payable": false,
      "stateMutability": "nonpayable",
      "type": "function"
    },
    {
      "constant": true,
      "inputs": [
        {
          "name": "_proposalId",
          "type": "uint256"
        }
      ],
      "name": "proposal",
      "outputs": [
        {
          "name": "_startBlock",
          "type": "uint256"
        },
        {
          "name": "_startTime",
          "type": "uint256"
        },
        {
          "name": "_duration",
          "type": "uint256"
        },
        {
          "name": "_active",
          "type": "bool"
        },
        {
          "name": "_finalized",
          "type": "bool"
        },
        {
          "name": "_votes",
          "type": "uint256[]"
        },
        {
          "name": "_tokens",
          "type": "address[]"
        },
        {
          "name": "_votingToken",
          "type": "address"
        },
        {
          "name": "_hasBalance",
          "type": "bool"
        }
      ],
      "payable": false,
      "stateMutability": "view",
      "type": "function"
    },
    {
      "constant": true,
      "inputs": [
        {
          "name": "_admin",
          "type": "address"
        }
      ],
      "name": "isAdmin",
      "outputs": [
        {
          "name": "",
          "type": "bool"
        }
      ],
      "payable": false,
      "stateMutability": "view",
      "type": "function"
    },
    {
      "constant": false,
      "inputs": [
        {
          "name": "",
          "type": "address"
        }
      ],
      "name": "proxyPayment",
      "outputs": [
        {
          "name": "",
          "type": "bool"
        }
      ],
      "payable": true,
      "stateMutability": "payable",
      "type": "function"
    },
    {
      "constant": true,
      "inputs": [
        {
          "name": "",
          "type": "address"
        },
        {
          "name": "",
          "type": "address"
        },
        {
          "name": "",
          "type": "uint256"
        }
      ],
      "name": "onTransfer",
      "outputs": [
        {
          "name": "",
          "type": "bool"
        }
      ],
      "payable": false,
      "stateMutability": "pure",
      "type": "function"
    },
    {
      "constant": true,
      "inputs": [
        {
          "name": "",
          "type": "address"
        },
        {
          "name": "",
          "type": "address"
        },
        {
          "name": "",
          "type": "uint256"
        }
      ],
      "name": "onApprove",
      "outputs": [
        {
          "name": "",
          "type": "bool"
        }
      ],
      "payable": false,
      "stateMutability": "pure",
      "type": "function"
    }
  ],
  "bytecode": "0x608060405234801561001057600080fd5b506040516040806120b88339810180604052604081101561003057600080fd5b5080516020918201516000805433600160a060020a031991821681178355600280548316600160a060020a039687161790556003805490921694909316939093179092558152600490915260408120805460ff1916600117905561201e90819061009a90396000f3fe60806040526004361061012f5763ffffffff60e060020a6000350416630b334fd181146101345780631785f53c146101f15780632027f2651461022457806324d7806c1461026057806330326c17146102a7578063429b62e5146103b157806346ac5e09146103e45780634a393149146104175780635a58fe4b1461045a5780635fce4a181461048b57806370480275146104a05780637fe4aa6f146104d35780638d7af4731461053f5780638da5cb5b146105545780639b5739ef146105695780639d0ea6541461059c5780639d9ca28d14610616578063a5df10ce14610649578063b384abef1461065e578063da682aeb14610417578063e77772fe1461068e578063eb8cd55d146106a3578063f0786096146106cd578063f2fde38b146106e2578063f48c305414610715575b600080fd5b34801561014057600080fd5b506101ef6004803603608081101561015757600080fd5b81019060208101813564010000000081111561017257600080fd5b82018360208201111561018457600080fd5b803590602001918460208302840111640100000000831117156101a657600080fd5b919080806020026020016040519081016040528093929190818152602001838360200280828437600092019190915250929550508235935050506020810135906040013561073b565b005b3480156101fd57600080fd5b506101ef6004803603602081101561021457600080fd5b5035600160a060020a0316610b30565b34801561023057600080fd5b5061024e6004803603602081101561024757600080fd5b5035610b68565b60408051918252519081900360200190f35b34801561026c57600080fd5b506102936004803603602081101561028357600080fd5b5035600160a060020a0316610cf9565b604080519115158252519081900360200190f35b3480156102b357600080fd5b506102d1600480360360208110156102ca57600080fd5b5035610d1b565b604080518a815260208082018b905291810189905287151560608201528615156080820152600160a060020a03841660e082015282151561010082015261012060a0820181815287519183019190915286519192909160c0840191610140850191898201910280838360005b8381101561035557818101518382015260200161033d565b50505050905001838103825286818151815260200191508051906020019060200280838360005b8381101561039457818101518382015260200161037c565b505050509050019b50505050505050505050505060405180910390f35b3480156103bd57600080fd5b50610293600480360360208110156103d457600080fd5b5035600160a060020a0316610fa2565b3480156103f057600080fd5b5061024e6004803603602081101561040757600080fd5b5035600160a060020a0316610fb7565b34801561042357600080fd5b506102936004803603606081101561043a57600080fd5b50600160a060020a03813581169160208101359091169060400135610fc9565b34801561046657600080fd5b5061046f610fd2565b60408051600160a060020a039092168252519081900360200190f35b34801561049757600080fd5b5061046f610fea565b3480156104ac57600080fd5b506101ef600480360360208110156104c357600080fd5b5035600160a060020a0316611002565b3480156104df57600080fd5b506104fd600480360360208110156104f657600080fd5b503561103a565b60408051978852602088019690965286860194909452600160a060020a039092166060860152608085015260a0840152151560c0830152519081900360e00190f35b34801561054b57600080fd5b5061024e611097565b34801561056057600080fd5b5061046f61109e565b34801561057557600080fd5b5061024e6004803603602081101561058c57600080fd5b5035600160a060020a03166110ad565b3480156105a857600080fd5b506105c6600480360360208110156105bf57600080fd5b50356110bf565b60408051602080825283518183015283519192839290830191858101910280838360005b838110156106025781810151838201526020016105ea565b505050509050019250505060405180910390f35b34801561062257600080fd5b506102936004803603602081101561063957600080fd5b5035600160a060020a03166115ec565b34801561065557600080fd5b5061046f611601565b34801561066a57600080fd5b506101ef6004803603604081101561068157600080fd5b5080359060200135611610565b34801561069a57600080fd5b5061046f6118fd565b3480156106af57600080fd5b50610293600480360360208110156106c657600080fd5b503561190c565b3480156106d957600080fd5b5061024e611b53565b3480156106ee57600080fd5b506101ef6004803603602081101561070557600080fd5b5035600160a060020a0316611b58565b6102936004803603602081101561072b57600080fd5b5035600160a060020a0316611bec565b61074433610cf9565b151561074f57600080fd5b83516014101561075e57600080fd5b8160011415610774578351811061077457600080fd5b600154600081111561078e5761078c6001820361190c565b505b600180549061079f90828101611dc3565b5060006001828154811015156107b157fe5b90600052602060002090600a020190508462015180028160030181905550858160000190805190602001906107e7929190611df4565b508551604051908082528060200260200182016040528015610813578160200160208202803883390190505b50805161082a916005840191602090910190611e66565b50600254600354600160a060020a039182169163408e097c911661084c611bf2565b61088b6040805190810160405280600e81526020017f456678546f6b656e566f7465732d00000000000000000000000000000000000081525087611bf6565b600360009054906101000a9004600160a060020a0316600160a060020a031663313ce5676040518163ffffffff1660e060020a02815260040160206040518083038186803b1580156108dc57600080fd5b505afa1580156108f0573d6000803e3d6000fd5b505050506040513d602081101561090657600080fd5b505160408051808201909152600481527f4556542d0000000000000000000000000000000000000000000000000000000060208201526109469089611bf6565b60405160e060020a63ffffffff8816028152600160a060020a038616600482019081526024820186905260ff84166064830152600160a4830181905260c060448401908152865160c4850152865191939091608482019160e40190602089019080838360005b838110156109c45781810151838201526020016109ac565b50505050905090810190601f1680156109f15780820380516001836020036101000a031916815260200191505b50838103825285518152855160209182019187019080838360005b83811015610a24578181015183820152602001610a0c565b50505050905090810190601f168015610a515780820380516001836020036101000a031916815260200191505b5098505050505050505050602060405180830381600087803b158015610a7657600080fd5b505af1158015610a8a573d6000803e3d6000fd5b505050506040513d6020811015610aa057600080fd5b505160048201805473ffffffffffffffffffffffffffffffffffffffff1916600160a060020a03909216919091179055426002820155610ade611bf2565b6001820155600681018490556007810183905560088101805460ff1916905560405182907fd7c894eab7da0862dea424c47485ac49eab56e3690186d9ee97bfc895e0eb5e990600090a2505050505050565b600054600160a060020a03163314610b4757600080fd5b600160a060020a03166000908152600460205260409020805460ff19169055565b60015460009060001901610b7a611ead565b6001805483908110610b8857fe5b90600052602060002090600a0201610120604051908101604052908160008201805480602002602001604051908101604052809291908181526020018280548015610bfc57602002820191906000526020600020905b8154600160a060020a03168152600190910190602001808311610bde575b505050505081526020016001820154815260200160028201548152602001600382015481526020016004820160009054906101000a9004600160a060020a0316600160a060020a0316600160a060020a0316815260200160058201805480602002602001604051908101604052809291908181526020018280548015610ca157602002820191906000526020600020905b815481526020019060010190808311610c8d575b505050918352505060068201546020820152600782015460408083019190915260089092015460ff161515606091820152820151908201519192509042038502811515610cea57fe5b04846002020392505050919050565b600160a060020a03811660009081526004602052604090205460ff165b919050565b60008060008060006060806000806001805490508a101515610d3c57600080fd5b610d44611ead565b600180548c908110610d5257fe5b90600052602060002090600a0201610120604051908101604052908160008201805480602002602001604051908101604052809291908181526020018280548015610dc657602002820191906000526020600020905b8154600160a060020a03168152600190910190602001808311610da8575b505050505081526020016001820154815260200160028201548152602001600382015481526020016004820160009054906101000a9004600160a060020a0316600160a060020a0316600160a060020a0316815260200160058201805480602002602001604051908101604052809291908181526020018280548015610e6b57602002820191906000526020600020905b815481526020019060010190808311610e57575b50505091835250506006820154602080830191909152600783015460408084019190915260089093015460ff1615156060928301528301519183015190830151919c509a50985042898b011096509050851586610ed25750610ecb611bf2565b8160200151105b60a08201518251608084015192995090965094509250600160a060020a03831615610f8f576080810151604080517f70a082310000000000000000000000000000000000000000000000000000000081523360048201529051600092600160a060020a0316916370a08231916024808301926020929190829003018186803b158015610f5d57600080fd5b505afa158015610f71573d6000803e3d6000fd5b505050506040513d6020811015610f8757600080fd5b505111610f92565b60005b9150509193959799909294969850565b60046020526000908152604090205460ff1681565b60076020526000908152604090205481565b60019392505050565b736eb97237b8bc26e8057793200207bb0a2a83c34781565b73cc80c051057b774cd75067dc48f8987c4eb97a5e81565b61100b33610cf9565b151561101657600080fd5b600160a060020a03166000908152600460205260409020805460ff19166001179055565b600180548290811061104857fe5b60009182526020909120600a9091020160018101546002820154600383015460048401546006850154600786015460089096015494965092949193600160a060020a0390911692919060ff1687565b6001545b90565b600054600160a060020a031681565b60066020526000908152604090205481565b60015460609082106110d057600080fd5b6110d8611ead565b60018054849081106110e657fe5b90600052602060002090600a020161012060405190810160405290816000820180548060200260200160405190810160405280929190818152602001828054801561115a57602002820191906000526020600020905b8154600160a060020a0316815260019091019060200180831161113c575b505050505081526020016001820154815260200160028201548152602001600382015481526020016004820160009054906101000a9004600160a060020a0316600160a060020a0316600160a060020a03168152602001600582018054806020026020016040519081016040528092919081815260200182805480156111ff57602002820191906000526020600020905b8154815260200190600101908083116111eb575b5050509183525050600682015460208201526007820154604082015260089091015460ff16151560609091015260c081015190915015156112ce5760408051600180825281830190925290602080830190803883390190505091506000805b8251518110156112b15760a083015180518390811061127957fe5b906020019060200201518360a001518281518110151561129557fe5b9060200190602002015111156112a9578091505b60010161125e565b50808360008151811015156112c257fe5b60209081029091010152505b8060c00151600114156115085760608160e0015160405190808252806020026020018201604052801561130b578160200160208202803883390190505b5090508160e0015160405190808252806020026020018201604052801561133c578160200160208202803883390190505b50925060005b8251518110156114bd57600060018460e001510390508360a00151838281518110151561136b57fe5b602090810290910101518151811061137f57fe5b906020019060200201518460a001518381518110151561139b57fe5b9060200190602002015111156114b4578183828151811015156113ba57fe5b60209081029091010152805b60008111156114b2578460a0015184600183038151811015156113e557fe5b60209081029091010151815181106113f957fe5b906020019060200201518560a00151858381518110151561141657fe5b602090810290910101518151811061142a57fe5b9060200190602002015111156114a9576000848281518110151561144a57fe5b906020019060200201519050846001830381518110151561146757fe5b90602001906020020151858381518110151561147f57fe5b60209081029091010152845181908690600019850190811061149d57fe5b60209081029091010152505b600019016113c6565b505b50600101611342565b5060005b8260e001518110156115055781818151811015156114db57fe5b9060200190602002015184828151811015156114f357fe5b602090810290910101526001016114c1565b50505b8060c00151600214156115e6576000805b8251518110156115585760e083015160a084015180518390811061153957fe5b906020019060200201511115611550576001909101905b600101611519565b5080604051908082528060200260200182016040528015611583578160200160208202803883390190505b5092506000805b8351518110156115e25760e084015160a08501518051839081106115aa57fe5b9060200190602002015111156115da578085838151811015156115c957fe5b602090810290910101526001909101905b60010161158a565b5050505b50919050565b60056020526000908152604090205460ff1681565b600354600160a060020a031681565b60015460001061161f57600080fd5b60015460001901600a831061163357600080fd5b600060018281548110151561164457fe5b90600052602060002090600a0201905080600301548160020154014210151561166c57600080fd5b600480820154604080517f70a08231000000000000000000000000000000000000000000000000000000008152339381019390935251600092600160a060020a03909216916370a08231916024808301926020929190829003018186803b1580156116d657600080fd5b505afa1580156116ea573d6000803e3d6000fd5b505050506040513d602081101561170057600080fd5b505190508381101561171157600080fd5b600061171c85610b68565b600480850154604080517f23b872dd00000000000000000000000000000000000000000000000000000000815233938101939093523060248401526044830189905251929350600160a060020a0316916323b872dd916064808201926020929091908290030181600087803b15801561179457600080fd5b505af11580156117a8573d6000803e3d6000fd5b505050506040513d60208110156117be57600080fd5b505115156117cb57600080fd5b806001858154811015156117db57fe5b90600052602060002090600a0201600501878154811015156117f957fe5b600091825260208220018054909201909155600180548392600987019290918890811061182257fe5b90600052602060002090600a02016000018981548110151561184057fe5b6000918252602080832090910154600160a060020a0316835282810193909352604091820181203380835293522080549092019091556001805486917fd3e566fa4d4d8b17c007ba24b9dbb382c9185a03c9ef59477ee3c6132ca0a30691839081106118a857fe5b90600052602060002090600a0201600001898154811015156118c657fe5b6000918252602091829020015460408051600160a060020a03909216825291810186905281519081900390910190a3505050505050565b600254600160a060020a031681565b60015460009082111561191e57600080fd5b600060018381548110151561192f57fe5b90600052602060002090600a0201905042816003015482600201540110151561195757600080fd5b600881015460ff161561196e576001915050610d16565b6060611979846110bf565b905060005b8151811015611ac15760016005600085600001858581518110151561199f57fe5b60209081029091010151815481106119b357fe5b600091825260208083209190910154600160a060020a031683528201929092526040019020805460ff1916911515919091179055815160058401908390839081106119fa57fe5b6020908102909101015181548110611a0e57fe5b906000526020600020015460066000856000018585815181101515611a2f57fe5b6020908102909101015181548110611a4357fe5b6000918252602080832090910154600160a060020a03168352820192909252604001812091909155825186916007918690869086908110611a8057fe5b6020908102909101015181548110611a9457fe5b6000918252602080832090910154600160a060020a0316835282019290925260400190205560010161197e565b50600480830154604080517f0f23cbaa0000000000000000000000000000000000000000000000000000000081529051600160a060020a0390921692630f23cbaa92828201926000929082900301818387803b158015611b2057600080fd5b505af1158015611b34573d6000803e3d6000fd5b5050506008909201805460ff1916600190811790915592505050919050565b601481565b600054600160a060020a03163314611b6f57600080fd5b600160a060020a0381161515611b8457600080fd5b60008054604051600160a060020a03808516939216917f8be0079c531659141344cd1fd0a4f28419497f9722a3daafe3b4186f6b6457e091a36000805473ffffffffffffffffffffffffffffffffffffffff1916600160a060020a0392909216919091179055565b50600090565b4390565b6060811515611c39575060408051808201909152600181527f30000000000000000000000000000000000000000000000000000000000000006020820152611dbd565b8160005b8115611c5157600101600a82049150611c3d565b6060816040519080825280601f01601f191660200182016040528015611c7e576020820181803883390190505b50905060001982015b8515611d055781516000198201917f01000000000000000000000000000000000000000000000000000000000000006030600a8a060102918491908110611cca57fe5b9060200101907effffffffffffffffffffffffffffffffffffffffffffffffffffffffffffff1916908160001a905350600a86049550611c87565b86826040516020018083805190602001908083835b60208310611d395780518252601f199092019160209182019101611d1a565b51815160209384036101000a600019018019909216911617905285519190930192850191508083835b60208310611d815780518252601f199092019160209182019101611d62565b6001836020036101000a038019825116818451168082178552505050505050905001925050506040516020818303038152906040529450505050505b92915050565b815481835581811115611def57600a0281600a028360005260206000209182019101611def9190611f05565b505050565b828054828255906000526020600020908101928215611e56579160200282015b82811115611e56578251825473ffffffffffffffffffffffffffffffffffffffff1916600160a060020a03909116178255602090920191600190910190611e14565b50611e62929150611f86565b5090565b828054828255906000526020600020908101928215611ea1579160200282015b82811115611ea1578251825591602001919060010190611e86565b50611e62929150611fb7565b61012060405190810160405280606081526020016000815260200160008152602001600081526020016000600160a060020a031681526020016060815260200160008152602001600081526020016000151581525090565b61109b91905b80821115611e62576000611f1f8282611fd1565b600060018301819055600283018190556003830181905560048301805473ffffffffffffffffffffffffffffffffffffffff19169055611f63906005840190611fd1565b50600060068201819055600782015560088101805460ff19169055600a01611f0b565b61109b91905b80821115611e6257805473ffffffffffffffffffffffffffffffffffffffff19168155600101611f8c565b61109b91905b80821115611e625760008155600101611fbd565b5080546000825590600052602060002090810190611fef9190611fb7565b5056fea165627a7a72305820b2da30af4056f858e16738ce4ce50fc2d45964b24cdb129f985aca286f5b7ecc0029",
  "source": "pragma solidity ^0.5.0;\n\nimport \"./DestructibleMiniMeTokenFactory.sol\";\nimport \"./Ownable.sol\";\n\n/*\n    Copyright 2018, Will Harborne @ Ethfinex\n*/\n\n/// @title ProposalManager Contract\n/// @author Will Harborne @ Ethfinex\ncontract TokenListingManager is Ownable {\n\n    address public constant NECTAR_TOKEN = 0xCc80C051057B774cD75067Dc48f8987C4Eb97A5e;\n    address public constant TOKEN_FACTORY = 0x6EB97237B8bc26E8057793200207bB0a2A83C347;\n    uint public constant MAX_CANDIDATES = 20;\n\n    struct TokenProposal {\n        address[] consideredTokens;\n        uint startBlock;\n        uint startTime;\n        uint duration;\n        DestructibleMiniMeToken votingToken;\n        uint[] yesVotes;\n        // criteria values\n        // 0. only first one win the vote;\n        // 1. top N (number in extraData) win the vote;\n        // 2. All over N (number in extra data) votes win the vote;\n        uint criteria;\n        uint extraData;\n        bool concluded;\n        mapping(address => mapping(address => uint256)) votesForToken;\n    }\n\n    TokenProposal[] public tokenBatches;\n\n    DestructibleMiniMeTokenFactory public tokenFactory;\n    address payable public nectarToken;\n    mapping(address => bool) public admins;\n\n    mapping(address => bool) public isWinner;\n    mapping(address => uint256) public winningVotes;\n    mapping(address => uint) public proposalWhenTokenWon;\n\n    modifier onlyAdmins() {\n        require(isAdmin(msg.sender));\n        _;\n    }\n\n    constructor(address _tokenFactory, address payable _nectarToken) public {\n        tokenFactory = DestructibleMiniMeTokenFactory(_tokenFactory);\n        nectarToken = _nectarToken;\n        admins[msg.sender] = true;\n    }\n\n    /// @notice Admins are able to approve proposal that someone submitted\n    /// @param _tokens the list of tokens in consideration during this period\n    /// @param _duration number of days for voting\n    /// @param _criteria number that determines how winner is selected\n    /// @param _extraData extra data for criteria parameter\n    function startTokenVotes(address[] memory _tokens, uint _duration, uint _criteria, uint _extraData) public onlyAdmins {\n        require(_tokens.length <= MAX_CANDIDATES);\n\n        if (_criteria == 1) {\n            // in other case all tokens would be winners\n            require(_extraData < _tokens.length);\n        }\n\n        uint _proposalId = tokenBatches.length;\n        if (_proposalId > 0) {\n          endTokenVote(_proposalId - 1);\n        }\n        tokenBatches.length++;\n        TokenProposal storage p = tokenBatches[_proposalId];\n        p.duration = _duration * (1 days);\n\n        p.consideredTokens = _tokens;\n        p.yesVotes = new uint[](_tokens.length);\n\n        p.votingToken = tokenFactory.createDestructibleCloneToken(\n                nectarToken,\n                getBlockNumber(),\n                appendUintToString(\"EfxTokenVotes-\", _proposalId),\n                MiniMeToken(nectarToken).decimals(),\n                appendUintToString(\"EVT-\", _proposalId),\n                true);\n\n        p.startTime = now;\n        p.startBlock = getBlockNumber();\n        p.criteria = _criteria;\n        p.extraData = _extraData;\n        p.concluded = false;\n\n        emit NewTokens(_proposalId);\n    }\n\n\n    /// @notice Anyone can end the vote if it has completed\n    function endTokenVote(uint _proposalId) public returns(bool) {\n\n        require(_proposalId <= tokenBatches.length);\n\n        TokenProposal storage op = tokenBatches[_proposalId];\n        require(op.startTime + op.duration < now);\n        if (op.concluded) {\n          return true;\n        }\n\n        uint[] memory _previousWinnerMap = getWinnerIndices(_proposalId);\n        for (uint i=0; i < _previousWinnerMap.length; i++) {\n            isWinner[op.consideredTokens[_previousWinnerMap[i]]] = true;\n            winningVotes[op.consideredTokens[_previousWinnerMap[i]]] = op.yesVotes[_previousWinnerMap[i]];\n            proposalWhenTokenWon[op.consideredTokens[_previousWinnerMap[i]]] = _proposalId;\n        }\n\n        DestructibleMiniMeToken(op.votingToken).recycle();\n        op.concluded = true;\n        return true;\n    }\n\n    /// @notice Vote for specific token with yes\n    /// @param _tokenIndex is the position from 0-9 in the token array of the chosen token\n    function vote(uint _tokenIndex, uint _amount) public {\n        // voting only on the most recent set of proposed tokens\n        require(tokenBatches.length > 0);\n        uint _proposalId = tokenBatches.length - 1;\n        require(_tokenIndex < 10);\n\n        TokenProposal storage p = tokenBatches[_proposalId];\n\n        require(now < p.startTime + p.duration);\n\n        uint amount = DestructibleMiniMeToken(p.votingToken).balanceOf(msg.sender);\n        require(amount >= _amount);\n\n        uint weightedAmount = getFactor(_amount);\n\n        require(DestructibleMiniMeToken(p.votingToken).transferFrom(msg.sender, address(this), _amount));\n\n        tokenBatches[_proposalId].yesVotes[_tokenIndex] += weightedAmount;\n        p.votesForToken[tokenBatches[_proposalId].consideredTokens[_tokenIndex]][msg.sender] += weightedAmount;\n\n        emit Vote(_proposalId, msg.sender, tokenBatches[_proposalId].consideredTokens[_tokenIndex], weightedAmount);\n    }\n\n    function getFactor(uint _amount) view public returns (uint weighted) {\n      uint currentRound = tokenBatches.length - 1;\n      TokenProposal memory p = tokenBatches[currentRound];\n      weighted = 2 * _amount - ((now - p.startTime) * _amount / p.duration);\n    }\n\n    function getWinnerIndices(uint _proposalId) public view returns(uint[] memory winners) {\n        require(_proposalId < tokenBatches.length);\n\n        TokenProposal memory p = tokenBatches[_proposalId];\n\n        // there is only one winner in criteria 0\n        if (p.criteria == 0) {\n            winners = new uint[](1);\n            uint max = 0;\n\n            for (uint i=0; i < p.consideredTokens.length; i++) {\n                if (p.yesVotes[i] > p.yesVotes[max]) {\n                    max = i;\n                }\n            }\n\n            winners[0] = max;\n        }\n\n        // there is N winners in criteria 1\n        if (p.criteria == 1) {\n            uint[] memory indexesWithMostVotes = new uint[](p.extraData);\n            winners = new uint[](p.extraData);\n\n            // for each token we check if he has more votes than last one,\n            // if it has we put it in array and always keep array sorted\n            for (uint i = 0; i < p.consideredTokens.length; i++) {\n                uint last = p.extraData - 1;\n                if (p.yesVotes[i] > p.yesVotes[indexesWithMostVotes[last]]) {\n                    indexesWithMostVotes[last] = i;\n\n                    for (uint j=last; j > 0; j--) {\n                        if (p.yesVotes[indexesWithMostVotes[j]] > p.yesVotes[indexesWithMostVotes[j-1]]) {\n                            uint help = indexesWithMostVotes[j];\n                            indexesWithMostVotes[j] = indexesWithMostVotes[j-1];\n                            indexesWithMostVotes[j-1] = help;\n                        }\n                    }\n                }\n            }\n\n            for (uint i = 0; i < p.extraData; i++) {\n                winners[i] = indexesWithMostVotes[i];\n            }\n        }\n\n        // everybody who has over N votes are winners in criteria 2\n        if (p.criteria == 2) {\n            uint numOfTokens = 0;\n            for (uint i = 0; i < p.consideredTokens.length; i++) {\n                if (p.yesVotes[i] > p.extraData) {\n                    numOfTokens++;\n                }\n            }\n\n            winners = new uint[](numOfTokens);\n            uint count = 0;\n            for (uint i = 0; i < p.consideredTokens.length; i++) {\n                if (p.yesVotes[i] > p.extraData) {\n                    winners[count] = i;\n                    count++;\n                }\n            }\n        }\n    }\n\n    /// @notice Get number of proposals so you can know which is the last one\n    function numberOfProposals() public view returns(uint) {\n        return tokenBatches.length;\n    }\n\n    /// @notice Any admin is able to add new admin\n    /// @param _newAdmin Address of new admin\n    function addAdmin(address _newAdmin) public onlyAdmins {\n        admins[_newAdmin] = true;\n    }\n\n    /// @notice Only owner is able to remove admin\n    /// @param _admin Address of current admin\n    function removeAdmin(address _admin) public onlyOwner {\n        admins[_admin] = false;\n    }\n\n    /// @notice Get data about specific proposal\n    /// @param _proposalId Id of proposal\n    function proposal(uint _proposalId) public view returns(\n        uint _startBlock,\n        uint _startTime,\n        uint _duration,\n        bool _active,\n        bool _finalized,\n        uint[] memory _votes,\n        address[] memory _tokens,\n        address _votingToken,\n        bool _hasBalance\n    ) {\n        require(_proposalId < tokenBatches.length);\n\n        TokenProposal memory p = tokenBatches[_proposalId];\n        _startBlock = p.startBlock;\n        _startTime = p.startTime;\n        _duration = p.duration;\n        _finalized = (_startTime+_duration < now);\n        _active = !_finalized && (p.startBlock < getBlockNumber());\n        _votes = p.yesVotes;\n        _tokens = p.consideredTokens;\n        _votingToken = address(p.votingToken);\n        _hasBalance = (_votingToken == address(0)) ? false : (DestructibleMiniMeToken(p.votingToken).balanceOf(msg.sender) > 0);\n    }\n\n    function isAdmin(address _admin) public view returns(bool) {\n        return admins[_admin];\n    }\n\n    function proxyPayment(address ) public payable returns(bool) {\n        return false;\n    }\n\n    function onTransfer(address, address, uint ) public pure returns(bool) {\n        return true;\n    }\n\n    function onApprove(address, address, uint ) public pure returns(bool) {\n        return true;\n    }\n\n    function getBlockNumber() internal view returns (uint) {\n        return block.number;\n    }\n\n    function appendUintToString(string memory inStr, uint _i) internal pure returns (string memory _str) {\n    if (_i == 0) {\n        return \"0\";\n    }\n    uint j = _i;\n    uint len;\n    while (j != 0) {\n        len++;\n        j /= 10;\n    }\n    bytes memory bstr = new bytes(len);\n    uint k = len - 1;\n    while (_i != 0) {\n        bstr[k--] = byte(uint8(48 + _i % 10));\n        _i /= 10;\n    }\n\n    return string(abi.encodePacked(inStr, string(bstr)));\n    }\n\n    event Vote(uint indexed idProposal, address indexed _voter, address chosenToken, uint amount);\n    event NewTokens(uint indexed idProposal);\n}\n",
  "sourcePath": "/Users/willharborne/Desktop/repos/community-gateway/solidity/contracts/TokenListingManager.sol",
  "compiler": {
    "name": "solc",
    "version": "0.5.0+commit.1d4f565a.Emscripten.clang"
  },
  "schemaVersion": "3.0.1",
  "updatedAt": "2019-02-18T00:19:03.197Z",
  "devdoc": {
    "author": "Will Harborne @ Ethfinex",
    "methods": {
      "addAdmin(address)": {
        "params": {
          "_newAdmin": "Address of new admin"
        }
      },
      "proposal(uint256)": {
        "params": {
          "_proposalId": "Id of proposal"
        }
      },
      "removeAdmin(address)": {
        "params": {
          "_admin": "Address of current admin"
        }
      },
      "startTokenVotes(address[],uint256,uint256,uint256)": {
        "params": {
          "_criteria": "number that determines how winner is selected",
          "_duration": "number of days for voting",
          "_extraData": "extra data for criteria parameter",
          "_tokens": "the list of tokens in consideration during this period"
        }
      },
      "vote(uint256,uint256)": {
        "params": {
          "_tokenIndex": "is the position from 0-9 in the token array of the chosen token"
        }
      }
    },
    "title": "ProposalManager Contract"
  },
  "userdoc": {
    "methods": {
      "addAdmin(address)": {
        "notice": "Any admin is able to add new admin"
      },
      "endTokenVote(uint256)": {
        "notice": "Anyone can end the vote if it has completed"
      },
      "numberOfProposals()": {
        "notice": "Get number of proposals so you can know which is the last one"
      },
      "proposal(uint256)": {
        "notice": "Get data about specific proposal"
      },
      "removeAdmin(address)": {
        "notice": "Only owner is able to remove admin"
      },
      "startTokenVotes(address[],uint256,uint256,uint256)": {
        "notice": "Admins are able to approve proposal that someone submitted"
      },
      "vote(uint256,uint256)": {
        "notice": "Vote for specific token with yes"
      }
    }
  }
}