{
  "contractName": "TokenListingManager",
  "abi": [
    {
      "constant": true,
      "inputs": [
        {
          "name": "",
          "type": "address"
        }
      ],
      "name": "admins",
      "outputs": [
        {
          "name": "",
          "type": "bool"
        }
      ],
      "payable": false,
      "stateMutability": "view",
      "type": "function"
    },
    {
      "constant": true,
      "inputs": [],
      "name": "TOKEN_FACTORY",
      "outputs": [
        {
          "name": "",
          "type": "address"
        }
      ],
      "payable": false,
      "stateMutability": "view",
      "type": "function"
    },
    {
      "constant": true,
      "inputs": [],
      "name": "NECTAR_TOKEN",
      "outputs": [
        {
          "name": "",
          "type": "address"
        }
      ],
      "payable": false,
      "stateMutability": "view",
      "type": "function"
    },
    {
      "constant": true,
      "inputs": [
        {
          "name": "",
          "type": "uint256"
        }
      ],
      "name": "tokenBatches",
      "outputs": [
        {
          "name": "startBlock",
          "type": "uint256"
        },
        {
          "name": "startTime",
          "type": "uint256"
        },
        {
          "name": "duration",
          "type": "uint256"
        },
        {
          "name": "votingToken",
          "type": "address"
        },
        {
          "name": "criteria",
          "type": "uint256"
        },
        {
          "name": "extraData",
          "type": "uint256"
        }
      ],
      "payable": false,
      "stateMutability": "view",
      "type": "function"
    },
    {
      "constant": true,
      "inputs": [],
      "name": "owner",
      "outputs": [
        {
          "name": "",
          "type": "address"
        }
      ],
      "payable": false,
      "stateMutability": "view",
      "type": "function"
    },
    {
      "constant": true,
      "inputs": [],
      "name": "nectarToken",
      "outputs": [
        {
          "name": "",
          "type": "address"
        }
      ],
      "payable": false,
      "stateMutability": "view",
      "type": "function"
    },
    {
      "constant": true,
      "inputs": [],
      "name": "tokenFactory",
      "outputs": [
        {
          "name": "",
          "type": "address"
        }
      ],
      "payable": false,
      "stateMutability": "view",
      "type": "function"
    },
    {
      "constant": true,
      "inputs": [],
      "name": "MAX_CANDIDATES",
      "outputs": [
        {
          "name": "",
          "type": "uint256"
        }
      ],
      "payable": false,
      "stateMutability": "view",
      "type": "function"
    },
    {
      "constant": false,
      "inputs": [
        {
          "name": "newOwner",
          "type": "address"
        }
      ],
      "name": "transferOwnership",
      "outputs": [],
      "payable": false,
      "stateMutability": "nonpayable",
      "type": "function"
    },
    {
      "inputs": [
        {
          "name": "_tokenFactory",
          "type": "address"
        },
        {
          "name": "_nectarToken",
          "type": "address"
        }
      ],
      "payable": false,
      "stateMutability": "nonpayable",
      "type": "constructor"
    },
    {
      "anonymous": false,
      "inputs": [
        {
          "indexed": true,
          "name": "idProposal",
          "type": "uint256"
        },
        {
          "indexed": true,
          "name": "_voter",
          "type": "address"
        },
        {
          "indexed": false,
          "name": "chosenToken",
          "type": "address"
        },
        {
          "indexed": false,
          "name": "amount",
          "type": "uint256"
        }
      ],
      "name": "Vote",
      "type": "event"
    },
    {
      "anonymous": false,
      "inputs": [
        {
          "indexed": true,
          "name": "idProposal",
          "type": "uint256"
        }
      ],
      "name": "NewTokens",
      "type": "event"
    },
    {
      "anonymous": false,
      "inputs": [
        {
          "indexed": true,
          "name": "previousOwner",
          "type": "address"
        },
        {
          "indexed": true,
          "name": "newOwner",
          "type": "address"
        }
      ],
      "name": "OwnershipTransferred",
      "type": "event"
    },
    {
      "constant": false,
      "inputs": [
        {
          "name": "_tokens",
          "type": "address[]"
        },
        {
          "name": "_duration",
          "type": "uint256"
        },
        {
          "name": "_criteria",
          "type": "uint256"
        },
        {
          "name": "_extraData",
          "type": "uint256"
        }
      ],
      "name": "startTokenVotes",
      "outputs": [],
      "payable": false,
      "stateMutability": "nonpayable",
      "type": "function"
    },
    {
      "constant": false,
      "inputs": [
        {
          "name": "_tokenIndex",
          "type": "uint256"
        },
        {
          "name": "_amount",
          "type": "uint256"
        }
      ],
      "name": "vote",
      "outputs": [],
      "payable": false,
      "stateMutability": "nonpayable",
      "type": "function"
    },
    {
      "constant": true,
      "inputs": [
        {
          "name": "_proposalId",
          "type": "uint256"
        }
      ],
      "name": "getWinners",
      "outputs": [
        {
          "name": "winners",
          "type": "address[]"
        }
      ],
      "payable": false,
      "stateMutability": "view",
      "type": "function"
    },
    {
      "constant": true,
      "inputs": [],
      "name": "numberOfProposals",
      "outputs": [
        {
          "name": "",
          "type": "uint256"
        }
      ],
      "payable": false,
      "stateMutability": "view",
      "type": "function"
    },
    {
      "constant": false,
      "inputs": [
        {
          "name": "_newAdmin",
          "type": "address"
        }
      ],
      "name": "addAdmin",
      "outputs": [],
      "payable": false,
      "stateMutability": "nonpayable",
      "type": "function"
    },
    {
      "constant": false,
      "inputs": [
        {
          "name": "_admin",
          "type": "address"
        }
      ],
      "name": "removeAdmin",
      "outputs": [],
      "payable": false,
      "stateMutability": "nonpayable",
      "type": "function"
    },
    {
      "constant": true,
      "inputs": [
        {
          "name": "_proposalId",
          "type": "uint256"
        }
      ],
      "name": "proposal",
      "outputs": [
        {
          "name": "_startBlock",
          "type": "uint256"
        },
        {
          "name": "_startTime",
          "type": "uint256"
        },
        {
          "name": "_duration",
          "type": "uint256"
        },
        {
          "name": "_active",
          "type": "bool"
        },
        {
          "name": "_finalized",
          "type": "bool"
        },
        {
          "name": "_votes",
          "type": "uint256[]"
        },
        {
          "name": "_tokens",
          "type": "address[]"
        },
        {
          "name": "_votingToken",
          "type": "address"
        },
        {
          "name": "_hasBalance",
          "type": "bool"
        }
      ],
      "payable": false,
      "stateMutability": "view",
      "type": "function"
    },
    {
      "constant": true,
      "inputs": [
        {
          "name": "_admin",
          "type": "address"
        }
      ],
      "name": "isAdmin",
      "outputs": [
        {
          "name": "",
          "type": "bool"
        }
      ],
      "payable": false,
      "stateMutability": "view",
      "type": "function"
    },
    {
      "constant": false,
      "inputs": [
        {
          "name": "",
          "type": "address"
        }
      ],
      "name": "proxyPayment",
      "outputs": [
        {
          "name": "",
          "type": "bool"
        }
      ],
      "payable": true,
      "stateMutability": "payable",
      "type": "function"
    },
    {
      "constant": true,
      "inputs": [
        {
          "name": "",
          "type": "address"
        },
        {
          "name": "",
          "type": "address"
        },
        {
          "name": "",
          "type": "uint256"
        }
      ],
      "name": "onTransfer",
      "outputs": [
        {
          "name": "",
          "type": "bool"
        }
      ],
      "payable": false,
      "stateMutability": "pure",
      "type": "function"
    },
    {
      "constant": true,
      "inputs": [
        {
          "name": "",
          "type": "address"
        },
        {
          "name": "",
          "type": "address"
        },
        {
          "name": "",
          "type": "uint256"
        }
      ],
      "name": "onApprove",
      "outputs": [
        {
          "name": "",
          "type": "bool"
        }
      ],
      "payable": false,
      "stateMutability": "pure",
      "type": "function"
    }
  ],
  "bytecode": "0x608060405234801561001057600080fd5b50604051604080611ce783398101604090815281516020928301516000805433600160a060020a031991821681178355600280548316600160a060020a03968716179055600380549092169490931693909317909255815260049092528120805460ff19166001179055611c5d90819061008a90396000f3006080604052600436106100f85763ffffffff60e060020a6000350416630b334fd181146100fd5780631785f53c1461016157806324d7806c1461018257806330326c17146101b7578063429b62e5146102af5780634a393149146102d05780635a58fe4b146102fa5780635fce4a181461032b5780636b1426a41461034057806370480275146103a85780637fe4aa6f146103c95780638d7af4731461041c5780638da5cb5b14610443578063a5df10ce14610458578063b384abef1461046d578063da682aeb146102d0578063e77772fe14610488578063f07860961461049d578063f2fde38b146104b2578063f48c3054146104d3575b600080fd5b34801561010957600080fd5b506040805160206004803580820135838102808601850190965280855261015f95369593946024949385019291829185019084908082843750949750508435955050506020830135926040013591506104e79050565b005b34801561016d57600080fd5b5061015f600160a060020a0360043516610a75565b34801561018e57600080fd5b506101a3600160a060020a0360043516610aad565b604080519115158252519081900360200190f35b3480156101c357600080fd5b506101cf600435610acb565b604080518a815260208082018b905291810189905287151560608201528615156080820152600160a060020a03841660e082015282151561010082015261012060a0820181815287519183019190915286519192909160c0840191610140850191898201910280838360005b8381101561025357818101518382015260200161023b565b50505050905001838103825286818151815260200191508051906020019060200280838360005b8381101561029257818101518382015260200161027a565b505050509050019b50505050505050505050505060405180910390f35b3480156102bb57600080fd5b506101a3600160a060020a0360043516610d3a565b3480156102dc57600080fd5b506101a3600160a060020a0360043581169060243516604435610d4f565b34801561030657600080fd5b5061030f610d58565b60408051600160a060020a039092168252519081900360200190f35b34801561033757600080fd5b5061030f610d70565b34801561034c57600080fd5b50610358600435610d88565b60408051602080825283518183015283519192839290830191858101910280838360005b8381101561039457818101518382015260200161037c565b505050509050019250505060405180910390f35b3480156103b457600080fd5b5061015f600160a060020a0360043516611339565b3480156103d557600080fd5b506103e1600435611371565b60408051968752602087019590955285850193909352600160a060020a039091166060850152608084015260a0830152519081900360c00190f35b34801561042857600080fd5b506104316113c4565b60408051918252519081900360200190f35b34801561044f57600080fd5b5061030f6113cb565b34801561046457600080fd5b5061030f6113da565b34801561047957600080fd5b5061015f6004356024356113e9565b34801561049457600080fd5b5061030f611787565b3480156104a957600080fd5b50610431611796565b3480156104be57600080fd5b5061015f600160a060020a036004351661179b565b6101a3600160a060020a036004351661182f565b60006104f1611a17565b60006104fc33610aad565b151561050757600080fd5b86516014101561051657600080fd5b846001141561052c578651841061052c57600080fd5b600154925060008311156106df5760018054600019850190811061054c57fe5b90600052602060002090600802016101006040519081016040529081600082018054806020026020016040519081016040528092919081815260200182805480156105c057602002820191906000526020600020905b8154600160a060020a031681526001909101906020018083116105a2575b505050505081526020016001820154815260200160028201548152602001600382015481526020016004820160009054906101000a9004600160a060020a0316600160a060020a0316600160a060020a031681526020016005820180548060200260200160405190810160405280929190818152602001828054801561066557602002820191906000526020600020905b815481526020019060010190808311610651575b505050505081526020016006820154815260200160078201548152505091508160800151600160a060020a0316630f23cbaa6040518163ffffffff1660e060020a028152600401600060405180830381600087803b1580156106c657600080fd5b505af11580156106da573d6000803e3d6000fd5b505050505b60018054906106f090828101611a66565b5060018054849081106106ff57fe5b90600052602060002090600802019050856201518002816003018190555086816000019080519060200190610735929190611a97565b508651604051908082528060200260200182016040528015610761578160200160208202803883390190505b508051610778916005840191602090910190611b09565b50600254600354600160a060020a039182169163408e097c911661079a611835565b6107d96040805190810160405280600e81526020017f456678546f6b656e566f7465732d00000000000000000000000000000000000081525088611839565b600360009054906101000a9004600160a060020a0316600160a060020a031663313ce5676040518163ffffffff1660e060020a028152600401602060405180830381600087803b15801561082c57600080fd5b505af1158015610840573d6000803e3d6000fd5b505050506040513d602081101561085657600080fd5b505160408051808201909152600e81527f456678546f6b656e566f7465732d0000000000000000000000000000000000006020820152610896908a611839565b60405160e060020a63ffffffff8816028152600160a060020a038616600482019081526024820186905260ff84166064830152600160a4830181905260c060448401908152865160c4850152865191939091608482019160e40190602089019080838360005b838110156109145781810151838201526020016108fc565b50505050905090810190601f1680156109415780820380516001836020036101000a031916815260200191505b50838103825285518152855160209182019187019080838360005b8381101561097457818101518382015260200161095c565b50505050905090810190601f1680156109a15780820380516001836020036101000a031916815260200191505b5098505050505050505050602060405180830381600087803b1580156109c657600080fd5b505af11580156109da573d6000803e3d6000fd5b505050506040513d60208110156109f057600080fd5b505160048201805473ffffffffffffffffffffffffffffffffffffffff1916600160a060020a03909216919091179055426002820155610a2e611835565b6001820155600681018590556007810184905560405183907fd7c894eab7da0862dea424c47485ac49eab56e3690186d9ee97bfc895e0eb5e990600090a250505050505050565b600054600160a060020a03163314610a8c57600080fd5b600160a060020a03166000908152600460205260409020805460ff19169055565b600160a060020a031660009081526004602052604090205460ff1690565b6000806000806000606080600080610ae1611a17565b6001548b10610aef57600080fd5b600180548c908110610afd57fe5b9060005260206000209060080201610100604051908101604052908160008201805480602002602001604051908101604052809291908181526020018280548015610b7157602002820191906000526020600020905b8154600160a060020a03168152600190910190602001808311610b53575b505050505081526020016001820154815260200160028201548152602001600382015481526020016004820160009054906101000a9004600160a060020a0316600160a060020a0316600160a060020a0316815260200160058201805480602002602001604051908101604052809291908181526020018280548015610c1657602002820191906000526020600020905b815481526020019060010190808311610c02575b5050505050815260200160068201548152602001600782015481525050905080602001519950806040015198508060600151975042888a0110955085158015610c695750610c62611835565b8160200151105b60a08201518251608084015192995090965094509250600160a060020a03831615610d27576080810151604080517f70a082310000000000000000000000000000000000000000000000000000000081523360048201529051600092600160a060020a0316916370a0823191602480830192602092919082900301818787803b158015610cf557600080fd5b505af1158015610d09573d6000803e3d6000fd5b505050506040513d6020811015610d1f57600080fd5b505111610d2a565b60005b9150509193959799909294969850565b60046020526000908152604090205460ff1681565b60019392505050565b736eb97237b8bc26e8057793200207bb0a2a83c34781565b73cc80c051057b774cd75067dc48f8987c4eb97a5e81565b6060610d92611a17565b600080606060008060008060006001805490508b101515610db257600080fd5b600180548c908110610dc057fe5b9060005260206000209060080201610100604051908101604052908160008201805480602002602001604051908101604052809291908181526020018280548015610e3457602002820191906000526020600020905b8154600160a060020a03168152600190910190602001808311610e16575b505050505081526020016001820154815260200160028201548152602001600382015481526020016004820160009054906101000a9004600160a060020a0316600160a060020a0316600160a060020a0316815260200160058201805480602002602001604051908101604052809291908181526020018280548015610ed957602002820191906000526020600020905b815481526020019060010190808311610ec5575b505050505081526020016006820154815260200160078201548152505098508860c0015160001415610fc357604080516001808252818301909252906020808301908038833901905050995060009750600096505b885151871015610f845760a0890151805189908110610f4957fe5b906020019060200201518960a0015188815181101515610f6557fe5b906020019060200201511115610f79578697505b600190960195610f2e565b8851805189908110610f9257fe5b906020019060200201518a6000815181101515610fab57fe5b600160a060020a039092166020928302909101909101525b8860c0015160011415611221578860e00151604051908082528060200260200182016040528015610ffe578160200160208202803883390190505b5095508860e0015160405190808252806020026020018201604052801561102f578160200160208202803883390190505b509950600096505b8851518710156111b25760018960e001510394508860a00151868681518110151561105e57fe5b602090810290910101518151811061107257fe5b906020019060200201518960a001518881518110151561108e57fe5b9060200190602002015111156111a7578686868151811015156110ad57fe5b602090810290910101528493505b60008411156111a7578860a0015186600186038151811015156110da57fe5b60209081029091010151815181106110ee57fe5b906020019060200201518960a00151878681518110151561110b57fe5b602090810290910101518151811061111f57fe5b90602001906020020151111561119b57858481518110151561113d57fe5b906020019060200201519250856001850381518110151561115a57fe5b90602001906020020151868581518110151561117257fe5b60209081029091010152855183908790600019870190811061119057fe5b602090810290910101525b600019909301926110bb565b600190960195611037565b600096505b8860e0015187101561122157885186518790899081106111d357fe5b60209081029091010151815181106111e757fe5b906020019060200201518a888151811015156111ff57fe5b600160a060020a039092166020928302909101909101526001909601956111b7565b8860c001516002141561132b5760009150600096505b8851518710156112795760e089015160a08a015180518990811061125757fe5b90602001906020020151111561126e576001909101905b600190960195611237565b816040519080825280602002602001820160405280156112a3578160200160208202803883390190505b50995060009050600096505b88515187101561132b5760e089015160a08a01518051899081106112cf57fe5b9060200190602002015111156113205788518051889081106112ed57fe5b906020019060200201518a8281518110151561130557fe5b600160a060020a039092166020928302909101909101526001015b6001909601956112af565b505050505050505050919050565b61134233610aad565b151561134d57600080fd5b600160a060020a03166000908152600460205260409020805460ff19166001179055565b600180548290811061137f57fe5b600091825260209091206008909102016001810154600282015460038301546004840154600685015460079095015493955091939092600160a060020a039092169186565b6001545b90565b600054600160a060020a031681565b600354600160a060020a031681565b60006113f3611a17565b600154600090811061140457600080fd5b600154600019019250600a851061141a57600080fd5b600180548490811061142857fe5b906000526020600020906008020161010060405190810160405290816000820180548060200260200160405190810160405280929190818152602001828054801561149c57602002820191906000526020600020905b8154600160a060020a0316815260019091019060200180831161147e575b505050505081526020016001820154815260200160028201548152602001600382015481526020016004820160009054906101000a9004600160a060020a0316600160a060020a0316600160a060020a031681526020016005820180548060200260200160405190810160405280929190818152602001828054801561154157602002820191906000526020600020905b81548152602001906001019080831161152d575b5050505050815260200160068201548152602001600782015481525050915081606001518260400151014210151561157857600080fd5b8160800151600160a060020a03166370a08231336040518263ffffffff1660e060020a0281526004018082600160a060020a0316600160a060020a03168152602001915050602060405180830381600087803b1580156115d757600080fd5b505af11580156115eb573d6000803e3d6000fd5b505050506040513d602081101561160157600080fd5b505190508381101561161257600080fd5b6080820151604080517f23b872dd000000000000000000000000000000000000000000000000000000008152336004820152306024820152604481018790529051600160a060020a03909216916323b872dd916064808201926020929091908290030181600087803b15801561168757600080fd5b505af115801561169b573d6000803e3d6000fd5b505050506040513d60208110156116b157600080fd5b505115156116be57600080fd5b836001848154811015156116ce57fe5b9060005260206000209060080201600501868154811015156116ec57fe5b60009182526020909120018054909101905560018054339185917fd3e566fa4d4d8b17c007ba24b9dbb382c9185a03c9ef59477ee3c6132ca0a30691908390811061173357fe5b90600052602060002090600802016000018881548110151561175157fe5b6000918252602091829020015460408051600160a060020a03909216825291810189905281519081900390910190a35050505050565b600254600160a060020a031681565b601481565b600054600160a060020a031633146117b257600080fd5b600160a060020a03811615156117c757600080fd5b60008054604051600160a060020a03808516939216917f8be0079c531659141344cd1fd0a4f28419497f9722a3daafe3b4186f6b6457e091a36000805473ffffffffffffffffffffffffffffffffffffffff1916600160a060020a0392909216919091179055565b50600090565b4390565b60408051606480825260a0820190925260609190829060009081908390819083908760208201610c8080388339019050509550600094508815156118c857855160018601957f30000000000000000000000000000000000000000000000000000000000000009188919081106118ab57fe5b906020010190600160f860020a031916908160001a905350611913565b8815611913578551600a808b049a6001880197919006955060f860020a60308701029188919081106118f657fe5b906020010190600160f860020a031916908160001a9053506118c8565b899250848351016040519080825280601f01601f191660200182016040528015611947578160200160208202803883390190505b509150600090505b82518110156119a757828181518110151561196657fe5b90602001015160f860020a900460f860020a02828281518110151561198757fe5b906020010190600160f860020a031916908160001a90535060010161194f565b5060005b84811015611a0a57858160018703038151811015156119c657fe5b90602001015160f860020a900460f860020a0282845183018151811015156119ea57fe5b906020010190600160f860020a031916908160001a9053506001016119ab565b5098975050505050505050565b61010060405190810160405280606081526020016000815260200160008152602001600081526020016000600160a060020a031681526020016060815260200160008152602001600081525090565b815481835581811115611a9257600802816008028360005260206000209182019101611a929190611b50565b505050565b828054828255906000526020600020908101928215611af9579160200282015b82811115611af9578251825473ffffffffffffffffffffffffffffffffffffffff1916600160a060020a03909116178255602090920191600190910190611ab7565b50611b05929150611bc5565b5090565b828054828255906000526020600020908101928215611b44579160200282015b82811115611b44578251825591602001919060010190611b29565b50611b05929150611bf6565b6113c891905b80821115611b05576000611b6a8282611c10565b600060018301819055600283018190556003830181905560048301805473ffffffffffffffffffffffffffffffffffffffff19169055611bae906005840190611c10565b506000600682018190556007820155600801611b56565b6113c891905b80821115611b0557805473ffffffffffffffffffffffffffffffffffffffff19168155600101611bcb565b6113c891905b80821115611b055760008155600101611bfc565b5080546000825590600052602060002090810190611c2e9190611bf6565b505600a165627a7a72305820abbe305e262ab8f5dd310f1446433cd964dc50d056d796ef4cba256e096a9ff60029",
  "source": "pragma solidity ^0.4.24;\n\nimport \"./DestructibleMiniMeTokenFactory.sol\";\nimport \"./Ownable.sol\";\n\n/*\n    Copyright 2018, Will Harborne @ Ethfinex\n*/\n\n/*\n    Improvement ideas\n\n    Basic Parameters:\n        Criteria to win the vote (i.e. top 3, all tokens receiving over a certain number of votes)\n\n    Advanced Vote Styles:\n        Carry over of votes and tokens to next round (i.e. half life on votes carried over to next round)\n        Infinitely growing list of tokens included on list instead of replaced each time\n        Allow delegation of votes to be set automatically by users (i.e. delegate votes always to go to a certain address to vote on your behalf)\n        Have two separate lists which can be voted on using the same tokens (i.e. pre-ICO tokens on one list and post-ICO tokens on another)\n        Most numbers of distinct voters over a certain size of EVT instead of total number of EVT to win\n\n*/\n\n/// @title ProposalManager Contract\n/// @author Will Harborne @ Ethfinex\ncontract TokenListingManager is Ownable {\n\n    address public constant NECTAR_TOKEN = 0xCc80C051057B774cD75067Dc48f8987C4Eb97A5e;\n    address public constant TOKEN_FACTORY = 0x6EB97237B8bc26E8057793200207bB0a2A83C347;\n    uint public constant MAX_CANDIDATES = 20;\n\n    struct TokenProposal {\n        address[] consideredTokens;\n        uint startBlock;\n        uint startTime;\n        uint duration;\n        address votingToken;\n        uint[] yesVotes;\n        // criteria values\n        // 0. only first one win the vote; \n        // 1. top N (number in extraData) win the vote;\n        // 2. All over N (number in extra data) votes win the vote;\n        uint criteria; \n        uint extraData;\n    }\n\n    TokenProposal[] public tokenBatches;\n\n    DestructibleMiniMeTokenFactory public tokenFactory;\n    address public nectarToken;\n    mapping(address => bool) public admins;\n\n    modifier onlyAdmins() {\n        require(isAdmin(msg.sender));\n        _;\n    }\n\n    constructor(address _tokenFactory, address _nectarToken) public {\n        tokenFactory = DestructibleMiniMeTokenFactory(_tokenFactory);\n        nectarToken = _nectarToken;\n        admins[msg.sender] = true;\n    }\n\n    /// @notice Admins are able to approve proposal that someone submitted\n    /// @param _tokens the list of tokens in consideration during this period\n    /// @param _duration number of days for voting\n    /// @param _criteria number that determines how winner is selected\n    /// @param _extraData extra data for criteria parameter\n    function startTokenVotes(address[] _tokens, uint _duration, uint _criteria, uint _extraData) public onlyAdmins {\n        require(_tokens.length <= MAX_CANDIDATES);\n\n        if (_criteria == 1) {\n            // in other case all tokens would be winners\n            require(_extraData < _tokens.length);\n        }\n\n        uint _proposalId = tokenBatches.length;\n        if (_proposalId > 0) {\n            TokenProposal memory op = tokenBatches[_proposalId - 1];\n            DestructibleMiniMeToken(op.votingToken).recycle();\n        }\n        tokenBatches.length++;\n        TokenProposal storage p = tokenBatches[_proposalId];\n        p.duration = _duration * (1 days);\n\n        p.consideredTokens = _tokens;\n        p.yesVotes = new uint[](_tokens.length);\n\n        p.votingToken = tokenFactory.createDestructibleCloneToken(\n                nectarToken,\n                getBlockNumber(),\n                appendUintToString(\"EfxTokenVotes-\", _proposalId),\n                MiniMeToken(nectarToken).decimals(),\n                appendUintToString(\"EfxTokenVotes-\", _proposalId),\n                true);\n\n        p.startTime = now;\n        p.startBlock = getBlockNumber();\n        p.criteria = _criteria;\n        p.extraData = _extraData;\n\n        emit NewTokens(_proposalId);\n    }\n\n    /// @notice Vote for specific token with yes\n    /// @param _tokenIndex is the position from 0-9 in the token array of the chosen token\n    function vote(uint _tokenIndex, uint _amount) public {\n        // voting only on the most recent set of proposed tokens\n        require(tokenBatches.length > 0);\n        uint _proposalId = tokenBatches.length - 1;\n        require(_tokenIndex < 10);\n\n        TokenProposal memory p = tokenBatches[_proposalId];\n\n        require(now < p.startTime + p.duration);\n\n        uint amount = DestructibleMiniMeToken(p.votingToken).balanceOf(msg.sender);\n        require(amount >= _amount);\n\n        require(DestructibleMiniMeToken(p.votingToken).transferFrom(msg.sender, address(this), _amount));\n\n        tokenBatches[_proposalId].yesVotes[_tokenIndex] += _amount;\n\n        emit Vote(_proposalId, msg.sender, tokenBatches[_proposalId].consideredTokens[_tokenIndex], _amount);\n    }\n\n    function getWinners(uint _proposalId) public view returns(address[] winners) {\n        require(_proposalId < tokenBatches.length);\n\n        TokenProposal memory p = tokenBatches[_proposalId];\n\n        // there is only one winner in criteria 0\n        if (p.criteria == 0) {\n            winners = new address[](1);\n            uint max = 0;\n\n            for (uint i=0; i < p.consideredTokens.length; i++) {\n                if (p.yesVotes[i] > p.yesVotes[max]) {\n                    max = i;\n                }\n            }\n\n            winners[0] = p.consideredTokens[max];\n        }\n\n        // there is N winners in criteria 1\n        if (p.criteria == 1) {\n            uint[] memory indexesWithMostVotes = new uint[](p.extraData);\n            winners = new address[](p.extraData);\n\n            // for each token we check if he has more votes than last one,\n            // if it has we put it in array and always keep array sorted\n            for (i = 0; i < p.consideredTokens.length; i++) {\n                uint last = p.extraData - 1;\n                if (p.yesVotes[i] > p.yesVotes[indexesWithMostVotes[last]]) {\n                    indexesWithMostVotes[last] = i;\n\n                    for (uint j=last; j > 0; j--) {\n                        if (p.yesVotes[indexesWithMostVotes[j]] > p.yesVotes[indexesWithMostVotes[j-1]]) {\n                            uint help = indexesWithMostVotes[j];\n                            indexesWithMostVotes[j] = indexesWithMostVotes[j-1];\n                            indexesWithMostVotes[j-1] = help; \n                        }\n                    }\n                }\n            }\n\n            for (i = 0; i < p.extraData; i++) {\n                winners[i] = p.consideredTokens[indexesWithMostVotes[i]];\n            }\n        }\n\n        // everybody who has over N votes are winners in criteria 2\n        if (p.criteria == 2) {\n            uint numOfTokens = 0;\n            for (i = 0; i < p.consideredTokens.length; i++) {\n                if (p.yesVotes[i] > p.extraData) {\n                    numOfTokens++;\n                }\n            }\n\n            winners = new address[](numOfTokens);\n            uint count = 0;\n            for (i = 0; i < p.consideredTokens.length; i++) {\n                if (p.yesVotes[i] > p.extraData) {\n                    winners[count] = p.consideredTokens[i];\n                    count++;\n                }\n            }\n        }\n    }\n\n    /// @notice Get number of proposals so you can know which is the last one\n    function numberOfProposals() public view returns(uint) {\n        return tokenBatches.length;\n    }\n\n    /// @notice Any admin is able to add new admin\n    /// @param _newAdmin Address of new admin\n    function addAdmin(address _newAdmin) public onlyAdmins {\n        admins[_newAdmin] = true;\n    }\n\n    /// @notice Only owner is able to remove admin\n    /// @param _admin Address of current admin\n    function removeAdmin(address _admin) public onlyOwner {\n        admins[_admin] = false;\n    }\n\n    /// @notice Get data about specific proposal\n    /// @param _proposalId Id of proposal\n    function proposal(uint _proposalId) public view returns(\n        uint _startBlock,\n        uint _startTime,\n        uint _duration,\n        bool _active,\n        bool _finalized,\n        uint[] _votes,\n        address[] _tokens,\n        address _votingToken,\n        bool _hasBalance\n    ) {\n        require(_proposalId < tokenBatches.length);\n\n        TokenProposal memory p = tokenBatches[_proposalId];\n        _startBlock = p.startBlock;\n        _startTime = p.startTime;\n        _duration = p.duration;\n        _finalized = (_startTime+_duration < now);\n        _active = !_finalized && (p.startBlock < getBlockNumber());\n        _votes = p.yesVotes;\n        _tokens = p.consideredTokens;\n        _votingToken = p.votingToken;\n        _hasBalance = (p.votingToken == 0x0) ? false : (DestructibleMiniMeToken(p.votingToken).balanceOf(msg.sender) > 0);\n    }\n\n    function isAdmin(address _admin) public view returns(bool) {\n        return admins[_admin];\n    }\n\n    function proxyPayment(address ) public payable returns(bool) {\n        return false;\n    }\n\n    function onTransfer(address, address, uint ) public pure returns(bool) {\n        return true;\n    }\n\n    function onApprove(address, address, uint ) public pure returns(bool) {\n        return true;\n    }\n\n    function getBlockNumber() internal constant returns (uint) {\n        return block.number;\n    }\n\n    function appendUintToString(string inStr, uint v) private pure returns (string str) {\n        uint maxlength = 100;\n        bytes memory reversed = new bytes(maxlength);\n        uint i = 0;\n        if (v == 0) {\n            reversed[i++] = byte(48);\n        } else {\n            while (v != 0) {\n                uint remainder = v % 10;\n                v = v / 10;\n                reversed[i++] = byte(48 + remainder);\n            }\n        }\n        bytes memory inStrb = bytes(inStr);\n        bytes memory s = new bytes(inStrb.length + i);\n        uint j;\n        for (j = 0; j < inStrb.length; j++) {\n            s[j] = inStrb[j];\n        }\n        for (j = 0; j < i; j++) {\n            s[j + inStrb.length] = reversed[i - 1 - j];\n        }\n        str = string(s);\n    }\n\n    event Vote(uint indexed idProposal, address indexed _voter, address chosenToken, uint amount);\n    event NewTokens(uint indexed idProposal);\n}\n",
  "sourcePath": "/Users/nikolaklipa/Decenter/community-gateway/solidity/contracts/TokenListingManager.sol",
  "compiler": {
    "name": "solc",
    "version": "0.4.24+commit.e67f0147.Emscripten.clang"
  },
  "schemaVersion": "2.0.1",
  "updatedAt": "2018-08-17T14:31:31.484Z"
}