{
  "contractName": "TokenListingManagerAdvanced",
  "abi": [
    {
      "constant": true,
      "inputs": [
        {
          "name": "",
          "type": "address"
        }
      ],
      "name": "isDelegate",
      "outputs": [
        {
          "name": "",
          "type": "bool"
        }
      ],
      "payable": false,
      "stateMutability": "view",
      "type": "function"
    },
    {
      "constant": true,
      "inputs": [
        {
          "name": "",
          "type": "uint256"
        }
      ],
      "name": "yesVotes",
      "outputs": [
        {
          "name": "",
          "type": "uint256"
        }
      ],
      "payable": false,
      "stateMutability": "view",
      "type": "function"
    },
    {
      "constant": true,
      "inputs": [
        {
          "name": "",
          "type": "address"
        }
      ],
      "name": "allWinners",
      "outputs": [
        {
          "name": "",
          "type": "bool"
        }
      ],
      "payable": false,
      "stateMutability": "view",
      "type": "function"
    },
    {
      "constant": true,
      "inputs": [
        {
          "name": "",
          "type": "address"
        }
      ],
      "name": "admins",
      "outputs": [
        {
          "name": "",
          "type": "bool"
        }
      ],
      "payable": false,
      "stateMutability": "view",
      "type": "function"
    },
    {
      "constant": true,
      "inputs": [],
      "name": "TOKEN_FACTORY",
      "outputs": [
        {
          "name": "",
          "type": "address"
        }
      ],
      "payable": false,
      "stateMutability": "view",
      "type": "function"
    },
    {
      "constant": true,
      "inputs": [],
      "name": "NECTAR_TOKEN",
      "outputs": [
        {
          "name": "",
          "type": "address"
        }
      ],
      "payable": false,
      "stateMutability": "view",
      "type": "function"
    },
    {
      "constant": true,
      "inputs": [
        {
          "name": "",
          "type": "uint256"
        }
      ],
      "name": "consideredTokens",
      "outputs": [
        {
          "name": "",
          "type": "address"
        }
      ],
      "payable": false,
      "stateMutability": "view",
      "type": "function"
    },
    {
      "constant": true,
      "inputs": [
        {
          "name": "",
          "type": "uint256"
        }
      ],
      "name": "tokenBatches",
      "outputs": [
        {
          "name": "startBlock",
          "type": "uint256"
        },
        {
          "name": "startTime",
          "type": "uint256"
        },
        {
          "name": "duration",
          "type": "uint256"
        },
        {
          "name": "votingToken",
          "type": "address"
        },
        {
          "name": "criteria",
          "type": "uint256"
        },
        {
          "name": "extraData",
          "type": "uint256"
        }
      ],
      "payable": false,
      "stateMutability": "view",
      "type": "function"
    },
    {
      "constant": true,
      "inputs": [],
      "name": "owner",
      "outputs": [
        {
          "name": "",
          "type": "address"
        }
      ],
      "payable": false,
      "stateMutability": "view",
      "type": "function"
    },
    {
      "constant": true,
      "inputs": [
        {
          "name": "",
          "type": "address"
        }
      ],
      "name": "myDelegate",
      "outputs": [
        {
          "name": "",
          "type": "address"
        }
      ],
      "payable": false,
      "stateMutability": "view",
      "type": "function"
    },
    {
      "constant": true,
      "inputs": [
        {
          "name": "",
          "type": "uint256"
        }
      ],
      "name": "allDelegates",
      "outputs": [
        {
          "name": "user",
          "type": "address"
        },
        {
          "name": "storageHash",
          "type": "bytes32"
        },
        {
          "name": "exists",
          "type": "bool"
        }
      ],
      "payable": false,
      "stateMutability": "view",
      "type": "function"
    },
    {
      "constant": true,
      "inputs": [],
      "name": "nectarToken",
      "outputs": [
        {
          "name": "",
          "type": "address"
        }
      ],
      "payable": false,
      "stateMutability": "view",
      "type": "function"
    },
    {
      "constant": true,
      "inputs": [
        {
          "name": "",
          "type": "address"
        }
      ],
      "name": "tokenExists",
      "outputs": [
        {
          "name": "",
          "type": "bool"
        }
      ],
      "payable": false,
      "stateMutability": "view",
      "type": "function"
    },
    {
      "constant": true,
      "inputs": [
        {
          "name": "",
          "type": "address"
        },
        {
          "name": "",
          "type": "uint256"
        }
      ],
      "name": "myVotes",
      "outputs": [
        {
          "name": "",
          "type": "address"
        }
      ],
      "payable": false,
      "stateMutability": "view",
      "type": "function"
    },
    {
      "constant": true,
      "inputs": [],
      "name": "tokenFactory",
      "outputs": [
        {
          "name": "",
          "type": "address"
        }
      ],
      "payable": false,
      "stateMutability": "view",
      "type": "function"
    },
    {
      "constant": true,
      "inputs": [],
      "name": "MAX_CANDIDATES",
      "outputs": [
        {
          "name": "",
          "type": "uint256"
        }
      ],
      "payable": false,
      "stateMutability": "view",
      "type": "function"
    },
    {
      "constant": false,
      "inputs": [
        {
          "name": "newOwner",
          "type": "address"
        }
      ],
      "name": "transferOwnership",
      "outputs": [],
      "payable": false,
      "stateMutability": "nonpayable",
      "type": "function"
    },
    {
      "inputs": [
        {
          "name": "_tokenFactory",
          "type": "address"
        },
        {
          "name": "_nectarToken",
          "type": "address"
        }
      ],
      "payable": false,
      "stateMutability": "nonpayable",
      "type": "constructor"
    },
    {
      "anonymous": false,
      "inputs": [
        {
          "indexed": true,
          "name": "idProposal",
          "type": "uint256"
        },
        {
          "indexed": true,
          "name": "_voter",
          "type": "address"
        },
        {
          "indexed": false,
          "name": "chosenToken",
          "type": "address"
        },
        {
          "indexed": false,
          "name": "amount",
          "type": "uint256"
        }
      ],
      "name": "Vote",
      "type": "event"
    },
    {
      "anonymous": false,
      "inputs": [
        {
          "indexed": true,
          "name": "idProposal",
          "type": "uint256"
        }
      ],
      "name": "NewTokens",
      "type": "event"
    },
    {
      "anonymous": false,
      "inputs": [
        {
          "indexed": true,
          "name": "previousOwner",
          "type": "address"
        },
        {
          "indexed": true,
          "name": "newOwner",
          "type": "address"
        }
      ],
      "name": "OwnershipTransferred",
      "type": "event"
    },
    {
      "constant": false,
      "inputs": [
        {
          "name": "_tokens",
          "type": "address[]"
        },
        {
          "name": "_duration",
          "type": "uint256"
        },
        {
          "name": "_criteria",
          "type": "uint256"
        },
        {
          "name": "_extraData",
          "type": "uint256"
        },
        {
          "name": "_previousWinners",
          "type": "address[]"
        }
      ],
      "name": "startTokenVotes",
      "outputs": [],
      "payable": false,
      "stateMutability": "nonpayable",
      "type": "function"
    },
    {
      "constant": false,
      "inputs": [
        {
          "name": "_tokenIndex",
          "type": "uint256"
        },
        {
          "name": "_amount",
          "type": "uint256"
        }
      ],
      "name": "vote",
      "outputs": [],
      "payable": false,
      "stateMutability": "nonpayable",
      "type": "function"
    },
    {
      "constant": false,
      "inputs": [
        {
          "name": "_storageHash",
          "type": "bytes32"
        }
      ],
      "name": "registerAsDelegate",
      "outputs": [],
      "payable": false,
      "stateMutability": "nonpayable",
      "type": "function"
    },
    {
      "constant": true,
      "inputs": [],
      "name": "delegateCount",
      "outputs": [
        {
          "name": "",
          "type": "uint256"
        }
      ],
      "payable": false,
      "stateMutability": "view",
      "type": "function"
    },
    {
      "constant": false,
      "inputs": [
        {
          "name": "_to",
          "type": "address"
        }
      ],
      "name": "delegateVote",
      "outputs": [],
      "payable": false,
      "stateMutability": "nonpayable",
      "type": "function"
    },
    {
      "constant": true,
      "inputs": [
        {
          "name": "_proposalId",
          "type": "uint256"
        }
      ],
      "name": "getWinners",
      "outputs": [
        {
          "name": "winners",
          "type": "address[]"
        }
      ],
      "payable": false,
      "stateMutability": "view",
      "type": "function"
    },
    {
      "constant": true,
      "inputs": [],
      "name": "numberOfProposals",
      "outputs": [
        {
          "name": "",
          "type": "uint256"
        }
      ],
      "payable": false,
      "stateMutability": "view",
      "type": "function"
    },
    {
      "constant": false,
      "inputs": [
        {
          "name": "_newAdmin",
          "type": "address"
        }
      ],
      "name": "addAdmin",
      "outputs": [],
      "payable": false,
      "stateMutability": "nonpayable",
      "type": "function"
    },
    {
      "constant": false,
      "inputs": [
        {
          "name": "_admin",
          "type": "address"
        }
      ],
      "name": "removeAdmin",
      "outputs": [],
      "payable": false,
      "stateMutability": "nonpayable",
      "type": "function"
    },
    {
      "constant": true,
      "inputs": [
        {
          "name": "_proposalId",
          "type": "uint256"
        }
      ],
      "name": "proposal",
      "outputs": [
        {
          "name": "_startBlock",
          "type": "uint256"
        },
        {
          "name": "_startTime",
          "type": "uint256"
        },
        {
          "name": "_duration",
          "type": "uint256"
        },
        {
          "name": "_active",
          "type": "bool"
        },
        {
          "name": "_finalized",
          "type": "bool"
        },
        {
          "name": "_votes",
          "type": "uint256[]"
        },
        {
          "name": "_tokens",
          "type": "address[]"
        },
        {
          "name": "_votingToken",
          "type": "address"
        },
        {
          "name": "_hasBalance",
          "type": "bool"
        }
      ],
      "payable": false,
      "stateMutability": "view",
      "type": "function"
    },
    {
      "constant": true,
      "inputs": [
        {
          "name": "_admin",
          "type": "address"
        }
      ],
      "name": "isAdmin",
      "outputs": [
        {
          "name": "",
          "type": "bool"
        }
      ],
      "payable": false,
      "stateMutability": "view",
      "type": "function"
    },
    {
      "constant": false,
      "inputs": [
        {
          "name": "",
          "type": "address"
        }
      ],
      "name": "proxyPayment",
      "outputs": [
        {
          "name": "",
          "type": "bool"
        }
      ],
      "payable": true,
      "stateMutability": "payable",
      "type": "function"
    },
    {
      "constant": true,
      "inputs": [
        {
          "name": "",
          "type": "address"
        },
        {
          "name": "",
          "type": "address"
        },
        {
          "name": "",
          "type": "uint256"
        }
      ],
      "name": "onTransfer",
      "outputs": [
        {
          "name": "",
          "type": "bool"
        }
      ],
      "payable": false,
      "stateMutability": "pure",
      "type": "function"
    },
    {
      "constant": true,
      "inputs": [
        {
          "name": "",
          "type": "address"
        },
        {
          "name": "",
          "type": "address"
        },
        {
          "name": "",
          "type": "uint256"
        }
      ],
      "name": "onApprove",
      "outputs": [
        {
          "name": "",
          "type": "bool"
        }
      ],
      "payable": false,
      "stateMutability": "pure",
      "type": "function"
    }
  ],
  "bytecode": "0x608060405234801561001057600080fd5b5060405160408061267a83398101604090815281516020928301516000805433600160a060020a031991821681178355600580548316600160a060020a03968716179055600680549092169490931693909317909255815260079092528120805460ff191660011790556125f090819061008a90396000f3006080604052600436106101715763ffffffff60e060020a6000350416630777962781146101765780631785f53c146101ab57806324d7806c146101ce5780632b8343c7146101ef578063302eff451461021957806330326c171461023a5780633e38a2b71461033257806340128db314610347578063429b62e51461035f5780634a393149146103805780635a58fe4b146103aa5780635fce4a18146103db57806362fb9ed6146103f05780636b1426a41461040857806370480275146104705780637fe4aa6f146104915780638d7af473146104e45780638da5cb5b146104f9578063913262031461050e578063947dd6e51461052f578063a5df10ce14610571578063b31e1d4d14610586578063b33f78ca146105a7578063b384abef146105c8578063da682aeb14610380578063dac4cc09146105e3578063db93f37514610607578063e77772fe146106a6578063f0786096146106bb578063f2fde38b146106d0578063f48c3054146106f1575b600080fd5b34801561018257600080fd5b50610197600160a060020a0360043516610705565b604080519115158252519081900360200190f35b3480156101b757600080fd5b506101cc600160a060020a036004351661071a565b005b3480156101da57600080fd5b50610197600160a060020a0360043516610752565b3480156101fb57600080fd5b50610207600435610770565b60408051918252519081900360200190f35b34801561022557600080fd5b50610197600160a060020a036004351661078f565b34801561024657600080fd5b506102526004356107a4565b604080518a815260208082018b905291810189905287151560608201528615156080820152600160a060020a03841660e082015282151561010082015261012060a0820181815287519183019190915286519192909160c0840191610140850191898201910280838360005b838110156102d65781810151838201526020016102be565b50505050905001838103825286818151815260200191508051906020019060200280838360005b838110156103155781810151838201526020016102fd565b505050509050019b50505050505050505050505060405180910390f35b34801561033e57600080fd5b506102076109cc565b34801561035357600080fd5b506101cc6004356109d3565b34801561036b57600080fd5b50610197600160a060020a0360043516610c69565b34801561038c57600080fd5b50610197600160a060020a0360043581169060243516604435610c7e565b3480156103b657600080fd5b506103bf610c87565b60408051600160a060020a039092168252519081900360200190f35b3480156103e757600080fd5b506103bf610c9f565b3480156103fc57600080fd5b506103bf600435610cb7565b34801561041457600080fd5b50610420600435610cdf565b60408051602080825283518183015283519192839290830191858101910280838360005b8381101561045c578181015183820152602001610444565b505050509050019250505060405180910390f35b34801561047c57600080fd5b506101cc600160a060020a03600435166111c9565b34801561049d57600080fd5b506104a9600435611201565b60408051968752602087019590955285850193909352600160a060020a039091166060850152608084015260a0830152519081900360c00190f35b3480156104f057600080fd5b50610207611251565b34801561050557600080fd5b506103bf611257565b34801561051a57600080fd5b506103bf600160a060020a0360043516611266565b34801561053b57600080fd5b50610547600435611281565b60408051600160a060020a0390941684526020840192909252151582820152519081900360600190f35b34801561057d57600080fd5b506103bf6112bf565b34801561059257600080fd5b506101cc600160a060020a03600435166112ce565b3480156105b357600080fd5b50610197600160a060020a03600435166114f6565b3480156105d457600080fd5b506101cc60043560243561150b565b3480156105ef57600080fd5b506103bf600160a060020a0360043516602435611a7e565b34801561061357600080fd5b50604080516020600480358082013583810280860185019096528085526101cc953695939460249493850192918291850190849080828437505060408051602060608901358a01803582810280850184018652818552999c8b359c848d01359c968701359b919a50985060809095019650929450810192829185019084908082843750949750611ab59650505050505050565b3480156106b257600080fd5b506103bf612247565b3480156106c757600080fd5b50610207612256565b3480156106dc57600080fd5b506101cc600160a060020a036004351661225b565b610197600160a060020a03600435166122e2565b600c6020526000908152604090205460ff1681565b600054600160a060020a0316331461073157600080fd5b600160a060020a03166000908152600760205260409020805460ff19169055565b600160a060020a031660009081526007602052604090205460ff1690565b600380548290811061077e57fe5b600091825260209091200154905081565b60086020526000908152604090205460ff1681565b60008060008060006060806000806107ba6124ca565b6001548b106107c857600080fd5b600180548c9081106107d657fe5b60009182526020918290206040805160c08101825260069093029091018054808452600182015494840185905260028201549284018390526003820154600160a060020a031660608501526004820154608085015260059091015460a08401529c50919a5090985042898b01109650905085158661085b57506108576122e8565b8151105b6003805460408051602080840282018101909252828152939a508301828280156108a457602002820191906000526020600020905b815481526020019060010190808311610890575b50505050509450600480548060200260200160405190810160405280929190818152602001828054801561090157602002820191906000526020600020905b8154600160a060020a031681526001909101906020018083116108e3575b50505060608401519296509194505050600160a060020a038316156109b9576060810151604080517f70a082310000000000000000000000000000000000000000000000000000000081523360048201529051600092600160a060020a0316916370a0823191602480830192602092919082900301818787803b15801561098757600080fd5b505af115801561099b573d6000803e3d6000fd5b505050506040513d60208110156109b157600080fd5b5051116109bc565b60005b9150509193959799909294969850565b6002545b90565b336000908152600b60205260408120548190600160a060020a031615610b83575050336000908152600b6020526040812054600160a060020a0316905b600160a060020a0382166000908152600a6020526040902054811015610b6557600160a060020a0382166000908152600a60205260409020805433919083908110610a5757fe5b600091825260209091200154600160a060020a03161415610b5d57600160a060020a0382166000908152600a6020526040902080546000198101908110610a9a57fe5b6000918252602080832090910154600160a060020a038581168452600a9092526040909220805491909216919083908110610ad157fe5b60009182526020808320919091018054600160a060020a031916600160a060020a039485161790559184168152600a9091526040902080546000198101908110610b1757fe5b600091825260208083209091018054600160a060020a0319169055600160a060020a0384168252600a905260409020805490610b5790600019830161250a565b50610b65565b600101610a10565b336000908152600b602052604090208054600160a060020a03191690555b5050336000818152600c602090815260408083208054600160ff199182168117909255825160608101845295865292850195865290840181815260028054928301815590935292517f405787fa12a823e0f2b7631cc41b3ba8828b3321ca811111fa75cd3aa3bb5ace60039094029384018054600160a060020a031916600160a060020a0390921691909117905592517f405787fa12a823e0f2b7631cc41b3ba8828b3321ca811111fa75cd3aa3bb5acf830155517f405787fa12a823e0f2b7631cc41b3ba8828b3321ca811111fa75cd3aa3bb5ad09091018054909216901515179055565b60076020526000908152604090205460ff1681565b60019392505050565b736eb97237b8bc26e8057793200207bb0a2a83c34781565b73cc80c051057b774cd75067dc48f8987c4eb97a5e81565b6004805482908110610cc557fe5b600091825260209091200154600160a060020a0316905081565b6060610ce96124ca565b600080606060008060008060006001805490508b101515610d0957600080fd5b600180548c908110610d1757fe5b60009182526020918290206040805160c0810182526006909302909101805483526001810154938301939093526002830154908201526003820154600160a060020a0316606082015260048201546080820181905260059092015460a082015299501515610e4357604080516001808252818301909252906020808301908038833901905050995060009750600096505b600454871015610dfa576003805489908110610dc057fe5b9060005260206000200154600388815481101515610dda57fe5b90600052602060002001541115610def578697505b600190960195610da8565b6004805489908110610e0857fe5b60009182526020822001548b51600160a060020a03909116918c918110610e2b57fe5b600160a060020a039092166020928302909101909101525b8860800151600114156110a7578860a00151604051908082528060200260200182016040528015610e7e578160200160208202803883390190505b5095508860a00151604051908082528060200260200182016040528015610eaf578160200160208202803883390190505b509950600096505b60045487101561102a5760018960a0015103945060038686815181101515610edb57fe5b6020908102909101015181548110610eef57fe5b9060005260206000200154600388815481101515610f0957fe5b9060005260206000200154111561101f57868686815181101515610f2957fe5b602090810290910101528493505b600084111561101f5760038660018603815181101515610f5357fe5b6020908102909101015181548110610f6757fe5b906000526020600020015460038786815181101515610f8257fe5b6020908102909101015181548110610f9657fe5b90600052602060002001541115611013578584815181101515610fb557fe5b9060200190602002015192508560018503815181101515610fd257fe5b906020019060200201518685815181101515610fea57fe5b60209081029091010152855183908790600019870190811061100857fe5b602090810290910101525b60001990930192610f37565b600190960195610eb7565b600096505b8860a001518710156110a7576004868881518110151561104b57fe5b602090810290910101518154811061105f57fe5b6000918252602090912001548a51600160a060020a03909116908b908990811061108557fe5b600160a060020a0390921660209283029091019091015260019096019561102f565b8860800151600214156111bb5760009150600096505b6004548710156110fd5760a089015160038054899081106110da57fe5b906000526020600020015411156110f2576001909101905b6001909601956110bd565b81604051908082528060200260200182016040528015611127578160200160208202803883390190505b50995060009050600096505b6004548710156111bb5760a0890151600380548990811061115057fe5b906000526020600020015411156111b057600480548890811061116f57fe5b6000918252602090912001548a51600160a060020a03909116908b908390811061119557fe5b600160a060020a039092166020928302909101909101526001015b600190960195611133565b505050505050505050919050565b6111d233610752565b15156111dd57600080fd5b600160a060020a03166000908152600760205260409020805460ff19166001179055565b600180548290811061120f57fe5b600091825260209091206006909102018054600182015460028301546003840154600485015460059095015493955091939092600160a060020a039092169186565b60015490565b600054600160a060020a031681565b600b60205260009081526040902054600160a060020a031681565b600280548290811061128f57fe5b6000918252602090912060039091020180546001820154600290920154600160a060020a03909116925060ff1683565b600654600160a060020a031681565b600160a060020a0381166000908152600c6020526040812054819060ff1615156112f757600080fd5b336000908152600c602052604090205460ff161561131457600080fd5b336000908152600b6020526040902054600160a060020a0316156114a4575050336000908152600b6020526040812054600160a060020a0316905b600160a060020a0382166000908152600a60205260409020548110156114a457600160a060020a0382166000908152600a6020526040902080543391908390811061139657fe5b600091825260209091200154600160a060020a0316141561149c57600160a060020a0382166000908152600a60205260409020805460001981019081106113d957fe5b6000918252602080832090910154600160a060020a038581168452600a909252604090922080549190921691908390811061141057fe5b60009182526020808320919091018054600160a060020a031916600160a060020a039485161790559184168152600a909152604090208054600019810190811061145657fe5b600091825260208083209091018054600160a060020a0319169055600160a060020a0384168252600a90526040902080549061149690600019830161250a565b506114a4565b60010161134f565b5050336000818152600b602090815260408083208054600160a060020a03909616600160a060020a031996871681179091558352600a8252822080546001810182559083529120018054909216179055565b60096020526000908152604090205460ff1681565b60006115156124ca565b336000908152600b6020526040812054819081908190600160a060020a03161561153e57600080fd5b60015460001061154d57600080fd5b60018054600019810197508790811061156257fe5b60009182526020918290206040805160c081018252600690930290910180548352600181015493830184905260028101549183018290526003810154600160a060020a03166060840152600481015460808401526005015460a08301529096500142106115ce57600080fd5b8693508460600151600160a060020a03166370a08231336040518263ffffffff1660e060020a0281526004018082600160a060020a0316600160a060020a03168152602001915050602060405180830381600087803b15801561163057600080fd5b505af1158015611644573d6000803e3d6000fd5b505050506040513d602081101561165a57600080fd5b5051925083831061170a576060850151604080517fd3ce77fe000000000000000000000000000000000000000000000000000000008152336004820152602481018790529051600160a060020a039092169163d3ce77fe916044808201926020929091908290030181600087803b1580156116d457600080fd5b505af11580156116e8573d6000803e3d6000fd5b505050506040513d60208110156116fe57600080fd5b50600094506117ab9050565b6060850151604080517fd3ce77fe000000000000000000000000000000000000000000000000000000008152336004820152602481018690529051600160a060020a039092169163d3ce77fe916044808201926020929091908290030181600087803b15801561177957600080fd5b505af115801561178d573d6000803e3d6000fd5b505050506040513d60208110156117a357600080fd5b505092829003925b600091505b336000908152600a60205260409020548210156119e3578315156117d3576119e3565b336000908152600a602052604090208054839081106117ee57fe5b9060005260206000200160009054906101000a9004600160a060020a031690508460600151600160a060020a03166370a08231826040518263ffffffff1660e060020a0281526004018082600160a060020a0316600160a060020a03168152602001915050602060405180830381600087803b15801561186d57600080fd5b505af1158015611881573d6000803e3d6000fd5b505050506040513d602081101561189757600080fd5b5051925083831061193f578460600151600160a060020a031663d3ce77fe82866040518363ffffffff1660e060020a0281526004018083600160a060020a0316600160a060020a0316815260200182815260200192505050602060405180830381600087803b15801561190957600080fd5b505af115801561191d573d6000803e3d6000fd5b505050506040513d602081101561193357600080fd5b50600094506119d89050565b8460600151600160a060020a031663d3ce77fe82856040518363ffffffff1660e060020a0281526004018083600160a060020a0316600160a060020a0316815260200182815260200192505050602060405180830381600087803b1580156119a657600080fd5b505af11580156119ba573d6000803e3d6000fd5b505050506040513d60208110156119d057600080fd5b505092829003925b6001909101906117b0565b83156119ee57600080fd5b866003898154811015156119fe57fe5b60009182526020909120018054909101905560048054339188917fd3e566fa4d4d8b17c007ba24b9dbb382c9185a03c9ef59477ee3c6132ca0a30691908c908110611a4557fe5b6000918252602091829020015460408051600160a060020a0390921682529181018c905281519081900390910190a35050505050505050565b600a60205281600052604060002081815481101515611a9957fe5b600091825260209091200154600160a060020a03169150829050565b600080611ac06124ca565b6000611acb33610752565b1515611ad657600080fd5b885160141015611ae557600080fd5b60045485511115611af557600080fd5b600093505b8451841015611b55576001600860008787815181101515611b1757fe5b602090810291909101810151600160a060020a03168252810191909152604001600020805460ff191691151591909117905560019390930192611afa565b8660011415611b6c576004548610611b6c57600080fd5b60015492506000831115611c5457600180546000198501908110611b8c57fe5b600091825260208083206040805160c0810182526006909402909101805484526001810154928401929092526002820154838201526003820154600160a060020a031660608401819052600480840154608086015260059093015460a085015281517f0f23cbaa000000000000000000000000000000000000000000000000000000008152915193965093630f23cbaa9382840193919290919082900301818387803b158015611c3b57600080fd5b505af1158015611c4f573d6000803e3d6000fd5b505050505b6001805490611c6590828101612533565b506001805484908110611c7457fe5b906000526020600020906006020190508762015180028160020181905550600093505b600454841015611e3c5760086000600486815481101515611cb457fe5b6000918252602080832090910154600160a060020a0316835282019290925260400190205460ff1615611def57600480546000198101908110611cf357fe5b60009182526020909120015460048054600160a060020a039092169186908110611d1957fe5b60009182526020909120018054600160a060020a031916600160a060020a0392909216919091179055600380546000198101908110611d5457fe5b9060005260206000200154600385815481101515611d6e57fe5b600091825260209091200155600380546000198101908110611d8c57fe5b6000918252602082200155600480546000198101908110611da957fe5b60009182526020909120018054600160a060020a03191690556003805490611dd590600019830161250a565b506004805490611de990600019830161250a565b50611e37565b6002600385815481101515611e0057fe5b9060005260206000200154811515611e1457fe5b04600385815481101515611e2457fe5b6000918252602090912001556001909301925b611c97565b600093505b8851841015611f5957600960008a86815181101515611e5c57fe5b6020908102909101810151600160a060020a031682528101919091526040016000205460ff1615611e8c57600080fd5b60048985815181101515611e9c57fe5b6020908102919091018101518254600180820185556000948552928420018054600160a060020a031916600160a060020a039092169190911790556003805480830182559083527fc2575a0e9e593c00f959f8c92f12db2869c3395a3b0502d05e2516446f71f85b018290558a5190916009918c9088908110611f1b57fe5b602090810291909101810151600160a060020a03168252810191909152604001600020805460ff191691151591909117905560019390930192611e41565b600554600654600160a060020a039182169163408e097c9116611f7a6122e8565b611fb96040805190810160405280600e81526020017f456678546f6b656e566f7465732d000000000000000000000000000000000000815250886122ec565b600660009054906101000a9004600160a060020a0316600160a060020a031663313ce5676040518163ffffffff1660e060020a028152600401602060405180830381600087803b15801561200c57600080fd5b505af1158015612020573d6000803e3d6000fd5b505050506040513d602081101561203657600080fd5b505160408051808201909152600e81527f456678546f6b656e566f7465732d0000000000000000000000000000000000006020820152612076908a6122ec565b60405160e060020a63ffffffff8816028152600160a060020a038616600482019081526024820186905260ff84166064830152600160a4830181905260c060448401908152865160c4850152865191939091608482019160e40190602089019080838360005b838110156120f45781810151838201526020016120dc565b50505050905090810190601f1680156121215780820380516001836020036101000a031916815260200191505b50838103825285518152855160209182019187019080838360005b8381101561215457818101518382015260200161213c565b50505050905090810190601f1680156121815780820380516001836020036101000a031916815260200191505b5098505050505050505050602060405180830381600087803b1580156121a657600080fd5b505af11580156121ba573d6000803e3d6000fd5b505050506040513d60208110156121d057600080fd5b5051600382018054600160a060020a031916600160a060020a039092169190911790554260018201556122016122e8565b8155600481018790556005810186905560405183907fd7c894eab7da0862dea424c47485ac49eab56e3690186d9ee97bfc895e0eb5e990600090a2505050505050505050565b600554600160a060020a031681565b601481565b600054600160a060020a0316331461227257600080fd5b600160a060020a038116151561228757600080fd5b60008054604051600160a060020a03808516939216917f8be0079c531659141344cd1fd0a4f28419497f9722a3daafe3b4186f6b6457e091a360008054600160a060020a031916600160a060020a0392909216919091179055565b50600090565b4390565b60408051606480825260a0820190925260609190829060009081908390819083908760208201610c80803883390190505095506000945088151561237b57855160018601957f300000000000000000000000000000000000000000000000000000000000000091889190811061235e57fe5b906020010190600160f860020a031916908160001a9053506123c6565b88156123c6578551600a808b049a6001880197919006955060f860020a60308701029188919081106123a957fe5b906020010190600160f860020a031916908160001a90535061237b565b899250848351016040519080825280601f01601f1916602001820160405280156123fa578160200160208202803883390190505b509150600090505b825181101561245a57828181518110151561241957fe5b90602001015160f860020a900460f860020a02828281518110151561243a57fe5b906020010190600160f860020a031916908160001a905350600101612402565b5060005b848110156124bd578581600187030381518110151561247957fe5b90602001015160f860020a900460f860020a02828451830181518110151561249d57fe5b906020010190600160f860020a031916908160001a90535060010161245e565b5098975050505050505050565b60c0604051908101604052806000815260200160008152602001600081526020016000600160a060020a0316815260200160008152602001600081525090565b81548183558181111561252e5760008381526020902061252e91810190830161255f565b505050565b81548183558181111561252e5760060281600602836000526020600020918201910161252e919061257d565b6109d091905b808211156125795760008155600101612565565b5090565b6109d091905b808211156125795760008082556001820181905560028201819055600382018054600160a060020a03191690556004820181905560058201556006016125835600a165627a7a72305820bef8c7c13ca93f60a8fab2ed92573a33bb65a1fda7295e03d785f755e5c4ce2b0029",
  "source": "pragma solidity ^0.4.24;\n\nimport \"./DestructibleMiniMeTokenFactory.sol\";\nimport \"./Ownable.sol\";\n\n/*\n    Copyright 2018, Will Harborne @ Ethfinex\n*/\n\n/// @title ProposalManager Contract\n/// @author Will Harborne @ Ethfinex\ncontract TokenListingManagerAdvanced is Ownable {\n\n    address public constant NECTAR_TOKEN = 0xCc80C051057B774cD75067Dc48f8987C4Eb97A5e;\n    address public constant TOKEN_FACTORY = 0x6EB97237B8bc26E8057793200207bB0a2A83C347;\n    uint public constant MAX_CANDIDATES = 20;\n\n    struct TokenProposal {\n        uint startBlock;\n        uint startTime;\n        uint duration;\n        address votingToken;\n        // criteria values\n        // 0. only first one win the vote; \n        // 1. top N (number in extraData) win the vote;\n        // 2. All over N (number in extra data) votes win the vote;\n        uint criteria; \n        uint extraData;\n    }\n\n    struct Delegate {\n        address user;\n        bytes32 storageHash;\n        bool exists;\n    }\n\n    TokenProposal[] public tokenBatches;\n    Delegate[] public allDelegates;\n\n    uint[] public yesVotes;\n    address[] public consideredTokens;\n\n    DestructibleMiniMeTokenFactory public tokenFactory;\n    address public nectarToken;\n    mapping(address => bool) public admins;\n    mapping(address => bool) public allWinners;\n    mapping(address => bool) public tokenExists;\n\n    mapping(address => address[]) public myVotes;\n    mapping(address => address) public myDelegate;\n    mapping(address => bool) public isDelegate;\n\n    modifier onlyAdmins() {\n        require(isAdmin(msg.sender));\n        _;\n    }\n\n    constructor(address _tokenFactory, address _nectarToken) public {\n        tokenFactory = DestructibleMiniMeTokenFactory(_tokenFactory);\n        nectarToken = _nectarToken;\n        admins[msg.sender] = true;\n    }\n\n    /// @notice Admins are able to approve proposal that someone submitted\n    /// @param _tokens the list of tokens in consideration during this period\n    /// @param _duration number of days for voting\n    /// @param _criteria number that determines how winner is selected\n    /// @param _extraData extra data for criteria parameter\n    /// @param _previousWinners addresses that won previous proposal\n    function startTokenVotes(address[] _tokens, uint _duration, uint _criteria, uint _extraData, address[] _previousWinners) public onlyAdmins {\n        require(_tokens.length <= MAX_CANDIDATES);\n        require(_previousWinners.length <= consideredTokens.length);\n\n        for (uint i=0; i < _previousWinners.length; i++) {\n            allWinners[_previousWinners[i]] = true;\n        }\n\n        if (_criteria == 1) {\n            // in other case all tokens would be winners\n            require(_extraData < consideredTokens.length);\n        }\n\n        uint _proposalId = tokenBatches.length;\n        if (_proposalId > 0) {\n            TokenProposal memory op = tokenBatches[_proposalId - 1];\n            DestructibleMiniMeToken(op.votingToken).recycle();\n        }\n        tokenBatches.length++;\n        TokenProposal storage p = tokenBatches[_proposalId];\n        p.duration = _duration * (1 days);\n       \n        i = 0;\n        while (i < consideredTokens.length) {\n            if (allWinners[consideredTokens[i]]) {\n                consideredTokens[i] = consideredTokens[consideredTokens.length-1];\n                yesVotes[i] = yesVotes[yesVotes.length-1];\n\n                delete yesVotes[yesVotes.length-1];\n                delete consideredTokens[consideredTokens.length-1];\n                yesVotes.length--;\n                consideredTokens.length--;\n            } else {\n                yesVotes[i] = yesVotes[i] / 2;\n                i++;\n            }\n        }\n\n        for (i = 0; i < _tokens.length; i++) {\n            require(!tokenExists[_tokens[i]]);\n\n            consideredTokens.push(_tokens[i]);\n            yesVotes.push(0);\n            tokenExists[_tokens[i]] = true;\n        }\n\n        p.votingToken = tokenFactory.createDestructibleCloneToken(\n                nectarToken,\n                getBlockNumber(),\n                appendUintToString(\"EfxTokenVotes-\", _proposalId),\n                MiniMeToken(nectarToken).decimals(),\n                appendUintToString(\"EfxTokenVotes-\", _proposalId),\n                true);\n\n        p.startTime = now;\n        p.startBlock = getBlockNumber();\n        p.criteria = _criteria;\n        p.extraData = _extraData;\n\n        emit NewTokens(_proposalId);\n    }\n\n    /// @notice Vote for specific token with yes\n    /// @param _tokenIndex is the position from 0-9 in the token array of the chosen token\n    function vote(uint _tokenIndex, uint _amount) public {\n        require(myDelegate[msg.sender] == address(0));\n\n        // voting only on the most recent set of proposed tokens\n        require(tokenBatches.length > 0);\n        uint _proposalId = tokenBatches.length - 1;\n\n        TokenProposal memory p = tokenBatches[_proposalId];\n\n        require(now < p.startTime + p.duration);\n\n        uint toBurn = _amount;\n        uint balance = DestructibleMiniMeToken(p.votingToken).balanceOf(msg.sender);\n        \n        if (balance >= toBurn) {\n            DestructibleMiniMeToken(p.votingToken).destroyTokens(msg.sender, toBurn);\n            toBurn = 0;\n        } else {\n            DestructibleMiniMeToken(p.votingToken).destroyTokens(msg.sender, balance);\n            toBurn -= balance;\n        }\n        \n        for (uint i=0; i < myVotes[msg.sender].length; i++) {\n            if (toBurn == 0) {\n                break;\n            }\n\n            address user = myVotes[msg.sender][i];\n            balance = DestructibleMiniMeToken(p.votingToken).balanceOf(user);\n        \n            if (balance >= toBurn) {\n                DestructibleMiniMeToken(p.votingToken).destroyTokens(user, toBurn);\n                toBurn = 0;\n            } else {\n                DestructibleMiniMeToken(p.votingToken).destroyTokens(user, balance);\n                toBurn -= balance;\n            }\n        }\n        // if not 0 that means that user sent more to burn than he has\n        require(toBurn == 0);\n\n        yesVotes[_tokenIndex] += _amount;\n\n        emit Vote(_proposalId, msg.sender, consideredTokens[_tokenIndex], _amount);\n    }\n\n    function registerAsDelegate(bytes32 _storageHash) public {\n        if (myDelegate[msg.sender] != address(0)) {\n            address delegate = myDelegate[msg.sender];\n\n            for (uint i=0; i < myVotes[delegate].length; i++) {\n                if (myVotes[delegate][i] == msg.sender) {\n                    myVotes[delegate][i] = myVotes[delegate][myVotes[delegate].length-1];\n\n                    delete myVotes[delegate][myVotes[delegate].length-1];\n                    myVotes[delegate].length--;\n\n                    break;\n                }\n            }\n            myDelegate[msg.sender] = address(0);\n        }\n\n        isDelegate[msg.sender] = true;\n        allDelegates.push(Delegate({\n            user: msg.sender,\n            storageHash: _storageHash,\n            exists: true\n        }));\n    }\n\n    function delegateCount() public view returns(uint) {\n        return allDelegates.length;\n    }\n\n    /// @notice Delegate vote to other address\n    /// @param _to address who will be able to vote instead of you\n    function delegateVote(address _to) public {\n        require(isDelegate[_to]);\n        require(!isDelegate[msg.sender]);\n\n        if (myDelegate[msg.sender] != address(0)) {\n            address delegate = myDelegate[msg.sender];\n\n            for (uint i=0; i < myVotes[delegate].length; i++) {\n                if (myVotes[delegate][i] == msg.sender) {\n                    myVotes[delegate][i] = myVotes[delegate][myVotes[delegate].length-1];\n\n                    delete myVotes[delegate][myVotes[delegate].length-1];\n                    myVotes[delegate].length--;\n\n                    break;\n                }\n            }\n        }\n\n        myDelegate[msg.sender] = _to;\n        myVotes[_to].push(msg.sender);\n    }\n\n    function getWinners(uint _proposalId) public view returns(address[] winners) {\n        require(_proposalId < tokenBatches.length);\n\n        TokenProposal memory p = tokenBatches[_proposalId];\n\n        // there is only one winner in criteria 0\n        if (p.criteria == 0) {\n            winners = new address[](1);\n            uint max = 0;\n\n            for (uint i=0; i < consideredTokens.length; i++) {\n                if (yesVotes[i] > yesVotes[max]) {\n                    max = i;\n                }\n            }\n\n            winners[0] = consideredTokens[max];\n        }\n\n        // there is N winners in criteria 1\n        if (p.criteria == 1) {\n            uint[] memory indexesWithMostVotes = new uint[](p.extraData);\n            winners = new address[](p.extraData);\n\n            // for each token we check if he has more votes than last one,\n            // if it has we put it in array and always keep array sorted\n            for (i = 0; i < consideredTokens.length; i++) {\n                uint last = p.extraData - 1;\n                if (yesVotes[i] > yesVotes[indexesWithMostVotes[last]]) {\n                    indexesWithMostVotes[last] = i;\n\n                    for (uint j=last; j > 0; j--) {\n                        if (yesVotes[indexesWithMostVotes[j]] > yesVotes[indexesWithMostVotes[j-1]]) {\n                            uint help = indexesWithMostVotes[j];\n                            indexesWithMostVotes[j] = indexesWithMostVotes[j-1];\n                            indexesWithMostVotes[j-1] = help; \n                        }\n                    }\n                }\n            }\n\n            for (i = 0; i < p.extraData; i++) {\n                winners[i] = consideredTokens[indexesWithMostVotes[i]];\n            }\n        }\n\n        // everybody who has over N votes are winners in criteria 2\n        if (p.criteria == 2) {\n            uint numOfTokens = 0;\n            for (i = 0; i < consideredTokens.length; i++) {\n                if (yesVotes[i] > p.extraData) {\n                    numOfTokens++;\n                }\n            }\n\n            winners = new address[](numOfTokens);\n            uint count = 0;\n            for (i = 0; i < consideredTokens.length; i++) {\n                if (yesVotes[i] > p.extraData) {\n                    winners[count] = consideredTokens[i];\n                    count++;\n                }\n            }\n        }\n    }\n\n    /// @notice Get number of proposals so you can know which is the last one\n    function numberOfProposals() public view returns(uint) {\n        return tokenBatches.length;\n    }\n\n    /// @notice Any admin is able to add new admin\n    /// @param _newAdmin Address of new admin\n    function addAdmin(address _newAdmin) public onlyAdmins {\n        admins[_newAdmin] = true;\n    }\n\n    /// @notice Only owner is able to remove admin\n    /// @param _admin Address of current admin\n    function removeAdmin(address _admin) public onlyOwner {\n        admins[_admin] = false;\n    }\n\n    /// @notice Get data about specific proposal\n    /// @param _proposalId Id of proposal\n    function proposal(uint _proposalId) public view returns(\n        uint _startBlock,\n        uint _startTime,\n        uint _duration,\n        bool _active,\n        bool _finalized,\n        uint[] _votes,\n        address[] _tokens,\n        address _votingToken,\n        bool _hasBalance\n    ) {\n        require(_proposalId < tokenBatches.length);\n\n        TokenProposal memory p = tokenBatches[_proposalId];\n        _startBlock = p.startBlock;\n        _startTime = p.startTime;\n        _duration = p.duration;\n        _finalized = (_startTime+_duration < now);\n        _active = !_finalized && (p.startBlock < getBlockNumber());\n        _votes = yesVotes;\n        _tokens = consideredTokens;\n        _votingToken = p.votingToken;\n        _hasBalance = (p.votingToken == 0x0) ? false : (DestructibleMiniMeToken(p.votingToken).balanceOf(msg.sender) > 0);\n    }\n\n    function isAdmin(address _admin) public view returns(bool) {\n        return admins[_admin];\n    }\n\n    function proxyPayment(address ) public payable returns(bool) {\n        return false;\n    }\n\n    function onTransfer(address, address, uint ) public pure returns(bool) {\n        return true;\n    }\n\n    function onApprove(address, address, uint ) public pure returns(bool) {\n        return true;\n    }\n\n    function getBlockNumber() internal constant returns (uint) {\n        return block.number;\n    }\n\n    function appendUintToString(string inStr, uint v) private pure returns (string str) {\n        uint maxlength = 100;\n        bytes memory reversed = new bytes(maxlength);\n        uint i = 0;\n        if (v == 0) {\n            reversed[i++] = byte(48);\n        } else {\n            while (v != 0) {\n                uint remainder = v % 10;\n                v = v / 10;\n                reversed[i++] = byte(48 + remainder);\n            }\n        }\n        bytes memory inStrb = bytes(inStr);\n        bytes memory s = new bytes(inStrb.length + i);\n        uint j;\n        for (j = 0; j < inStrb.length; j++) {\n            s[j] = inStrb[j];\n        }\n        for (j = 0; j < i; j++) {\n            s[j + inStrb.length] = reversed[i - 1 - j];\n        }\n        str = string(s);\n    }\n\n    event Vote(uint indexed idProposal, address indexed _voter, address chosenToken, uint amount);\n    event NewTokens(uint indexed idProposal);\n}\n",
  "sourcePath": "/Users/nikolaklipa/Decenter/community-gateway/solidity/contracts/TokenListingManagerAdvanced.sol",
  "compiler": {
    "name": "solc",
    "version": "0.4.24+commit.e67f0147.Emscripten.clang"
  },
  "schemaVersion": "2.0.1",
  "updatedAt": "2018-08-31T15:17:48.700Z"
}