{
  "contractName": "Whitelist",
  "abi": [
    {
      "constant": true,
      "inputs": [
        {
          "name": "",
          "type": "address"
        }
      ],
      "name": "isAuthorisedMaker",
      "outputs": [
        {
          "name": "",
          "type": "bool"
        }
      ],
      "payable": false,
      "stateMutability": "view",
      "type": "function"
    },
    {
      "constant": true,
      "inputs": [
        {
          "name": "",
          "type": "address"
        }
      ],
      "name": "admins",
      "outputs": [
        {
          "name": "",
          "type": "bool"
        }
      ],
      "payable": false,
      "stateMutability": "view",
      "type": "function"
    },
    {
      "constant": true,
      "inputs": [
        {
          "name": "",
          "type": "address"
        }
      ],
      "name": "isOnList",
      "outputs": [
        {
          "name": "",
          "type": "bool"
        }
      ],
      "payable": false,
      "stateMutability": "view",
      "type": "function"
    },
    {
      "constant": true,
      "inputs": [],
      "name": "owner",
      "outputs": [
        {
          "name": "",
          "type": "address"
        }
      ],
      "payable": false,
      "stateMutability": "view",
      "type": "function"
    },
    {
      "constant": false,
      "inputs": [
        {
          "name": "_newOwner",
          "type": "address"
        }
      ],
      "name": "changeOwner",
      "outputs": [],
      "payable": false,
      "stateMutability": "nonpayable",
      "type": "function"
    },
    {
      "constant": true,
      "inputs": [],
      "name": "listActive",
      "outputs": [
        {
          "name": "",
          "type": "bool"
        }
      ],
      "payable": false,
      "stateMutability": "view",
      "type": "function"
    },
    {
      "inputs": [],
      "payable": false,
      "stateMutability": "nonpayable",
      "type": "constructor"
    },
    {
      "constant": true,
      "inputs": [
        {
          "name": "_user",
          "type": "address"
        }
      ],
      "name": "isRegistered",
      "outputs": [
        {
          "name": "",
          "type": "bool"
        }
      ],
      "payable": false,
      "stateMutability": "view",
      "type": "function"
    },
    {
      "constant": true,
      "inputs": [
        {
          "name": "_admin",
          "type": "address"
        }
      ],
      "name": "isAdmin",
      "outputs": [
        {
          "name": "",
          "type": "bool"
        }
      ],
      "payable": false,
      "stateMutability": "view",
      "type": "function"
    },
    {
      "constant": false,
      "inputs": [
        {
          "name": "_newAdmin",
          "type": "address"
        }
      ],
      "name": "addAdmin",
      "outputs": [],
      "payable": false,
      "stateMutability": "nonpayable",
      "type": "function"
    },
    {
      "constant": false,
      "inputs": [
        {
          "name": "_admin",
          "type": "address"
        }
      ],
      "name": "removeAdmin",
      "outputs": [],
      "payable": false,
      "stateMutability": "nonpayable",
      "type": "function"
    },
    {
      "constant": false,
      "inputs": [
        {
          "name": "newUsers",
          "type": "address[]"
        }
      ],
      "name": "register",
      "outputs": [],
      "payable": false,
      "stateMutability": "nonpayable",
      "type": "function"
    },
    {
      "constant": false,
      "inputs": [
        {
          "name": "bannedUsers",
          "type": "address[]"
        }
      ],
      "name": "deregister",
      "outputs": [],
      "payable": false,
      "stateMutability": "nonpayable",
      "type": "function"
    },
    {
      "constant": false,
      "inputs": [
        {
          "name": "maker",
          "type": "address"
        }
      ],
      "name": "authoriseMaker",
      "outputs": [],
      "payable": false,
      "stateMutability": "nonpayable",
      "type": "function"
    },
    {
      "constant": false,
      "inputs": [
        {
          "name": "maker",
          "type": "address"
        }
      ],
      "name": "deauthoriseMaker",
      "outputs": [],
      "payable": false,
      "stateMutability": "nonpayable",
      "type": "function"
    },
    {
      "constant": false,
      "inputs": [
        {
          "name": "newSetting",
          "type": "bool"
        }
      ],
      "name": "activateWhitelist",
      "outputs": [],
      "payable": false,
      "stateMutability": "nonpayable",
      "type": "function"
    },
    {
      "constant": true,
      "inputs": [
        {
          "name": "_user",
          "type": "address"
        }
      ],
      "name": "getRegistrationStatus",
      "outputs": [
        {
          "name": "",
          "type": "bool"
        }
      ],
      "payable": false,
      "stateMutability": "view",
      "type": "function"
    },
    {
      "constant": true,
      "inputs": [
        {
          "name": "_maker",
          "type": "address"
        }
      ],
      "name": "getAuthorisationStatus",
      "outputs": [
        {
          "name": "",
          "type": "bool"
        }
      ],
      "payable": false,
      "stateMutability": "view",
      "type": "function"
    },
    {
      "constant": true,
      "inputs": [],
      "name": "getOwner",
      "outputs": [
        {
          "name": "",
          "type": "address"
        }
      ],
      "payable": false,
      "stateMutability": "view",
      "type": "function"
    }
  ],
  "bytecode": "0x60806040526000805460a060020a60ff0219167401000000000000000000000000000000000000000017905534801561003757600080fd5b5060008054600160a060020a0319163390811782558152600160208190526040909120805460ff191690911790556107d8806100746000396000f3006080604052600436106100fb5763ffffffff7c01000000000000000000000000000000000000000000000000000000006000350416630a5dc24d81146101005780631785f53c1461013557806324d7806c146101585780632b8b6667146101795780632dff7a2b146101ce57806337aa7f91146101ef578063429b62e51461021057806343dc3ab2146102315780634cedfc0c1461028657806370480275146102a05780637330daac146102c1578063893d20e8146102e25780638da5cb5b14610313578063a6f9dae114610328578063a8af4ff514610349578063c3c5a5471461036a578063db25b4071461038b578063e24a1d1e146103a0575b600080fd5b34801561010c57600080fd5b50610121600160a060020a03600435166103c1565b604080519115158252519081900360200190f35b34801561014157600080fd5b50610156600160a060020a03600435166103e3565b005b34801561016457600080fd5b50610121600160a060020a036004351661041b565b34801561018557600080fd5b5060408051602060048035808201358381028086018501909652808552610156953695939460249493850192918291850190849080828437509497506104399650505050505050565b3480156101da57600080fd5b50610156600160a060020a03600435166104ae565b3480156101fb57600080fd5b50610121600160a060020a036004351661053d565b34801561021c57600080fd5b50610121600160a060020a0360043516610552565b34801561023d57600080fd5b5060408051602060048035808201358381028086018501909652808552610156953695939460249493850192918291850190849080828437509497506105679650505050505050565b34801561029257600080fd5b5061015660043515156105d8565b3480156102ac57600080fd5b50610156600160a060020a036004351661062f565b3480156102cd57600080fd5b50610121600160a060020a036004351661066d565b3480156102ee57600080fd5b506102f7610682565b60408051600160a060020a039092168252519081900360200190f35b34801561031f57600080fd5b506102f7610691565b34801561033457600080fd5b50610156600160a060020a03600435166106a0565b34801561035557600080fd5b50610121600160a060020a03600435166106e6565b34801561037657600080fd5b50610121600160a060020a0360043516610704565b34801561039757600080fd5b50610121610753565b3480156103ac57600080fd5b50610156600160a060020a0360043516610774565b600160a060020a03811660009081526003602052604090205460ff165b919050565b600054600160a060020a031633146103fa57600080fd5b600160a060020a03166000908152600160205260409020805460ff19169055565b600160a060020a031660009081526001602052604090205460ff1690565b60006104443361041b565b151561044f57600080fd5b5060005b81518110156104aa57600060026000848481518110151561047057fe5b602090810291909101810151600160a060020a03168252810191909152604001600020805460ff1916911515919091179055600101610453565b5050565b600054606090600160a060020a031633146104c857600080fd5b600160a060020a03821660009081526003602052604090819020805460ff1916600190811790915581518181528083019092528160200160208202803883390190505090508181600081518110151561051d57fe5b600160a060020a039092166020928302909101909101526104aa81610567565b60036020526000908152604090205460ff1681565b60016020526000908152604090205460ff1681565b60006105723361041b565b151561057d57600080fd5b5060005b81518110156104aa57600160026000848481518110151561059e57fe5b602090810291909101810151600160a060020a03168252810191909152604001600020805460ff1916911515919091179055600101610581565b600054600160a060020a031633146105ef57600080fd5b60008054911515740100000000000000000000000000000000000000000274ff000000000000000000000000000000000000000019909216919091179055565b600054600160a060020a0316331461064657600080fd5b600160a060020a03166000908152600160208190526040909120805460ff19169091179055565b60026020526000908152604090205460ff1681565b600054600160a060020a031690565b600054600160a060020a031681565b600054600160a060020a031633146106b757600080fd5b6000805473ffffffffffffffffffffffffffffffffffffffff1916600160a060020a0392909216919091179055565b600160a060020a031660009081526002602052604090205460ff1690565b6000805474010000000000000000000000000000000000000000900460ff161515610731575060016103de565b50600160a060020a03811660009081526002602052604090205460ff166103de565b60005474010000000000000000000000000000000000000000900460ff1681565b600054600160a060020a0316331461078b57600080fd5b600160a060020a03166000908152600360205260409020805460ff191690555600a165627a7a7230582012a8609888132a3e34453c99e1af6f626b6c4d0224310f4a76c695d0e47d23570029",
  "source": "\n/// @dev `Owned` is a base level contract that assigns an `owner` that can be\n///  later changed\ncontract Owned {\n    /// @dev `owner` is the only address that can call a function with this\n    /// modifier\n    modifier onlyOwner { require (msg.sender == owner); _; }\n\n    address public owner;\n\n    /// @notice The Constructor assigns the message sender to be `owner`\n    function Owned() public { owner = msg.sender;}\n\n    /// @notice `owner` can step down and assign some other address to this role\n    /// @param _newOwner The address of the new owner. 0x0 can be used to create\n    ///  an unowned neutral vault, however that cannot be undone\n    function changeOwner(address _newOwner) public onlyOwner {\n        owner = _newOwner;\n    }\n}\n\ncontract Whitelist is Owned {\n\n  function Whitelist() {\n    admins[msg.sender] = true;\n  }\n\n  bool public listActive = true;\n\n  // Only users who are on the whitelist\n  function isRegistered(address _user) public constant returns (bool) {\n    if (!listActive) {\n      return true;\n    } else {\n      return isOnList[_user];\n    }\n  }\n\n  // Can add people to the whitelist\n  function isAdmin(address _admin) public view returns(bool) {\n    return admins[_admin];\n  }\n\n  /// @notice The owner is able to add new admin\n  /// @param _newAdmin Address of new admin\n  function addAdmin(address _newAdmin) public onlyOwner {\n    admins[_newAdmin] = true;\n  }\n\n  /// @notice Only owner is able to remove admin\n  /// @param _admin Address of current admin\n  function removeAdmin(address _admin) public onlyOwner {\n    admins[_admin] = false;\n  }\n\n  // Only authorised sources/contracts can contribute fees on behalf of makers to earn tokens\n  modifier authorised () {\n    require(isAuthorisedMaker[msg.sender]);\n    _;\n  }\n\n  modifier onlyAdmins() {\n    require(isAdmin(msg.sender));\n    _;\n  }\n\n  // These admins are able to add new users to the whitelist\n  mapping (address => bool) public admins;\n\n  // This is the whitelist of users who are registered to be able to own the tokens\n  mapping (address => bool) public isOnList;\n\n  // This is a more select list of a few contracts or addresses which can contribute fees on behalf of makers, to generate tokens\n  mapping (address => bool) public isAuthorisedMaker;\n\n\n  /// @dev register\n  /// @param newUsers - Array of users to add to the whitelist\n  function register(address[] newUsers) public onlyAdmins {\n    for (uint i = 0; i < newUsers.length; i++) {\n      isOnList[newUsers[i]] = true;\n    }\n  }\n\n  /// @dev deregister\n  /// @param bannedUsers - Array of users to remove from the whitelist\n  function deregister(address[] bannedUsers) public onlyAdmins {\n    for (uint i = 0; i < bannedUsers.length; i++) {\n      isOnList[bannedUsers[i]] = false;\n    }\n  }\n\n  /// @dev authoriseMaker\n  /// @param maker - Source to add to authorised contributors\n  function authoriseMaker(address maker) public onlyOwner {\n      isAuthorisedMaker[maker] = true;\n      // Also add any authorised Maker to the whitelist\n      address[] memory makers = new address[](1);\n      makers[0] = maker;\n      register(makers);\n  }\n\n  /// @dev deauthoriseMaker\n  /// @param maker - Source to remove from authorised contributors\n  function deauthoriseMaker(address maker) public onlyOwner {\n      isAuthorisedMaker[maker] = false;\n  }\n\n  function activateWhitelist(bool newSetting) public onlyOwner {\n      listActive = newSetting;\n  }\n\n  /////// Getters to allow the same whitelist to be used also by other contracts (including upgraded Controllers) ///////\n\n  function getRegistrationStatus(address _user) constant external returns (bool) {\n    return isOnList[_user];\n  }\n\n  function getAuthorisationStatus(address _maker) constant external returns (bool) {\n    return isAuthorisedMaker[_maker];\n  }\n\n  function getOwner() external constant returns (address) {\n    return owner;\n  }\n\n\n}",
  "sourcePath": "/Users/nikolaklipa/Decenter/community-gateway/solidity/contracts/Whitelist.sol",
  "compiler": {
    "name": "solc",
    "version": "0.4.24+commit.e67f0147.Emscripten.clang"
  },
  "schemaVersion": "2.0.1",
  "updatedAt": "2018-08-31T15:15:45.997Z"
}